:020000040800F2
:10000000180800209D010008E73400087D22000840
:10001000E53400080F050008F15A00080000000050
:10002000000000000000000000000000EB340008A9
:100030001105000800000000E9340008ED34000854
:10004000B7010008B7010008B7010008B7010008B0
:10005000B7010008B7010008B7010008B7010008A0
:10006000B7010008B7010008B7010008B701000890
:10007000B7010008B7010008B7010008B701000880
:10008000B7010008B7010008B7010008B701000870
:10009000B7010008B7010008B7010008B701000860
:1000A000B7010008B7010008B7010008B701000850
:1000B000B7010008B7010008B7010008B701000840
:1000C000B7010008B7010008B7010008B701000830
:1000D000B7010008E55A0008B7010008B701000899
:1000E000B7010008B7010008B7010008B701000810
:1000F000B7010008B7010008B7010008B701000800
:10010000B7010008B7010008B7010008B7010008EF
:10011000B7010008B7010008B7010008B7010008DF
:10012000B7010008B7010008B7010008B7010008CF
:10013000B7010008B7010008B7010008B7010008BF
:10014000B7010008B7010008B7010008B7010008AF
:10015000B7010008B7010008B7010008B70100089F
:10016000B7010008B7010008B7010008B70100088F
:10017000B7010008B7010008B7010008000000003F
:10018000B7010008B7010008DFF80CD000F090F9C3
:10019000004800477188000818080020064880477A
:1001A00006480047FEE7FEE7FEE7FEE7FEE7FEE75C
:1001B000FEE7FEE7FEE7FEE7753500088901000867
:1001C0002DE9F05F0546002092469B46884606468C
:1001D000814640241BE0284641464746224600F01F
:1001E000F9F853465A46C01A914110D311461846A1
:1001F000224600F0E0F82D1A67EB01084F46224630
:100200000120002100F0D7F817EB00094E41201E15
:10021000A4F10104DFDC484631462A464346BDE8E6
:10022000F09F10B5431A934209D28318881803E04F
:1002300010F8011D03F8011D521EF9D210BD40EA4D
:1002400001039B0703D009E008C9121F08C0042A54
:10025000FAD203E011F8013B00F8013B521EF9D23B
:1002600010BDD2B201E000F8012B491EFBD270474D
:100270000022F6E710B513460A4604461946FFF772
:10028000F0FF204610BD2DE9FE4F81EA030404F083
:10029000004421F0004100944FF0000B23F0004394
:1002A00050EA01045ED052EA03045BD0C3F30A545F
:1002B000C1F30A552C44A4F2F3340194A0FB025478
:1002C000C1F3130141F48011C3F3130343F480130A
:1002D00001FB024400FB034E840A970A44EA81545E
:1002E00047EA8357A4FB076802958D0A05FB07853B
:1002F0004FEA932C04FB0C542705029D4FEA065845
:1003000047EA1637B5EB08056EEB070C870E920E21
:1003100047EA811742EA8312A7FB0201B6EB0B0101
:1003200064EB00042B0D43EA0C335E1844EB1C50C5
:10033000DA465146E7FB0201C5F313044FEA0B33DB
:1003400043EA14534FEA0432019C43EA0603A4F142
:100350000C040294009CCDE900B400F05AF803B0FC
:10036000BDE8F08F00200146F9E70EB540F23341B9
:1003700002910021CDE900110A460B4600F049F830
:1003800003B000BDC1F30A5210B5C1F3130140F22E
:10039000FF3341F480119A4201DA002010BD40F28F
:1003A00033439A42A2F2334203DC524200F012F885
:1003B00010BD904010BD202A04DB203A00FA02F163
:1003C000002070479140C2F1200320FA03F3194343
:1003D00090407047202A04DB203A21FA02F00021E5
:1003E000704721FA02F3D040C2F120029140084345
:1003F0001946704710B5141E73F1000408DA401C4A
:1004000041F1000192185B411A4301D120F0010033
:1004100010BD2DE9F04D92469B4611B1B1FA81F223
:1004200002E0B0FA80F220329046FFF7C4FF0446A3
:100430000F4640EA0A0041EA0B0153465A46084378
:1004400013D0114653EA010019D0C8F140025046BA
:10045000FFF7C0FF05460E46504659464246FFF795
:10046000AAFF084305D0012004E020463946BDE834
:10047000F08D0020054346EAE0762C4337430A9886
:100480006305E40AA0EB08000022FD0A44EA475491
:100490000A3002D500200146E9E70105101969413B
:1004A000DDE9084500196941BDE8F04DA2E700000B
:1004B000064C074D06E0E06840F0010394E80700B1
:1004C00098471034AC42F6D3FFF762FE14A7000839
:1004D00034A7000830B58C1810F8012B12F00F0368
:1004E00001D110F8013B120906D110F8012B03E0ED
:1004F00010F8015B01F8015B5B1EF9D101E001F826
:10050000013B521EFBD1A142E6D3002030BDFEE7E5
:100510007047704770B5B3F5804F05D06FF07041EC
:1005200040F82210002070BD50F82240084B8E8900
:100530001C40D1E9003543EA05138D6889692D0215
:1005400045EA06452B430B43234340F82230E9E7B5
:100550000000F0CFF0B50C6850F82430114A134079
:10056000D1E90125D1E903672A433E4332434E696D
:1005700032438E693243CE6932430E6A32434E6A49
:1005800032438E6A3243CE6A3243CE6B096B3243BA
:100590000A431A43082D01D142F0400240F82420BA
:1005A0000020F0BD8000F0FF30B500EB8202506803
:1005B0008D8900F04043D1E9000440EA04108C68C2
:1005C000240244EA054420430C8A074D05EB0454F9
:1005D00020430C7D6D0105EB0464896920430843C9
:1005E00018435060002030BD0000F0FF2DE9F04FAF
:1005F000DFF828B191B04FF0FF35DBF80030B3F9E8
:1006000022100691DE69B3F92490F469A189814230
:1006100006D8E289824203D3471AD4F8008012E058
:10062000D4E9018100296FD00A8882426CD84D88B4
:10063000854269D3801A82B2486800EB8200B0F923
:100640000070B0F90250781C5ED0307EA17C10FBA7
:1006500001FA217CCDE90701B3F92A60304602F0A6
:1006600079FCC0B20E90DBF8000007FB0A81A37C86
:10067000826B0127CDE90412CDE90273C069089AA3
:10068000C17E807ECDE90001DDE90603494601F027
:1006900093FE681C18D046F0020002F05BFCDBF809
:1006A0000000A37C05FB0A81826BCDE90273CDE9D2
:1006B0000412C069089AC17E807ECDE90001DDE99F
:1006C0000603494601F078FEDBF800005D46C0698C
:1006D000417E007E814214D9022E12D086F00400A1
:1006E00002F038FC2868C069027EC37E12FB0391C9
:1006F000437E857E089A06984B4412FB050202F061
:100700006FF80E9802F026FCDBF80000627C418C4A
:100710001144418411B0BDE8F08F0000400000207A
:1007200004480068C069C06909B1027C0A60407C65
:100730007047000040000020022008807047C06918
:1007400082898A4202D8C2898A4210D2806880B1E6
:1007500002888A420DD843888B420AD3406800EB56
:100760008100A0EB8200B0F90000002801DB01202D
:1007700070470020704700002DE9F043304C0346DD
:1007800087B020681946B0F92A60C069C06900F0D6
:1007900086F8002850D041680088181A01EBC0057F
:1007A0003046AF7802F0D6FB814620686A680123A4
:1007B000816BCDE90237CDE90421C169CB7E8A7E08
:1007C000CDE900230B7EB0F924102A78B0F922007D
:1007D00001F0F2FD2068C069417E027E91421FD97E
:1007E000C07E11FB00F812FB00F7022E18D000F0BB
:1007F000F3FA064600F0D8FA00F04AFC21682A789D
:10080000CB69B1F92200DB7E12FB0302B1F924109F
:1008100001EB0803394401F0E3FF304600F038FCF7
:10082000484602F097FB20686A78C369B0F9221045
:100830009B7E12FB0311418407B0BDE8F0830000EA
:100840004000002030B50F4C05460B462068294675
:10085000C069C06900F023F8002812D04168008800
:1008600024682A1A0120E46900EBC200085CA47E17
:1008700010FB04F0002B04D011F8321011FB04F12E
:10088000196030BD4000002001200880704700B58D
:10089000C06900F004F8002800D0012000BD06E087
:1008A00002888A4202D842888A4202D2806800289E
:1008B000F6D17047002801D005F0C8BD704738B5A3
:1008C0000546FFF7F7FF040009D000F093F82A4629
:1008D0000021009000F098FE684600F0A7F820463E
:1008E00038BD0000024A106021F0030050607047DC
:1008F000E002002010B5002814D004460A48406BDE
:1009000010F8341000290DD002290BD2042101EB7C
:10091000C4014158486805F051FD2046BDE810402B
:1009200007F0A2B910BD000020020020002805D069
:10093000034AD16B016001B14860D0637047000089
:10094000200200202DE9F041044607F079F82848FC
:10095000E41C24F00305016C2D1DA94200D90D46AD
:10096000C46B13E054F8042CAA420ED184B1216860
:1009700009B162684A60616809B122680A60C26BA5
:10098000A24231D12168C1632EE02468002CE9D154
:100990008046816BC0680F1857F8040C3E1A306807
:1009A00038B1002007F08EF957F8040C3E1A306871
:1009B000D0B97068A84217DB3044441B3046241D70
:1009C00007F066F9D8F80C10491BC8F80C10D8F8D5
:1009D00014102944C8F814107068401B02D0314626
:1009E00005F0ECFC44F8045C2046BDE8F081000012
:1009F000200200200549CA69521CCA61496B01EBFB
:100A0000C0010A78521C0A7000F028B820020020A9
:100A10000549102805D94A68B0EB520F02D3500897
:100A200000E0102088607047E00200200A49026858
:100A30004B6B52F8082C03EBC2021378022B03D342
:100A4000CB690BB15B1ECB611178491E117000217F
:100A5000016008467047000020020020002806D0F0
:100A60000349042202EBC000496B08580830704764
:100A70002002002010B5C2B2CBB2D21A00D5524229
:100A800093B25B43C0F30722C1F30724121B00D5C6
:100A90005242000C92B2A0EB114002FB023200B2B3
:100AA000002801DA404200B280B200FB002010BDF5
:100AB00010B50021084600F0C7F943F6FF72504216
:100AC000BDE8104013460146AFF300802DE9FC411C
:100AD00007461C4615460E46042002F03BFA8046A7
:100AE0001148C068C16C006D0F4406440D440444B5
:100AF000ADF80070ADF80450ADF80260ADF80640F6
:100B0000684605F0E5FA07E023462A4631463846AE
:100B100001F066FE05F09EFA0028F5D1404602F08D
:100B200019FABDE8FC810000340000202DE9F041F5
:100B30001C4616460D460746022B02DB0020BDE888
:100B4000F0811C20FFF7FEFE0028F8D00DB10561F2
:100B50000AE0094A52F8241009B905E011460A686A
:100B6000002AFBD10969016184618682002101604C
:100B70004160C0E90217E2E75800002070B51D4649
:100B8000FFF7D4FF040009D000F00EF8E068006819
:100B900020B90348006800EB85008465204670BDDD
:100BA00040000020FFF7C2BE70B590B38269022AF0
:100BB00030DA1E4C54F8221019B944F8220032E001
:100BC00019464B68002BFBD106E0CB68C5681B6853
:100BD0002D68AB4203DD09680029F6D11AE0C1B1E6
:100BE000CB68C6681B683668B3420CD1838A012B78
:100BF00005D008E01946DB681B68AB4203DB0B68D5
:100C0000002BF7D129B14B6833B118604A684260B4
:100C100004E0FFE7012070BD44F8220048608842EC
:100C200000D100210160002070BD000058000020AC
:100C30000A4A816952F82130834202D1036842F89E
:100C40002130416809B102680A60016809B142684F
:100C50004A60002101604160704700005800002098
:100C6000022801DB00207047054951F8200004E00C
:100C7000C16809680029F6D000680028F8D17047DB
:100C8000580000202DE9FC4706005BD000F0ACF8CE
:100C90003B4C81462068B0F9228000F0ADF8216815
:100CA00007468A8CD01B888441E000BF47F6FF715D
:100CB000304600F0C1FB82460146304600F092FB10
:100CC0002168054691F82C0000F0030001283FD070
:100CD000022839D000204A8C101A4884ADF8000050
:100CE0006A1E1044ADF80400888CADF80200A9F12A
:100CF00001010844ADF806006A465146304600F04E
:100D000019FB2168BDF8020088845146304600F086
:100D100013FA064430780A281CD00D281AD0BDF8E2
:100D20000000216828444884307818B1761C307857
:100D30000028BBD12068818C39448184818D21F0C9
:100D400003018185BDE8FC8705EBD5704010C2E743
:100D50002846C0E7206890F82C1001F00301012913
:100D60000BD0022909D0018C418431780A29DBD1CA
:100D7000828C02EB09018184D6E7A0F82280F4E797
:100D800040000020024B1B6859849A84FFF77ABF09
:100D900040000020034951F82000C1688A6A0821F8
:100DA000104700005800002010B501F049FDBDE8D3
:100DB000104001F0BBBD000002490968C9694A68DA
:100DC0000021104740000020024A1268D269526890
:100DD000104700004000002010B501F039FDBDE8CB
:100DE000104001F0A3BD000002480068C069407EC9
:100DF00070470000400000200A490020096891F86F
:100E00002C2002F00C02042A07D0082A01D00C2A58
:100E100002D1C869007E40087047C869007E401E44
:100E20007047000040000020024951F8200000698E
:100E30000068704758000020024951F820000069FE
:100E4000406870475800002070B50D4606F052FD0E
:100E50000446284606F056FD204370BD2DE9F041BA
:100E60001948016821F001010160184801258560D9
:100E70001749016000681749884200D0FEE700F07A
:100E80003FFA154E2E20307000F0A7F9134806F0F7
:100E900089FD07F0A7FC074601F00EFD10B101F037
:100EA00015FD38B901F018FD044601F00BFD21468F
:100EB00002F04AF80021084600F0FCF804F044FF74
:100EC00075703846BDE8F081002000E00030024037
:100ED000C2A507F4CDB5E8B534000020EC0200202F
:100EE00038B5040018D00D480068006EA04201D14A
:100EF00000F0ABF82046FFF77DFD0090406908B197
:100F000000F042F900980068FFF74CFE6846FFF7D2
:100F10008DFD2046FFF7EEFC38BD000040000020AC
:100F200038B5002460B1FFF765FD009000680069E6
:100F30008068804702F0BAF904466846FFF776FDFC
:100F4000204638BD38B5002808D0FFF753FD00F122
:100F5000180400906846FFF769FD204638BDF8B5D3
:100F600016460F46050012D0FFF744FD0090446975
:100F70006846FFF75BFD2846FFF7D2FF03460828C7
:100F800000DD2CB132463946284607F045F8F8BD59
:100F900032463946284607F0DFF9F8BD10B500287B
:100FA00021D009B30AB3B1F90040B2F900309C4234
:100FB00000DA23460380B1F90240B2F902309C42C4
:100FC00000DA23464380B1F90440B2F904309C4270
:100FD00000DD23468380B1F90610B2F90620914264
:100FE00000DC1146C18010BD11460A6802604968E4
:100FF000416010BD00280BD003880B440380838818
:1010000019448180418811444180C1881144C180C4
:101010007047B0F90220B1F906309A4213DCB1F9F9
:101020000220B0F906309A420DDCB0F90020B1F987
:1010300004309A4207DCB1F90010B0F90400814293
:1010400001DC012070470020704710B501F090FED0
:1010500001F0C8FFBDE8104004F04CBD70B5094D6B
:101060000446022C2868467C09D22046FFF7F8FD8A
:1010700028B128684474FFF7E8FF0348046030464D
:1010800070BD0000400000209C00002001F090BED8
:1010900001F0C6BE0149886070470000340000209E
:1010A00003490968CA6900B1C86110467047000069
:1010B00040000020094A30B41080094A1180094AD2
:1010C0001268537C084A52F82330DA68146A0A46D8
:1010D000A446014630BC1846604700006800002066
:1010E0006A000020400000205800002002480068EC
:1010F000002800D0004770472001002002498A687C
:1011000002B98860FFF7F2BF100100202DE9F0411D
:10111000084E044605683068016828468847074637
:101120003068416828468847284420603846BDE832
:10113000F0810000440000202DE9F0410C460646F5
:101140000025064F05E03868416830468847064468
:101150000544641EF7D22846BDE8F0814400002013
:101160002DE9F0411E46069C1746884605463A463C
:10117000A8687F1C3346D0F804C041462846E047A3
:10118000641EF4D1BDE8F08138B50546FFF732FCA6
:1011900000908189491E0CB284816846FFF746FCA5
:1011A000002C02D12846FFF7A5FB38BD084910B531
:1011B0004FF0D04008604FF4FA21FFF793FB8020F6
:1011C000FFF726FCBDE810400248FFF763BF0000B0
:1011D00020000020289000087047704710B5082AAA
:1011E0000EDC0346012A18D0022A56D0042A76D0F3
:1011F00010F8042B03F8012B491EF9D1012010BD72
:10120000102A08DC4FEA000230F8043B22F8023BC7
:10121000491EF9D1F2E7002010BD10F8042BD207C7
:10122000120E491E34D010F8044B491E04F001047C
:1012300042EA84122CD010F8044B491E04F0010439
:1012400042EA441224D010F8044B491E04F0010471
:1012500042EA04121CD010F8044B491E04F00104A9
:1012600042EAC40214D010F8044B491E04F00104F1
:1012700042EA84020CD010F8044B491E04F0010429
:1012800042EA440204D010F8044B04F00104224363
:1012900003F8012B0029C0D1B0E710F8042B920706
:1012A000120E491E15D010F8044B491E04F0030419
:1012B00042EA04120DD010F8044B491E04F0030456
:1012C00042EA840205D010F8044B04F003042243E0
:1012D000491E03F8012B0029DFD18FE7FFE710F843
:1012E000042B1207120E491E05D010F8044B04F00F
:1012F0000F042243491E03F8012B0029EFD17DE79B
:101300000A4810B5816900290ED101218161FFF7DA
:101310004DFF01F0A1FE054905481C310860BDE8FC
:101320001040084600F068B910BD000034000020ED
:10133000B57B00087CB5064628480D46006868B1B4
:10134000002004F0C5FE06E06A462946304605F056
:101350008FF904F07FFE0028F6D17CBD1068009064
:101360001F4C506801902268BDF8000032F84C1FF5
:101370000844ADF80000BDF8020091880844ADF8BB
:101380000200BDF8040011880844ADF80400BDF85F
:10139000060091880844ADF80600684604F098FEFF
:1013A0000EE000BF2068BDF800106A464184BDF819
:1013B000021081842946304605F05AF904F04AFEAD
:1013C0000028EFD1206830F8221F428D891A018051
:1013D0004188C28D891A41807CBD000064000020D4
:1013E0004000002073B5124A01A900981268904786
:1013F00000240090C8B10F4900250968C9694969EE
:1014000059B10A684AB1019990477CBD6846FFF717
:101410007DFE0546FFF7D0FC04440198401E019074
:10142000F4D5284600F024F8044420467CBD000092
:101430000C0100204000002073B50D4600980024E8
:1014400090B10A490968C969496959B14A684AB1FC
:10145000294690477CBD6846FFF758FE20B10A2810
:1014600002D0641CAC42F6DB20467CBD400000206C
:1014700038B5002469460094FFF7A6FC0099814224
:1014800000DD0C1A204638BDB0F90030B1F900205B
:10149000934200DA0280B0F90230B1F9022093429F
:1014A00000DA4280B0F90430B1F90420934200DD43
:1014B0008280B0F90620B1F906108A4200DDC180B1
:1014C000704770B5B1F90040B2F900309C4200DDC0
:1014D00023460380B1F90250B2F90240A54200DD73
:1014E0002C464480B1F90460B2F90450AE4200DAEF
:1014F00035468580B1F90610B2F90620914200DB2D
:101500001146C1809D4201DBA14201DA002070BD7D
:10151000012070BD014602480068407C00F002B81E
:10152000400000202DE9F8430126894604460228A0
:101530005DDA304F7A6802B190472E4D5FEA0900BC
:1015400005F1100532D0012803D0B9F1020F4ED1B8
:1015500018E055F8240088B92046FFF781FB009079
:1015600018B3C0680D21426A6846904702003ED019
:1015700049460098904755F824000026401C45F83D
:10158000240034E02046FFF76BFB009068B1C06890
:101590000D21426A68469047040028D0386800B19F
:1015A000804749460098A047002620E055F82400CF
:1015B000A846012812D12046FFF752FB009068B1DF
:1015C000C0680D21426A68469047050006D0386819
:1015D00000B1804749460098A847002658F82410D3
:1015E00009B1012200E00022891A48F8241030468F
:1015F000BDE8F883F400002002494A69426048616E
:10160000704700003400002010B502E000F8011B14
:10161000521E0AB18307F9D1930818D001EB014497
:1016200002F0030204EB042406E010C01B1F10C0EC
:1016300040F8084B40F8044C042BF6DA01E010C0E7
:101640005B1E002BFBD102E000F8011B521E002A9A
:10165000FAD110BD10B5830702D520F8021B521E27
:10166000530811D001EB0144042B09DB10C01B1FF0
:1016700010C0042B40F8084B40F8044CF6DA01E0A7
:1016800010C05B1E002BFBD1D20700D0018010BD23
:1016900010B5040002D0607910B106E0012010BD41
:1016A00000202071204600F005F801206071002024
:1016B00010BD000008B500680649884208D10648F8
:1016C000016841F480510160006800F4805000908E
:1016D00008BD0000003002403038024090F835105C
:1016E000022903D08021416501207047052180F83F
:1016F00035100068016821F0010101600020704789
:1017000070B5044600F044F90546601C02D0044858
:101710000078044400F03CF9401BA042FAD370BDAD
:1017200010000020F0B587B014216846FEF7A0FD38
:101730002048016800293AD1012101601E48002497
:10174000016841F0010101600068022500F001001C
:1017500005904FF23F00CDE9000502AA03260C27B1
:1017600082E8D0006946154800F030F841F23F4069
:10177000CDE9000502AA694682E8D000104800F0D1
:1017800025F84FF68370CDE9000502AA694682E884
:10179000D0000C4800F01AF84FF63370CDE9000580
:1017A00002AA694682E8D000074800F00FF807B0A7
:1017B000F0BD00000800002038380240001402404C
:1017C0000018024000100240000C02402DE9F84FC2
:1017D00000224FF0010803254FF00F0E0B6808FAA6
:1017E00002F42340A3426ED14E68012E05D0022E92
:1017F00003D0112E01D0122E12D186684FEA420C6E
:1018000005FA0CF7BE43CF6807FA0CF73743876039
:101810004668A6430C79C4F30014944034434460F2
:10182000C668570005FA07FC8C6826EA0C06BC401F
:101830003443C4604C68022C01D0122C13D1D4085C
:1018400000EB8404A346D4F8209054074FEAD46AEE
:101850000EFA0AF629EA06090E6906FA0AF646EAB7
:101860000906CBF8206006680C7926EA0C0604F01D
:101870000304BC40344304604C68E40065D5364C36
:10188000266846F480462660246822F0030604F4A5
:1018900080440094314C3444A446D4F80848960758
:1018A000370F0EFA07F6B4432D4EB04201D1002691
:1018B00024E02C4EB04201D101261FE02A4EB04256
:1018C00002D102261AE040E0284EB04201D10326A0
:1018D00014E0274EB04201D104260FE0254EB0425D
:1018E00001D105260AE0244EB04201D1062605E0CA
:1018F000224EB04201D1072600E00826BE40264312
:10190000CCF808681E4E34684F689C43FF0300D52E
:101910001C4334601A4C241D26684F689E43BF0345
:1019200000D51E432660164E083634684F689C4327
:10193000FF0200D51C433460114E0C3634684F68EA
:101940009C43BF0200D51C433460521C102AFFF494
:1019500045AFBDE8F88F0000443802400030014038
:10196000000002400004024000080240000C024057
:10197000001002400014024000180240001C024007
:10198000003C01400AB1816170470904FBE7000097
:1019900001488068704700001000002002488168FC
:1019A0000278114481607047100000200B4810B588
:1019B000016841F400710160016841F480610160D7
:1019C000016841F480710160032000F06FF800208D
:1019D00000F006F800F024F8002010BD003C0240A2
:1019E00070B50D4D04464FF47A712878B1FBF0F0D4
:1019F0000A490968B1FBF0F000F02FFB48B9102C40
:101A000007D200222146501E00F030F800206C6002
:101A100070BD012070BD0000100000201C000020DF
:101A20000A4808B5016841F480410160006800F48B
:101A3000804000900548001F016841F0805101601E
:101A4000006800F08050009008BD0000443802405B
:101A5000002809DB00F01F020121914040098000AD
:101A600000F1E020C0F8001170470000F0B40E4B08
:101A70001B680C46C3F30223C3F10705042D00D9EC
:101A80000425191D072901D2002300E0DB1E0126D1
:101A900006FA05F1491E214099409E40761E1640E7
:101AA0003143F0BC06F056BE0CED00E0064900F0F4
:101AB000070208684FF6FF03184040EA0220034A75
:101AC00010430860704700000CED00E00000FA05CC
:101AD0002DE9F0470E46050065D0DFF81481D8F8EF
:101AE0000000F7B200F00F00B04207D288F8007093
:101AF000D8F8000000F00F00B04254D128683D4CE7
:101B0000810712D5400703D5206840F4E0502060DB
:101B10002878000703D5206840F4604020602068E2
:101B2000A96820F0F000084320602878C0072DD075
:101B3000304968680839012812D0022813D00328D8
:101B400011D00968890700292DDA216821F00301E5
:101B500001432160FFF71CFF814641F2883A0EE005
:101B600009688903EFE709688901ECE7FFF710FFCF
:101B7000A0EB0901514502D90320BDE8F087206898
:101B8000696800F00C00B0EB810FEFD1D8F80010BD
:101B9000404601F00F01B14207D90770006800F01C
:101BA0000F00B04201D00120E7E72878400705D5B3
:101BB0002068E96820F4E050084320602878000796
:101BC00006D52068296920F4604040EAC100206001
:101BD00000F038F82168084AC1F30311515CC8408D
:101BE0000649086006480068FFF7FAFE0020C4E7CF
:101BF000003C024008380240C88800081C00002051
:101C0000140000200448054900680968044AC1F32B
:101C10008221515CC84070471C00002008380240F7
:101C2000D88800080448054900680968044AC1F3D7
:101C30004231515CC84070471C0000200838024007
:101C4000D8880008154810B5006810F00C02144838
:101C500013D04110042A0FD0082A0ED10F4C241F94
:101C60002268236802F03F025B0207D52068C0F3B8
:101C70008810A0FB010106E0084610BD2168C1F3F1
:101C80008811A1FB00010023FEF79AFA2168C1F335
:101C90000141491C4900B0FBF1F010BD0838024079
:101CA0000024F4002DE9F84F04006ED02078DFF80E
:101CB0003C93C007A9F104054AD009F1040001686A
:101CC000C1F38101012908D00068C0F38100022816
:101CD0000AD1D9F80000400206D52868800337D51C
:101CE00060680028E1D033E06068B0F5803F10D034
:101CF000B0F5A02F286810D020F480302860286824
:101D000020F4802028606068A8B1FFF741FE0646F5
:101D10000DE0286840F48030F4E740F4802028602B
:101D2000F7E700BFFFF734FE801B642873D82868EC
:101D30008003F7D50CE0FFF72BFE064605E000BF59
:101D4000FFF726FE801B6428F0D828688003F7D4AC
:101D50002078DFF89C8280074FF0000A3ED5A34828
:101D6000001D016811F00C0F08D00068C0F381005D
:101D700002280BD1D9F80000400207D42868800758
:101D800016D5E068012800D112E02BE1E068B8B177
:101D90000120C8F80000FFF7FBFD064605E000BF84
:101DA000FFF7F6FD801B0228C0D828688007F7D50A
:101DB0002868216920F0F80040EAC10028600DE0A1
:101DC000C8F800A0FFF7E4FD064604E0FFF7E0FDD9
:101DD000801B02281FD828688007F7D420780007C6
:101DE00022D5824E83486169703671B1012101604C
:101DF000FFF7CEFD074604E0FFF7CAFDC01B02282F
:101E000009D830688007F7D50EE0C0F800A0FFF7CA
:101E1000BFFD074605E082E0FFF7BAFDC01B0228C0
:101E20007DD830688007F7D42078400768D5DFF880
:101E3000BCB100270BF13C0BDBF80000C0000BD459
:101E4000DBF8001041F08051CBF80010DBF8000007
:101E5000012700F080500090674E3068C00510D414
:101E6000306840F480703060FFF792FD009005E02C
:101E7000FFF78EFD0099401A022850D83068C0053F
:101E8000F6D55A4EA0686C3601280FD00528306868
:101E900010D020F001003060306820F00400306085
:101EA000A068B8B1FFF774FD00900FE0306840F013
:101EB0000100F4E740F004003060F7E7FFF768FD49
:101EC0000099411A41F28830814266D83068800713
:101ED000F4D50EE0FFF75CFD009007E0FFF758FD3A
:101EE0000099411A41F28830814256D83068800703
:101EF000F4D42FB1DBF8001021F08051CBF80010A2
:101F0000A069C8B33949091D0968C1F381010229D3
:101F10004AD00228504607D0C8F8600000E03CE0F4
:101F2000FFF736FD04463BE04746C8F86000FFF780
:101F30002FFD064605E000BFFFF72AFD801B0228A3
:101F40002BD828688001F7D4D4E907010843A16A97
:101F50002A4A490802EB0141626A41EA82110843B8
:101F600094F82C1040EA0161C9F80010012038668D
:101F7000FFF70EFD044606E036E000BFFFF708FD60
:101F8000001B022809D828688001F7D52CE000BF83
:101F9000FFF7FEFC001B022802D90320BDE8F88FE2
:101FA00028688001F4D41FE00128F7D0D9F8000098
:101FB000E26900F48001914214D1226A00F03F01ED
:101FC00091420FD147F6C071626A0140914209D136
:101FD000A26A00F44031914204D1E16A00F07060DD
:101FE000884201D00120D9E70020D7E70438024019
:101FF00000004742800E4742007000400000FFFF93
:1020000070B515460E46040003D094F8490010B18F
:1020100007E0012070BD002084F84800204600F051
:102020001AF804F108012068FEF794FA3146A26814
:102030002068FEF7B9FAD4E901022946236BFEF7BE
:1020400069FAA168206850F8212042F0010240F8A6
:102050002120002070BDFFF765BB10B5401EB0F118
:10206000807F01D3012010BD4FF0E02460610F217B
:10207000601706F06FFB0020A061072020610020A0
:1020800010BD704770B5026804461068D168536986
:1020900010F00F0F52D003F0010501F490762E439B
:1020A0005FD0C20705D0CA0503D5E26B42F001023A
:1020B000E263420705D5DA0703D0E26B42F0020281
:1020C000E263820705D5DA0703D0E26B42F004022F
:1020D000E263020707D501F020022A4303D0E26B36
:1020E00042F00802E263E26B002A33D0800604D596
:1020F000880602D5204603F0E3FB20684069E16BC7
:10210000C0F38010090700D428B3204603F0CAFBAF
:102110002068416949061AD5416921F040014161B1
:10212000606BA0B11B490165606BFFF7D7FA00280F
:1021300010D0606B016DBDE870400847830610D574
:102140008B060ED52046BDE8704003F0B9BB204693
:10215000FFF797FF70BD2046FFF793FF0020E06375
:1021600070BD030606D50B0604D52046BDE87040B9
:1021700003F086BC4006F3D54806F1D5D168204669
:1021800021F04001D160202184F8391000F075F869
:1021900070BD00009558000870B5040004D094F894
:1021A0003900002510B106E0012070BD84F83850D8
:1021B000204600F023F8242084F839002068C16804
:1021C00021F40051C160204603F0C6FB206801697C
:1021D00021F4904101612068416921F02A014161A7
:1021E0002068C16841F40051C160E563202084F893
:1021F000390084F83A00002070BD000010B586B0A8
:10220000044614216846FEF733F8184920688842CE
:1022100029D117480021026842F0100202600068CC
:1022200000F01000059012481438026842F00102D4
:102230000260006800F0010005904FF4C06000905B
:102240000220CDE901010320039007200490694694
:102250000848FFF7BBFA002211462520FFF706FCCD
:102260002520FFF7F5FB06B010BD0000001001406F
:10227000443802400000024070477047FEE7C0F358
:102280004511C20AC00200EB4110104480B27047F1
:1022900070B50B490646002408884D882146454301
:1022A000204600F0CFFD00F0C7FEB0B24FF0D8419D
:1022B00003E000BFA1F88000641CAC42FAD370BDFB
:1022C000100200200449054A0968497C52F821108F
:1022D00009690968084700004000002058000020F4
:1022E0002DE9F04F33492C240A4688712A2592881B
:1022F0002B2645F2105B4FF4305E4FF448774FF0D9
:10230000F00949F2413A4FF4A07845F2103C4FF4FD
:10231000F07358B1A1F80080A1F80290524501D0A5
:10232000624529D10C814D818E8139E0A1F8009060
:10233000A1F80280524501D0624508D10C814D813F
:102340008E81624531D1A1F800804B802DE05A4545
:1023500008D1A1F808E04FF4285048814FF42C50E0
:10236000888106E0A2F5C85063381ED10C814E81E9
:102370008D810B804F8018E05A4508D1A1F808E004
:102380004FF4285048814FF42C50888106E0A2F584
:10239000C850633804D10C814D818E810F804B80F1
:1023A000624502D10B80A1F80280BDE8F04F002009
:1023B00000F002BC100200202DE9F04F05468DB060
:1023C0007B48DDF860901A9C00681E4617464FF067
:1023D000000A78B11B9B199ACDF808900593CDE9B6
:1023E0000324DDE91623CDE90023046833463A4689
:1023F000284680E0DDE9160201EB060805EB070C34
:102400001043A8F10108ACF1010C012806D0C9F174
:1024100008000590002002910990C6E06548026816
:10242000B2F90A30581A002806DD361A002E63DD8C
:102430001946199B00FB0344B2F90E00A8EB0000FB
:10244000002802DD361A002E56DDB2F90C00ACEB86
:102450000000002800DD3F1AB2F908300020AB422E
:1024600035DD581B3F1A4B46B9F1080F26D006DC64
:10247000012B0BD0022B11D0042B28D116E0102BEE
:102480001ED0182B1FD0202B21D11CE020F00703D9
:1024900004EBE0041D4400F0070018E020F0030303
:1024A00004EBA0041D4400F0030010E020F0010341
:1024B00004EB60041D4400F0010008E0044404E063
:1024C00004EB400401E004EB800405440020002FED
:1024D00012DD1B9BDDF864C0CDE90403CDE9006982
:1024E000CDE902C4527C34483B4650F82200C26811
:1024F00054680A462946A0470DB0BDE8F08F1799E9
:10250000029808440C902B49401E00900A68B2F9CA
:102510000A30834241DCB2F90E10029881423CDB62
:102520004FF0000BD84603950A9434E0BBF1000F3E
:1025300005D10A984FF0080B10F801AB0A900599E5
:10254000ABEB090B3AFA01F00AFA09F101F0FF0AC4
:1025500004D118490968097C890716D41549096806
:10256000C96B0A680B921B9A0AB152F820000860E6
:1025700016990398009B4218521E029900F030F9F8
:102580000C490B980968C96B08600399169808F103
:10259000010808440390B845C8DB0998401C09901D
:1025A0000C980290199804440998B042A7DBA3E75D
:1025B000640000204000002058000020F0B40C46C9
:1025C00012490968B1F90A30A3421CDCB1F90E3096
:1025D000A34218DBB1F90830834200DD1846B1F997
:1025E0000C30934200DA1A4682420CDB4B7C0849DD
:1025F00051F8235013462246E9688E680146284662
:10260000B446F0BC6047F0BC7047000040000020BA
:10261000580000200A46174930B40968B1F90A3059
:10262000934225DCB1F90E30934221DBB1F9083039
:1026300083421DDCB1F90C30834219DB0B7C0E4C5C
:10264000DB0709D0497C54F82130D968CC690146B0
:10265000A44630BC18466047CB6B497C1B6854F8D5
:102660002140E1688D6901462046AC4630BC604798
:1026700030BC704740000020580000202DE9F04396
:10268000444C91460246A08823460D464FEA112845
:10269000160A5B89A0F51341413917D0A0F5A64170
:1026A000103913D0A0F5AA41103914D02646A0F550
:1026B000C857B1793688B61A761E633F25D0A0F583
:1026C000D047043F3DD0012951D051E0184600F0D9
:1026D000A7FC30463CE0184600F0A2FC304600F073
:1026E00093FC6089401C80B200F09AFCD0B200F0EC
:1026F0008BFCA08900F094FC404600F085FCA0898A
:10270000401C80B200F08CFC2DE001B9B2B218463A
:1027100000F086FC160A304600F076FCD0B200F0DD
:1027200073FC304600F070FCD0B200F06DFCA08964
:1027300000F076FC404600F067FCE8B200F064FC74
:102740000EE0012900D1B2B2184600F069FC100A6F
:1027500000F05AFCD0B200F057FCA08900F060FCF9
:10276000404600F051FCE8B200F04EFC08E0B2B286
:102770001146184600F06AFCA089294600F066FC64
:102780004FF0D840218920F87E1FA0F80290BDE8C4
:10279000F0830000100200202DE9F0438146A2EBF7
:1027A00009020798521C1F4695B20C4686B24FF09C
:1027B000D84811E02146484600F044FB00F03CFCBC
:1027C0000020414604E000BFA1F88060401C80B2B8
:1027D000A842F9D3641CA4B2BC42EBD9BDE8F08393
:1027E00038B5134C2468B4F90850854200DD2846FA
:1027F000B4F90C50954200DA2A46824217DBB4F94C
:102800000A508D4200DD2946B4F90E509D4200DA8F
:102810002B468B420BDB0093647C064B53F8244021
:10282000E3681D6913460A4601462046A84738BD9D
:102830004000002058000020082104F0CBBF000019
:1028400002480068806B006870470000400000206C
:1028500002480068C06B006870470000400000201C
:10286000024809210068407C04F0B4BF4000002009
:10287000092104F0AFBF70B500252C462046FEF7B5
:10288000EFF900B16D1C641C022CF7DB284670BD0B
:1028900002480068407C00F003B8000040000020BF
:1028A00010B5FEF7DDF9002805D0C168CA6ABDE899
:1028B00010400221104710BD014800687047000019
:1028C00074000020012004F0C8BF000001484068E7
:1028D0007047000074000020022004F0BEBF00F02A
:1028E00001B800002DE9F041002809D0876837B110
:1028F0000D4E716819B10468B4F5807F02DD0020C7
:10290000BDE8F0813068844200DD0446002507E020
:1029100057F82500FFF7D6FC716841F825006D1CBB
:10292000A542F5DB7068EBE7800000200449054A0A
:102930000968497C52F82110096949680847000074
:10294000400000205800002010B500F01F01074A89
:10295000074BC0F34514C0F3C4201B5D105C515CF1
:1029600000EB032000EB014010BD000078A300083D
:1029700098A3000810B50A4C606860B92068800010
:10298000FDF7E0FF606040B104F108010548086010
:102990000846FEF731FE002010BD012010BD0000EA
:1029A00080000020E17B00082DE9F047FFF763FF7E
:1029B00007460024DFF860802AE02046FEF750F941
:1029C00028B3D8F8000090F8119044742046FFF71F
:1029D00033FF082817DC1148114950F8240000691A
:1029E000884210D02046FFF743FF0646002508E046
:1029F000E8B2FFF79BFF0246E9B2204600F0B0FACA
:102A00006D1CB542F4DBD8F8001081F81190641CFD
:102A1000BC42D2DBBDE8F087400000205800002017
:102A2000FCA6000808B54FF0D840B0F88000ADF81B
:102A30000000BDF8000008BDFEB50022ADF8002082
:102A4000ADF80420ADF80820464C2288824202D915
:102A500062888A4201D80020FEBD00F0F3F9A08808
:102A600049F2413241F6631745F2103545F21056EE
:102A7000904207D0A0F5D041043903D0A84201D03C
:102A8000B84201D12E2005E0B04202D14FF43850B7
:102A900000E0222000F0C4FAA088A0F513412039FC
:102AA00003D10120401EC0B2FCD2FFF7BBFFADF83E
:102AB0000000A088B8424CD00120401EC0B2FCD219
:102AC000FFF7B0FFADF80000A088904203D0A84205
:102AD00001D0B04214D10120401EC0B2FCD2FFF799
:102AE000A1FFADF80800BDF80000C0B2ADF80400C9
:102AF000BDF804004FF6FF7101EA0020ADF80400B4
:102B0000A088A0F51341253923D0A0F58A41353995
:102B10001FD0A0F58A4131391BD0A0F535410539C8
:102B200017D0A0F54541053913D0904203D0A842F3
:102B300001D0B04210D1BDF80000BDF804106FF311
:102B40000A00890A40EA4110BDF8081040EAD12085
:102B5000FEBDBDF80000FEBDBDF80000BDE8FE40B2
:102B6000FFF78DBB1002002010B50246BE2000F01A
:102B700057FA052000F048FA1046FDF7F6FB9FEDE6
:102B80000C1B53EC112BFDF77EFBFDF7FBFB80B21A
:102B900000F03AFA012000F037FAFF2000F034FA92
:102BA000002000F031FABDE81040002000F02CBAFF
:102BB0006666666666660440F0B56C4C0023214686
:102BC000A279898841F66316012A01D01AB11BE067
:102BD000B14202D118E0B14216D1082814D2DFE880
:102BE00000F00406080A0C0E101206200CE0072064
:102BF0000AE0042008E0052006E0012004E00020AF
:102C000002E0032000E00220A1F5134745F2103254
:102C100045F21055413F05D0914203D0A94201D061
:102C2000B14277D1082812D2DFE800F0110406087B
:102C30000A0C0E1080230AE0402308E0C02306E0BF
:102C4000202304E0602302E0A02300E0E023A94267
:102C500002D14FF4585000E03620914205D0A942ED
:102C600003D0B14201D043F00803194600F0EEF959
:102C7000A188B1420AD098062088628802D5904285
:102C800002D303E0904201D9228060806089A9428A
:102C900041D100F0C5F9002000F0B6F96089401C70
:102CA00080B200F0BDF9002000F0AEF96089801C10
:102CB00080B200F0B5F92088401EC0F30F2000F06C
:102CC000A3F96089C01C80B200F0AAF92078401EE8
:102CD000C0B200F099F9A08900F0A2F9002000F03C
:102CE00093F9A089401C80B200F09AF9002000F00E
:102CF0008BF9A089801C80B200F092F96088401E98
:102D0000C0F30F2000F080F9A089C01C80B200F051
:102D100087F922E028E000F083F9002000F074F940
:102D2000002000F071F92088401EC0F30F2000F051
:102D30006BF92078401EC0B200F066F9A08900F05F
:102D40006FF9002000F060F9002000F05DF9608864
:102D5000401EC0F30F2000F057F9A078BDE8F04006
:102D6000401EC0B200F050B9F0BD000010020020BB
:102D700010B50D4C0D492068407C51F8200048B139
:102D8000C16811B10968042901D00068F7E708B1EA
:102D9000FDF74EFF20680021016600F10801416146
:102DA000BDE8104000F02EB8400000205800002080
:102DB00001490968496808477C00002004490968FE
:102DC0000A7C520701D5C96B00E0896B0860704727
:102DD000400000207CB5094C05462068417C08482D
:102DE00050F82100C1680A6B6946904720686A461E
:102DF00029460830FEF765FB7CBD0000400000203E
:102E0000580000200448016804484A7C083150F802
:102E10002200C268126B10474000002058000020BA
:102E200001490968096808477C00002004490968CD
:102E30000A7C520701D5896B00E0C96B08607047B6
:102E400040000020F0B53F4A0D460446060A91882E
:102E500010462F0A4089A1F51343413B28D0A1F524
:102E6000A643103B24D0A1F5C853633B2FD0A1F556
:102E7000AA43103B64D100F0D3F8304600F0C4F808
:102E80005089401C80B200F0CBF8E0B200F0BCF8F2
:102E9000908900F0C5F8384600F0B6F89089401CDB
:102EA00080B200F0BDF8E8B2BDE8F04000F0ACB888
:102EB00000F0B6F8304600F0A7F8E0B200F0A4F851
:102EC000908900F0ADF8384600F09EF8EBE7917974
:102ED00029B300F0A5F8304600F096F8E0B200F013
:102EE00093F81088401EC0F30F2000F08DF8107882
:102EF000401EC0B200F088F8908900F091F8384682
:102F000000F082F8E8B200F07FF85088401EC0F36D
:102F10000F2000F079F89078401EC0B2C4E7118805
:102F2000091B491E8CB200F07BF8002000F06CF801
:102F3000002000F069F8200A00F066F8E0B2D9E756
:102F4000F0BD000010020020014AC2E900017047F4
:102F50007400002001490968896808477C00002046
:102F6000F8B515460E460124FDF77AFE009058B1DB
:102F7000C0681021426A68469047030004D02A4680
:102F800031460098984700242046F8BDF8B515460C
:102F90000E460124FDF764FE009058B1C0680B2175
:102FA000426A68469047030004D02A46314600989A
:102FB000984700242046F8BDF8B515460E46012472
:102FC000FDF74EFE009058B1C0680A21426A68467B
:102FD0009047030004D02A463146009898470024C1
:102FE0002046F8BD10B5074C2068006BFFF76AF962
:102FF000FFF71CFF2068406BFFF764F9BDE8104045
:10300000FFF7DCBE4000002001B5BDF80000ADF8C0
:103010000000BDF800004FF0D841A1F8800008BDC5
:1030200001B5BDF80000ADF80000BDF800004FF09C
:10303000D841A1F87E0008BD03484FF0D84100896F
:10304000A1F87E0070470000100200204FF0D84227
:1030500022F87E0F5180704710B500231A460849A8
:103060000848FDF78BFD084C002062882188FFF797
:103070008DFF62882188BDE810400020FFF79CBFCB
:103080001C890008E088000810020020012902D0F5
:103090004FF0FF3070470020704700002DE9FF4FD0
:1030A0008DB01746674ADDF870901E9E2098126812
:1030B0001D4600248AB11D9B1F98CDE90293CDE9DE
:1030C0000460DDE91A03CDE9000314682B463A4693
:1030D0000D98A04711B0BDE8F08F0D9A01EB0508DF
:1030E00002EB070CDDE91A231A43A8F10108ACF141
:1030F000010C012A06D0C9F108004FF0000B029123
:1031000005909CE0504A1268B2F90A40631A002BFD
:1031100006DDED1A002DDDDD21461D9C03FB046656
:10312000B2F90E30A8EB0303002B02DDED1A002DDF
:10313000D0DDB2F90C30ACEB0303002B00DDFF1A3D
:103140000D9B1C1AB2F90830A3420DDDA3EB040C51
:103150000CEB0003181A20F007000444A7EB0C073F
:1031600006EBE30603F00700002FB3DDDDF874C0C3
:103170001F9BCDE902C6CDE90403CDE90059527C7D
:1031800032483B4650F82200C26855680A4621463C
:10319000A8479FE71B99029808440C902A49401EB3
:1031A00000900A68B2F90A30834242DCB2F90E108C
:1031B000029881423DDB4FF0000A0D980A96D046F6
:1031C000039034E0BAF1000F05D10A984FF0080AD5
:1031D00010F8014B0A900599AAEB090A34FA01F09C
:1031E00004FA09F4E4B204D117490968097C890793
:1031F00017D415490968C96B0A680B921F9A0AB15E
:1032000052F82000086003991A98009B0A18DDE91B
:103210000210521EFFF7E4FA0B490B980968C96BBC
:10322000086003991A9808F1010808440390B8450A
:10323000C8DB0C9802901D980BF1010B0644AB45BE
:10324000A8DB47E764000020400000205800002071
:10325000002818D0410817D0810817D0C10817D00E
:10326000010917D0410917D0010A17D0410A17D018
:10327000010B15D0C10B13D0010C11D0810C11D052
:10328000000E11D0202070470120704702207047A7
:1032900003207047042070470520704708207047BE
:1032A00010207047122070471820704700B5002288
:1032B000FFF7CEFF012804D0811E062903D808227B
:1032C0000BE0012209E0A0F10901072901D8102231
:1032D00003E011380F2800D82022104600BD00005E
:1032E000074910B5054808600846FEF7D1F90028DF
:1032F00003D0BDE81040FDF70CB910BD003002400E
:10330000000000202DE9F04788B01C216846FCF73A
:10331000AFFF2A4806210024C0E902141025C0E9A5
:1033200004458461C4614FF4805A0462C0E9094ACB
:10333000C46204634463DFF8889084634FF02047DD
:103340004464C0E900790F26FF200096CDE90160B2
:103350004FF01108CDE90584CDE9036500226946E7
:103360001648FEF74DFE08B1FDF7D3F813480421C7
:1033700050300022C0E90214C0E904458461C461F0
:103380000462C0E9094AC462046344638463446418
:10339000C0E90079CDE9004602A9072081E83101A2
:1033A0000648694650300694FEF72AFE002801D0F0
:1033B000FDF7AFF808B0BDE8F0870000300100204D
:1033C000040100A02DE9F04186B014216846FCF705
:1033D0004FFF3348016841F004010160016801F0CA
:1033E00004010591016841F020010160016801F0CC
:1033F00020010591016841F080010160016801F040
:1034000080010591016841F040010160016801F00F
:1034100040010591016841F010010160016801F06F
:1034200010010591016841F002010160016801F09D
:1034300002010591016841F008010160016801F095
:1034400008010591016841F0010101600068154F14
:1034500000F001004FF4C064059001222146384677
:10346000FEF790FADFF840804FF400460022314624
:103470004046FEF787FA0094012402256946384643
:103480000194CDE90245FEF7A1F9CDE90064694652
:103490004046CDE90245FEF799F906B0BDE8F08156
:1034A0003038024000140240000402400C4810B5BD
:1034B0000A4901604FF4E1314160002181600C2232
:1034C000C160C0E904128161C161FEF765FE002898
:1034D00003D0BDE81040FDF71CB810BD001001403E
:1034E000D0010020FEE7704770477047FEF756BADC
:1034F00030B593B030216846FCF7BAFE14210CA811
:10350000FCF7B6FE19480025016841F080510160C2
:10351000006800F0805011901548016841F4804126
:1035200001600068022400F48040119001200090A6
:10353000000401908001CDE9064008AA0420A821DA
:1035400082E813000B906846FEF7ACFB0CA90F2035
:1035500081E831004FF4A0500F90E0021090052157
:103560000CA8FEF7B5FA13B030BD00004038024099
:10357000007000400548016841F470010160034992
:103580004FF00060803908607047000088ED00E06F
:103590002DE9F05F3220FEF7B3F8D320FFF740FDAE
:1035A000FFF740FAFE4CA080FFF73CFAA080FFF73F
:1035B00039FA4FF6FF7909EA0020A080FFF732FAC6
:1035C000A18849F241360843A08045F2103745F200
:1035D000105541F66318B04247D0D420FFF720FDC4
:1035E000FFF720FAA080FFF71DFAA080FFF71AFA74
:1035F00009EA00204A46A080FFF714FAA188084390
:10360000A080B84231D04FF45A40FFF709FDFFF7D0
:1036100009FAA0804FF45B40FFF702FDFFF702FAC2
:1036200002EA0020A0804FF45C40FFF7F9FCFFF7AE
:10363000F9F9A1880843A080B0F5004F7DD0A842D9
:1036400013D0A120FFF7ECFCFFF7ECF9A080FFF707
:10365000E9F902EA0020A080FFF7E4F9A188084315
:10366000A0F5AE41A080613968D080B2B04266D189
:10367000CF20FFF7D5FC0020FFF7C6FCC120FFF7E5
:10368000C3FC3020FFF7C0FCED20FFF7C9FC64202D
:10369000FFF7BAFC0320FFF7B7FC1220FFF7B4FCDA
:1036A0008120FFF7B1FCE820FFF7BAFC8520FFF787
:1036B000ABFC1020FFF7A8FC7A20FFF7A5FCCB207D
:1036C000FFF7AEFC3920FFF79FFC2C20FFF79CFC96
:1036D0000020FFF799FC3420FFF796FC0220FFF74B
:1036E00093FCF720FFF79CFC2020FFF78DFCEA20DD
:1036F000FFF796FC0020FFF787FC0020FFF784FC13
:10370000C020FFF78DFC1B20FFF77EFCC120FFF7D8
:1037100087FC0120FFF778FCC520FFF781FC3020F3
:10372000FFF772FC3020FFF76FFCC720FFF778FC33
:10373000B720FFF769FC362002E0B5E0B0E0B5E065
:10374000FFF76EFC4820FFF75FFC3A20FFF768FCAC
:103750005520FFF759FCB120FFF762FC0020FFF76E
:1037600053FC1A20FFF750FCB620FFF759FC0A2043
:10377000FFF74AFCA220FFF747FCF220FFF750FCBE
:103780000020FFF741FC2620FFF74AFC0120FFF74D
:103790003BFCE020FFF744FC0F20FFF735FC2A201C
:1037A000FFF732FC2820FFF72FFC0820FFF72CFC46
:1037B0000E20FFF729FC0820FFF726FC5420FFF716
:1037C00023FCA920FFF720FC4320FFF71DFC0A2063
:1037D000FFF71AFC0F20FFF717FC0020FFF714FC7F
:1037E0000020FFF711FC0020FFF70EFC0020FFF780
:1037F0000BFCE120FFF714FC0020FFF705FC15206F
:10380000FFF702FC1720FFF7FFFB0720FFF7FCFB89
:103810001120FFF7F9FB0620FFF7F6FB2B20FFF73F
:10382000F3FB5620FFF7F0FB3C20FFF7EDFB0520F4
:10383000FFF7EAFB1020FFF7E7FB0F20FFF7E4FBA1
:103840003F20FFF7E1FB3F20FFF7DEFB0F20FFF7F4
:10385000DBFB2B20FFF7E4FB0020FFF7D5FB00206C
:10386000FFF7D2FB0120FFF7CFFB3F20FFF7CCFB98
:103870002A20FFF7D5FB0020FFF7C6FB0020FFF74B
:10388000C3FB0020FFF7C0FBEF20FFF7BDFB1120BB
:10389000FFF7C6FB7820FDF733FF292001F009BFB1
:1038A000A4F8048001F00ABFA580FDE3B84276D1F8
:1038B000ED20FFF7B5FB0120FFF7A6FBFE20FFF789
:1038C000A3FBEE20FFF7ACFBDE20FFF79DFB2120E2
:1038D000FFF79AFBF120FFF7A3FB0120FFF794FB12
:1038E000DF20FFF79DFB1020FFF78EFBC420FFF7C2
:1038F00097FB8F20FFF788FBC620FFF791FB002086
:10390000FFF782FBE220FFF77FFBE220FFF77CFB63
:10391000E220FFF779FBBF20FFF782FBAA20FFF729
:1039200073FBB020FFF77CFB0D20FFF76DFB002041
:10393000FFF76AFB0D20FFF767FB0020FFF764FB32
:103940001120FFF761FB0020FFF75EFB1920FFF756
:103950005BFB0020FFF758FB2120FFF755FB002001
:10396000FFF752FB2D20FFF74FFB0020FFF74CFB2A
:103970003D20FFF749FB0020FFF746FB5D20FFF7E6
:1039800043FB0020FFF740FB5D20FFF73DFB0020DD
:10399000FFF73AFBB120FFF743FB802002E0FDE395
:1039A00010020020FFF730FB0020FFF72DFB8B20DB
:1039B000FFF72AFB0020FFF727FB9620FFF724FBE9
:1039C0000020FFF721FBB220FFF72AFB0020FFF7C2
:1039D0001BFB0020FFF718FB0220FFF715FB002060
:1039E000FFF712FB0320FFF70FFB0020FFF70CFB94
:1039F000B320FFF715FB0020FFF706FB0020FFF7C1
:103A000003FB0020FFF700FB0020FFF7FDFA00207A
:103A1000FFF7FAFA0020FFF7F7FA0020FFF7F4FAB1
:103A20000020FFF7F1FA0020FFF7EEFA0020FFF781
:103A3000EBFA0020FFF7E8FA0020FFF7E5FA002094
:103A4000FFF7E2FA0020FFF7DFFA0020FFF7DCFAC9
:103A50000020FFF7D9FA0020FFF7D6FA0020FFF781
:103A6000D3FA0020FFF7D0FA0020FFF7CDFA0020AC
:103A7000FFF7CAFA0020FFF7C7FA0020FFF7C4FAE1
:103A80000020FFF7C1FAB420FFF7CAFA8B20FFF736
:103A9000BBFA0020FFF7B8FA9620FFF7B5FA00202E
:103AA000FFF7B2FAA120FFF7AFFA0020FFF7ACFA58
:103AB000B520FFF7B5FA0220FFF7A6FA0020FFF7BE
:103AC000A3FA0320FFF7A0FA0020FFF79DFA0420D5
:103AD000FFF79AFA0020FFF797FAB620FFF7A0FA4F
:103AE0000020FFF791FA0020FFF78EFAB720FFF7CA
:103AF00097FA0020FFF788FA0020FFF785FA3F20A9
:103B0000FFF782FA0020FFF77FFA5E20FFF77CFACA
:103B10000020FFF779FA6420FFF776FA0020FFF71C
:103B200073FA8C20FFF770FA0020FFF76DFAAC20D3
:103B3000FFF76AFA0020FFF767FADC20FFF764FA64
:103B40000020FFF761FA7020FFF75EFA0020FFF710
:103B50005BFA9020FFF758FA0020FFF755FAEB20A8
:103B6000FFF752FA0020FFF74FFADC20FFF74CFA7C
:103B70000020FFF749FAB820FFF752FA0020FFF7BC
:103B800043FA0020FFF740FA0020FFF73DFA00203B
:103B9000FFF73AFA0020FFF737FA0020FFF734FA70
:103BA0000020FFF731FA0020FFF72EFABA20FFF7C6
:103BB00037FA2420FFF728FA0020FFF725FA002023
:103BC000FFF722FA0020FFF71FFAC120FFF728FABB
:103BD0002020FFF719FA0020FFF716FA5420FFF70C
:103BE00013FA0020FFF710FAFF20FFF70DFA00206C
:103BF000FFF70AFAC220FFF713FA0A20FFF704FAC8
:103C00000020FFF701FA0420FFF7FEF90020FFF77C
:103C1000FBF9C320FFF704FA3C20FFF7F5F9002079
:103C2000FFF7F2F93A20FFF7EFF90020FFF7ECF980
:103C30003920FFF7E9F90020FFF7E6F93720FFF711
:103C4000E3F90020FFF7E0F93C20FFF7DDF9002061
:103C5000FFF7DAF93620FFF7D7F90020FFF7D4F99C
:103C60003220FFF7D1F90020FFF7CEF92F20FFF720
:103C7000CBF90020FFF7C8F92C20FFF7C5F9002089
:103C8000FFF7C2F92920FFF7BFF90020FFF7BCF9C1
:103C90002620FFF7B9F90020FFF7B6F92420FFF737
:103CA000B3F90020FFF7B0F92420FFF7ADF90020A9
:103CB000FFF7AAF92320FFF7A7F90020FFF7A4F9DF
:103CC0003C20FFF7A1F90020FFF79EF93620FFF70F
:103CD0009BF90020FFF798F93220FFF795F90020B3
:103CE000FFF792F92F20FFF78FF90020FFF78CF9EB
:103CF0002C20FFF789F90020FFF786F92920FFF72C
:103D000083F90020FFF780F92620FFF77DF90020D6
:103D1000FFF77AF92420FFF777F90020FFF774F90D
:103D20002420FFF771F90020FFF76EF92320FFF739
:103D30006BF90020FFF768F9C420FFF771F96220E2
:103D4000FFF762F90020FFF75FF90520FFF75CF944
:103D50000020FFF759F98420FFF756F90020FFF7FC
:103D600053F9F020FFF750F90020FFF74DF9182024
:103D7000FFF74AF90020FFF747F9A420FFF744F9BD
:103D80000020FFF741F91820FFF73EF90020FFF768
:103D90003BF95020FFF738F90020FFF735F90C20E8
:103DA000FFF732F90020FFF72FF91720FFF72CF962
:103DB0000020FFF729F99520FFF726F90020FFF7EB
:103DC00023F9F320FFF720F90020FFF71DF9E62083
:103DD000FFF71AF90020FFF717F9C520FFF720F9C0
:103DE0003220FFF711F90020FFF70EF94420FFF70A
:103DF0000BF90020FFF708F96520FFF705F900200F
:103E0000FFF702F97620FFF7FFF80020FFF7FCF834
:103E10008820FFF7F9F80020FFF7F6F8C620FFF733
:103E2000FFF82020FFF7F0F80020FFF7EDF817204B
:103E3000FFF7EAF80020FFF7E7F80120FFF7E4F8C2
:103E40000020FFF7E1F8C720FFF7EAF80020FFF7AE
:103E5000DBF80020FFF7D8F80020FFF7D5F80020A6
:103E6000FFF7D2F8C820FFF7DBF80020FFF7CCF807
:103E70000020FFF7C9F80020FFF7C6F80020FFF781
:103E8000C3F8C920FFF7CCF80020FFF7BDF80020E9
:103E9000FFF7BAF80020FFF7B7F80020FFF7B4F8F3
:103EA0000020FFF7B1F80020FFF7AEF80020FFF781
:103EB000ABF80020FFF7A8F80020FFF7A5F80020D6
:103EC000FFF7A2F80020FFF79FF80020FFF79CF80B
:103ED0000020FFF799F80020FFF796F80020FFF781
:103EE00093F80020FFF790F8E020FFF799F81620EC
:103EF000FFF78AF80020FFF787F81C20FFF784F807
:103F00000020FFF781F82120FFF77EF80020FFF75F
:103F10007BF83620FFF778F80020FFF775F8462089
:103F2000FFF772F80020FFF76FF85220FFF76CF8E8
:103F30000020FFF769F86420FFF766F80020FFF71C
:103F400063F87A20FFF760F80020FFF75DF88B2018
:103F5000FFF75AF80020FFF757F89920FFF754F8B9
:103F60000020FFF751F8A820FFF74EF80020FFF7D8
:103F70004BF8B920FFF748F80020FFF745F8C420B8
:103F8000FFF742F80020FFF73FF8CA20FFF73CF8A0
:103F90000020FFF739F8D220FFF736F80020FFF7AE
:103FA00033F8D920FFF730F80020FFF72DF8E02094
:103FB000FFF72AF80020FFF727F8F320FFF724F88F
:103FC0000020FFF721F8E120FFF72AF81620FFF77D
:103FD0001BF80020FFF718F81C20FFF715F8002049
:103FE000FFF712F82220FFF70FF80020FFF70CF878
:103FF0003620FFF709F80020FFF706F84520FFF705
:1040000003F80020FFF700F85220FEF7FDFF002024
:10401000FEF7FAFF6420FEF7F7FF0020FEF7F4FF3B
:104020007A20FEF7F1FF0020FEF7EEFF8B20FEF76F
:10403000EBFF0020FEF7E8FF9920FEF7E5FF0020E8
:10404000FEF7E2FFA820FEF7DFFF0020FEF7DCFF0F
:10405000B920FEF7D9FF0020FEF7D6FFC420FEF7F7
:10406000D3FF0020FEF7D0FFCA20FEF7CDFF0020CF
:10407000FEF7CAFFD220FEF7C7FF0020FEF7C4FFFD
:10408000D820FEF7C1FF0020FEF7BEFFE020FEF7BC
:10409000BBFF0020FEF7B8FFF320FEF7B5FF0020BE
:1040A000FEF7B2FFE22000E082E3FEF7B9FF052051
:1040B000FEF7AAFF0020FEF7A7FF0B20FEF7A4FFE4
:1040C0000020FEF7A1FF1B20FEF79EFF0020FEF759
:1040D0009BFF3420FEF798FF0020FEF795FF442059
:1040E000FEF792FF0020FEF78FFF4F20FEF78CFFB8
:1040F0000020FEF789FF6120FEF786FF0020FEF713
:1041000083FF7920FEF780FF0020FEF77DFF8820E7
:10411000FEF77AFF0020FEF777FF9720FEF774FF87
:104120000020FEF771FFA620FEF76EFF0020FEF7CD
:104130006BFFB720FEF768FF0020FEF765FFC22087
:10414000FEF762FF0020FEF75FFFC720FEF75CFF6F
:104150000020FEF759FFD120FEF756FF0020FEF7A2
:1041600053FFD620FEF750FF0020FEF74DFFDD2065
:10417000FEF74AFF0020FEF747FFF320FEF744FF5B
:104180000020FEF741FFE320FEF74AFF0520FEF77F
:104190003BFF0020FEF738FF0A2000E006E3FEF7B1
:1041A00033FF0020FEF730FF1C20FEF72DFF00201C
:1041B000FEF72AFF3320FEF727FF0020FEF724FF3B
:1041C0004420FEF721FF0020FEF71EFF5020FEF7DF
:1041D0001BFF0020FEF718FF6220FEF715FF0020EE
:1041E000FEF712FF7820FEF70FFF0020FEF70CFF0E
:1041F0008820FEF709FF0020FEF706FF9720FEF754
:1042000003FF0020FEF700FFA620FEF7FDFE0020C2
:10421000FEF7FAFEB720FEF7F7FE0020FEF7F4FEE9
:10422000C220FEF7F1FE0020FEF7EEFEC720FEF7EB
:10423000EBFE0020FEF7E8FED120FEF7E5FE0020B1
:10424000FEF7E2FED520FEF7DFFE0020FEF7DCFEE3
:10425000DD20FEF7D9FE0020FEF7D6FEF320FEF7A4
:10426000D3FE0020FEF7D0FEE420FEF7D9FE0120A9
:10427000FEF7CAFE0020FEF7C7FE0120FEF7C4FECF
:104280000020FEF7C1FE0220FEF7BEFE0020FEF772
:10429000BBFE2A20FEF7B8FE0020FEF7B5FE3C204C
:1042A000FEF7B2FE0020FEF7AFFE4B20FEF7ACFE9D
:1042B0000020FEF7A9FE5D20FEF7A6FE0020FEF717
:1042C000A3FE7420FEF7A0FE0020FEF79DFE8420D2
:1042D000FEF79AFE0020FEF797FE9320FEF794FE6D
:1042E0000020FEF791FEA220FEF78EFE0020FEF7D2
:1042F0008BFEB320FEF788FE0020FEF785FEBE2071
:10430000FEF782FE0020FEF77FFEC420FEF77CFE53
:104310000020FEF779FECD20FEF776FE0020FEF7A6
:1043200073FED320FEF770FE0020FEF76DFEDD2049
:10433000FEF76AFE0020FEF767FEF320FEF764FE3C
:104340000020FEF761FEE520FEF76AFE0020FEF782
:104350005BFE0020FEF758FE0020FEF755FE002011
:10436000FEF752FE0220FEF74FFE0020FEF74CFE45
:104370002920FEF749FE0020FEF746FE3C20FEF70E
:1043800043FE0020FEF740FE4B20FEF73DFE0020DE
:10439000FEF73AFE5D20FEF737FE0020FEF734FE02
:1043A0007420FEF731FE0020FEF72EFE8420FEF77B
:1043B0002BFE0020FEF728FE9320FEF725FE0020AE
:1043C000FEF722FEA220FEF71FFE0020FEF71CFED5
:1043D000B320FEF719FE0020FEF716FEBE20FEF702
:1043E00013FE0020FEF710FEC420FEF70DFE002095
:1043F000FEF70AFECD20FEF707FE0020FEF704FEC2
:10440000D320FEF701FE0020FEF7FEFDDC20FEF7C4
:10441000FBFD0020FEF7F8FDF320FEF7F5FD002080
:10442000FEF7F2FDE620FEF7FBFD1120FEF7ECFDA6
:104430000020FEF7E9FD3420FEF7E6FD0020FEF740
:10444000E3FD5620FEF7E0FD0020FEF7DDFD7620BF
:10445000FEF7DAFD0020FEF7D7FD7720FEF7D4FD4A
:104460000020FEF7D1FD6620FEF7CEFD0020FEF70E
:10447000CBFD8820FEF7C8FD0020FEF7C5FD992082
:10448000FEF7C2FD0020FEF7BFFDBB20FEF7BCFD1E
:104490000020FEF7B9FD9920FEF7B6FD0020FEF7DB
:1044A000B3FD6620FEF7B0FD0020FEF7ADFD552000
:1044B000FEF7AAFD0020FEF7A7FD5520FEF7A4FD9C
:1044C0000020FEF7A1FD4520FEF79EFD0020FEF72F
:1044D0009BFD4320FEF798FD0020FEF795FD44204C
:1044E000FEF792FD0020FEF78FFDE720FEF798FD16
:1044F0003220FEF789FD0020FEF786FD5520FEF7ED
:1045000083FD0020FEF780FD7620FEF77DFD002074
:10451000FEF77AFD6620FEF777FD0020FEF774FDBA
:104520006720FEF771FD0020FEF76EFD6720FEF7A5
:104530006BFD0020FEF768FD8720FEF765FD00207B
:10454000FEF762FD9920FEF75FFD0020FEF75CFD9F
:10455000BB20FEF759FD0020FEF756FD9920FEF71F
:1045600053FD0020FEF750FD7720FEF74DFD0020A3
:10457000FEF74AFD4420FEF747FD0020FEF744FD0C
:104580005620FEF741FD0020FEF73EFD2320FEF7FA
:104590003BFD0020FEF738FD3320FEF735FD0020FF
:1045A000FEF732FD4520FEF72FFD0020FEF72CFD23
:1045B000E820FEF735FD0020FEF726FD0020FEF77F
:1045C00023FD9920FEF720FD0020FEF71DFD87202A
:1045D000FEF71AFD0020FEF717FD8820FEF714FDF8
:1045E0000020FEF711FD7720FEF70EFD0020FEF7FC
:1045F0000BFD6620FEF708FD0020FEF705FD882074
:10460000FEF702FD0020FEF7FFFCAA20FEF7FCFCEF
:104610000020FEF7F9FCBB20FEF7F6FC0020FEF7B9
:10462000F3FC9920FEF7F0FC0020FEF7EDFC66207D
:10463000FEF7EAFC0020FEF7E7FC5520FEF7E4FC5D
:104640000020FEF7E1FC5520FEF7DEFC0020FEF71F
:10465000DBFC4420FEF7D8FC0020FEF7D5FC44200C
:10466000FEF7D2FC0020FEF7CFFC5520FEF7CCFC75
:104670000020FEF7C9FCE920FEF7D2FCAA20FEF7D5
:10468000C3FC0020FEF7C0FC0020FEF7BDFC0020AC
:10469000FEF7BAFC0020FEF7C3FCAA20FEF7B4FC2C
:1046A000CF20FEF7BDFC0020FEF7AEFC0020FEF799
:1046B000ABFC0020FEF7A8FC0020FEF7A5FC0020C4
:1046C000FEF7A2FC0020FEF79FFC0020FEF79CFCFA
:1046D0000020FEF799FC0020FEF796FC0020FEF774
:1046E00093FC0020FEF790FC0020FEF78DFC0020DC
:1046F000FEF78AFC0020FEF787FC0020FEF784FC12
:104700000020FEF781FC0020FEF77EFCF020FEF783
:1047100087FC0020FEF778FC5020FEF775FC002097
:10472000FEF772FC0020FEF76FFC0020FEF76CFC29
:10473000F320FEF775FC0020FEF766FCF920FEF77B
:104740006FFC0620FEF760FC1020FEF75DFC2920C0
:10475000FEF75AFC0020FEF757FC3A20FEF760FCFB
:104760005520FEF751FC1120FEF75AFC6420FCF79F
:10477000C7FF2920FEF754FC3520FEF751FC00202E
:10478000FEF742FC5120FEF74BFCFF20FEF73CFCFD
:104790005320FEF745FC2C20FEF736FC5520FEF793
:1047A0003FFC8220FEF730FC2C20FCE3A8427CD1A9
:1047B0004FF4704355211846FEF748FC4FF2010AAA
:1047C000AA215046FEF742FC4FF2020B52215846F6
:1047D000FEF73CFC08214FF20300FEF737FC0121F5
:1047E0004FF20400FEF732FC0D214FF43040FEF78B
:1047F0002DFC0D214BF20100FEF728FC0D214BF2A0
:104800000200FEF723FC34214FF43640FEF71EFC75
:1048100034214BF20160FEF719FC34214BF20260A7
:10482000FEF714FC0D214FF43140FEF70FFC0D2173
:104830004BF20110FEF70AFC0D214BF20210FEF7BD
:1048400005FC34214FF43740FEF700FC34214BF2D5
:104850000170FEF7FBFB34214BF20270FEF7F6FB12
:1048600000214FF43240FEF7F1FB00214BF2012012
:10487000FEF7ECFB00214BF20220FEF7E7FB2421C0
:104880004FF43840FEF7E2FB24214BF60100FEF71F
:10489000DDFB24214BF60200FEF7D8FB01214FF48B
:1048A0003F40FEF7D3FB0F2100E0FDE34FF4334020
:1048B000FEF7CCFB0F214BF20130FEF7C7FB0F21B7
:1048C0004BF20230FEF7C2FB34214FF43940FEF7C1
:1048D000BDFB34214BF60110FEF7B8FB34214BF63B
:1048E0000210FEF7B3FB08214FF43540FEF7AEFB94
:1048F00008214BF20150FEF7A9FB08214BF20250B0
:10490000FEF7A4FB03214FF44240FEF79FFB242156
:104910004FF43A40FEF79AFB24214BF60120FEF7B4
:1049200095FB24214BF60220FEF790FB00214FF46B
:104930003C40FEF78BFB78214BF60140FEF786FBEF
:1049400000214BF60240FEF781FB00214FF43D4071
:10495000FEF77CFB78214BF60150FEF777FB002138
:104960004BF60250FEF772FB00214FF43E40FEF77B
:104970006DFB64214BF60160FEF768FB00214FF4EC
:104980005140FEF763FB33214DF20110FEF75EFB51
:1049900000214DF20210FEF759FB34214DF20310B5
:1049A000FEF754FB00214DF20410FEF74FFB3A21B5
:1049B0004DF20510FEF74AFB00214DF20610FEF7FE
:1049C00045FB4A214DF20710FEF740FB00214DF256
:1049D0000810FEF73BFB5C214DF20910FEF736FB99
:1049E00000214DF20A10FEF731FB81214DF20B1030
:1049F000FEF72CFB00214DF20C10FEF727FBA62141
:104A00004DF20D10FEF722FB00214DF20E10FEF7C5
:104A10001DFBE5214DF20F10FEF718FB01214DF2B1
:104A20001010FEF713FB13214DF21110FEF70EFBD1
:104A300001214DF21210FEF709FB54214DF2131023
:104A4000FEF704FB01214DF21410FEF7FFFA82215C
:104A50004DF21510FEF7FAFA01214DF21610FEF78D
:104A6000F5FACA214DF21710FEF7F0FA02214DF2C5
:104A70001810FEF7EBFA00214DF21910FEF7E6FAD6
:104A800002214DF21A10FEF7E1FA01214DF21B103E
:104A9000FEF7DCFA02214DF21C10FEF7D7FA3421A2
:104AA0004DF21D10FEF7D2FA02214DF21E10FEF754
:104AB000CDFA67214DF21F10FEF7C8FA02214DF220
:104AC0002010FEF7C3FA84214DF22110FEF7BEFA42
:104AD00002214DF22210FEF7B9FAA4214DF2231063
:104AE000FEF7B4FA02214DF22410FEF7AFFAB72117
:104AF0004DF22510FEF7AAFA02214DF22610FEF71C
:104B0000A5FACF214DF22710FEF7A0FA02214DF2AF
:104B10002810FEF79BFADE214DF22910FEF796FAD7
:104B200002214DF22A10FEF791FAF2214DF22B10DC
:104B3000FEF78CFA02214DF22C10FEF787FAFE21C7
:104B40004DF22D10FEF782FA03214DF22E10FEF7E2
:104B50007DFA10214DF22F10FEF778FA03214DF265
:104B60003010FEF773FA33214DF23110FEF76EFA72
:104B700003214DF23210FEF769FA6D214DF2331028
:104B8000FEF764FA00214FF45240FEF75FFA33213A
:104B90004DF20120FEF75AFA00214DF20220FEF7F5
:104BA00055FA34214DF20320FEF750FA00214DF260
:104BB0000420FEF74BFA3A214DF20520FEF746FAA3
:104BC00000214DF20620FEF741FA4A214DF207205E
:104BD000FEF73CFA00214DF20820FEF737FA5C217F
:104BE0004DF20920FEF732FA00214DF20A20FEF7BD
:104BF0002DFA81214DF20B20FEF728FA00214DF20B
:104C00000C20FEF723FAA6214DF20D20FEF71EFA26
:104C100000214DF20E20FEF719FAE5214DF20F208A
:104C2000FEF714FA01214DF21020FEF70FFA1321BE
:104C30004DF21120FEF70AFA01214DF21220FEF783
:104C400005FA54214DF21320FEF700FA01214DF22E
:104C50001420FEF7FBF982214DF21520FEF7F6F93C
:104C600001214DF21620FEF7F1F9CA214DF217206D
:104C7000FEF7ECF902214DF21820FEF7E7F90021CA
:104C80004DF21920FEF7E2F902214DF21A20FEF74B
:104C9000DDF901214DF21B20FEF7D8F902214DF27A
:104CA0001C20FEF7D3F934214DF21D20FEF7CEF97A
:104CB00002214DF21E20FEF7C9F967214DF21F2097
:104CC000FEF7C4F902214DF22020FEF7BFF984213E
:104CD0004DF22120FEF7BAF902214DF22220FEF713
:104CE000B5F9A4214DF22320FEF7B0F902214DF2CF
:104CF0002420FEF7ABF9B7214DF22520FEF7A6F9E7
:104D000002214DF22620FEF7A1F9CF214DF22720F6
:104D1000FEF79CF902214DF22820FEF797F9DE21DB
:104D20004DF22920FEF792F902214DF22A20FEF7DA
:104D30008DF9F2214DF22B20FEF788F902214DF278
:104D40002C20FEF783F9FE214DF22D20FEF77EF98F
:104D500003214DF22E20FEF779F910214DF22F207C
:104D6000FEF774F903214DF23020FEF76FF933217D
:104D70004DF23120FEF76AF903214DF23220FEF7A1
:104D800065F96D214DF23320FEF760F900214FF4F3
:104D90005340FEF75BF933214DF20130FEF756F92F
:104DA00000214DF20230FEF751F934214DF203306B
:104DB000FEF74CF900214DF20430FEF747F93A2195
:104DC0004DF20530FEF742F900214DF20630FEF7B4
:104DD0003DF94A214DF20730FEF738F900214DF236
:104DE0000830FEF733F95C214DF20930FEF72EF959
:104DF00000214DF20A30FEF729F981214DF20B30E6
:104E0000FEF724F900214DF20C30FEF71FF9A62120
:104E10004DF20D30FEF71AF900214DF20E30FEF77B
:104E200015F9E5214DF20F30FEF710F901214DF291
:104E30001030FEF70BF913214DF21130FEF706F991
:104E400001214DF21230FEF701F954214DF21330D9
:104E5000FEF7FCF801214DF21430FEF7F7F882213D
:104E60004DF21530FEF7F2F801214DF21630FEF743
:104E7000EDF8CA214DF21730FEF7E8F802214DF2A5
:104E80001830FEF7E3F800214DF21930FEF7DEF896
:104E900002214DF21A30FEF7D9F801214DF21B30F4
:104EA000FEF7D4F802214DF21C30FEF7CFF8342182
:104EB0004DF21D30FEF7CAF802214DF21E30FEF70A
:104EC000C5F867214DF21F30FEF7C0F802214DF200
:104ED0002030FEF7BBF884214DF22130FEF7B6F802
:104EE00002214DF22230FEF7B1F8A4214DF2233019
:104EF000FEF7ACF802214DF22430FEF7A7F8B721F7
:104F00004DF22530FEF7A2F802214DF22630FEF7D1
:104F10009DF8CF214DF22730FEF798F802214DF28F
:104F20002830FEF793F8DE214DF22930FEF78EF897
:104F300002214DF22A30FEF789F8F2214DF22B3092
:104F4000FEF784F802214DF22C30FEF77FF8FE21A7
:104F50004DF22D30FEF77AF803214DF22E30FEF798
:104F600075F810214DF22F30FEF770F803214DF245
:104F70003030FEF76BF833214DF23130FEF766F832
:104F800003214DF23230FEF761F86D214DF23330DE
:104F9000FEF75CF800214FF45440FEF757F8332138
:104FA0004DF2014000E084E3FEF750F800214DF29D
:104FB0000240FEF74BF834214DF20340FEF746F86D
:104FC00000214DF20440FEF741F83A214DF2054030
:104FD000FEF73CF800214DF20640FEF737F84A2173
:104FE0004DF20740FEF732F800214DF20840FEF77F
:104FF0002DF85C214DF20940FEF728F800214DF212
:105000000A40FEF723F881214DF20B40FEF71EF80F
:1050100000214DF20C40FEF719F8A6214DF20D408B
:10502000FEF714F800214DF20E40FEF70FF8E521CF
:105030004DF20F40FEF70AF801214DF21040FEF745
:1050400005F813214DF21140FEF700F801214DF251
:105050001240FDF7FBFF54214DF21340FDF7F6FF20
:1050600001214DF21440FDF7F1FF82214DF2154070
:10507000FDF7ECFF01214DF21640FDF7E7FFCA21D5
:105080004DF21740FDF7E2FF02214DF21840FDF707
:10509000DDFF00214DF21940FDF7D8FF02214DF24E
:1050A0001A40FDF7D3FF00E006E301214DF21B405B
:1050B000FDF7CCFF02214DF21C40FDF7C7FF342164
:1050C0004DF21D40FDF7C2FF02214DF21E40FDF7DB
:1050D000BDFF67214DF21F40FDF7B8FF02214DF2E1
:1050E0002040FDF7B3FF84214DF22140FDF7AEFFD4
:1050F00002214DF22240FDF7A9FFA4214DF22340E9
:10510000FDF7A4FF02214DF22440FDF79FFFB721D8
:105110004DF22540FDF79AFF02214DF22640FDF7A2
:1051200095FFCF214DF22740FDF790FF02214DF270
:105130002840FDF78BFFDE214DF22940FDF786FF69
:1051400002214DF22A40FDF781FFF2214DF22B4062
:10515000FDF77CFF02214DF22C40FDF777FFFE2189
:105160004DF22D40FDF772FF03214DF22E40FDF769
:105170006DFF10214DF22F40FDF768FF03214DF226
:105180003040FDF763FF33214DF23140FDF75EFF04
:1051900003214DF23240FDF759FF6D214DF23340AE
:1051A000FDF754FF00214FF45540FDF74FFF332129
:1051B0004DF20150FDF74AFF00214DF20250FDF77C
:1051C00045FF34214DF20350FDF740FF00214DF221
:1051D0000450FDF73BFF3A214DF20550FDF736FF35
:1051E00000214DF20650FDF731FF4A214DF20750E4
:1051F000FDF72CFF00214DF20850FDF727FF5C2141
:105200004DF20950FDF722FF00214DF20A50FDF743
:105210001DFF81214DF20B50FDF718FF00214DF2CB
:105220000C50FDF713FFA6214DF20D50FDF70EFFB8
:1052300000214DF20E50FDF709FFE5214DF20F5010
:10524000FDF704FF01214DF21050FDF7FFFE132181
:105250004DF21150FDF7FAFE01214DF21250FDF70B
:10526000F5FE54214DF21350FDF7F0FE01214DF2F1
:105270001450FDF7EBFE82214DF21550FDF7E6FECE
:1052800001214DF21650FDF7E1FECA214DF21750F3
:10529000FDF7DCFE02214DF21850FDF7D7FE00218C
:1052A0004DF21950FDF7D2FE02214DF21A50FDF7D2
:1052B000CDFE01214DF21B50FDF7C8FE02214DF23B
:1052C0001C50FDF7C3FE34214DF21D50FDF7BEFE0C
:1052D00002214DF21E50FDF7B9FE67214DF21F501D
:1052E000FDF7B4FE02214DF22050FDF7AFFE842100
:1052F0004DF22150FDF7AAFE02214DF22250FDF79A
:10530000A5FEA4214DF22350FDF7A0FE02214DF28F
:105310002450FDF79BFEB7214DF22550FDF796FE78
:1053200002214DF22650FDF791FECF214DF227507C
:10533000FDF78CFE02214DF22850FDF787FEDE219D
:105340004DF22950FDF782FE02214DF22A50FDF761
:105350007DFEF2214DF22B50FDF778FE02214DF239
:105360002C50FDF773FEFE214DF22D50FDF76EFE21
:1053700003214DF22E50FDF769FE10214DF22F5002
:10538000FDF764FE03214DF23050FDF75FFE33213F
:105390004DF23150FDF75AFE03214DF23250FDF728
:1053A00055FE6D214DF23350FDF750FE00214FF4B4
:1053B0005640FDF74BFE33214DF20160FDF746FEEE
:1053C00000214DF20260FDF741FE34214DF20360F1
:1053D000FDF73CFE00214DF20460FDF737FE3A2157
:1053E0004DF20560FDF732FE00214DF20660FDF73B
:1053F0002DFE4A214DF20760FDF728FE00214DF2F7
:105400000860FDF723FE5C214DF20960FDF71EFEEA
:1054100000214DF20A60FDF719FE81214DF20B606B
:10542000FDF714FE00214DF20C60FDF70FFEA621E2
:105430004DF20D60FDF70AFE00214DF20E60FDF702
:1054400005FEE5214DF20F60FDF700FE01214DF252
:105450001060FDF7FBFD13214DF21160FDF7F6FD25
:1054600001214DF21260FDF7F1FD54214DF2136060
:10547000FDF7ECFD01214DF21460FDF7E7FD8221FF
:105480004DF21560FDF7E2FD01214DF21660FDF7CA
:10549000DDFDCA214DF21760FDF7D8FD02214DF266
:1054A0001860FDF7D3FD00214DF21960FDF7CEFD28
:1054B00002214DF21A60FDF7C9FD01214DF21B607A
:1054C000FDF7C4FD02214DF21C60FDF7BFFD342144
:1054D0004DF21D60FDF7BAFD02214DF21E60FDF791
:1054E000B5FD67214DF21F60FDF7B0FD02214DF2C1
:1054F0002060FDF7ABFD84214DF22160FDF7A6FD94
:1055000002214DF22260FDF7A1FDA4214DF223609E
:10551000FDF79CFD02214DF22460FDF797FDB721B8
:105520004DF22560FDF792FD02214DF22660FDF758
:105530008DFDCF214DF22760FDF788FD02214DF250
:105540002860FDF783FDDE214DF22960FDF77EFD29
:1055500002214DF22A60FDF779FDF2214DF22B6018
:10556000FDF774FD02214DF22C60FDF76FFDFE2169
:105570004DF22D60FDF76AFD03214DF22E60FDF71F
:1055800065FD10214DF22F60FDF760FD03214DF206
:105590003060FDF75BFD33214DF23160FDF756FDC4
:1055A00003214DF23260FDF751FD6D214DF2336064
:1055B000FDF74CFD55211846FDF748FDAA21504640
:1055C000FDF744FD52215846FDF740FD08214FF2FA
:1055D0000300FDF73BFD00214FF20400FDF736FD0F
:1055E000CC214FF43140FDF731FD00214BF2011089
:1055F000FDF72CFD05214FF43640FDF727FD702106
:105600004FF43740FDF722FD70214BF20170FDF79A
:105610001DFD01214FF43840FDF718FD03214BF625
:105620000100FDF713FD03214BF60200FDF70EFD0F
:1056300003214BF60300FDF709FD02214FF43C4026
:10564000FDF704FD00214BF60140FDF7FFFC0021B2
:105650004BF60240FDF7FAFCD0214FF44940FDF72C
:10566000F5FC02214CF60110FDF7F0FC50214CF640
:105670000210FDF7EBFC50214CF60310FDF7E6FCA1
:1056800050214CF60410FDF7E1FC00214FF454507A
:10569000FDF7DCFC55214FF46850FDF7D7FC4FF4C3
:1056A0008850FDF7BDFC7720401EC0B2FCD24FF4FD
:1056B0002450FDF7B5FCBAE04045FCD1E220FDF7EF
:1056C000AFFC1D20FDF7A0FC0220FDF79DFC04208F
:1056D000FDF79AFC6320401EC0B2FCD2E020FDF72B
:1056E0009FFC0120FDF790FC0A20FCF709F8E02060
:1056F000FDF796FC0320FDF787FC0C20FCF700F873
:105700000120FDF78DFC0A20FBF7FAFFE620FDF7EC
:1057100087FC2F20FDF778FCFF20FDF775FCFF20AC
:10572000FDF772FCB020FDF77BFC2020FDF76CFC40
:105730000020FDF769FC0320FDF766FC40F21F30F6
:10574000FDF762FC0120FDF75FFC40F2DF10FDF782
:105750005BFC0020FDF758FCB420FDF761FC042041
:10576000FDF752FC40F21F40FDF74EFC0020FDF714
:105770004BFC2E20FDF748FC0020FDF745FC0020E7
:10578000FDF742FC0020FDF73FFC0020FDF73CFC4C
:10579000B620FDF745FC0220FDF736FC4FF4037000
:1057A000FDF732FC0020FDF72FFC1720FDF72CFC45
:1057B0001520FDF729FC0020FDF726FC0020FDF751
:1057C00023FCF020FDF72CFC0320FDF71DFC292015
:1057D000FDF726FCD020FDF723FC0020FDF714FC8C
:1057E000BE20FDF71DFC0520FDF70EFCFE20FDF799
:1057F0000BFC0120FDF708FC0020FDF705FC002054
:10580000FDF702FC0020FDF7FFFBB820FDF708FCC8
:105810000320FDF7F9FB0120FDF7F6FBBA20FDF7A9
:10582000FFFB0120FDF7F0FB6420FDF79DF9A08848
:10583000B04205D0B84203D0A84201D0404519D1AA
:105840004FF02040D0F81C1121F00F01C0F81C11BE
:10585000D0F81C1121F47061C0F81C11D0F81C1193
:1058600041F00301C0F81C11D0F81C1141F4007183
:10587000C0F81C110020FCF733FD0548016841F415
:10588000004101604846BDE8F05FFCF701BD000043
:105890001404024010B5806B0021C185C184FCF75F
:1058A000F0FB10BD0168CA6822F49072CA600168FA
:1058B0004A6922F001024A61202180F83A107047BB
:1058C00010B590F83A10222901D0022010BD81684D
:1058D000B1F5805F11D00169002901681FD04968C6
:1058E00001F07F03816A4A1C82620B70C18D491EE0
:1058F0000904090CC18518D02BE00269816A002ACD
:105900000268526805D0D2B20A80816A491C81625D
:10591000ECE7C2F308020A80816A891CF7E74A684B
:10592000816A4B1C83620A70E0E70168CA6822F052
:105930002002CA600168CA6822F48072CA600168E5
:105940004A6922F001024A61202180F83A10FCF7EE
:1059500093FC002010BD00002DE9F04104460068D2
:105960000169E26821F44051114301612169A06895
:10597000E26908436169114308432168CA6849F232
:105980000C639A430243CA6020684169A26921F40A
:10599000407111434161E069192764253226B0F551
:1059A000004F354A354920684FF0000806D088423C
:1059B00001D0904236D1FCF735F935E0884201D06C
:1059C000904202D1FCF72EF901E0FCF71BF9616867
:1059D0004A18A0FB070148EB0803FAF7F1FB014660
:1059E000B0FBF5F00201B1FBF5F06FF0180358437E
:1059F00001EB800006EBC000B0FBF5F000F0F80012
:105A000002EB4002B1FBF5F0584301EB800006EBDE
:105A1000C000B0FBF5F000F007002168104488607A
:105A2000BDE8F081FCF7EEF861688B0F8A00A0FBFF
:105A30000701FAF7C5FB0146B0FBF5F06FF018025D
:105A4000504301EB800006EB0010B0FBF5F000F0D6
:105A5000F002B1FBF5F002EB0012B1FBF5F06FF0D4
:105A60001803584301EB800006EB0010B0FBF5F083
:105A700000F00F00D1E700000014014000100140C9
:105A800090F83910212901D0022070478168B1F5C2
:105A9000805F016A0BD04A1C02620268097851607B
:105AA000C18C491E0904090CC1840ED017E0098875
:105AB0000268C1F30801516001690029016A02D03E
:105AC000491C0162ECE7891CFBE70168CA6822F007
:105AD0008002CA600068C16841F04001C1600020D6
