:020000040800F2
:10000000980500209D0100082F2E00089D1F000864
:100010002D2E000825080008B56400080000000027
:100020000000000000000000000000002B3100086C
:10003000410B000800000000293100082D310008A4
:10004000B7010008B7010008B7010008B7010008B0
:10005000B7010008B7010008B7010008B7010008A0
:10006000B7010008B7010008B7010008B701000890
:10007000B7010008B7010008B7010008B701000880
:10008000B7010008B7010008B7010008B701000870
:10009000B7010008B7010008B7010008B701000860
:1000A000B7010008B7010008B7010008B701000850
:1000B000B7010008B7010008B7010008B701000840
:1000C000B7010008B7010008B7010008B701000830
:1000D000B7010008A9640008B7010008B7010008CB
:1000E000B7010008B7010008B7010008B701000810
:1000F000B7010008B7010008B7010008B701000800
:10010000B7010008B7010008B7010008B7010008EF
:10011000B7010008B7010008B7010008B7010008DF
:10012000B7010008B7010008B7010008B7010008CF
:10013000B7010008B7010008B7010008B7010008BF
:10014000B7010008B7010008B7010008B7010008AF
:10015000B7010008B7010008B7010008B70100089F
:10016000B7010008B7010008B7010008B70100088F
:10017000B7010008B7010008B7010008000000003F
:10018000B7010008B7010008DFF80CD000F0CCFA86
:10019000004800473168000898050020064880475D
:1001A00006480047FEE7FEE7FEE7FEE7FEE7FEE75C
:1001B000FEE7FEE7FEE7FEE7B5310008890100082B
:1001C0002DE9F05F0546002092469B46884606468C
:1001D000814640241BE0284641464746224600F01F
:1001E000D2F953465A46C01A914110D311461846C7
:1001F000224600F0B9F92D1A67EB01084F46224656
:100200000120002100F0B0F917EB00094E41201E3B
:10021000A4F10104DFDC484631462A464346BDE8E6
:10022000F09FD2B201E000F8012B491EFBD27047CB
:100230000022F6E710B513460A4604461946FFF7B2
:10024000F0FF204610BD10B5002200E0521C835C78
:100250008C5CA34201D1002BF8D1D8B2E1B2401A94
:1002600010BD2DE9FE4F804681EA0300C00F0C4609
:10027000009021F0004123F00045B8EB0200A941B5
:1002800005D24046214690461C460B46024623F0C6
:100290000040104347D0270DC7F30A00C3F30A51AB
:1002A0000290401A019040286BDAC3F3130040F427
:1002B000801B0098924620B10023D2EB030A63EB27
:1002C0000B0B01985946C0F14002504600F04CF922
:1002D00006460D4650465946019A00F064F910EB67
:1002E00008006141002487EA115284EAE7731A4347
:1002F00040D0009A62B3019A012A4FEA075215DCF6
:10030000001B61EB02014FF0004202EA0752CDE907
:100310000042001C41F5801132462B4600F064F982
:1003200003B0BDE8F08F40462146F9E7001B61EBC2
:100330000201001C41F5801300185B412018A2F552
:10034000001747EB030140EAD570B6196D4111E083
:100350006D084FEA360645EAC0754FEA0752001BA2
:1003600061EB0201001C41F5801149084FEA3000A1
:100370000019514132462B4603B0BDE8F04F00F062
:1003800024B90098012240000023D0EB020263EB65
:10039000E073009821464FEAE074B8EB000061EB8F
:1003A0000401E9E783F000435BE781F0004158E78F
:1003B0002DE9FE4F81EA030404F0004421F00041DE
:1003C00000944FF0000B23F0004350EA01045ED08C
:1003D00052EA03045BD0C3F30A54C1F30A552C4418
:1003E000A4F2F3340194A0FB0254C1F3130141F4CD
:1003F0008011C3F3130343F4801301FB024400FB99
:10040000034E840A970A44EA815447EA8357A4FBBF
:10041000076802958D0A05FB07854FEA932C04FBBC
:100420000C542705029D4FEA065847EA1637B5EBEC
:1004300008056EEB070C870E920E47EA811742EA19
:100440008312A7FB0201B6EB0B0164EB00042B0D3A
:1004500043EA0C335E1844EB1C50DA465146E7FB86
:100460000201C5F313044FEA0B3343EA14534FEA76
:100470000432019C43EA0603A4F10C040294009C9C
:10048000CDE900B400F0B0F803B0BDE8F08F002073
:100490000146F9E70EB540F2334102910021CDE962
:1004A00000110A460B4600F09FF803B000BDC1F3EF
:1004B0000A5210B5C1F3130140F2FF3341F4801129
:1004C0009A4201DA002010BD40F233439A42A2F270
:1004D000334203DC524200F056F810BD904010BD8C
:1004E00000F0004230F000400AD0C10D01F560710B
:1004F000C0F3160042EA0151C20840071143704799
:10050000002001467047000030B5041E71F1000460
:1005100004DB4FF00044404264EB0101141E73F110
:10052000000405DB1C464FF00043524263EB04031A
:100530008B4208BF824230BD30B5041E71F1000409
:1005400004DB4FF00044404264EB0101141E73F1E0
:10055000000405DB1C464FF00043524263EB0403EA
:10056000994208BF904230BD202A04DB203A00FAAD
:1005700002F1002070479140C2F1200320FA03F3FA
:10058000194390407047202A04DB203A21FA02F0F8
:100590000021704721FA02F3D040C2F120029140BD
:1005A000084319467047202A06DBCB17203A41FA48
:1005B00002F043EAE07306E041FA02F3D040C2F1F0
:1005C0002002914008431946704710B5141E73F17C
:1005D000000408DA401C41F1000192185B411A4303
:1005E00001D120F0010010BD2DE9F04D92469B464F
:1005F00011B1B1FA81F202E0B0FA80F220329046F5
:10060000FFF7B2FF04460F4640EA0A0041EA0B0139
:1006100053465A46084313D0114653EA010019D0F5
:10062000C8F140025046FFF7AEFF05460E46504661
:1006300059464246FFF798FF084305D0012004E0E1
:1006400020463946BDE8F08D0020054346EAE076B5
:100650002C4337430A986305E40AA0EB0800002204
:10066000FD0A44EA47540A3002D500200146E9E772
:10067000010510196941DDE9084500196941BDE826
:10068000F04DA2E72DE9F04D00231A461B1A8A41CE
:1006900003DB00200146BDE8F08DC1F30A52C1F32F
:1006A000130141F480154FF0000BD10702D100185F
:1006B0006D41521E0027044640F2FF11384601EBFF
:1006C000620A3E468046024600204FF48011FFF742
:1006D0005AFFC2197141BB1846EB0100B4EB030C81
:1006E00075EB000C04D3E41A65EB000517460E46C3
:1006F000241908F101006D4180463428E3DDF91921
:1007000046EB0600091BA84103D24FF0FF32134607
:1007100001E0002213461BEB070046EB0A51BDE83F
:10072000F04DFFF752BF0000064C074D06E0E068B1
:1007300040F0010394E8070098471034AC42F6D328
:10074000FFF726FDF4B1000814B2000801F052BC16
:100750002DE9F0410D460146002004464E1908E0FF
:100760000702301B401E80B200F007F8641C3844BA
:10077000E4B2AC42F4D3BDE8F08110B5044601F018
:1007800007FD200AA02101EB4000C0B201F0BEFC31
:1007900001F052FDE0B201F0B9FC01F04DFD01F0B5
:1007A000F7FCA12001F0B2FC01F046FD002001F0B1
:1007B00073FC044601F016FD204610BD2DE9F04102
:1007C00016460D460746002409E0E00025FA00F031
:1007D000C1B2381980B200F006F8641CE4B2B44229
:1007E000F3D3BDE8F08170B50D46044601F0D0FCAE
:1007F000200AA02101EB4000C0B201F087FC01F00B
:100800001BFDE0B201F082FC01F016FD284601F06C
:100810007DFC01F011FD01F0E5FCBDE870400A200F
:1008200005F01ABFFEE7000070B5144D002201214B
:10083000284600F095FE124C206820F4400020600D
:10084000206840F480002060022005F017FF00229D
:10085000E114204600F084FE022005F00FFF012283
:100860001146284600F07CFE022005F007FF2846CE
:10087000BDE870400022012100F072BE0004024079
:1008800000140240114810B5016886B041F0020121
:100890000160016801F002010591016841F0200149
:1008A00001600068012400F020000094059001948C
:1008B00069460294064800F06BFDE002CDE90004B1
:1008C0006946044800F064FD06B010BD30380240AF
:1008D000000402400014024070B5144D00220121B2
:1008E000284600F03DFE124C206820F440002060B5
:1008F000206840F480002060022005F0BFFE012245
:10090000D102204600F02CFE022005F0B7FE0122A5
:100910001146284600F024FE022005F0AFFE2846CE
:10092000BDE870400022012100F01ABE0004024020
:10093000001402402DE9F041804619480024016866
:1009400021F440010160016801601E2005F096FE5F
:10095000134F0025134E103700220121304600F0BE
:10096000FFFD022005F08AFE01221146304600F00C
:10097000F7FD6006040E3868000501D5641CE4B27A
:100980006D1CEDB2082DE7D3B8F1000F04D0FFF7CE
:100990004BFF2046BDE8F081FFF79EFFF9E700001E
:1009A00000140240000402402DE9F041204C0646AC
:1009B000206820F440002060206840F4800020601F
:1009C0001C4F00220121384600F0CAFD022005F02C
:1009D00055FE00254FF40068300601D5012200E0E5
:1009E00000224146204600F0BBFD022005F046FEF5
:1009F00001221146384600F0B3FD022005F03EFE0C
:100A000000220121384600F0ABFD072D04D1012260
:100A10004146204600F0A4FD7006060E022005F0B7
:100A20002DFE6D1CEDB2082DD6D3BDE8F08100007F
:100A3000001402400004024070B5134C206820F4FA
:100A400040002060206840F4800020600122D50230
:100A50002946204600F084FD0C4E01221146304606
:100A600000F07EFD1E2005F009FE002229462046EA
:100A700000F076FD022005F001FE3046BDE8704032
:100A80000022012100F06CBD00140240000402406D
:100A900070B5104C206820F440002060206840F4BD
:100AA00080002060012211460B4800F059FD1E20F5
:100AB00005F0E4FDE51400222946204600F050FD33
:100AC000022005F0DBFD29462046BDE870400122EA
:100AD00000F046BD001402400004024070B5164804
:100AE0000024016821F440010160016801600122D5
:100AF000C11400F035FD114E01221146304600F0C0
:100B00002FFD022005F0BAFD0B4D10350AE0641CE4
:100B1000E4B2FA2C03D9FFF7BBFF012070BD02201D
:100B200005F0ACFD28680005F1D400220121304613
:100B300000F016FD002070BD0014024000040240C9
:100B40007047704770B5B3F5804F05D06FF07041B6
:100B500040F82210002070BD50F82240084B8E89CA
:100B60001C40D1E9003543EA05138D6889692D02DF
:100B700045EA06452B430B43234340F82230E9E77F
:100B80000000F0CFF0B50C6850F82430114A134043
:100B9000D1E90125D1E903672A433E4332434E6937
:100BA00032438E693243CE6932430E6A32434E6A13
:100BB00032438E6A3243CE6A3243CE6B096B324384
:100BC0000A431A43082D01D142F0400240F8242084
:100BD0000020F0BD8000F0FF30B500EB82025068CD
:100BE0008D8900F04043D1E9000440EA04108C688C
:100BF000240244EA054420430C8A074D05EB0454C3
:100C000020430C7D6D0105EB046489692043084392
:100C100018435060002030BD0000F0FF70B532482E
:100C200088B00024016841F002010160016801F010
:100C300002010691016841F004010160006801258C
:100C400000F0040006900220CDE90104CDE9035034
:100C500001A9264800F09CFB6E03CDE90165244DF7
:100C600001A9284600F094FBFFF70CFE0022314654
:100C7000284600F075FC142005F0EEFC01223146F8
:100C8000284600F06DFC322005F0E6FC8DF80040AF
:100C900001226946002000F0F9F801226946A420EB
:100CA00000F0F4F816208DF800000122694680203B
:100CB00000F0ECF80C208DF8000001226946882035
:100CC00000F0E4F802226946A12000F013F89DF834
:100CD0000000302803D19DF80100032802D0012034
:100CE00008B070BD0020FBE730380240000402402D
:100CF000000802402DE9F04115460E460446FFF774
:100D00009BFE7020FFF750FEFFF7E8FEE0B2FFF712
:100D10004BFEFFF7E3FEFFF78FFE7120FFF744FE67
:100D2000FFF7DCFE00246F1E09E0BC4201D0012069
:100D300000E00020FFF7FEFD3055641CE4B2AC4239
:100D4000F3D3BDE8F041FFF7A3BE00002DE9F14762
:100D50004B4E00244FF00A0A307881B0401CC0B2DC
:100D6000B0FBFAF20AFB1201DFF818812746307057
:100D700009B10A2867D2012201A90220FFF7BAFFB0
:100D80009DF8040001075ED000F00F0106295AD239
:100D9000FF208840C04340F0C000454688F820004E
:100DA00001274FF0000900BF95F8200007FA04F171
:100DB00008423BD034480422694630F81400FFF75B
:100DC00099FF95F830009DF80010C0079DF80100CC
:100DD00001F00F010ED000EB012105EB4400C182B0
:100DE0009DF802209DF8031002F00F0201EB022192
:100DF00081810FE000EB0120C0F5F07105EB4400AC
:100E000081819DF802209DF8031002F00F0201EB92
:100E10000221C1829DF800000821B1EB101F05D00E
:100E200005EB4400A0F81690A0F80C90641CE4B206
:100E3000052CB9D3A889012718B9E88A08B98DF813
:100E4000049086F800909DF80400C00610D198F830
:100E50002000010602D520F0800007E04FF6FF7168
:100E6000A8F80C10A8F8161000F0E00088F8200090
:100E70003078F02801D986F800A03846BDE8FC8714
:100E8000290000203000002060B100082DE9F04169
:100E900016460F4604460025FFF7CEFD7020FFF7EB
:100EA00083FDFFF71BFEE0B2FFF77EFDFFF716FEA6
:100EB000002408E0385DFFF777FDFFF70FFE05001F
:100EC00003D1641CE4B2B442F4D3FFF7E1FD284639
:100ED000BDE8F0812DE9F0433A4889B0002401686B
:100EE00041F002010160016801F00201079101680F
:100EF00041F0040101600068022500F00400079041
:100F00000126CDE90054DFF8C090CDE902656946BD
:100F1000484600F03DFA2F03DFF8B080CDE90076B7
:100F20006946404600F034FAFFF7ACFC002239462F
:100F3000404600F015FB0A2005F08EFB01223946E1
:100F4000404600F00DFB0A2005F086FB0095CDE938
:100F500001646946484600F01BFA642005F07CFBFA
:100F6000042205A948F2401000F036F88DF8184028
:100F700017A105A8FFF767F918B1012009B0BDE86E
:100F8000F0838DF8145048F24005012205A9284647
:100F900000F038F9012205A9E81D00F01DF89DF8C0
:100FA0001400602802D2012000F004F90A2005F0A4
:100FB00053FB8DF81440012205A9284600F022F9C0
:100FC0000020DBE730380240000402400008024005
:100FD00039313437000000002DE9F04115460E4646
:100FE0000446FFF729FD2820FFF7DEFCFFF776FD1A
:100FF000200AFFF7D9FCFFF771FDE0B2FFF7D4FC40
:10100000FFF76CFDFFF718FD2920FFF7CDFCFFF778
:1010100065FD00246F1E09E0BC4201D0012000E004
:101020000020FFF787FC3055641CE4B2AC42F3D3D8
:10103000BDE8F041FFF72CBD2DE9F147594E0024E2
:101040004FF00A0A307885B0401CC0B2B0FBFAF20B
:101050000AFB1201544DA046307009B10A2878D21B
:1010600048F24E19012205A94846FFF7B5FF9DF841
:1010700014004FF0000701060AD500F00F00062803
:1010800006D28DF8007001226946484600F0BAF891
:101090009DF8140001075CD000F00F01062958D21A
:1010A000FF2088408DF80000C04395F8209040F064
:1010B000C00085F82000A889A882E88AE8834FF05C
:1010C000010800BF95F8201008FA04F0014225D06D
:1010D0003648042202A930F81400FFF77DFF95F886
:1010E00030009DF80910C0079DF8080000EB0121B1
:1010F00005EB44000AD0C1829DF80A109DF80B2030
:1011000001EB0221C1F54871818107E081819DF8E1
:101110000A109DF80B2001EB0221C182641CE4B28D
:10112000052CCFD32249AA894FF001080B88284605
:101130009A4203D8C28A49888A4209D99DF8141074
:1011400001F00F0101290BD9C1898181018BE9824D
:1011500037709DF8140000F08F0080280AD018E046
:10116000818A8181C18BC18280218DF8141085F81C
:101170002090EEE795F82000010602D520F08000CF
:1011800005E04FF6FF71A981E98200F0E00085F8E3
:1011900020003078F02801D986F800A006B040463B
:1011A000BDE8F087280000203000002056B100087C
:1011B0008801002008B500218DF800108DF801008D
:1011C0000F4800BF435C9DF80020491C1A44C9B277
:1011D0008DF80020B829F5D3D0B2C043401C8DF85B
:1011E0000000B822064948F2470000F00BF802223E
:1011F000694648F2FF0000F005F8002008BD000035
:101200009EB000082DE9F04116460F460446002521
:10121000FFF712FC2820FFF7C7FBFFF75FFC200A4F
:10122000FFF7C2FBFFF75AFCE0B2FFF7BDFBFFF789
:1012300055FC002408E0385DFFF7B6FBFFF74EFCD5
:10124000050003D1641CE4B2B442F4D3FFF720FCE0
:101250002846BDE8F08110B5040002D0607910B1D5
:1012600006E0012010BD00202071204600F004F8A7
:1012700001206071002010BD08B500680649884251
:1012800008D10648016841F480510160006800F40B
:101290008050009008BD000000300240303802400D
:1012A00090F83510022903D0802141650120704754
:1012B000052180F835100068016821F00101016006
:1012C0000020704770B5044600F050F90546601CD8
:1012D00002D004480078044400F048F9401BA042C2
:1012E000FAD370BD10000020F0B587B01421684615
:1012F000FEF79EFF2048016800293AD101210160D4
:101300001E480024016841F00101016000680225C7
:1013100000F0010005904FF23F00CDE9000502AA60
:1013200003260C2782E8D0006946154800F030F803
:1013300041F23F40CDE9000502AA694682E8D000AB
:10134000104800F025F84FF68370CDE9000502AA99
:10135000694682E8D0000C4800F01AF84FF6337066
:10136000CDE9000502AA694682E8D000074800F0EE
:101370000FF807B0F0BD0000080000203838024028
:10138000001402400018024000100240000C02400D
:101390002DE9F84F00224FF0010803254FF00F0E02
:1013A0000B6808FA02F42340A3426ED14E68012E66
:1013B00005D0022E03D0112E01D0122E12D1866834
:1013C0004FEA420C05FA0CF7BE43CF6807FA0CF758
:1013D000374387604668A6430C79C4F300149440F1
:1013E00034434460C668570005FA07FC8C6826EA57
:1013F0000C06BC403443C4604C68022C01D0122C53
:1014000013D1D40800EB8404A346D4F820905407E9
:101410004FEAD46A0EFA0AF629EA06090E6906FAB4
:101420000AF646EA0906CBF8206006680C7926EA37
:101430000C0604F00304BC40344304604C68E40030
:1014400065D5364C266846F480462660246822F02E
:10145000030604F480440094314C3444A446D4F888
:1014600008489607370F0EFA07F6B4432D4EB042E0
:1014700001D1002624E02C4EB04201D101261FE00C
:101480002A4EB04202D102261AE040E0284EB04275
:1014900001D1032614E0274EB04201D104260FE00B
:1014A000254EB04201D105260AE0244EB04201D1BA
:1014B000062605E0224EB04201D1072600E00826AC
:1014C000BE402643CCF808681E4E34684F689C43E3
:1014D000FF0300D51C4334601A4C241D26684F6856
:1014E0009E43BF0300D51E432660164E083634685F
:1014F0004F689C43FF0200D51C433460114E0C36EC
:1015000034684F689C43BF0200D51C433460521CB2
:10151000102AFFF445AFBDE8F88F000044380240C0
:101520000030014000000240000402400008024078
:10153000000C02400010024000140240001802405B
:10154000001C0240003C01400069084000D001201E
:101550007047426931EA020200D109048161704793
:101560000AB1816170470904FBE700000148806807
:101570007047000010000020024881680278114482
:1015800081607047100000200B4810B5016841F4DD
:1015900000710160016841F480610160016841F4FB
:1015A00080710160032000F06FF8002000F006F861
:1015B00000F024F8002010BD003C024070B50D4D35
:1015C00004464FF47A712878B1FBF0F00A490968B3
:1015D000B1FBF0F000F02FFB48B9102C07D200222D
:1015E0002146501E00F030F800206C6070BD0120D4
:1015F00070BD0000100000201C0000200A4808B543
:10160000016841F480410160006800F4804000906E
:101610000548001F016841F080510160006800F03A
:101620008050009008BD000044380240002809DBCB
:1016300000F01F02012191404009800000F1E020EC
:10164000C0F8001170470000F0B40E4B1B680C4648
:10165000C3F30223C3F10705042D00D90425191D86
:10166000072901D2002300E0DB1E012606FA05F15E
:10167000491E214099409E40761E16403143F0BCE1
:1016800004F019BF0CED00E0064900F007020868FD
:101690004FF6FF03184040EA0220034A1043086057
:1016A000704700000CED00E00000FA052DE9F0475E
:1016B0000E46050065D0DFF81481D8F80000F7B2B7
:1016C00000F00F00B04207D288F80070D8F8000090
:1016D00000F00F00B04254D128683D4C810712D56C
:1016E000400703D5206840F4E050206028780007C8
:1016F00003D5206840F4604020602068A96820F08D
:10170000F000084320602878C0072DD03049686871
:101710000839012812D0022813D0032811D00968F3
:10172000890700292DDA216821F003010143216096
:10173000FFF71CFF814641F2883A0EE009688903F1
:10174000EFE709688901ECE7FFF710FFA0EB09015B
:10175000514502D90320BDE8F0872068696800F090
:101760000C00B0EB810FEFD1D8F80010404601F02B
:101770000F01B14207D90770006800F00F00B042B6
:1017800001D00120E7E72878400705D52068E968FF
:1017900020F4E050084320602878000706D5206830
:1017A000296920F4604040EAC100206000F038F868
:1017B0002168084AC1F30311515CC840064908601A
:1017C00006480068FFF7FAFE0020C4E7003C02402C
:1017D00008380240466900081C0000201400002060
:1017E0000448054900680968044AC1F38221515C34
:1017F000C84070471C0000200838024056690008A5
:101800000448054900680968044AC1F34231515C43
:10181000C84070471C000020083802405669000884
:10182000154810B5006810F00C02144813D0411090
:10183000042A0FD0082A0ED10F4C241F22682368D7
:1018400002F03F025B0207D52068C0F38810A0FBBE
:10185000010106E0084610BD2168C1F38811A1FB13
:1018600000010023FEF7ACFC2168C1F30141491CD3
:101870004900B0FBF1F010BD083802400024F4002C
:101880002DE9F84F04006ED02078DFF83C93C007B4
:10189000A9F104054AD009F104000168C1F38101EE
:1018A000012908D00068C0F3810002280AD1D9F8C4
:1018B0000000400206D52868800337D560680028FC
:1018C000E1D033E06068B0F5803F10D0B0F5A02FD4
:1018D000286810D020F480302860286820F4802008
:1018E00028606068A8B1FFF741FE06460DE0286851
:1018F00040F48030F4E740F480202860F7E700BF30
:10190000FFF734FE801B642873D828688003F7D55E
:101910000CE0FFF72BFE064605E000BFFFF726FEB2
:10192000801B6428F0D828688003F7D42078DFF87B
:101930009C8280074FF0000A3ED5A348001D016835
:1019400011F00C0F08D00068C0F3810002280BD101
:10195000D9F80000400207D42868800716D5E0684F
:10196000012800D112E02BE1E068B8B10120C8F8ED
:101970000000FFF7FBFD064605E000BFFFF7F6FDA0
:10198000801B0228C0D828688007F7D528682169FD
:1019900020F0F80040EAC10028600DE0C8F800A07F
:1019A000FFF7E4FD064604E0FFF7E0FD801B022898
:1019B0001FD828688007F7D42078000722D5824EE8
:1019C00083486169703671B101210160FFF7CEFD76
:1019D000074604E0FFF7CAFDC01B022809D830689B
:1019E0008007F7D50EE0C0F800A0FFF7BFFD07465F
:1019F00005E082E0FFF7BAFDC01B02287DD8306801
:101A00008007F7D42078400768D5DFF8BCB10027FD
:101A10000BF13C0BDBF80000C0000BD4DBF800102E
:101A200041F08051CBF80010DBF80000012700F0F6
:101A300080500090674E3068C00510D4306840F484
:101A400080703060FFF792FD009005E0FFF78EFD9B
:101A50000099401A022850D83068C005F6D55A4E71
:101A6000A0686C3601280FD00528306810D020F00F
:101A700001003060306820F004003060A068B8B128
:101A8000FFF774FD00900FE0306840F00100F4E7CC
:101A900040F004003060F7E7FFF768FD0099411A55
:101AA00041F28830814266D830688007F4D50EE074
:101AB000FFF75CFD009007E0FFF758FD0099411A21
:101AC00041F28830814256D830688007F4D42FB173
:101AD000DBF8001021F08051CBF80010A069C8B3EA
:101AE0003949091D0968C1F3810102294AD0022838
:101AF000504607D0C8F8600000E03CE0FFF736FD34
:101B000004463BE04746C8F86000FFF72FFD064655
:101B100005E000BFFFF72AFD801B02282BD82868AC
:101B20008001F7D4D4E907010843A16A2A4A490889
:101B300002EB0141626A41EA8211084394F82C10D9
:101B400040EA0161C9F8001001203866FFF70EFD78
:101B5000044606E036E000BFFFF708FD001B022840
:101B600009D828688001F7D52CE000BFFFF7FEFCFC
:101B7000001B022802D90320BDE8F88F28688001E5
:101B8000F4D41FE00128F7D0D9F80000E26900F48E
:101B90008001914214D1226A00F03F0191420FD19D
:101BA00047F6C071626A0140914209D1A26A00F40D
:101BB0004031914204D1E16A00F07060884201D066
:101BC0000120D9E70020D7E704380240000047424F
:101BD000800E4742007000400000FFFF70B51546C0
:101BE0000E46040003D094F8490010B107E001202C
:101BF00070BD002084F84800204600F01AF804F177
:101C000008012068FEF7BEFF3146A2682068FEF793
:101C1000E3FFD4E901022946236BFEF793FFA16895
:101C2000206850F8212042F0010240F821200020D5
:101C300070BDFFF759BB10B5401EB0F1807F01D3D6
:101C4000012010BD4FF0E02460610F21601704F007
:101C500032FC0020A06107202061002010BD0000A0
:101C600070B590F83C20012A32D0012480F83C4025
:101C7000022280F83D2003685A689D6822F07006B1
:101C80000A6832435A60134B02689A4214D0B2F188
:101C9000804F11D0104B9A420ED0104B9A420BD06D
:101CA0000F4B9A4208D00F4B9A4205D00E4B9A42E6
:101CB00002D00E4B9A4204D1496825F080031943A3
:101CC000916080F83D40002180F83C10084670BDCE
:101CD000022070BD000001400004004000080040E8
:101CE000000C00400004014000400140001800408A
:101CF00010B5040003D094F83D0010B107E00120B6
:101D000010BD002084F83C00204600F00DF80220B1
:101D100084F83D00211D206803F0DCFB012084F8DD
:101D20003D00002010BD000008B50068064988424B
:101D300008D10648016841F020010160006800F008
:101D40002000009008BD0000001400404038024010
:101D5000022180F83D1001688A6802F00702062A15
:101D600003D00A6842F001020A60012180F83D10A8
:101D700000207047022180F83D1001680A6A41F294
:101D800011131A4207D10A6A9B101A4203D10A683A
:101D900022F001020A60012180F83D100020704706
:101DA0007047000070B5026804461068D168536936
:101DB00010F00F0F52D003F0010501F490762E437E
:101DC0005FD0C20705D0CA0503D5E26B42F001021D
:101DD000E263420705D5DA0703D0E26B42F0020264
:101DE000E263820705D5DA0703D0E26B42F0040212
:101DF000E263020707D501F020022A4303D0E26B19
:101E000042F00802E263E26B002A33D0800604D578
:101E1000880602D5204604F035FA20684069E16B57
:101E2000C0F38010090700D428B3204604F01CFA40
:101E30002068416949061AD5416921F04001416194
:101E4000606BA0B11B490165606BFFF729FA0028A0
:101E500010D0606B016DBDE870400847830610D557
:101E60008B060ED52046BDE8704004F00BBA204624
:101E7000FFF796FF70BD2046FFF792FF0020E0635A
:101E800070BD030606D50B0604D52046BDE870409C
:101E900004F0D8BA4006F3D54806F1D5D1682046FB
:101EA00021F04001D160202184F8391000F075F84C
:101EB00070BD00005962000870B5040004D094F8A9
:101EC0003900002510B106E0012070BD84F83850BB
:101ED000204600F023F8242084F839002068C168E7
:101EE00021F40051C160204604F018FA206801690D
:101EF00021F4904101612068416921F02A0141618A
:101F00002068C16841F40051C160E563202084F875
:101F1000390084F83A00002070BD000010B586B08A
:101F2000044614216846FEF783F918492068884260
:101F300029D117480021026842F0100202600068AF
:101F400000F01000059012481438026842F00102B7
:101F50000260006800F0010005904FF4C06000903E
:101F60000220CDE901010320039007200490694677
:101F70000848FFF70DFA002211462520FFF764FB01
:101F80002520FFF753FB06B010BD000000100140F4
:101F9000443802400000024070477047FEE70000EE
:101FA00070B5134C4FF48075002229462046FFF788
:101FB000D7FA206820F440202060206840F4802078
:101FC0002060002261152046FFF7CAFA022004F0C3
:101FD00055FB012229462046FFF7C2FA022004F0F1
:101FE0004DFB29462046BDE870400022FFF7B8BAF5
:101FF00000040240114810B5016886B041F00201AA
:1020000001600068022100F0020005904FF440706A
:1020100000900120CDE90201094C0190694620465B
:10202000FFF7B6F9012211022046FFF799FA0122C3
:1020300051022046FFF794FA06B010BD3038024036
:102040000004024070B5134C4FF4807500222946FD
:102050002046FFF785FA206820F4402020602068A1
:1020600040F480202060012251022046FFF778FAD8
:10207000022004F003FB012229462046FFF770FAF4
:10208000022004F0FBFA29462046BDE870400022F9
:10209000FFF766BA000402402DE9F0471A4C81466A
:1020A0000025206820F44020206020682060DFF8B0
:1020B00058802E46A71508F1100800223946204600
:1020C000FFF74EFA022004F0D9FA012239462046E1
:1020D000FFF746FA6806050ED8F80000800501D51E
:1020E0006D1CEDB2012004F0C9FA761CF6B2082E80
:1020F000E3D3B9F1000F04D0FFF752FF2846BDE843
:10210000F087FFF79FFFF9E7000402402DE9F04157
:102110001E4D06462846296821F440212960296879
:1021200041F480212960AF1500223946FFF718FAE3
:1021300000244FF40078300601D5012200E000228F
:1021400041462846FFF70CFA022004F097FA0122D4
:1021500039462846FFF704FA022004F08FFA0022DD
:1021600039462846FFF7FCF9072C04D101224146E5
:102170002846FFF7F5F97006060E022004F07EFAF5
:10218000641CE4B2082CD6D3BDE8F0810004024000
:1021900070B5134C206820F440202060206840F483
:1021A000802020600122550229462046FFF7D8F9F9
:1021B0000122160231462046FFF7D2F9042004F02E
:1021C0005DFA002229462046FFF7CAF9042004F0F0
:1021D00055FA31462046BDE870400022FFF7C0B9ED
:1021E0000004024070B5134C206820F440202060A9
:1021F000206840F480202060A51500222946204652
:10220000FFF7AEF96615002231462046FFF7A8F920
:10221000042004F033FA012229462046FFF7A0F9F2
:10222000012231462046FFF79BF9BDE870400420AB
:1022300004F024BA0004024070B5174C0025206851
:1022400020F44020206020682060012251022046B6
:10225000FFF786F9012004F011FA01221602314637
:102260002046FFF77DF9012004F008FA0A481030F3
:1022700007E06D1CEDB2FA2D03D9FFF7B3FF012083
:1022800070BD01688905F4D4002231462046FFF76D
:1022900067F9002070BD00000004024070B50B49D2
:1022A0000646002408884D8821464543204600F014
:1022B000F7FA00F067FCB0B24FF0D84103E000BF7E
:1022C000A1F88000641CAC42FAD370BD88010020E4
:1022D0002DE9F04F33492C240A4688712A2592882B
:1022E0002B2645F2105B4FF4305E4FF448774FF0E9
:1022F000F00949F2413A4FF4A07845F2103C4FF40E
:10230000F07358B1A1F80080A1F80290524501D0B5
:10231000624529D10C814D818E8139E0A1F8009070
:10232000A1F80280524501D0624508D10C814D814F
:102330008E81624531D1A1F800804B802DE05A4555
:1023400008D1A1F808E04FF4285048814FF42C50F0
:10235000888106E0A2F5C85063381ED10C814E81F9
:102360008D810B804F8018E05A4508D1A1F808E014
:102370004FF4285048814FF42C50888106E0A2F594
:10238000C850633804D10C814D818E810F804B8001
:10239000624502D10B80A1F80280BDE8F04F002019
:1023A00000F0A2B9880100202DE9FE4F161ACDE9F0
:1023B00000104FF000085D1A47464FF0FF30002E26
:1023C00002DD4FF0010102E003D14FF000018B4626
:1023D00002E08346C6F10006002D02DD4FF0010049
:1023E00002E003D14FF00000824602E08246C5F1D0
:1023F0000005AE4201DD344600E02C46601C4FF083
:102400000009029018E0009881B2019880B200F0B3
:1024100019F8B0442F44A04504DD0198A8EB040846
:1024200058440190A74203DD00983F1B50440090A0
:1024300009F101001FFA80F902998945E3DDBDE841
:10244000FE8F000000B500F02BFA00F09BFB034864
:102450004FF0D8410088A1F8800000BD2000002086
:102460002DE9FC4F80460025144603200F46A0EBC3
:10247000440649E0381B81B208EB050A01901FFAB7
:102480008AF0FFF7DFFF781B81B208EB04090090A8
:102490001FFA89F0FFF7D6FF07EB050B1FFA8BF148
:1024A0001FFA89F0FFF7CEFF07EB04091FFA89F145
:1024B0001FFA8AF0FFF7C6FFA8EB050A1FFA89F199
:1024C0001FFA8AF0FFF7BEFFA8EB04091FFA8BF191
:1024D0001FFA89F0FFF7B6FF019881B21FFA8AF060
:1024E000FFF7B0FF009881B21FFA89F0FFF7AAFF4B
:1024F0006D1C002E03DA06EB8506B61D04E0281BD2
:1025000006EB8006641E0A36A542B3DDBDE8FC8FEB
:102510002DE9F043444C91460246A08823460D46DF
:102520004FEA1128160A5B89A0F51341413917D0EB
:10253000A0F5A641103913D0A0F5AA41103914D046
:102540002646A0F5C857B1793688B61A761E633F7D
:1025500025D0A0F5D047043F3DD0012951D051E00E
:10256000184600F002FB30463CE0184600F0FDFA49
:10257000304600F0EEFA6089401C80B200F0F5FAB7
:10258000D0B200F0E6FAA08900F0EFFA404600F081
:10259000E0FAA089401C80B200F0E7FA2DE001B912
:1025A000B2B2184600F0E1FA160A304600F0D1FA4D
:1025B000D0B200F0CEFA304600F0CBFAD0B200F044
:1025C000C8FAA08900F0D1FA404600F0C2FAE8B299
:1025D00000F0BFFA0EE0012900D1B2B2184600F0B7
:1025E000C4FA100A00F0B5FAD0B200F0B2FAA0892D
:1025F00000F0BBFA404600F0ACFAE8B200F0A9FAED
:1026000008E0B2B21146184600F0C6FAA089294681
:1026100000F0C2FA4FF0D840218920F87E1FA0F8C0
:102620000290BDE8F0830000880100202DE9F0430E
:102630008146A2EB09020798521C1F4695B20C4630
:1026400086B24FF0D84811E02146484600F028F9FC
:1026500000F098FA0020414604E000BFA1F8806035
:10266000401C80B2A842F9D3641CA4B2BC42EBD98E
:10267000BDE8F0830246012000E05043491EC9B284
:10268000FBD2704708B54FF0D840B0F88000ADF8E5
:102690000000BDF8000008BD10B50246BE2000F0E5
:1026A00064FA052000F055FA1046FDF7F3FE9FEDA1
:1026B0000C1B53EC112BFDF77BFEFDF7F8FE80B2EF
:1026C00000F047FA012000F044FAFF2000F041FA40
:1026D000002000F03EFABDE81040002000F039BABA
:1026E0006666666666660440F0B56C4C002321465B
:1026F000A279898841F66316012A01D01AB11BE03C
:10270000B14202D118E0B14216D1082814D2DFE854
:1027100000F00406080A0C0E101206200CE0072038
:102720000AE0042008E0052006E0012004E0002083
:1027300002E0032000E00220A1F5134745F2103229
:1027400045F21055413F05D0914203D0A94201D036
:10275000B14277D1082812D2DFE800F01104060850
:102760000A0C0E1080230AE0402308E0C02306E094
:10277000202304E0602302E0A02300E0E023A9423C
:1027800002D14FF4585000E03620914205D0A942C2
:1027900003D0B14201D043F00803194600F0FCF920
:1027A000A188B1420AD098062088628802D590425A
:1027B00002D303E0904201D9228060806089A9425F
:1027C00041D100F0D2F9002000F0C3F96089401C2B
:1027D00080B200F0CAF9002000F0BBF96089801CCB
:1027E00080B200F0C2F92088401EC0F30F2000F034
:1027F000B0F96089C01C80B200F0B7F92078401EA3
:10280000C0B200F0A6F9A08900F0AFF9002000F0F6
:10281000A0F9A089401C80B200F0A7F9002000F0C8
:1028200098F9A089801C80B200F09FF96088401E52
:10283000C0F30F2000F08DF9A089C01C80B200F019
:1028400094F922E028E000F090F9002000F081F9EE
:10285000002000F07EF92088401EC0F30F2000F019
:1028600078F92078401EC0B200F073F9A08900F01A
:102870007CF9002000F06DF9002000F06AF9608812
:10288000401EC0F30F2000F064F9A078BDE8F040CE
:10289000401EC0B200F05DB9F0BD0000880100200C
:1028A000F0B53F4A0D460446060A918810462F0AA5
:1028B0004089A1F51343413B28D0A1F5A643103B25
:1028C00024D0A1F5C853633B2FD0A1F5AA43103BF8
:1028D00064D100F04AF9304600F03BF95089401CC1
:1028E00080B200F042F9E0B200F033F9908900F0D4
:1028F0003CF9384600F02DF99089401C80B200F078
:1029000034F9E8B2BDE8F04000F023B900F02DF949
:10291000304600F01EF9E0B200F01BF9908900F09B
:1029200024F9384600F015F9EBE7917929B300F066
:102930001CF9304600F00DF9E0B200F00AF91088F9
:10294000401EC0F30F2000F004F91078401EC0B202
:1029500000F0FFF8908900F008F9384600F0F9F827
:10296000E8B200F0F6F85088401EC0F30F2000F0E7
:10297000F0F89078401EC0B2C4E71188091B491EC8
:102980008CB200F0F2F8002000F0E3F8002000F034
:10299000E0F8200A00F0DDF8E0B2D9E7F0BD000071
:1029A000880100202DE9FF4F1D460C468A46580736
:1029B00000D0012000EBD500690810FB01F0203A9F
:1029C00000F0FF09D0B20026DFF8A4B002904BE07F
:1029D0000C2D11D0102D14D0182D17D0202D45D12D
:1029E0002449029801EBC0104FF00008875D3806BB
:1029F00013D52148026814E00298204900EB4000FA
:102A000008E01F49029801EB0010EDE702981D490C
:102A100000EBC00001EB8000E6E70D9828B91648EE
:102A2000426821460098FFF773FD7806070E641C84
:102A3000BBF80200A4B2A04218D9A4EB0A00A84235
:102A400009D100985446401C80B20090BBF8001099
:102A500081420BD906E008F1010000F0FF08B8F14F
:102A6000080FC4D3761CF6B24E45B1D3BDE8FF8F34
:102A7000880100201E810008200000205E690008F7
:102A8000D26D0008C27300082DE9FF4F81B0002607
:102A9000DDF838A01D46934681463446B0464FEADD
:102AA0005A0727E0281B401EC1B20A20FFF7E2FDAB
:102AB000BBFBF0F00A21B0FBF1F201FB120026B9DA
:102AC000691E8C4201DA48B101263030C2B207FBE0
:102AD000049080B25346CDF8008006E007FB0490D6
:102AE00080B253462022CDF800800299FFF75AFFAA
:102AF000641CE4B2AC42D5D305B0BDE8F08F2DE93B
:102B0000F84F044600F0FF0910190D46DDE90AB63A
:102B10001FFA80F8581987B24FF0000A12E04445B6
:102B200003D305EB0B004C4685B2BD420FD25B468A
:102B300029462046CDF800A0FFF734FF04EB5B00E8
:102B400084B2761C3278A2F120005E28E7D9BDE875
:102B5000F88F01B5BDF80000ADF80000BDF8000029
:102B60004FF0D841A1F8800008BD01B5BDF80000C4
:102B7000ADF80000BDF800004FF0D841A1F87E008C
:102B800008BD000003484FF0D8410089A1F87E003D
:102B900070470000880100204FF0D84222F87E0FD5
:102BA000518070471CB54FF6FF70FFF777FB0A4C5A
:102BB0001F200AA120601020CDE900010848102341
:102BC000C82200880021183880B2FFF798FF4FF420
:102BD000784020601CBD00002000002052535400AB
:102BE00088010020074910B5054808600846FEF72F
:102BF00032FB002803D0BDE81040FDF7A2BF10BD96
:102C000000300240000000202DE9F04788B01C2170
:102C10006846FDF70DFB2A4806210024C0E902148E
:102C20001025C0E904458461C4614FF4805A0462F0
:102C3000C0E9094AC46204634463DFF8889084638E
:102C40004FF020474464C0E900790F26FF2000962A
:102C5000CDE901604FF01108CDE90584CDE90365A8
:102C6000002269461648FEF7B9FF08B1FDF769FF73
:102C70001348042150300022C0E90214C0E9044581
:102C80008461C4610462C0E9094AC46204634463A4
:102C900084634464C0E90079CDE9004602A90720B5
:102CA00081E831010648694650300694FEF796FFE8
:102CB000002801D0FDF745FF08B0BDE8F08700000F
:102CC00068000020040100A02DE9F04186B0142125
:102CD0006846FDF7ADFA3348016841F00401016030
:102CE000016801F004010591016841F020010160D3
:102CF000016801F020010591016841F08001016047
:102D0000016801F080010591016841F04001016016
:102D1000016801F040010591016841F01001016076
:102D2000016801F010010591016841F002010160A4
:102D3000016801F002010591016841F0080101609C
:102D4000016801F008010591016841F0010101608D
:102D50000068154F00F001004FF4C0640590012297
:102D600021463846FEF7FCFBDFF840804FF4004672
:102D7000002231464046FEF7F3FB00940124022571
:102D8000694638460194CDE90245FEF701FBCDE9DD
:102D9000006469464046CDE90245FEF7F9FA06B0FF
:102DA000BDE8F081303802400014024000040240C7
:102DB0001CB500240E4800940C4901940160532175
:102DC000C0E9011401218461C160FEF791FF08B1DF
:102DD000FDF7B7FE0094694605480194FEF740FFF1
:102DE000002801D0FDF7ADFE1CBD0000001400401E
:102DF000080100200C4810B50A4901604FF4E13188
:102E00004160002181600C22C160C0E9041281612F
:102E1000C161FFF751F8002803D0BDE81040FDF76D
:102E200090BE10BD0010014048010020FEE7704731
:102E300030B587B0244800218DF80010026842F0B8
:102E400002020260026802F002020692026842F088
:102E5000040202600068012400F0040006900220D1
:102E6000CDE90101CDE9034001A91848FEF790FA28
:102E70006503CDE90154164C01A92046FEF788FAF6
:102E8000FDF700FD002229462046FEF769FB64207D
:102E900003F0E2FB012229462046FEF761FB642095
:102EA00003F0DAFB012000F007F9012269464FF434
:102EB000506000F00FF89DF80000802802D001203B
:102EC00007B030BD0020FBE730380240000402406C
:102ED000000802402DE9F04115460E460446FDF774
:102EE000ABFDB220FDF760FDFDF7F8FD200AFDF710
:102EF0005BFDFDF7F3FDE0B2FDF756FDFDF7EEFDDE
:102F0000FDF79AFDB320FDF74FFDFDF7E7FD002427
:102F10006F1E09E0BC4201D0012000E00020FDF757
:102F200009FD3055641CE4B2AC42F3D3BDE8F04176
:102F3000FDF7AEBD2DE9F147564E00242DED048B73
:102F40004FF00A0981B03078DFF84C81401CC0B2E4
:102F5000B0FBF9F209FB12012746307009B10A28CB
:102F600077D2012205A90020FFF7B4FF9DF81400D5
:102F7000C10672D000F01F0040F0C000454688F83E
:102F8000200001279FED458B9FED469B95F8200083
:102F900007FA04F108424FD044480422694630F849
:102FA0001400FFF797FF95F830009DF80210C00756
:102FB0009DF8030000EB012022D0FDF76BFA53ECE3
:102FC000182BFDF7F5F9FDF772FA05EB440AAAF89C
:102FD00016009DF801009DF8001000EB0120FDF7A0
:102FE00059FA53EC192BFDF7E3F99FED311B53EC24
:102FF000112BFDF7DAF9FDF75AFAAAF80C001BE0DD
:10300000FDF748FA53EC182BFDF7D2F9FDF74FFA0C
:1030100005EB440AAAF80C009DF801009DF8001089
:1030200000EB0120FDF736FA53EC192BFDF7C0F940
:10303000FDF73DFAAAF81600641CE4B2052CA5D3EE
:103040000127A989002019B9E98A09B98DF8140066
:1030500030709DF81400C00610D198F820000106C9
:1030600002D520F0800007E04FF6FF71A8F80C10A1
:10307000A8F8161000F0E00088F820003078F0285A
:1030800001D986F8009001B03846BDEC048BBDE84C
:10309000F88700002A000020300000207B14AE4793
:1030A000E17AD43FD881734694F6D23F6AB10008E2
:1030B000000000000000894008B500218DF80010D4
:1030C00010B180208DF80000012269464FF4506055
:1030D00000F001F808BD2DE9F04116460F46044600
:1030E0000025FDF7A9FCB220FDF75EFCFDF7F6FC1C
:1030F000200AFDF759FCFDF7F1FCE0B2FDF754FCA6
:10310000FDF7ECFC002408E0385DFDF74DFCFDF711
:10311000E5FC050003D1641CE4B2B442F4D3FDF72E
:10312000B7FC2846BDE8F08170477047FEF724BA27
:1031300030B593B030216846FDF77AF814210CA819
:10314000FDF776F819480025016841F080510160CB
:10315000006800F0805011901548016841F48041EA
:1031600001600068022400F480401190012000906A
:10317000000401908001CDE9064008AA0420A8219E
:1031800082E813000B906846FEF77AFB0CA90F202B
:1031900081E831004FF4A0500F90E002109005211B
:1031A0000CA8FEF783FA13B030BD0000403802408F
:1031B000007000400548016841F470010160034956
:1031C0004FF00060803908607047000088ED00E033
:1031D0002DE9F05F3220FEF775F8D320FFF7C5FC2C
:1031E000FFF750FAFE4CA080FFF74CFAA080FFF7E3
:1031F00049FA4FF6FF7909EA0020A080FFF742FA6A
:10320000A18849F241360843A08045F2103745F2C3
:10321000105541F66318B04247D0D420FFF7A5FC03
:10322000FFF730FAA080FFF72DFAA080FFF72AFA07
:1032300009EA00204A46A080FFF724FAA188084343
:10324000A080B84231D04FF45A40FFF78EFCFFF710
:1032500019FAA0804FF45B40FFF787FCFFF712FAE2
:1032600002EA0020A0804FF45C40FFF77EFCFFF7ED
:1032700009FAA1880843A080B0F5004F7DD0A8428C
:1032800013D0A120FFF771FCFFF7FCF9A080FFF736
:10329000F9F902EA0020A080FFF7F4F9A1880843B9
:1032A000A0F5AE41A080613968D080B2B04266D14D
:1032B000CF20FFF75AFC0020FFF74BFCC120FFF79F
:1032C00048FC3020FFF745FCED20FFF74EFC642062
:1032D000FFF73FFC0320FFF73CFC1220FFF739FC0F
:1032E0008120FFF736FCE820FFF73FFC8520FFF741
:1032F00030FC1020FFF72DFC7A20FFF72AFCCB20B2
:10330000FFF733FC3920FFF724FC2C20FFF721FCCA
:103310000020FFF71EFC3420FFF71BFC0220FFF704
:1033200018FCF720FFF721FC2020FFF712FCEA2011
:10333000FFF71BFC0020FFF70CFC0020FFF709FC47
:10334000C020FFF712FC1B20FFF703FCC120FFF792
:103350000CFC0120FFF7FDFBC520FFF706FC302029
:10336000FFF7F7FB3020FFF7F4FBC720FFF7FDFB6B
:10337000B720FFF7EEFB362002E0B5E0B0E0B5E0A5
:10338000FFF7F3FB4820FFF7E4FB3A20FFF7EDFBE4
:103390005520FFF7DEFBB120FFF7E7FB0020FFF72A
:1033A000D8FB1A20FFF7D5FBB620FFF7DEFB0A207B
:1033B000FFF7CFFBA220FFF7CCFBF220FFF7D5FBF6
:1033C0000020FFF7C6FB2620FFF7CFFB0120FFF709
:1033D000C0FBE020FFF7C9FB0F20FFF7BAFB2A2054
:1033E000FFF7B7FB2820FFF7B4FB0820FFF7B1FB7E
:1033F0000E20FFF7AEFB0820FFF7ABFB5420FFF7D2
:10340000A8FBA920FFF7A5FB4320FFF7A2FB0A209A
:10341000FFF79FFB0F20FFF79CFB0020FFF799FBB6
:103420000020FFF796FB0020FFF793FB0020FFF73B
:1034300090FBE120FFF799FB0020FFF78AFB1520A6
:10344000FFF787FB1720FFF784FB0720FFF781FBBF
:103450001120FFF77EFB0620FFF77BFB2B20FFF7F9
:1034600078FB5620FFF775FB3C20FFF772FB052029
:10347000FFF76FFB1020FFF76CFB0F20FFF769FBD6
:103480003F20FFF766FB3F20FFF763FB0F20FFF7AE
:1034900060FB2B20FFF769FB0020FFF75AFB0020A1
:1034A000FFF757FB0120FFF754FB3F20FFF751FBCD
:1034B0002A20FFF75AFB0020FFF74BFB0020FFF705
:1034C00048FB0020FFF745FBEF20FFF742FB1120F0
:1034D000FFF74BFB7820FDF7F5FE292001F009BF2F
:1034E000A4F8048001F00ABFA580FDE3B84276D1BC
:1034F000ED20FFF73AFB0120FFF72BFBFE20FFF743
:1035000028FBEE20FFF731FBDE20FFF722FB212016
:10351000FFF71FFBF120FFF728FB0120FFF719FB46
:10352000DF20FFF722FB1020FFF713FBC420FFF77B
:103530001CFB8F20FFF70DFBC620FFF716FB0020BA
:10354000FFF707FBE220FFF704FBE220FFF701FB98
:10355000E220FFF7FEFABF20FFF707FBAA20FFF7E4
:10356000F8FAB020FFF701FB0D20FFF7F2FA002078
:10357000FFF7EFFA0D20FFF7ECFA0020FFF7E9FA6A
:103580001120FFF7E6FA0020FFF7E3FA1920FFF712
:10359000E0FA0020FFF7DDFA2120FFF7DAFA002039
:1035A000FFF7D7FA2D20FFF7D4FA0020FFF7D1FA62
:1035B0003D20FFF7CEFA0020FFF7CBFA5D20FFF7A2
:1035C000C8FA0020FFF7C5FA5D20FFF7C2FA002015
:1035D000FFF7BFFAB120FFF7C8FA802002E0FDE351
:1035E00088010020FFF7B5FA0020FFF7B2FA8B2020
:1035F000FFF7AFFA0020FFF7ACFA9620FFF7A9FA21
:103600000020FFF7A6FAB220FFF7AFFA0020FFF77D
:10361000A0FA0020FFF79DFA0220FFF79AFA002097
:10362000FFF797FA0320FFF794FA0020FFF791FACB
:10363000B320FFF79AFA0020FFF78BFA0020FFF77C
:1036400088FA0020FFF785FA0020FFF782FA0020B1
:10365000FFF77FFA0020FFF77CFA0020FFF779FAE6
:103660000020FFF776FA0020FFF773FA0020FFF73B
:1036700070FA0020FFF76DFA0020FFF76AFA0020C9
:10368000FFF767FA0020FFF764FA0020FFF761FAFE
:103690000020FFF75EFA0020FFF75BFA0020FFF73B
:1036A00058FA0020FFF755FA0020FFF752FA0020E1
:1036B000FFF74FFA0020FFF74CFA0020FFF749FA16
:1036C0000020FFF746FAB420FFF74FFA8B20FFF7F0
:1036D00040FA0020FFF73DFA9620FFF73AFA002063
:1036E000FFF737FAA120FFF734FA0020FFF731FA8D
:1036F000B520FFF73AFA0220FFF72BFA0020FFF778
:1037000028FA0320FFF725FA0020FFF722FA042009
:10371000FFF71FFA0020FFF71CFAB620FFF725FA83
:103720000020FFF716FA0020FFF713FAB720FFF783
:103730001CFA0020FFF70DFA0020FFF70AFA3F20DD
:10374000FFF707FA0020FFF704FA5E20FFF701FAFF
:103750000020FFF7FEF96420FFF7FBF90020FFF7D8
:10376000F8F98C20FFF7F5F90020FFF7F2F9AC200B
:10377000FFF7EFF90020FFF7ECF9DC20FFF7E9F99C
:103780000020FFF7E6F97020FFF7E3F90020FFF7CC
:10379000E0F99020FFF7DDF90020FFF7DAF9EB20E0
:1037A000FFF7D7F90020FFF7D4F9DC20FFF7D1F9B4
:1037B0000020FFF7CEF9B820FFF7D7F90020FFF778
:1037C000C8F90020FFF7C5F90020FFF7C2F9002073
:1037D000FFF7BFF90020FFF7BCF90020FFF7B9F9A8
:1037E0000020FFF7B6F90020FFF7B3F9BA20FFF782
:1037F000BCF92420FFF7ADF90020FFF7AAF900205B
:10380000FFF7A7F90020FFF7A4F9C120FFF7ADF9F2
:103810002020FFF79EF90020FFF79BF95420FFF7C7
:1038200098F90020FFF795F9FF20FFF792F90020A3
:10383000FFF78FF9C220FFF798F90A20FFF789F9FF
:103840000020FFF786F90420FFF783F90020FFF737
:1038500080F9C320FFF789F93C20FFF77AF90020AF
:10386000FFF777F93A20FFF774F90020FFF771F9B5
:103870003920FFF76EF90020FFF76BF93720FFF7CB
:1038800068F90020FFF765F93C20FFF762F9002096
:10389000FFF75FF93620FFF75CF90020FFF759F9D1
:1038A0003220FFF756F90020FFF753F92F20FFF7DA
:1038B00050F90020FFF74DF92C20FFF74AF90020BE
:1038C000FFF747F92920FFF744F90020FFF741F9F6
:1038D0002620FFF73EF90020FFF73BF92420FFF7F1
:1038E00038F90020FFF735F92420FFF732F90020DE
:1038F000FFF72FF92320FFF72CF90020FFF729F914
:103900003C20FFF726F90020FFF723F93620FFF7C8
:1039100020F90020FFF71DF93220FFF71AF90020E7
:10392000FFF717F92F20FFF714F90020FFF711F91F
:103930002C20FFF70EF90020FFF70BF92920FFF7E5
:1039400008F90020FFF705F92620FFF702F900200B
:10395000FFF7FFF82420FFF7FCF80020FFF7F9F845
:103960002420FFF7F6F80020FFF7F3F82320FFF7F5
:10397000F0F80020FFF7EDF8C420FFF7F6F862201A
:10398000FFF7E7F80020FFF7E4F80520FFF7E1F87C
:103990000020FFF7DEF88420FFF7DBF80020FFF7B8
:1039A000D8F8F020FFF7D5F80020FFF7D2F818205C
:1039B000FFF7CFF80020FFF7CCF8A420FFF7C9F8F5
:1039C0000020FFF7C6F81820FFF7C3F80020FFF724
:1039D000C0F85020FFF7BDF80020FFF7BAF80C2020
:1039E000FFF7B7F80020FFF7B4F81720FFF7B1F89A
:1039F0000020FFF7AEF89520FFF7ABF80020FFF7A7
:103A0000A8F8F320FFF7A5F80020FFF7A2F8E620BA
:103A1000FFF79FF80020FFF79CF8C520FFF7A5F8F7
:103A20003220FFF796F80020FFF793F84420FFF7C5
:103A300090F80020FFF78DF86520FFF78AF8002046
:103A4000FFF787F87620FFF784F80020FFF781F86A
:103A50008820FFF77EF80020FFF77BF8C620FFF7ED
:103A600084F82020FFF775F80020FFF772F8172080
:103A7000FFF76FF80020FFF76CF80120FFF769F8F7
:103A80000020FFF766F8C720FFF76FF80020FFF768
:103A900060F80020FFF75DF80020FFF75AF80020DB
:103AA000FFF757F8C820FFF760F80020FFF751F83C
:103AB0000020FFF74EF80020FFF74BF80020FFF73B
:103AC00048F8C920FFF751F80020FFF742F800201E
:103AD000FFF73FF80020FFF73CF80020FFF739F828
:103AE0000020FFF736F80020FFF733F80020FFF73B
:103AF00030F80020FFF72DF80020FFF72AF800200B
:103B0000FFF727F80020FFF724F80020FFF721F83F
:103B10000020FFF71EF80020FFF71BF80020FFF73A
:103B200018F80020FFF715F8E020FFF71EF8162020
:103B3000FFF70FF80020FFF70CF81C20FFF709F83B
:103B40000020FFF706F82120FFF703F80020FFF719
:103B500000F83620FEF7FDFF0020FEF7FAFF4620B2
:103B6000FEF7F7FF0020FEF7F4FF5220FEF7F1FF0B
:103B70000020FEF7EEFF6420FEF7EBFF0020FEF7CB
:103B8000E8FF7A20FEF7E5FF0020FEF7E2FF8B203A
:103B9000FEF7DFFF0020FEF7DCFF9920FEF7D9FFDC
:103BA0000020FEF7D6FFA820FEF7D3FF0020FEF787
:103BB000D0FFB920FEF7CDFF0020FEF7CAFFC420DA
:103BC000FEF7C7FF0020FEF7C4FFCA20FEF7C1FFC3
:103BD0000020FEF7BEFFD220FEF7BBFF0020FEF75D
:103BE000B8FFD920FEF7B5FF0020FEF7B2FFE020B6
:103BF000FEF7AFFF0020FEF7ACFFF320FEF7A9FFB2
:103C00000020FEF7A6FFE120FEF7AFFF1620FEF72B
:103C1000A0FF0020FEF79DFF1C20FEF79AFF00206A
:103C2000FEF797FF2220FEF794FF0020FEF791FF9A
:103C30003620FEF78EFF0020FEF78BFF4520FEF7B3
:103C400088FF0020FEF785FF5220FEF782FF00204C
:103C5000FEF77FFF6420FEF77CFF0020FEF779FF70
:103C60007A20FEF776FF0020FEF773FF8B20FEF729
:103C700070FF0020FEF76DFF9920FEF76AFF00201D
:103C8000FEF767FFA820FEF764FF0020FEF761FF44
:103C9000B920FEF75EFF0020FEF75BFFC420FEF7B1
:103CA00058FF0020FEF755FFCA20FEF752FF002004
:103CB000FEF74FFFD220FEF74CFF0020FEF749FF32
:103CC000D820FEF746FF0020FEF743FFE020FEF776
:103CD00040FF0020FEF73DFFF320FEF73AFF0020F3
:103CE000FEF737FFE22000E082E3FEF73EFF05200B
:103CF000FEF72FFF0020FEF72CFF0B20FEF729FF19
:103D00000020FEF726FF1B20FEF723FF0020FEF712
:103D100020FF3420FEF71DFF0020FEF71AFF44208D
:103D2000FEF717FF0020FEF714FF4F20FEF711FFEC
:103D30000020FEF70EFF6120FEF70BFF0020FEF7CC
:103D400008FF7920FEF705FF0020FEF702FF88201C
:103D5000FEF7FFFE0020FEF7FCFE9720FEF7F9FEBF
:103D60000020FEF7F6FEA620FEF7F3FE0020FEF789
:103D7000F0FEB720FEF7EDFE0020FEF7EAFEC220BF
:103D8000FEF7E7FE0020FEF7E4FEC720FEF7E1FEA7
:103D90000020FEF7DEFED120FEF7DBFE0020FEF75E
:103DA000D8FED620FEF7D5FE0020FEF7D2FEDD209D
:103DB000FEF7CFFE0020FEF7CCFEF320FEF7C9FE93
:103DC0000020FEF7C6FEE320FEF7CFFE0520FEF73B
:103DD000C0FE0020FEF7BDFE0A2000E006E3FEF76D
:103DE000B8FE0020FEF7B5FE1C20FEF7B2FE002054
:103DF000FEF7AFFE3320FEF7ACFE0020FEF7A9FE73
:103E00004420FEF7A6FE0020FEF7A3FE5020FEF79A
:103E1000A0FE0020FEF79DFE6220FEF79AFE002025
:103E2000FEF797FE7820FEF794FE0020FEF791FE45
:103E30008820FEF78EFE0020FEF78BFE9720FEF70F
:103E400088FE0020FEF785FEA620FEF782FE0020F9
:103E5000FEF77FFEB720FEF77CFE0020FEF779FE1E
:103E6000C220FEF776FE0020FEF773FEC720FEF7A5
:103E700070FE0020FEF76DFED120FEF76AFE0020E6
:103E8000FEF767FED520FEF764FE0020FEF761FE18
:103E9000DD20FEF75EFE0020FEF75BFEF320FEF75E
:103EA00058FE0020FEF755FEE420FEF75EFE0120DE
:103EB000FEF74FFE0020FEF74CFE0120FEF749FE04
:103EC0000020FEF746FE0220FEF743FE0020FEF72C
:103ED00040FE2A20FEF73DFE0020FEF73AFE3C2081
:103EE000FEF737FE0020FEF734FE4B20FEF731FED2
:103EF0000020FEF72EFE5D20FEF72BFE0020FEF7D1
:103F000028FE7420FEF725FE0020FEF722FE842006
:103F1000FEF71FFE0020FEF71CFE9320FEF719FEA1
:103F20000020FEF716FEA220FEF713FE0020FEF78B
:103F300010FEB320FEF70DFE0020FEF70AFEBE20A5
:103F4000FEF707FE0020FEF704FEC420FEF701FE88
:103F50000020FEF7FEFDCD20FEF7FBFD0020FEF762
:103F6000F8FDD320FEF7F5FD0020FEF7F2FDDD2081
:103F7000FEF7EFFD0020FEF7ECFDF320FEF7E9FD74
:103F80000020FEF7E6FDE520FEF7EFFD0020FEF73E
:103F9000E0FD0020FEF7DDFD0020FEF7DAFD002049
:103FA000FEF7D7FD0220FEF7D4FD0020FEF7D1FD7D
:103FB0002920FEF7CEFD0020FEF7CBFD3C20FEF7CA
:103FC000C8FD0020FEF7C5FD4B20FEF7C2FD002016
:103FD000FEF7BFFD5D20FEF7BCFD0020FEF7B9FD3A
:103FE0007420FEF7B6FD0020FEF7B3FD8420FEF737
:103FF000B0FD0020FEF7ADFD9320FEF7AAFD0020E6
:10400000FEF7A7FDA220FEF7A4FD0020FEF7A1FD0C
:10401000B320FEF79EFD0020FEF79BFDBE20FEF7BD
:1040200098FD0020FEF795FDC420FEF792FD0020CC
:10403000FEF78FFDCD20FEF78CFD0020FEF789FDF9
:10404000D320FEF786FD0020FEF783FDDC20FEF77F
:1040500080FD0020FEF77DFDF320FEF77AFD0020B5
:10406000FEF777FDE620FEF780FD1120FEF771FDDB
:104070000020FEF76EFD3420FEF76BFD0020FEF7FA
:1040800068FD5620FEF765FD0020FEF762FD7620F4
:10409000FEF75FFD0020FEF75CFD7720FEF759FD7F
:1040A0000020FEF756FD6620FEF753FD0020FEF7C8
:1040B00050FD8820FEF74DFD0020FEF74AFD9920B7
:1040C000FEF747FD0020FEF744FDBB20FEF741FD53
:1040D0000020FEF73EFD9920FEF73BFD0020FEF795
:1040E00038FD6620FEF735FD0020FEF732FD552035
:1040F000FEF72FFD0020FEF72CFD5520FEF729FDD1
:104100000020FEF726FD4520FEF723FD0020FEF7E8
:1041100020FD4320FEF71DFD0020FEF71AFD442080
:10412000FEF717FD0020FEF714FDE720FEF71DFD4A
:104130003220FEF70EFD0020FEF70BFD5520FEF7A6
:1041400008FD0020FEF705FD7620FEF702FD0020A9
:10415000FEF7FFFC6620FEF7FCFC0020FEF7F9FCF2
:104160006720FEF7F6FC0020FEF7F3FC6720FEF761
:10417000F0FC0020FEF7EDFC8720FEF7EAFC0020B3
:10418000FEF7E7FC9920FEF7E4FC0020FEF7E1FCD7
:10419000BB20FEF7DEFC0020FEF7DBFC9920FEF7DB
:1041A000D8FC0020FEF7D5FC7720FEF7D2FC0020DB
:1041B000FEF7CFFC4420FEF7CCFC0020FEF7C9FC44
:1041C0005620FEF7C6FC0020FEF7C3FC2320FEF7B6
:1041D000C0FC0020FEF7BDFC3320FEF7BAFC002037
:1041E000FEF7B7FC4520FEF7B4FC0020FEF7B1FC5B
:1041F000E820FEF7BAFC0020FEF7ABFC0020FEF73B
:10420000A8FC9920FEF7A5FC0020FEF7A2FC872061
:10421000FEF79FFC0020FEF79CFC8820FEF799FC2F
:104220000020FEF796FC7720FEF793FC0020FEF7B7
:1042300090FC6620FEF78DFC0020FEF78AFC8820AB
:10424000FEF787FC0020FEF784FCAA20FEF781FC25
:104250000020FEF77EFCBB20FEF77BFC0020FEF773
:1042600078FC9920FEF775FC0020FEF772FC6620B2
:10427000FEF76FFC0020FEF76CFC5520FEF769FC92
:104280000020FEF766FC5520FEF763FC0020FEF7D9
:1042900060FC4420FEF75DFC0020FEF75AFC442041
:1042A000FEF757FC0020FEF754FC5520FEF751FCAA
:1042B0000020FEF74EFCE920FEF757FCAA20FEF78F
:1042C00048FC0020FEF745FC0020FEF742FC0020E1
:1042D000FEF73FFC0020FEF748FCAA20FEF739FC61
:1042E000CF20FEF742FC0020FEF733FC0020FEF753
:1042F00030FC0020FEF72DFC0020FEF72AFC0020F9
:10430000FEF727FC0020FEF724FC0020FEF721FC2E
:104310000020FEF71EFC0020FEF71BFC0020FEF72D
:1043200018FC0020FEF715FC0020FEF712FC002010
:10433000FEF70FFC0020FEF70CFC0020FEF709FC46
:104340000020FEF706FC0020FEF703FCF020FEF73D
:104350000CFC0020FEF7FDFB5020FEF7FAFB0020CE
:10436000FEF7F7FB0020FEF7F4FB0020FEF7F1FB61
:10437000F320FEF7FAFB0020FEF7EBFBF920FEF737
:10438000F4FB0620FEF7E5FB1020FEF7E2FB2920F8
:10439000FEF7DFFB0020FEF7DCFB3A20FEF7E5FB33
:1043A0005520FEF7D6FB1120FEF7DFFB6420FCF75B
:1043B00089FF2920FEF7D9FB3520FEF7D6FB002028
:1043C000FEF7C7FB5120FEF7D0FBFF20FEF7C1FB35
:1043D0005320FEF7CAFB2C20FEF7BBFB5520FEF74F
:1043E000C4FB8220FEF7B5FB2C20FCE3A8427CD165
:1043F0004FF4704355211846FEF7CEFB4FF2010AE9
:10440000AA215046FEF7C8FB4FF2020B5221584634
:10441000FEF7C2FB08214FF20300FEF7BDFB0121AE
:104420004FF20400FEF7B8FB0D214FF43040FEF7C9
:10443000B3FB0D214BF20100FEF7AEFB0D214BF259
:104440000200FEF7A9FB34214FF43640FEF7A4FB2F
:1044500034214BF20160FEF79FFB34214BF20260E6
:10446000FEF79AFB0D214FF43140FEF795FB0D212D
:104470004BF20110FEF790FB0D214BF20210FEF7FC
:104480008BFB34214FF43740FEF786FB34214BF28F
:104490000170FEF781FB34214BF20270FEF77CFBCA
:1044A00000214FF43240FEF777FB00214BF2012050
:1044B000FEF772FB00214BF20220FEF76DFB242178
:1044C0004FF43840FEF768FB24214BF60100FEF75D
:1044D00063FB24214BF60200FEF75EFB01214FF443
:1044E0003F40FEF759FB0F2100E0FDE34FF433405E
:1044F000FEF752FB0F214BF20130FEF74DFB0F216F
:104500004BF20230FEF748FB34214FF43940FEF7FE
:1045100043FB34214BF60110FEF73EFB34214BF6F2
:104520000210FEF739FB08214FF43540FEF734FB4B
:1045300008214BF20150FEF72FFB08214BF20250ED
:10454000FEF72AFB03214FF44240FEF725FB24210E
:104550004FF43A40FEF720FB24214BF60120FEF7F2
:104560001BFB24214BF60220FEF716FB00214FF423
:104570003C40FEF711FB78214BF60140FEF70CFBA7
:1045800000214BF60240FEF707FB00214FF43D40AF
:10459000FEF702FB78214BF60150FEF7FDFA0021F1
:1045A0004BF60250FEF7F8FA00214FF43E40FEF7BA
:1045B000F3FA64214BF60160FEF7EEFA00214FF4A6
:1045C0005140FEF7E9FA33214DF20110FEF7E4FA0B
:1045D00000214DF20210FEF7DFFA34214DF20310F4
:1045E000FEF7DAFA00214DF20410FEF7D5FA3A216F
:1045F0004DF20510FEF7D0FA00214DF20610FEF73D
:10460000CBFA4A214DF20710FEF7C6FA00214DF20F
:104610000810FEF7C1FA5C214DF20910FEF7BCFA52
:1046200000214DF20A10FEF7B7FA81214DF20B106E
:10463000FEF7B2FA00214DF20C10FEF7ADFAA621FA
:104640004DF20D10FEF7A8FA00214DF20E10FEF704
:10465000A3FAE5214DF20F10FEF79EFA01214DF26B
:104660001010FEF799FA13214DF21110FEF794FA8B
:1046700001214DF21210FEF78FFA54214DF2131062
:10468000FEF78AFA01214DF21410FEF785FA822115
:104690004DF21510FEF780FA01214DF21610FEF7CB
:1046A0007BFACA214DF21710FEF776FA02214DF27D
:1046B0001810FEF771FA00214DF21910FEF76CFA8E
:1046C00002214DF21A10FEF767FA01214DF21B107C
:1046D000FEF762FA02214DF21C10FEF75DFA34215A
:1046E0004DF21D10FEF758FA02214DF21E10FEF792
:1046F00053FA67214DF21F10FEF74EFA02214DF2D8
:104700002010FEF749FA84214DF22110FEF744FAF9
:1047100002214DF22210FEF73FFAA4214DF22310A0
:10472000FEF73AFA02214DF22410FEF735FAB721CE
:104730004DF22510FEF730FA02214DF22610FEF759
:104740002BFACF214DF22710FEF726FA02214DF267
:104750002810FEF721FADE214DF22910FEF71CFA8F
:1047600002214DF22A10FEF717FAF2214DF22B101A
:10477000FEF712FA02214DF22C10FEF70DFAFE217F
:104780004DF22D10FEF708FA03214DF22E10FEF720
:1047900003FA10214DF22F10FEF7FEF903214DF21E
:1047A0003010FEF7F9F933214DF23110FEF7F4F92C
:1047B00003214DF23210FEF7EFF96D214DF2331067
:1047C000FEF7EAF900214FF45240FEF7E5F93321F4
:1047D0004DF20120FEF7E0F900214DF20220FEF734
:1047E000DBF934214DF20320FEF7D6F900214DF21A
:1047F0000420FEF7D1F93A214DF20520FEF7CCF95D
:1048000000214DF20620FEF7C7F94A214DF207209C
:10481000FEF7C2F900214DF20820FEF7BDF95C2138
:104820004DF20920FEF7B8F900214DF20A20FEF7FB
:10483000B3F981214DF20B20FEF7AEF900214DF2C4
:104840000C20FEF7A9F9A6214DF20D20FEF7A4F9E0
:1048500000214DF20E20FEF79FF9E5214DF20F20C9
:10486000FEF79AF901214DF21020FEF795F9132178
:104870004DF21120FEF790F901214DF21220FEF7C2
:104880008BF954214DF21320FEF786F901214DF2E8
:104890001420FEF781F982214DF21520FEF77CF9F4
:1048A00001214DF21620FEF777F9CA214DF21720AB
:1048B000FEF772F902214DF21820FEF76DF9002182
:1048C0004DF21920FEF768F902214DF21A20FEF789
:1048D00063F901214DF21B20FEF75EF902214DF232
:1048E0001C20FEF759F934214DF21D20FEF754F932
:1048F00002214DF21E20FEF74FF967214DF21F20D5
:10490000FEF74AF902214DF22020FEF745F98421F5
:104910004DF22120FEF740F902214DF22220FEF750
:104920003BF9A4214DF22320FEF736F902214DF286
:104930002420FEF731F9B7214DF22520FEF72CF99E
:1049400002214DF22620FEF727F9CF214DF2272034
:10495000FEF722F902214DF22820FEF71DF9DE2193
:104960004DF22920FEF718F902214DF22A20FEF718
:1049700013F9F2214DF22B20FEF70EF902214DF230
:104980002C20FEF709F9FE214DF22D20FEF704F947
:1049900003214DF22E20FEF7FFF810214DF22F20BB
:1049A000FEF7FAF803214DF23020FEF7F5F8332137
:1049B0004DF23120FEF7F0F803214DF23220FEF7E0
:1049C000EBF86D214DF23320FEF7E6F800214FF4AD
:1049D0005340FEF7E1F833214DF20130FEF7DCF8E9
:1049E00000214DF20230FEF7D7F834214DF20330AA
:1049F000FEF7D2F800214DF20430FEF7CDF83A214F
:104A00004DF20530FEF7C8F800214DF20630FEF7F2
:104A1000C3F84A214DF20730FEF7BEF800214DF2EF
:104A20000830FEF7B9F85C214DF20930FEF7B4F812
:104A300000214DF20A30FEF7AFF881214DF20B3024
:104A4000FEF7AAF800214DF20C30FEF7A5F8A621DA
:104A50004DF20D30FEF7A0F800214DF20E30FEF7BA
:104A60009BF8E5214DF20F30FEF796F801214DF24B
:104A70001030FEF791F813214DF21130FEF78CF84B
:104A800001214DF21230FEF787F854214DF2133018
:104A9000FEF782F801214DF21430FEF77DF88221F5
:104AA0004DF21530FEF778F801214DF21630FEF781
:104AB00073F8CA214DF21730FEF76EF802214DF25D
:104AC0001830FEF769F800214DF21930FEF764F84E
:104AD00002214DF21A30FEF75FF801214DF21B3032
:104AE000FEF75AF802214DF21C30FEF755F834213A
:104AF0004DF21D30FEF750F802214DF21E30FEF748
:104B00004BF867214DF21F30FEF746F802214DF2B7
:104B10002030FEF741F884214DF22130FEF73CF8B9
:104B200002214DF22230FEF737F8A4214DF2233056
:104B3000FEF732F802214DF22430FEF72DF8B721AE
:104B40004DF22530FEF728F802214DF22630FEF70F
:104B500023F8CF214DF22730FEF71EF802214DF247
:104B60002830FEF719F8DE214DF22930FEF714F84F
:104B700002214DF22A30FEF70FF8F2214DF22B30D0
:104B8000FEF70AF802214DF22C30FEF705F8FE215F
:104B90004DF22D30FEF700F803214DF22E30FDF7D7
:104BA000FBFF10214DF22F30FDF7F6FF03214DF2F0
:104BB0003030FDF7F1FF33214DF23130FDF7ECFFDE
:104BC00003214DF23230FDF7E7FF6D214DF2333016
:104BD000FDF7E2FF00214FF45440FDF7DDFF3321E4
:104BE0004DF2014000E084E3FDF7D6FF00214DF2D5
:104BF0000240FDF7D1FF34214DF20340FDF7CCFF19
:104C000000214DF20440FDF7C7FF3A214DF2054067
:104C1000FDF7C2FF00214DF20640FDF7BDFF4A211E
:104C20004DF20740FDF7B8FF00214DF20840FDF7B7
:104C3000B3FF5C214DF20940FDF7AEFF00214DF2BC
:104C40000A40FDF7A9FF81214DF20B40FDF7A4FFBB
:104C500000214DF20C40FDF79FFFA6214DF20D40C3
:104C6000FDF79AFF00214DF20E40FDF795FFE5217B
:104C70004DF20F40FDF790FF01214DF21040FDF77E
:104C80008BFF13214DF21140FDF786FF01214DF2FC
:104C90001240FDF781FF54214DF21340FDF77CFFD8
:104CA00001214DF21440FDF777FF82214DF21540AE
:104CB000FDF772FF01214DF21640FDF76DFFCA218D
:104CC0004DF21740FDF768FF02214DF21840FDF745
:104CD00063FF00214DF21940FDF75EFF02214DF206
:104CE0001A40FDF759FF00E006E301214DF21B4099
:104CF000FDF752FF02214DF21C40FDF74DFF34211C
:104D00004DF21D40FDF748FF02214DF21E40FDF718
:104D100043FF67214DF21F40FDF73EFF02214DF298
:104D20002040FDF739FF84214DF22140FDF734FF8B
:104D300002214DF22240FDF72FFFA4214DF2234026
:104D4000FDF72AFF02214DF22440FDF725FFB72190
:104D50004DF22540FDF720FF02214DF22640FDF7E0
:104D60001BFFCF214DF22740FDF716FF02214DF228
:104D70002840FDF711FFDE214DF22940FDF70CFF21
:104D800002214DF22A40FDF707FFF2214DF22B40A0
:104D9000FDF702FF02214DF22C40FDF7FDFEFE2142
:104DA0004DF22D40FDF7F8FE03214DF22E40FDF7A8
:104DB000F3FE10214DF22F40FDF7EEFE03214DF2E0
:104DC0003040FDF7E9FE33214DF23140FDF7E4FEBE
:104DD00003214DF23240FDF7DFFE6D214DF23340ED
:104DE000FDF7DAFE00214FF45540FDF7D5FE3321E3
:104DF0004DF20150FDF7D0FE00214DF20250FDF7BB
:104E0000CBFE34214DF20350FDF7C6FE00214DF2DA
:104E10000450FDF7C1FE3A214DF20550FDF7BCFEEE
:104E200000214DF20650FDF7B7FE4A214DF2075022
:104E3000FDF7B2FE00214DF20850FDF7ADFE5C21FA
:104E40004DF20950FDF7A8FE00214DF20A50FDF782
:104E5000A3FE81214DF20B50FDF79EFE00214DF285
:104E60000C50FDF799FEA6214DF20D50FDF794FE72
:104E700000214DF20E50FDF78FFEE5214DF20F504F
:104E8000FDF78AFE01214DF21050FDF785FE13213A
:104E90004DF21150FDF780FE01214DF21250FDF749
:104EA0007BFE54214DF21350FDF776FE01214DF2A9
:104EB0001450FDF771FE82214DF21550FDF76CFE86
:104EC00001214DF21650FDF767FECA214DF2175031
:104ED000FDF762FE02214DF21850FDF75DFE002144
:104EE0004DF21950FDF758FE02214DF21A50FDF710
:104EF00053FE01214DF21B50FDF74EFE02214DF2F3
:104F00001C50FDF749FE34214DF21D50FDF744FEC3
:104F100002214DF21E50FDF73FFE67214DF21F505A
:104F2000FDF73AFE02214DF22050FDF735FE8421B7
:104F30004DF22150FDF730FE02214DF22250FDF7D7
:104F40002BFEA4214DF22350FDF726FE02214DF247
:104F50002450FDF721FEB7214DF22550FDF71CFE30
:104F600002214DF22650FDF717FECF214DF22750BA
:104F7000FDF712FE02214DF22850FDF70DFEDE2155
:104F80004DF22950FDF708FE02214DF22A50FDF79F
:104F900003FEF2214DF22B50FDF7FEFD02214DF2F2
:104FA0002C50FDF7F9FDFE214DF22D50FDF7F4FDDB
:104FB00003214DF22E50FDF7EFFD10214DF22F5041
:104FC000FDF7EAFD03214DF23050FDF7E5FD3321F9
:104FD0004DF23150FDF7E0FD03214DF23250FDF767
:104FE000DBFD6D214DF23350FDF7D6FD00214FF46E
:104FF0005640FDF7D1FD33214DF20160FDF7CCFDA8
:1050000000214DF20260FDF7C7FD34214DF203602F
:10501000FDF7C2FD00214DF20460FDF7BDFD3A2110
:105020004DF20560FDF7B8FD00214DF20660FDF779
:10503000B3FD4A214DF20760FDF7AEFD00214DF2B0
:105040000860FDF7A9FD5C214DF20960FDF7A4FDA4
:1050500000214DF20A60FDF79FFD81214DF20B60AA
:10506000FDF79AFD00214DF20C60FDF795FDA6219C
:105070004DF20D60FDF790FD00214DF20E60FDF741
:105080008BFDE5214DF20F60FDF786FD01214DF20C
:105090001060FDF781FD13214DF21160FDF77CFDDD
:1050A00001214DF21260FDF777FD54214DF213609E
:1050B000FDF772FD01214DF21460FDF76DFD8221B7
:1050C0004DF21560FDF768FD01214DF21660FDF708
:1050D00063FDCA214DF21760FDF75EFD02214DF21E
:1050E0001860FDF759FD00214DF21960FDF754FDE0
:1050F00002214DF21A60FDF74FFD01214DF21B60B8
:10510000FDF74AFD02214DF21C60FDF745FD3421FB
:105110004DF21D60FDF740FD02214DF21E60FDF7CE
:105120003BFD67214DF21F60FDF736FD02214DF278
:105130002060FDF731FD84214DF22160FDF72CFD4B
:1051400002214DF22260FDF727FDA4214DF22360DC
:10515000FDF722FD02214DF22460FDF71DFDB72170
:105160004DF22560FDF718FD02214DF22660FDF796
:1051700013FDCF214DF22760FDF70EFD02214DF208
:105180002860FDF709FDDE214DF22960FDF704FDE1
:1051900002214DF22A60FDF7FFFCF2214DF22B6057
:1051A000FDF7FAFC02214DF22C60FDF7F5FCFE2123
:1051B0004DF22D60FDF7F0FC03214DF22E60FDF75E
:1051C000EBFC10214DF22F60FDF7E6FC03214DF2C0
:1051D0003060FDF7E1FC33214DF23160FDF7DCFC7E
:1051E00003214DF23260FDF7D7FC6D214DF23360A3
:1051F000FDF7D2FC55211846FDF7CEFCAA215046FA
:10520000FDF7CAFC52215846FDF7C6FC08214FF2B3
:105210000300FDF7C1FC00214FF20400FDF7BCFCC8
:10522000CC214FF43140FDF7B7FC00214BF20110C7
:10523000FDF7B2FC05214FF43640FDF7ADFC7021BF
:105240004FF43740FDF7A8FC70214BF20170FDF7D9
:10525000A3FC01214FF43840FDF79EFC03214BF6DF
:105260000100FDF799FC03214BF60200FDF794FCC9
:1052700003214BF60300FDF78FFC02214FF43C4065
:10528000FDF78AFC00214BF60140FDF785FC00216B
:105290004BF60240FDF780FCD0214FF44940FDF76A
:1052A0007BFC02214CF60110FDF776FC50214CF6F8
:1052B0000210FDF771FC50214CF60310FDF76CFC59
:1052C00050214CF60410FDF767FC00214FF45450B8
:1052D000FDF762FC55214FF46850FDF75DFC4FF47B
:1052E0008850FDF742FC7720401EC0B2FCD24FF43C
:1052F0002450FDF73AFCBAE04045FCD1E220FDF72E
:1053000034FC1D20FDF725FC0220FDF722FC0420C3
:10531000FDF71FFC6320401EC0B2FCD2E020FDF769
:1053200024FC0120FDF715FC0A20FBF7CBFFE02051
:10533000FDF71BFC0320FDF70CFC0C20FBF7C2FF64
:105340000120FDF712FC0A20FBF7BCFFE620FDF769
:105350000CFC2F20FDF7FDFBFF20FDF7FAFBFF20E3
:10536000FDF7F7FBB020FDF700FC2020FDF7F1FB77
:105370000020FDF7EEFB0320FDF7EBFB40F21F30B2
:10538000FDF7E7FB0120FDF7E4FB40F2DF10FDF73E
:10539000E0FB0020FDF7DDFBB420FDF7E6FB042079
:1053A000FDF7D7FB40F21F40FDF7D3FB0020FDF7D0
:1053B000D0FB2E20FDF7CDFB0020FDF7CAFB00201F
:1053C000FDF7C7FB0020FDF7C4FB0020FDF7C1FB84
:1053D000B620FDF7CAFB0220FDF7BBFB4FF40370BC
:1053E000FDF7B7FB0020FDF7B4FB1720FDF7B1FB7D
:1053F0001520FDF7AEFB0020FDF7ABFB0020FDF70D
:10540000A8FBF020FDF7B1FB0320FDF7A2FB29204C
:10541000FDF7ABFBD020FDF7A8FB0020FDF799FBC3
:10542000BE20FDF7A2FB0520FDF793FBFE20FDF754
:1054300090FB0120FDF78DFB0020FDF78AFB00208B
:10544000FDF787FB0020FDF784FBB820FDF78DFBFF
:105450000320FDF77EFB0120FDF77BFBBA20FDF763
:1054600084FB0120FDF775FB6420FDF715F9A0888A
:10547000B04205D0B84203D0A84201D0404519D16E
:105480004FF02040D0F81C1121F00F01C0F81C1182
:10549000D0F81C1121F47061C0F81C11D0F81C1157
:1054A00041F00301C0F81C11D0F81C1141F4007147
:1054B000C0F81C110020FCF70BFF0548016841F4FF
:1054C000004101604846BDE8F05FFCF7E7BE000020
:1054D00014040240F0B50268254C264D264E274F95
:1054E000274B4FF0804CA04209D0604507D0A8421E
:1054F00005D0B04203D0B84201D0984204D122F086
:10550000700E4A6842EA0E02A0421BD0604519D0D4
:10551000A84217D0B04215D0B84213D0984211D04B
:10552000184DA8420ED0184DA8420BD0174DA842D6
:1055300008D0174DA84205D0164DA84202D0164DEE
:10554000A84203D122F44075CA682A434D6922F06B
:1055500080022A4302608A68C2620A688262A042AC
:1055600001D0984201D10969016301214161F0BD77
:10557000000001400004004000080040000C004012
:105580000004014000400140004401400048014047
:1055900000180040001C0040002000402DE9FF4F93
:1055A00083B00E46DDE910A94E4907464FF4784016
:1055B000DDF8508008604CA01024CDE900404B4D30
:1055C0009346A0216B882A882820FDF798FA48A0E6
:1055D000CDE900406B882A88A0217820FDF78FFA5A
:1055E00044A0CDE900406B882A88B4212820FDF72B
:1055F00086FA41A0CDE900406B882A88B421782042
:10560000FDF77DFA3DA0CDE900406B882A88C821CE
:105610002820FDF774FA3AA0CDE900406B882A886B
:10562000C8217820FDF76BFA36A0CDE900406B88E1
:105630002A88DC212820FDF762FA33A0CDE900405A
:105640006B882A88DC217820FDF759FA2FA0CDE954
:1056500000406B882A88F0212820FDF750FA0423A7
:105660003A46A02140200094FDF70EFA042332466A
:10567000A02190200094FDF707FA04235A46B42194
:1056800040200094FDF700FA04230094B4219020F8
:10569000069AFDF7F9F904235246C82140200094E8
:1056A000FDF7F2F904234A46C82190200094FDF743
:1056B000EBF904230094DC214020129AFDF7E4F971
:1056C00004230094DC219020139AFDF7DDF90323D5
:1056D0004246F02160200094FDF7D6F907B0BDE8FE
:1056E000F08F00002000002078313A00880100206F
:1056F00079313A0078323A0079323A0078333A0018
:1057000079333A0078343A0079343A00666163209C
:1057100069733A002DE9F04FDFF804B41F202DED36
:105720000C8B89B04FF6FF77002425465E46CBF8F8
:105730000000FC4807603846FCF7B0FD4FF478489D
:105740003846C6F80080FCF7A9FDF748A246C6F81F
:1057500000A001684FF01009CDE9009128216423D1
:10576000A0220846FDF7CBF914214246084600F076
:10577000B3FAEE4E86F820A09FEDED0A4FF0010837
:1057800086ED090A9FEDEB8B9FEDEC9B9FEDEDBB4A
:10579000DFF8B8A371680120884796F82000B8EBBD
:1057A000901F48D120F0400086F8200005A8B1895C
:1057B00020F8241000EB8400641C0025F18AE4B278
:1057C0004180012C06D0022C11D0032C1FD0042CB8
:1057D00031D13FE014213A46084600F07DFABAF88C
:1057E00000004FF47842143880B2142121E0BAF856
:1057F00000003A46143880B2142100F06DFABAF86D
:1058000002004FF47842143881B2142011E0BAF843
:1058100002003A46143881B2142000F05DFABAF85A
:1058200002004FF47842143881B2BAF800001438FC
:1058300080B200F051FA0A2000F00EFF6D1CADB2EC
:10584000B5F57A7FA6D900F07FFA09B0BDEC0C8BD4
:10585000BDE8F08FBDF81400BDF81810411A00D54E
:105860004942BDF81600BDF81A20801A00D5404202
:10587000494340430844FAF70DFE41EC100B00F099
:105880002AFE51EC100BFAF712FE84B2BDF81C0090
:10589000BDF82010401A00D54042BDF81E10BDF8DA
:1058A0002220891A00D54942404301FB0100FAF742
:1058B000F1FD41EC100B00F00EFE51EC100BFAF76D
:1058C000F6FD00EE104A80B20090F8EE400A00EEBD
:1058D000100AB8EE401A80EE810A10EE100AFAF7AC
:1058E000FFFD41EC1A0B53EC182BFAF70DFE7DD39C
:1058F00053EC192B51EC1A0BFAF71EFEF7D3002CC0
:1059000074D000980028FBD0BDF81400BDF81C101E
:10591000411A00D54942BDF81600BDF81E20801A74
:1059200000D54042494340430844FAF7B3FD41ECF7
:10593000100B00F0D0FD51EC100BFAF7B8FD84B25B
:10594000BDF81800BDF82010401A00D54042BDF83F
:105950001A10BDF82220891A00D54942404301FBA4
:105960000100FAF797FD41EC100B00F0B4FD51EC8B
:10597000100BFAF79CFD00EE104A80B2F8EE400AD8
:1059800000EE100AB8EE401A80EE810A10EE100AFE
:10599000FAF7A6FDB0EE48CAF0EE68CA41EC1A0B61
:1059A00053EC1C2BFAF7B0FD60D3B0EE49DAF0EE01
:1059B00069DA53EC1D2B51EC1A0BFAF7BDFD55D3E8
:1059C000BDF81800BDF81C10401A00D54042BDF8C3
:1059D0001A10BDF81E20891A00D54942404301FB28
:1059E0000100FAF757FD41EC100B00E064E000F015
:1059F00072FD51EC100BFAF75AFD84B2BDF8140099
:105A0000BDF82010411A00D54942BDF81600BDF876
:105A10002220801A00D54042494340430844FAF707
:105A200039FD41EC100B00F056FD51EC100BFAF76C
:105A30003EFD00EE104A80B2F8EE400A00EE100A79
:105A4000B8EE401A80EE810A10EE100AFAF748FD0F
:105A500041EC1A0B53EC1C2BFAF756FD06D353EC12
:105A60001D2B51EC1A0BFAF767FD71D2BAF8021030
:105A7000BAF8000014391438002489B280B23A46CA
:105A800000F02AF914214FF47842084600F024F976
:105A900053EC1B2B51EC1A0BFAF78AFCFAF707FDB3
:105AA00080B2BDF82210BDF82030BDF81E20CDE92F
:105AB0000310CDE9012324E0BAF80210BAF800007F
:105AC00014391438002489B280B23A4600F004F93F
:105AD00014214FF47842084600F0FEF853EC1B2BDB
