:020000040800F2
:10000000180500209D010008E7170008611100088D
:10001000E517000895040008F13D00080000000005
:10002000000000000000000000000000EB170008C6
:100030009704000800000000E9170008ED17000809
:10004000B7010008B7010008B7010008B7010008B0
:10005000B7010008B7010008B7010008B7010008A0
:10006000B7010008B7010008B7010008B701000890
:10007000B7010008B7010008B7010008B701000880
:10008000B7010008B7010008B7010008B701000870
:10009000B7010008B7010008B7010008B701000860
:1000A000B7010008B7010008B7010008B701000850
:1000B000B7010008B7010008B7010008B701000840
:1000C000B7010008B7010008B7010008B701000830
:1000D000B7010008E53D0008B7010008B7010008B6
:1000E000B7010008B7010008B7010008B701000810
:1000F000B7010008B7010008B7010008B701000800
:10010000B7010008B7010008B7010008B7010008EF
:10011000B7010008B7010008B7010008B7010008DF
:10012000B7010008B7010008B7010008B7010008CF
:10013000B7010008B7010008B7010008B7010008BF
:10014000B7010008B7010008B7010008B7010008AF
:10015000B7010008B7010008B7010008B70100089F
:10016000B7010008B7010008B7010008B70100088F
:10017000B7010008B7010008B7010008000000003F
:10018000B7010008B7010008DFF80CD000F070F9E3
:1001900000480047354200081805002006488047FF
:1001A00006480047FEE7FEE7FEE7FEE7FEE7FEE75C
:1001B000FEE7FEE7FEE7FEE7751800088901000884
:1001C0002DE9F05F0546002092469B46884606468C
:1001D000814640241BE0284641464746224600F01F
:1001E000D9F853465A46C01A914110D311461846C1
:1001F000224600F0C0F82D1A67EB01084F46224650
:100200000120002100F0B7F817EB00094E41201E35
:10021000A4F10104DFDC484631462A464346BDE8E6
:10022000F09FD2B201E000F8012B491EFBD27047CB
:100230000022F6E710B513460A4604461946FFF7B2
:10024000F0FF204610BD2DE9FE4F81EA030404F0C3
:10025000004421F0004100944FF0000B23F00043D4
:1002600050EA01045ED052EA03045BD0C3F30A549F
:10027000C1F30A552C44A4F2F3340194A0FB0254B8
:10028000C1F3130141F48011C3F3130343F480134A
:1002900001FB024400FB034E840A970A44EA81549E
:1002A00047EA8357A4FB076802958D0A05FB07857B
:1002B0004FEA932C04FB0C542705029D4FEA065885
:1002C00047EA1637B5EB08056EEB070C870E920E62
:1002D00047EA811742EA8312A7FB0201B6EB0B0142
:1002E00064EB00042B0D43EA0C335E1844EB1C5006
:1002F000DA465146E7FB0201C5F313044FEA0B331C
:1003000043EA14534FEA0432019C43EA0603A4F182
:100310000C040294009CCDE900B400F05AF803B03C
:10032000BDE8F08F00200146F9E70EB540F23341F9
:1003300002910021CDE900110A460B4600F049F870
:1003400003B000BDC1F30A5210B5C1F3130140F26E
:10035000FF3341F480119A4201DA002010BD40F2CF
:1003600033439A42A2F2334203DC524200F012F8C5
:1003700010BD904010BD202A04DB203A00FA02F1A3
:10038000002070479140C2F1200320FA03F3194383
:1003900090407047202A04DB203A21FA02F0002125
:1003A000704721FA02F3D040C2F120029140084385
:1003B0001946704710B5141E73F1000408DA401C8A
:1003C00041F1000192185B411A4301D120F0010074
:1003D00010BD2DE9F04D92469B4611B1B1FA81F264
:1003E00002E0B0FA80F220329046FFF7C4FF0446E4
:1003F0000F4640EA0A0041EA0B0153465A460843B9
:1004000013D0114653EA010019D0C8F140025046FA
:10041000FFF7C0FF05460E46504659464246FFF7D5
:10042000AAFF084305D0012004E020463946BDE874
:10043000F08D0020054346EAE0762C4337430A98C6
:100440006305E40AA0EB08000022FD0A44EA4754D1
:100450000A3002D500200146E9E70105101969417B
:10046000DDE9084500196941BDE8F04DA2E700004B
:10047000064C074D06E0E06840F0010394E80700F1
:1004800098471034AC42F6D3FFF782FE04430008CD
:1004900024430008FEE770477047000070B5B3F5CD
:1004A000804F05D06FF0704140F82210002070BDE1
:1004B00050F82240084B8E891C40D1E9003543EAB0
:1004C00005138D6889692D0245EA06452B430B43C8
:1004D000234340F82230E9E70000F0CFF0B50C6884
:1004E00050F82430114A1340D1E90125D1E90367BE
:1004F0002A433E4332434E6932438E693243CE69CA
:1005000032430E6A32434E6A32438E6A3243CE6AB7
:100510003243CE6B096B32430A431A43082D01D193
:1005200042F0400240F824200020F0BD8000F0FF9F
:1005300030B500EB820250688D8900F04043D1E96C
:10054000000440EA04108C68240244EA0544204375
:100550000C8A074D05EB045420430C7D6D0105EB1F
:10056000046489692043084318435060002030BD6B
:100570000000F0FF10B5040002D0607910B106E071
:10058000012010BD00202071204600F005F8012058
:100590006071002010BD000008B50068064988425F
:1005A00008D10648016841F480510160006800F4F8
:1005B0008050009008BD00000030024030380240FA
:1005C00090F83510022903D0802141650120704741
:1005D000052180F835100068016821F001010160F3
:1005E0000020704770B5044600F044F90546601CD1
:1005F00002D004480078044400F03CF9401BA042BB
:10060000FAD370BD10000020F0B587B01421684601
:10061000FFF70EFE2048016800293AD10121016050
:100620001E480024016841F00101016000680225B4
:1006300000F0010005904FF23F00CDE9000502AA4D
:1006400003260C2782E8D0006946154800F030F8F0
:1006500041F23F40CDE9000502AA694682E8D00098
:10066000104800F025F84FF68370CDE9000502AA86
:10067000694682E8D0000C4800F01AF84FF6337053
:10068000CDE9000502AA694682E8D000074800F0DB
:100690000FF807B0F0BD0000080000203838024015
:1006A000001402400018024000100240000C0240FA
:1006B0002DE9F84F00224FF0010803254FF00F0EEF
:1006C0000B6808FA02F42340A3426ED14E68012E53
:1006D00005D0022E03D0112E01D0122E12D1866821
:1006E0004FEA420C05FA0CF7BE43CF6807FA0CF745
:1006F000374387604668A6430C79C4F300149440DE
:1007000034434460C668570005FA07FC8C6826EA43
:100710000C06BC403443C4604C68022C01D0122C3F
:1007200013D1D40800EB8404A346D4F820905407D6
:100730004FEAD46A0EFA0AF629EA06090E6906FAA1
:100740000AF646EA0906CBF8206006680C7926EA24
:100750000C0604F00304BC40344304604C68E4001D
:1007600065D5364C266846F480462660246822F01B
:10077000030604F480440094314C3444A446D4F875
:1007800008489607370F0EFA07F6B4432D4EB042CD
:1007900001D1002624E02C4EB04201D101261FE0F9
:1007A0002A4EB04202D102261AE040E0284EB04262
:1007B00001D1032614E0274EB04201D104260FE0F8
:1007C000254EB04201D105260AE0244EB04201D1A7
:1007D000062605E0224EB04201D1072600E0082699
:1007E000BE402643CCF808681E4E34684F689C43D0
:1007F000FF0300D51C4334601A4C241D26684F6843
:100800009E43BF0300D51E432660164E083634684B
:100810004F689C43FF0200D51C433460114E0C36D8
:1008200034684F689C43BF0200D51C433460521C9F
:10083000102AFFF445AFBDE8F88F000044380240AD
:100840000030014000000240000402400008024065
:10085000000C024000100240001402400018024048
:10086000001C0240003C01400AB18161704709044C
:10087000FBE700000148806870470000100000207E
:10088000024881680278114481607047100000209E
:100890000B4810B5016841F400710160016841F432
:1008A00080610160016841F480710160032000F003
:1008B0006FF8002000F006F800F024F8002010BDCA
:1008C000003C024070B50D4D04464FF47A71287813
:1008D000B1FBF0F00A490968B1FBF0F000F02FFB22
:1008E00048B9102C07D200222146501E00F030F8E3
:1008F00000206C6070BD012070BD00001000002061
:100900001C0000200A4808B5016841F480410160DC
:10091000006800F4804000900548001F016841F025
:1009200080510160006800F08050009008BD000018
:1009300044380240002809DB00F01F0201219140E9
:100940004009800000F1E020C0F80011704700006D
:10095000F0B40E4B1B680C46C3F30223C3F107052A
:10096000042D00D90425191D072901D2002300E018
:10097000DB1E012606FA05F1491E214099409E40E2
:10098000761E16403143F0BC03F044BA0CED00E093
:10099000064900F0070208684FF6FF03184040EAD6
:1009A0000220034A10430860704700000CED00E08D
:1009B0000000FA052DE9F0470E46050065D0DFF886
:1009C0001481D8F80000F7B200F00F00B04207D24F
:1009D00088F80070D8F8000000F00F00B04254D141
:1009E00028683D4C810712D5400703D5206840F4A4
:1009F000E05020602878000703D5206840F460406C
:100A000020602068A96820F0F00008432060287862
:100A1000C0072DD0304968680839012812D0022853
:100A200013D0032811D00968890700292DDA21681D
:100A300021F0030101432160FFF71CFF814641F2D1
:100A4000883A0EE009688903EFE709688901ECE755
:100A5000FFF710FFA0EB0901514502D90320BDE8C3
:100A6000F0872068696800F00C00B0EB810FEFD1CF
:100A7000D8F80010404601F00F01B14207D90770C5
:100A8000006800F00F00B04201D00120E7E72878AD
:100A9000400705D52068E96820F4E050084320604D
:100AA0002878000706D52068296920F4604040EACC
:100AB000C100206000F038F82168084AC1F3031132
:100AC000515CC8400649086006480068FFF7FAFE16
:100AD0000020C4E7003C024008380240EC42000815
:100AE0001C00002014000020044805490068096823
:100AF000044AC1F38221515CC84070471C000020A9
:100B000008380240FC4200080448054900680968AA
:100B1000044AC1F34231515CC84070471C000020B8
:100B200008380240FC420008154810B5006810F073
:100B30000C02144813D04110042A0FD0082A0ED1F9
:100B40000F4C241F2268236802F03F025B0207D586
:100B50002068C0F38810A0FB010106E0084610BD24
:100B60002168C1F38811A1FB00010023FFF728FBD6
:100B70002168C1F30141491C4900B0FBF1F010BDEF
:100B8000083802400024F4002DE9F84F04006ED02C
:100B90002078DFF83C93C007A9F104054AD009F199
:100BA00004000168C1F38101012908D00068C0F385
:100BB000810002280AD1D9F80000400206D5286831
:100BC000800337D560680028E1D033E06068B0F575
:100BD000803F10D0B0F5A02F286810D020F48030CE
:100BE0002860286820F4802028606068A8B1FFF79A
:100BF00041FE06460DE0286840F48030F4E740F4FA
:100C000080202860F7E700BFFFF734FE801B6428D0
:100C100073D828688003F7D50CE0FFF72BFE064653
:100C200005E000BFFFF726FE801B6428F0D8286887
:100C30008003F7D42078DFF89C8280074FF0000A09
:100C40003ED5A348001D016811F00C0F08D00068C4
:100C5000C0F3810002280BD1D9F80000400207D46C
:100C60002868800716D5E068012800D112E02BE142
:100C7000E068B8B10120C8F80000FFF7FBFD0646A8
:100C800005E000BFFFF7F6FD801B0228C0D82868EA
:100C90008007F7D52868216920F0F80040EAC100F4
:100CA00028600DE0C8F800A0FFF7E4FD064604E068
:100CB000FFF7E0FD801B02281FD828688007F7D4C3
:100CC0002078000722D5824E83486169703671B161
:100CD00001210160FFF7CEFD074604E0FFF7CAFDE2
:100CE000C01B022809D830688007F7D50EE0C0F88D
:100CF00000A0FFF7BFFD074605E082E0FFF7BAFD61
:100D0000C01B02287DD830688007F7D420784007C0
:100D100068D5DFF8BCB100270BF13C0BDBF8000015
:100D2000C0000BD4DBF8001041F08051CBF800106C
:100D3000DBF80000012700F080500090674E30681B
:100D4000C00510D4306840F480703060FFF792FD29
:100D5000009005E0FFF78EFD0099401A022850D858
:100D60003068C005F6D55A4EA0686C3601280FD001
:100D70000528306810D020F001003060306820F085
:100D800004003060A068B8B1FFF774FD00900FE078
:100D9000306840F00100F4E740F004003060F7E70D
:100DA000FFF768FD0099411A41F28830814266D808
:100DB00030688007F4D50EE0FFF75CFD009007E097
:100DC000FFF758FD0099411A41F28830814256D808
:100DD00030688007F4D42FB1DBF8001021F0805187
:100DE000CBF80010A069C8B33949091D0968C1F3DF
:100DF000810102294AD00228504607D0C8F8600075
:100E000000E03CE0FFF736FD04463BE04746C8F80B
:100E10006000FFF72FFD064605E000BFFFF72AFD43
:100E2000801B02282BD828688001F7D4D4E9070159
:100E30000843A16A2A4A490802EB0141626A41EA71
:100E40008211084394F82C1040EA0161C9F800109F
:100E500001203866FFF70EFD044606E036E000BFCD
:100E6000FFF708FD001B022809D828688001F7D584
:100E70002CE000BFFFF7FEFC001B022802D9032074
:100E8000BDE8F88F28688001F4D41FE00128F7D06E
:100E9000D9F80000E26900F48001914214D1226A7D
:100EA00000F03F0191420FD147F6C071626A0140E4
:100EB000914209D1A26A00F44031914204D1E16A21
:100EC00000F07060884201D00120D9E70020D7E708
:100ED0000438024000004742800E47420070004044
:100EE0000000FFFF70B515460E46040003D094F8CD
:100EF000490010B107E0012070BD002084F84800CF
:100F0000204600F01AF804F108012068FFF7E6FA1D
:100F10003146A2682068FFF70BFBD4E9010229469D
:100F2000236BFFF7BBFAA168206850F8212042F03C
:100F3000010240F82120002070BDFFF765BB10B50D
:100F4000401EB0F1807F01D3012010BD4FF0E0249E
:100F500060610F21601702F05DFF0020A061072093
:100F60002061002010BD704770B50268044610680B
:100F7000D168536910F00F0F52D003F0010501F44E
:100F800090762E435FD0C20705D0CA0503D5E26B29
:100F900042F00102E263420705D5DA0703D0E26BB3
:100FA00042F00202E263820705D5DA0703D0E26B62
:100FB00042F00402E263020707D501F020022A434F
:100FC00003D0E26B42F00802E263E26B002A33D006
:100FD000800604D5880602D5204602F0F1FD20687F
:100FE0004069E16BC0F38010090700D428B32046A4
:100FF00002F0D8FD2068416949061AD5416921F0FF
:1010000040014161606BA0B11B490165606BFFF756
:10101000D7FA002810D0606B016DBDE8704008471A
:10102000830610D58B060ED52046BDE8704002F031
:10103000C7BD2046FFF797FF70BD2046FFF793FF1F
:101040000020E06370BD030606D50B0604D52046DC
:10105000BDE8704002F094BE4006F3D54806F1D5D5
:10106000D168204621F04001D160202184F8391058
:1010700000F075F870BD0000953B000870B50400E5
:1010800004D094F83900002510B106E0012070BDAD
:1010900084F83850204600F023F8242084F83900E2
:1010A0002068C16821F40051C160204602F0D4FDDF
:1010B0002068016921F4904101612068416921F0B3
:1010C0002A0141612068C16841F40051C160E563B3
:1010D000202084F8390084F83A00002070BD000018
:1010E00010B586B0044614216846FFF7A1F81849E8
:1010F0002068884229D117480021026842F0100276
:101100000260006800F01000059012481438026870
:1011100042F001020260006800F0010005904FF407
:10112000C06000900220CDE9010103200390072058
:10113000049069460848FFF7BBFA002211462520B3
:10114000FFF706FC2520FFF7F5FB06B010BD0000F9
:1011500000100140443802400000024070477047D0
:10116000FEE7000070B50B490646002408884D884C
:1011700021464543204600F089F900F021FAB0B23B
:101180004FF0D84103E000BFA1F88000641CAC42DE
:10119000FAD370BD040100202DE9F04F33492C240F
:1011A0000A4688712A2592882B2645F2105B4FF457
:1011B000305E4FF448774FF0F00949F2413A4FF46E
:1011C000A07845F2103C4FF4F07358B1A1F80080BC
:1011D000A1F80290524501D0624529D10C814D8180
:1011E0008E8139E0A1F80090A1F80280524501D02B
:1011F000624508D10C814D818E81624531D1A1F8C3
:1012000000804B802DE05A4508D1A1F808E04FF44A
:10121000285048814FF42C50888106E0A2F5C85030
:1012200063381ED10C814E818D810B804F8018E078
:101230005A4508D1A1F808E04FF4285048814FF4EE
:101240002C50888106E0A2F5C850633804D10C8187
:101250004D818E810F804B80624502D10B80A1F8B9
:101260000280BDE8F04F002000F034B804010020F7
:1012700008B54FF0D840B0F88000ADF80000BDF8D8
:10128000000008BD10B50246BE2000F08DF9052013
:1012900000F07EF91046FFF748F89FED0C1B53EC69
:1012A000112BFEF7D0FFFFF74DF880B200F070F978
:1012B000012000F06DF9FF2000F06AF9002000F035
:1012C00067F9BDE81040002000F062B96666666606
:1012D00066660440F0B56C4C00232146A2798988EB
:1012E00041F66316012A01D01AB11BE0B14202D1C6
:1012F00018E0B14216D1082814D2DFE800F0040645
:10130000080A0C0E101206200CE007200AE0042048
:1013100008E0052006E0012004E0002002E00320B0
:1013200000E00220A1F5134745F2103245F21055B6
:10133000413F05D0914203D0A94201D0B14277D1BB
:10134000082812D2DFE800F0110406080A0C0E107B
:1013500080230AE0402308E0C02306E0202304E0C5
:10136000602302E0A02300E0E023A94202D14FF471
:10137000585000E03620914205D0A94203D0B14236
:1013800001D043F00803194600F024F9A188B142C6
:101390000AD098062088628802D5904202D303E0E2
:1013A000904201D9228060806089A94241D100F039
:1013B000FBF8002000F0ECF86089401C80B200F0DF
:1013C000F3F8002000F0E4F86089801C80B200F09F
:1013D000EBF82088401EC0F30F2000F0D9F8608998
:1013E000C01C80B200F0E0F82078401EC0B200F0CF
:1013F000CFF8A08900F0D8F8002000F0C9F8A08943
:10140000401C80B200F0D0F8002000F0C1F8A089A4
:10141000801C80B200F0C8F86088401EC0F30F2026
:1014200000F0B6F8A089C01C80B200F0BDF822E040
:1014300028E000F0B9F8002000F0AAF8002000F041
:10144000A7F82088401EC0F30F2000F0A1F82078F4
:10145000401EC0B200F09CF8A08900F0A5F8002062
:1014600000F096F8002000F093F86088401EC0F36A
:101470000F2000F08DF8A078BDE8F040401EC0B20B
:1014800000F086B8F0BD000004010020F0B53F4A2E
:101490000D460446060A918810462F0A4089A1F598
:1014A0001343413B28D0A1F5A643103B24D0A1F51E
:1014B000C853633B2FD0A1F5AA43103B64D100F081
:1014C00073F8304600F064F85089401C80B200F098
:1014D0006BF8E0B200F05CF8908900F065F83846EF
:1014E00000F056F89089401C80B200F05DF8E8B238
:1014F000BDE8F04000F04CB800F056F8304600F07F
:1015000047F8E0B200F044F8908900F04DF8384612
:1015100000F03EF8EBE7917929B300F045F830464A
:1015200000F036F8E0B200F033F81088401EC0F347
:101530000F2000F02DF81078401EC0B200F028F8FF
:10154000908900F031F8384600F022F8E8B200F057
:101550001FF85088401EC0F30F2000F019F8907853
:10156000401EC0B2C4E71188091B491E8CB200F0AE
:101570001BF8002000F00CF8002000F009F8200A09
:1015800000F006F8E0B2D9E7F0BD00000401002049
:1015900001B5BDF80000ADF80000BDF800004FF047
:1015A000D841A1F8800008BD01B5BDF80000ADF834
:1015B0000000BDF800004FF0D841A1F87E0008BD42
:1015C00003484FF0D8410089A1F87E007047000021
:1015D000040100204FF0D84222F87E0F518070475E
:1015E000074910B5054808600846FEF7C3FF002804
:1015F00003D0BDE81040FEF74FBF10BD00300240E1
:10160000000000202DE9F04788B01C216846FEF755
:101610000FFE2A4806210024C0E902141025C0E963
:1016200004458461C4614FF4805A0462C0E9094AE8
:10163000C46204634463DFF8889084634FF02047FA
:101640004464C0E900790F26FF200096CDE90160CF
:101650004FF01108CDE90584CDE903650022694604
:101660001648FFF73FFC08B1FEF716FF13480421A8
:1016700050300022C0E90214C0E904458461C4610D
:101680000462C0E9094AC462046344638463446435
:10169000C0E90079CDE9004602A9072081E83101BF
:1016A0000648694650300694FFF71CFC002801D01C
:1016B000FEF7F2FE08B0BDE8F0870000240000202D
:1016C000040100A02DE9F04186B014216846FEF720
:1016D000AFFD3348016841F004010160016801F089
:1016E00004010591016841F020010160016801F0E9
:1016F00020010591016841F080010160016801F05D
:1017000080010591016841F040010160016801F02C
:1017100040010591016841F010010160016801F08C
:1017200010010591016841F002010160016801F0BA
:1017300002010591016841F008010160016801F0B2
:1017400008010591016841F0010101600068154F31
:1017500000F001004FF4C064059001222146384694
:10176000FFF782F8DFF840804FF400460022314650
:101770004046FFF779F8009401240225694638466F
:101780000194CDE90245FEF793FFCDE90064694677
:101790004046CDE90245FEF78BFF06B0BDE8F0817B
:1017A0003038024000140240000402400C4810B5DA
:1017B0000A4901604FF4E1314160002181600C224F
:1017C000C160C0E904128161C161FFF757FC0028C4
:1017D00003D0BDE81040FEF75FBE10BD0010014011
:1017E000C4000020FEE7704770477047FFF748B815
:1017F00030B593B030216846FEF71AFD14210CA8CD
:10180000FEF716FD19480025016841F0805101607E
:10181000006800F0805011901548016841F4804143
:1018200001600068022400F48040119001200090C3
:10183000000401908001CDE9064008AA0420A821F7
:1018400082E813000B906846FFF79EF90CA90F2061
:1018500081E831004FF4A0500F90E0021090052174
:101860000CA8FFF7A7F813B030BD000040380240C5
:10187000007000400548016841F4700101600349AF
:101880004FF00060803908607047000088ED00E08C
:101890002DE9F05F3220FEF7A5FED320FFF784FE8E
:1018A000FFF7E6FCFE4CA080FFF7E2FCA080FFF70C
:1018B000DFFC4FF6FF7909EA0020A080FFF7D8FC93
:1018C000A18849F241360843A08045F2103745F21D
:1018D000105541F66318B04247D0D420FFF764FE9C
:1018E000FFF7C6FCA080FFF7C3FCA080FFF7C0FC99
:1018F00009EA00204A46A080FFF7BAFCA188084305
:10190000A080B84231D04FF45A40FFF74DFEFFF7A8
:10191000AFFCA0804FF45B40FFF746FEFFF7A8FC4A
:1019200002EA0020A0804FF45C40FFF73DFEFFF785
:101930009FFCA1880843A080B0F5004F7DD0A8424D
:1019400013D0A120FFF730FEFFF792FCA080FFF735
:101950008FFC02EA0020A080FFF78AFCA1880843E0
:10196000A0F5AE41A080613968D080B2B04266D1A6
:10197000CF20FFF719FE0020FFF70AFEC120FFF776
:1019800007FE3020FFF704FEED20FFF70DFE642078
:10199000FFF7FEFD0320FFF7FBFD1220FFF7F8FD28
:1019A0008120FFF7F5FDE820FFF7FEFD8520FFF71A
:1019B000EFFD1020FFF7ECFD7A20FFF7E9FDCB20CB
:1019C000FFF7F2FD3920FFF7E3FD2C20FFF7E0FDE4
:1019D0000020FFF7DDFD3420FFF7DAFD0220FFF7DE
:1019E000D7FDF720FFF7E0FD2020FFF7D1FDEA202B
:1019F000FFF7DAFD0020FFF7CBFD0020FFF7C8FD61
:101A0000C020FFF7D1FD1B20FFF7C2FDC120FFF76B
:101A1000CBFD0120FFF7BCFDC520FFF7C5FD302041
:101A2000FFF7B6FD3020FFF7B3FDC720FFF7BCFD81
:101A3000B720FFF7ADFD362002E0B5E0B0E0B5E03D
:101A4000FFF7B2FD4820FFF7A3FD3A20FFF7ACFDFA
:101A50005520FFF79DFDB120FFF7A6FD0020FFF701
:101A600097FD1A20FFF794FDB620FFF79DFD0A2091
:101A7000FFF78EFDA220FFF78BFDF220FFF794FD0C
:101A80000020FFF785FD2620FFF78EFD0120FFF7E0
:101A90007FFDE020FFF788FD0F20FFF779FD2A206A
:101AA000FFF776FD2820FFF773FD0820FFF770FD94
:101AB0000E20FFF76DFD0820FFF76AFD5420FFF7A9
:101AC00067FDA920FFF764FD4320FFF761FD0A20B1
:101AD000FFF75EFD0F20FFF75BFD0020FFF758FDCD
:101AE0000020FFF755FD0020FFF752FD0020FFF713
:101AF0004FFDE120FFF758FD0020FFF749FD1520BD
:101B0000FFF746FD1720FFF743FD0720FFF740FDD5
:101B10001120FFF73DFD0620FFF73AFD2B20FFF7D0
:101B200037FD5620FFF734FD3C20FFF731FD05203F
:101B3000FFF72EFD1020FFF72BFD0F20FFF728FDEC
:101B40003F20FFF725FD3F20FFF722FD0F20FFF785
:101B50001FFD2B20FFF728FD0020FFF719FD0020B7
:101B6000FFF716FD0120FFF713FD3F20FFF710FDE3
:101B70002A20FFF719FD0020FFF70AFD0020FFF7DC
:101B800007FD0020FFF704FDEF20FFF701FD112006
:101B9000FFF70AFD7820FEF725FD292001F009BF97
:101BA000A4F8048001F00ABFA580FDE3B84276D115
:101BB000ED20FFF7F9FC0120FFF7EAFCFE20FFF71C
:101BC000E7FCEE20FFF7F0FCDE20FFF7E1FC212030
:101BD000FFF7DEFCF120FFF7E7FC0120FFF7D8FC60
:101BE000DF20FFF7E1FC1020FFF7D2FCC420FFF755
:101BF000DBFC8F20FFF7CCFCC620FFF7D5FC0020D4
:101C0000FFF7C6FCE220FFF7C3FCE220FFF7C0FCB1
:101C1000E220FFF7BDFCBF20FFF7C6FCAA20FFF7BC
:101C2000B7FCB020FFF7C0FC0D20FFF7B1FC00208F
:101C3000FFF7AEFC0D20FFF7ABFC0020FFF7A8FC80
:101C40001120FFF7A5FC0020FFF7A2FC1920FFF7E9
:101C50009FFC0020FFF79CFC2120FFF799FC00204F
:101C6000FFF796FC2D20FFF793FC0020FFF790FC78
:101C70003D20FFF78DFC0020FFF78AFC5D20FFF779
:101C800087FC0020FFF784FC5D20FFF781FC00202B
:101C9000FFF77EFCB120FFF787FC802002E0FDE328
:101CA00004010020FFF774FC0020FFF771FC8B207B
:101CB000FFF76EFC0020FFF76BFC9620FFF768FC37
:101CC0000020FFF765FCB220FFF76EFC0020FFF755
:101CD0005FFC0020FFF75CFC0220FFF759FC0020AE
:101CE000FFF756FC0320FFF753FC0020FFF750FCE2
:101CF000B320FFF759FC0020FFF74AFC0020FFF754
:101D000047FC0020FFF744FC0020FFF741FC0020C7
:101D1000FFF73EFC0020FFF73BFC0020FFF738FCFC
:101D20000020FFF735FC0020FFF732FC0020FFF712
:101D30002FFC0020FFF72CFC0020FFF729FC0020DF
:101D4000FFF726FC0020FFF723FC0020FFF720FC14
:101D50000020FFF71DFC0020FFF71AFC0020FFF712
:101D600017FC0020FFF714FC0020FFF711FC0020F7
:101D7000FFF70EFC0020FFF70BFC0020FFF708FC2C
:101D80000020FFF705FCB420FFF70EFC8B20FFF7C7
:101D9000FFFB0020FFF7FCFB9620FFF7F9FB00207C
:101DA000FFF7F6FBA120FFF7F3FB0020FFF7F0FBA6
:101DB000B520FFF7F9FB0220FFF7EAFB0020FFF751
:101DC000E7FB0320FFF7E4FB0020FFF7E1FB042023
:101DD000FFF7DEFB0020FFF7DBFBB620FFF7E4FB9D
:101DE0000020FFF7D5FB0020FFF7D2FBB720FFF75D
:101DF000DBFB0020FFF7CCFB0020FFF7C9FB3F20F7
:101E0000FFF7C6FB0020FFF7C3FB5E20FFF7C0FB18
:101E10000020FFF7BDFB6420FFF7BAFB0020FFF7AF
:101E2000B7FB8C20FFF7B4FB0020FFF7B1FBAC2021
:101E3000FFF7AEFB0020FFF7ABFBDC20FFF7A8FBB2
:101E40000020FFF7A5FB7020FFF7A2FB0020FFF7A3
:101E50009FFB9020FFF79CFB0020FFF799FBEB20F6
:101E6000FFF796FB0020FFF793FBDC20FFF790FBCA
:101E70000020FFF78DFBB820FFF796FB0020FFF74F
:101E800087FB0020FFF784FB0020FFF781FB002089
:101E9000FFF77EFB0020FFF77BFB0020FFF778FBBE
:101EA0000020FFF775FB0020FFF772FBBA20FFF759
:101EB0007BFB2420FFF76CFB0020FFF769FB002071
:101EC000FFF766FB0020FFF763FBC120FFF76CFB09
:101ED0002020FFF75DFB0020FFF75AFB5420FFF79F
:101EE00057FB0020FFF754FBFF20FFF751FB0020BA
:101EF000FFF74EFBC220FFF757FB0A20FFF748FB16
:101F00000020FFF745FB0420FFF742FB0020FFF70E
:101F10003FFBC320FFF748FB3C20FFF739FB0020C5
:101F2000FFF736FB3A20FFF733FB0020FFF730FBCB
:101F30003920FFF72DFB0020FFF72AFB3720FFF7A2
:101F400027FB0020FFF724FB3C20FFF721FB0020AC
:101F5000FFF71EFB3620FFF71BFB0020FFF718FBE7
:101F60003220FFF715FB0020FFF712FB2F20FFF7B1
:101F70000FFB0020FFF70CFB2C20FFF709FB0020D4
:101F8000FFF706FB2920FFF703FB0020FFF700FB0C
:101F90002620FFF7FDFA0020FFF7FAFA2420FFF7CA
:101FA000F7FA0020FFF7F4FA2420FFF7F1FA0020F7
:101FB000FFF7EEFA2320FFF7EBFA0020FFF7E8FA2D
:101FC0003C20FFF7E5FA0020FFF7E2FA3620FFF7A2
:101FD000DFFA0020FFF7DCFA3220FFF7D9FA002001
:101FE000FFF7D6FA2F20FFF7D3FA0020FFF7D0FA39
:101FF0002C20FFF7CDFA0020FFF7CAFA2920FFF7BF
:10200000C7FA0020FFF7C4FA2620FFF7C1FA002024
:10201000FFF7BEFA2420FFF7BBFA0020FFF7B8FA5B
:102020002420FFF7B5FA0020FFF7B2FA2320FFF7CC
:10203000AFFA0020FFF7ACFAC420FFF7B5FA622030
:10204000FFF7A6FA0020FFF7A3FA0520FFF7A0FA92
:102050000020FFF79DFA8420FFF79AFA0020FFF78F
:1020600097FAF020FFF794FA0020FFF791FA182072
:10207000FFF78EFA0020FFF78BFAA420FFF788FA0B
:102080000020FFF785FA1820FFF782FA0020FFF7FB
:102090007FFA5020FFF77CFA0020FFF779FA0C2036
:1020A000FFF776FA0020FFF773FA1720FFF770FAB0
:1020B0000020FFF76DFA9520FFF76AFA0020FFF77E
:1020C00067FAF320FFF764FA0020FFF761FAE620D1
:1020D000FFF75EFA0020FFF75BFAC520FFF764FA0E
:1020E0003220FFF755FA0020FFF752FA4420FFF79D
:1020F0004FFA0020FFF74CFA6520FFF749FA00205D
:10210000FFF746FA7620FFF743FA0020FFF740FA80
:102110008820FFF73DFA0020FFF73AFAC620FFF7C4
:1021200043FA2020FFF734FA0020FFF731FA172096
:10213000FFF72EFA0020FFF72BFA0120FFF728FA0D
:102140000020FFF725FAC720FFF72EFA0020FFF73F
:102150001FFA0020FFF71CFA0020FFF719FA0020F1
:10216000FFF716FAC820FFF71FFA0020FFF710FA52
:102170000020FFF70DFA0020FFF70AFA0020FFF712
:1021800007FAC920FFF710FA0020FFF701FA002034
:10219000FFF7FEF90020FFF7FBF90020FFF7F8F941
:1021A0000020FFF7F5F90020FFF7F2F90020FFF714
:1021B000EFF90020FFF7ECF90020FFF7E9F9002024
:1021C000FFF7E6F90020FFF7E3F90020FFF7E0F959
:1021D0000020FFF7DDF90020FFF7DAF90020FFF714
:1021E000D7F90020FFF7D4F9E020FFF7DDF916203A
:1021F000FFF7CEF90020FFF7CBF91C20FFF7C8F955
:102200000020FFF7C5F92120FFF7C2F90020FFF7F2
:10221000BFF93620FFF7BCF90020FFF7B9F94620D7
:10222000FFF7B6F90020FFF7B3F95220FFF7B0F936
:102230000020FFF7ADF96420FFF7AAF90020FFF7AF
:10224000A7F97A20FFF7A4F90020FFF7A1F98B2066
:10225000FFF79EF90020FFF79BF99920FFF798F907
:102260000020FFF795F9A820FFF792F90020FFF76B
:102270008FF9B920FFF78CF90020FFF789F9C42006
:10228000FFF786F90020FFF783F9CA20FFF780F9EE
:102290000020FFF77DF9D220FFF77AF90020FFF741
:1022A00077F9D920FFF774F90020FFF771F9E020E2
:1022B000FFF76EF90020FFF76BF9F320FFF768F9DD
:1022C0000020FFF765F9E120FFF76EF91620FFF710
:1022D0005FF90020FFF75CF91C20FFF759F9002097
:1022E000FFF756F92220FFF753F90020FFF750F9C6
:1022F0003620FFF74DF90020FFF74AF94520FFF798
:1023000047F90020FFF744F95220FFF741F9002078
:10231000FFF73EF96420FFF73BF90020FFF738F99B
:102320007A20FFF735F90020FFF732F98B20FFF70D
:102330002FF90020FFF72CF99920FFF729F9002049
:10234000FFF726F9A820FFF723F90020FFF720F96F
:10235000B920FFF71DF90020FFF71AF9C420FFF795
:1023600017F90020FFF714F9CA20FFF711F9002030
:10237000FFF70EF9D220FFF70BF90020FFF708F95D
:10238000D820FFF705F90020FFF702F9E020FFF75A
:10239000FFF80020FFF7FCF8F320FFF7F9F8002022
:1023A000FFF7F6F8E22000E082E3FFF7FDF80520F2
:1023B000FFF7EEF80020FFF7EBF80B20FFF7E8F847
:1023C0000020FFF7E5F81B20FFF7E2F80020FFF7F9
:1023D000DFF83420FFF7DCF80020FFF7D9F84420BD
:1023E000FFF7D6F80020FFF7D3F84F20FFF7D0F81B
:1023F0000020FFF7CDF86120FFF7CAF80020FFF7B3
:10240000C7F87920FFF7C4F80020FFF7C1F888204B
:10241000FFF7BEF80020FFF7BBF89720FFF7B8F8EA
:102420000020FFF7B5F8A620FFF7B2F80020FFF76D
:10243000AFF8B720FFF7ACF80020FFF7A9F8C220EB
:10244000FFF7A6F80020FFF7A3F8C720FFF7A0F8D2
:102450000020FFF79DF8D120FFF79AF80020FFF742
:1024600097F8D620FFF794F80020FFF791F8DD20C9
:10247000FFF78EF80020FFF78BF8F320FFF788F8BE
:102480000020FFF785F8E320FFF78EF80520FFF71F
:102490007FF80020FFF77CF80A2000E006E3FFF752
:1024A00077F80020FFF774F81C20FFF771F8002080
:1024B000FFF76EF83320FFF76BF80020FFF768F89E
:1024C0004420FFF765F80020FFF762F85020FFF77F
:1024D0005FF80020FFF75CF86220FFF759F8002052
:1024E000FFF756F87820FFF753F80020FFF750F871
:1024F0008820FFF74DF80020FFF74AF89720FFF7F4
:1025000047F80020FFF744F8A620FFF741F8002025
:10251000FFF73EF8B720FFF73BF80020FFF738F849
:10252000C220FFF735F80020FFF732F8C720FFF789
:102530002FF80020FFF72CF8D120FFF729F8002012
:10254000FFF726F8D520FFF723F80020FFF720F843
:10255000DD20FFF71DF80020FFF71AF8F320FFF742
:1025600017F80020FFF714F8E420FFF71DF801200A
:10257000FFF70EF80020FFF70BF80120FFF708F82F
:102580000020FFF705F80220FFF702F80020FEF711
:10259000FFFF2A20FEF7FCFF0020FEF7F9FF3C209A
:1025A000FEF7F6FF0020FEF7F3FF4B20FEF7F0FFEB
:1025B0000020FEF7EDFF5D20FEF7EAFF0020FEF7AA
:1025C000E7FF7420FEF7E4FF0020FEF7E1FF842020
:1025D000FEF7DEFF0020FEF7DBFF9320FEF7D8FFBB
:1025E0000020FEF7D5FFA220FEF7D2FF0020FEF765
:1025F000CFFFB320FEF7CCFF0020FEF7C9FFBE20BF
:10260000FEF7C6FF0020FEF7C3FFC420FEF7C0FFA1
:102610000020FEF7BDFFCD20FEF7BAFF0020FEF739
:10262000B7FFD320FEF7B4FF0020FEF7B1FFDD2097
:10263000FEF7AEFF0020FEF7ABFFF320FEF7A8FF8A
:102640000020FEF7A5FFE520FEF7AEFF0020FEF715
:102650009FFF0020FEF79CFF0020FEF799FF00205F
:10266000FEF796FF0220FEF793FF0020FEF790FF93
:102670002920FEF78DFF0020FEF78AFF3C20FEF7A1
:1026800087FF0020FEF784FF4B20FEF781FF00202C
:10269000FEF77EFF5D20FEF77BFF0020FEF778FF50
:1026A0007420FEF775FF0020FEF772FF8420FEF70E
:1026B0006FFF0020FEF76CFF9320FEF769FF0020FC
:1026C000FEF766FFA220FEF763FF0020FEF760FF23
:1026D000B320FEF75DFF0020FEF75AFFBE20FEF795
:1026E00057FF0020FEF754FFC420FEF751FF0020E3
:1026F000FEF74EFFCD20FEF74BFF0020FEF748FF10
:10270000D320FEF745FF0020FEF742FFDC20FEF756
:102710003FFF0020FEF73CFFF320FEF739FF0020CB
:10272000FEF736FFE620FEF73FFF1120FEF730FFF1
:102730000020FEF72DFF3420FEF72AFF0020FEF7D1
:1027400027FF5620FEF724FF0020FEF721FF76200A
:10275000FEF71EFF0020FEF71BFF7720FEF718FF95
:102760000020FEF715FF6620FEF712FF0020FEF79F
:102770000FFF8820FEF70CFF0020FEF709FF9920CD
:10278000FEF706FF0020FEF703FFBB20FEF700FF69
:102790000020FEF7FDFE9920FEF7FAFE0020FEF76E
:1027A000F7FE6620FEF7F4FE0020FEF7F1FE55204E
:1027B000FEF7EEFE0020FEF7EBFE5520FEF7E8FEEA
:1027C0000020FEF7E5FE4520FEF7E2FE0020FEF7C2
:1027D000DFFE4320FEF7DCFE0020FEF7D9FE44209A
:1027E000FEF7D6FE0020FEF7D3FEE720FEF7DCFE64
:1027F0003220FEF7CDFE0020FEF7CAFE5520FEF780
:10280000C7FE0020FEF7C4FE7620FEF7C1FE0020C2
:10281000FEF7BEFE6620FEF7BBFE0020FEF7B8FE08
:102820006720FEF7B5FE0020FEF7B2FE6720FEF738
:10283000AFFE0020FEF7ACFE8720FEF7A9FE0020C9
:10284000FEF7A6FE9920FEF7A3FE0020FEF7A0FEED
:10285000BB20FEF79DFE0020FEF79AFE9920FEF7B2
:1028600097FE0020FEF794FE7720FEF791FE0020F1
:10287000FEF78EFE4420FEF78BFE0020FEF788FE5A
:102880005620FEF785FE0020FEF782FE2320FEF78D
:102890007FFE0020FEF77CFE3320FEF779FE00204D
:1028A000FEF776FE4520FEF773FE0020FEF770FE71
:1028B000E820FEF779FE0020FEF76AFE0020FEF712
:1028C00067FE9920FEF764FE0020FEF761FE872078
:1028D000FEF75EFE0020FEF75BFE8820FEF758FE46
:1028E0000020FEF755FE7720FEF752FE0020FEF78F
:1028F0004FFE6620FEF74CFE0020FEF749FE8820C2
:10290000FEF746FE0020FEF743FEAA20FEF740FE3B
:102910000020FEF73DFEBB20FEF73AFE0020FEF74A
:1029200037FE9920FEF734FE0020FEF731FE6620C8
:10293000FEF72EFE0020FEF72BFE5520FEF728FEA8
:102940000020FEF725FE5520FEF722FE0020FEF7B0
:102950001FFE4420FEF71CFE0020FEF719FE442057
:10296000FEF716FE0020FEF713FE5520FEF710FEC0
:102970000020FEF70DFEE920FEF716FEAA20FEF766
:1029800007FE0020FEF704FE0020FEF701FE0020F7
:10299000FEF7FEFD0020FEF707FEAA20FEF7F8FD79
:1029A000CF20FEF701FE0020FEF7F2FD0020FEF72B
:1029B000EFFD0020FEF7ECFD0020FEF7E9FD002012
:1029C000FEF7E6FD0020FEF7E3FD0020FEF7E0FD48
:1029D0000020FEF7DDFD0020FEF7DAFD0020FEF707
:1029E000D7FD0020FEF7D4FD0020FEF7D1FD00202A
:1029F000FEF7CEFD0020FEF7CBFD0020FEF7C8FD60
:102A00000020FEF7C5FD0020FEF7C2FDF020FEF716
:102A1000CBFD0020FEF7BCFD5020FEF7B9FD0020E5
:102A2000FEF7B6FD0020FEF7B3FD0020FEF7B0FD77
:102A3000F320FEF7B9FD0020FEF7AAFDF920FEF70E
:102A4000B3FD0620FEF7A4FD1020FEF7A1FD29200E
:102A5000FEF79EFD0020FEF79BFD3A20FEF7A4FD49
:102A60005520FEF795FD1120FEF79EFD6420FDF731
:102A7000B9FD2920FEF798FD3520FEF795FD0020D1
:102A8000FEF786FD5120FEF78FFDFF20FEF780FD4B
:102A90005320FEF789FD2C20FEF77AFD5520FEF726
:102AA00083FD8220FEF774FD2C20FCE3A8427CD13C
:102AB0004FF4704355211846FEF78CFD4FF2010A82
:102AC000AA215046FEF786FD4FF2020B52215846CE
:102AD000FEF780FD08214FF20300FEF77BFD012188
:102AE0004FF20400FEF776FD0D214FF43040FEF763
:102AF00071FD0D214BF20100FEF76CFD0D214BF233
:102B00000200FEF767FD34214FF43640FEF762FD08
:102B100034214BF20160FEF75DFD34214BF202607F
:102B2000FEF758FD0D214FF43140FEF753FD0D2106
:102B30004BF20110FEF74EFD0D214BF20210FEF795
:102B400049FD34214FF43740FEF744FD34214BF268
:102B50000170FEF73FFD34214BF20270FEF73AFDA3
:102B600000214FF43240FEF735FD00214BF20120E9
:102B7000FEF730FD00214BF20220FEF72BFD242151
:102B80004FF43840FEF726FD24214BF60100FEF7F6
:102B900021FD24214BF60200FEF71CFD01214FF41C
:102BA0003F40FEF717FD0F2100E0FDE34FF43340F7
:102BB000FEF710FD0F214BF20130FEF70BFD0F2148
:102BC0004BF20230FEF706FD34214FF43940FEF798
:102BD00001FD34214BF60110FEF7FCFC34214BF6CD
:102BE0000210FEF7F7FC08214FF43540FEF7F2FC27
:102BF00008214BF20150FEF7EDFC08214BF2025088
:102C0000FEF7E8FC03214FF44240FEF7E3FC2421E9
:102C10004FF43A40FEF7DEFC24214BF60120FEF78C
:102C2000D9FC24214BF60220FEF7D4FC00214FF4FE
:102C30003C40FEF7CFFC78214BF60140FEF7CAFC82
:102C400000214BF60240FEF7C5FC00214FF43D4049
:102C5000FEF7C0FC78214BF60150FEF7BBFC0021CB
:102C60004BF60250FEF7B6FC00214FF43E40FEF753
:102C7000B1FC64214BF60160FEF7ACFC00214FF47F
:102C80005140FEF7A7FC33214DF20110FEF7A2FCE4
:102C900000214DF20210FEF79DFC34214DF203108D
:102CA000FEF798FC00214DF20410FEF793FC3A2148
:102CB0004DF20510FEF78EFC00214DF20610FEF7D6
:102CC00089FC4A214DF20710FEF784FC00214DF2E9
:102CD0000810FEF77FFC5C214DF20910FEF77AFC2C
:102CE00000214DF20A10FEF775FC81214DF20B1008
:102CF000FEF770FC00214DF20C10FEF76BFCA621D4
:102D00004DF20D10FEF766FC00214DF20E10FEF79D
:102D100061FCE5214DF20F10FEF75CFC01214DF244
:102D20001010FEF757FC13214DF21110FEF752FC64
:102D300001214DF21210FEF74DFC54214DF21310FB
:102D4000FEF748FC01214DF21410FEF743FC8221EE
:102D50004DF21510FEF73EFC01214DF21610FEF764
:102D600039FCCA214DF21710FEF734FC02214DF256
:102D70001810FEF72FFC00214DF21910FEF72AFC67
:102D800002214DF21A10FEF725FC01214DF21B1015
:102D9000FEF720FC02214DF21C10FEF71BFC342133
:102DA0004DF21D10FEF716FC02214DF21E10FEF72B
:102DB00011FC67214DF21F10FEF70CFC02214DF2B1
:102DC0002010FEF707FC84214DF22110FEF702FCD3
:102DD00002214DF22210FEF7FDFBA4214DF223103B
:102DE000FEF7F8FB02214DF22410FEF7F3FBB721AA
:102DF0004DF22510FEF7EEFB02214DF22610FEF7F4
:102E0000E9FBCF214DF22710FEF7E4FB02214DF242
:102E10002810FEF7DFFBDE214DF22910FEF7DAFB6A
:102E200002214DF22A10FEF7D5FBF2214DF22B10B4
:102E3000FEF7D0FB02214DF22C10FEF7CBFBFE215A
:102E40004DF22D10FEF7C6FB03214DF22E10FEF7BA
:102E5000C1FB10214DF22F10FEF7BCFB03214DF2F8
:102E60003010FEF7B7FB33214DF23110FEF7B2FB05
:102E700003214DF23210FEF7ADFB6D214DF2331000
:102E8000FEF7A8FB00214FF45240FEF7A3FB3321CD
:102E90004DF20120FEF79EFB00214DF20220FEF7CD
:102EA00099FB34214DF20320FEF794FB00214DF2F3
:102EB0000420FEF78FFB3A214DF20520FEF78AFB36
:102EC00000214DF20620FEF785FB4A214DF2072036
:102ED000FEF780FB00214DF20820FEF77BFB5C2112
:102EE0004DF20920FEF776FB00214DF20A20FEF795
:102EF00071FB81214DF20B20FEF76CFB00214DF29E
:102F00000C20FEF767FBA6214DF20D20FEF762FBB9
:102F100000214DF20E20FEF75DFBE5214DF20F2062
:102F2000FEF758FB01214DF21020FEF753FB132151
:102F30004DF21120FEF74EFB01214DF21220FEF75B
:102F400049FB54214DF21320FEF744FB01214DF2C1
:102F50001420FEF73FFB82214DF21520FEF73AFBCD
:102F600001214DF21620FEF735FBCA214DF2172044
:102F7000FEF730FB02214DF21820FEF72BFB00215B
:102F80004DF21920FEF726FB02214DF21A20FEF722
:102F900021FB01214DF21B20FEF71CFB02214DF20B
:102FA0001C20FEF717FB34214DF21D20FEF712FB0B
:102FB00002214DF21E20FEF70DFB67214DF21F206E
:102FC000FEF708FB02214DF22020FEF703FB8421CF
:102FD0004DF22120FEF7FEFA02214DF22220FEF7EB
:102FE000F9FAA4214DF22320FEF7F4FA02214DF262
:102FF0002420FEF7EFFAB7214DF22520FEF7EAFA7A
:1030000002214DF22620FEF7E5FACF214DF22720CE
:10301000FEF7E0FA02214DF22820FEF7DBFADE216E
:103020004DF22920FEF7D6FA02214DF22A20FEF7B2
:10303000D1FAF2214DF22B20FEF7CCFA02214DF20B
:103040002C20FEF7C7FAFE214DF22D20FEF7C2FA22
:1030500003214DF22E20FEF7BDFA10214DF22F2054
:10306000FEF7B8FA03214DF23020FEF7B3FA332110
:103070004DF23120FEF7AEFA03214DF23220FEF779
:10308000A9FA6D214DF23320FEF7A4FA00214FF486
:103090005340FEF79FFA33214DF20130FEF79AFAC2
:1030A00000214DF20230FEF795FA34214DF2033043
:1030B000FEF790FA00214DF20430FEF78BFA3A2128
:1030C0004DF20530FEF786FA00214DF20630FEF78C
:1030D00081FA4A214DF20730FEF77CFA00214DF2C9
:1030E0000830FEF777FA5C214DF20930FEF772FAEC
:1030F00000214DF20A30FEF76DFA81214DF20B30BE
:10310000FEF768FA00214DF20C30FEF763FAA621B3
:103110004DF20D30FEF75EFA00214DF20E30FEF753
:1031200059FAE5214DF20F30FEF754FA01214DF224
:103130001030FEF74FFA13214DF21130FEF74AFA24
:1031400001214DF21230FEF745FA54214DF21330B1
:10315000FEF740FA01214DF21430FEF73BFA8221CE
:103160004DF21530FEF736FA01214DF21630FEF71A
:1031700031FACA214DF21730FEF72CFA02214DF236
:103180001830FEF727FA00214DF21930FEF722FA27
:1031900002214DF21A30FEF71DFA01214DF21B30CB
:1031A000FEF718FA02214DF21C30FEF713FA342113
:1031B0004DF21D30FEF70EFA02214DF21E30FEF7E1
:1031C00009FA67214DF21F30FEF704FA02214DF291
:1031D0002030FEF7FFF984214DF22130FEF7FAF995
:1031E00002214DF22230FEF7F5F9A4214DF22330F1
:1031F000FEF7F0F902214DF22430FEF7EBF9B7218A
:103200004DF22530FEF7E6F902214DF22630FEF7A9
:10321000E1F9CF214DF22730FEF7DCF902214DF222
:103220002830FEF7D7F9DE214DF22930FEF7D2F92A
:1032300002214DF22A30FEF7CDF9F2214DF22B306A
:10324000FEF7C8F902214DF22C30FEF7C3F9FE213A
:103250004DF22D30FEF7BEF903214DF22E30FEF770
:10326000B9F910214DF22F30FEF7B4F903214DF2D8
:103270003030FEF7AFF933214DF23130FEF7AAF9C5
:1032800003214DF23230FEF7A5F96D214DF23330B6
:10329000FEF7A0F900214FF45440FEF79BF93321CB
:1032A0004DF2014000E084E3FEF794F900214DF275
:1032B0000240FEF78FF934214DF20340FEF78AF900
:1032C00000214DF20440FEF785F93A214DF2054008
:1032D000FEF780F900214DF20640FEF77BF94A2106
:1032E0004DF20740FEF776F900214DF20840FEF757
:1032F00071F95C214DF20940FEF76CF900214DF2A5
:103300000A40FEF767F981214DF20B40FEF762F9A2
:1033100000214DF20C40FEF75DF9A6214DF20D4063
:10332000FEF758F900214DF20E40FEF753F9E52162
:103330004DF20F40FEF74EF901214DF21040FEF71D
:1033400049F913214DF21140FEF744F901214DF2E4
:103350001240FEF73FF954214DF21340FEF73AF9BF
:1033600001214DF21440FEF735F982214DF215404E
:10337000FEF730F901214DF21640FEF72BF9CA2174
:103380004DF21740FEF726F902214DF21840FEF7E4
:1033900021F900214DF21940FEF71CF902214DF2EE
:1033A0001A40FEF717F900E006E301214DF21B4039
:1033B000FEF710F902214DF21C40FEF70BF9342103
:1033C0004DF21D40FEF706F902214DF21E40FEF7B8
:1033D00001F967214DF21F40FEF7FCF802214DF282
:1033E0002040FEF7F7F884214DF22140FEF7F2F875
:1033F00002214DF22240FEF7EDF8A4214DF22340C8
:10340000FEF7E8F802214DF22440FEF7E3F8B72179
:103410004DF22540FEF7DEF802214DF22640FEF780
:10342000D9F8CF214DF22740FEF7D4F802214DF212
:103430002840FEF7CFF8DE214DF22940FEF7CAF80A
:1034400002214DF22A40FEF7C5F8F2214DF22B4041
:10345000FEF7C0F802214DF22C40FEF7BBF8FE212A
:103460004DF22D40FEF7B6F803214DF22E40FEF747
:10347000B1F810214DF22F40FEF7ACF803214DF2C8
:103480003040FEF7A7F833214DF23140FEF7A2F8A5
:1034900003214DF23240FEF79DF86D214DF233408D
:1034A000FEF798F800214FF45540FEF793F83321CA
:1034B0004DF20150FEF78EF800214DF20250FEF75A
:1034C00089F834214DF20350FEF784F800214DF2C3
:1034D0000450FEF77FF83A214DF20550FEF77AF8D6
:1034E00000214DF20650FEF775F84A214DF20750C3
:1034F000FEF770F800214DF20850FEF76BF85C21E2
:103500004DF20950FEF766F800214DF20A50FEF721
:1035100061F881214DF20B50FEF75CF800214DF26D
:103520000C50FEF757F8A6214DF20D50FEF752F859
:1035300000214DF20E50FEF74DF8E5214DF20F50EF
:10354000FEF748F801214DF21050FEF743F8132121
:103550004DF21150FEF73EF801214DF21250FEF7E8
:1035600039F854214DF21350FEF734F801214DF291
:103570001450FEF72FF882214DF21550FEF72AF86D
:1035800001214DF21650FEF725F8CA214DF21750D1
:10359000FEF720F802214DF21850FEF71BF800212B
:1035A0004DF21950FEF716F802214DF21A50FEF7AF
:1035B00011F801214DF21B50FEF70CF802214DF2DB
:1035C0001C50FEF707F834214DF21D50FEF702F8AB
:1035D00002214DF21E50FDF7FDFF67214DF21F50F5
:1035E000FDF7F8FF02214DF22050FDF7F3FF842193
:1035F0004DF22150FDF7EEFF02214DF22250FDF772
:10360000E9FFA4214DF22350FDF7E4FF02214DF222
:103610002450FDF7DFFFB7214DF22550FDF7DAFF0B
:1036200002214DF22650FDF7D5FFCF214DF2275054
:10363000FDF7D0FF02214DF22850FDF7CBFFDE2130
:103640004DF22950FDF7C6FF02214DF22A50FDF739
:10365000C1FFF2214DF22B50FDF7BCFF02214DF2CC
:103660002C50FDF7B7FFFE214DF22D50FDF7B2FFB4
:1036700003214DF22E50FDF7ADFF10214DF22F50DA
:10368000FDF7A8FF03214DF23050FDF7A3FF3321D2
:103690004DF23150FDF79EFF03214DF23250FDF700
:1036A00099FF6D214DF23350FDF794FF00214FF447
:1036B0005640FDF78FFF33214DF20160FDF78AFF81
:1036C00000214DF20260FDF785FF34214DF20360C9
:1036D000FDF780FF00214DF20460FDF77BFF3A21EA
:1036E0004DF20560FDF776FF00214DF20660FDF713
:1036F00071FF4A214DF20760FDF76CFF00214DF28A
:103700000860FDF767FF5C214DF20960FDF762FF7D
:1037100000214DF20A60FDF75DFF81214DF20B6043
:10372000FDF758FF00214DF20C60FDF753FFA62175
:103730004DF20D60FDF74EFF00214DF20E60FDF7DA
:1037400049FFE5214DF20F60FDF744FF01214DF2E5
:103750001060FDF73FFF13214DF21160FDF73AFFB6
:1037600001214DF21260FDF735FF54214DF2136037
:10377000FDF730FF01214DF21460FDF72BFF822190
:103780004DF21560FDF726FF01214DF21660FDF7A1
:1037900021FFCA214DF21760FDF71CFF02214DF2F7
:1037A0001860FDF717FF00214DF21960FDF712FFB9
:1037B00002214DF21A60FDF70DFF01214DF21B6051
:1037C000FDF708FF02214DF21C60FDF703FF3421D5
:1037D0004DF21D60FDF7FEFE02214DF21E60FDF769
:1037E000F9FE67214DF21F60FDF7F4FE02214DF254
:1037F0002060FDF7EFFE84214DF22160FDF7EAFE27
:1038000002214DF22260FDF7E5FEA4214DF2236076
:10381000FDF7E0FE02214DF22460FDF7DBFEB7214B
:103820004DF22560FDF7D6FE02214DF22660FDF730
:10383000D1FECF214DF22760FDF7CCFE02214DF2E3
:103840002860FDF7C7FEDE214DF22960FDF7C2FEBC
:1038500002214DF22A60FDF7BDFEF2214DF22B60F0
:10386000FDF7B8FE02214DF22C60FDF7B3FEFE21FC
:103870004DF22D60FDF7AEFE03214DF22E60FDF7F7
:10388000A9FE10214DF22F60FDF7A4FE03214DF299
:103890003060FDF79FFE33214DF23160FDF79AFE57
:1038A00003214DF23260FDF795FE6D214DF233603C
:1038B000FDF790FE55211846FDF78CFEAA215046D3
:1038C000FDF788FE52215846FDF784FE08214FF28D
:1038D0000300FDF77FFE00214FF20400FDF77AFEA2
:1038E000CC214FF43140FDF775FE00214BF2011061
:1038F000FDF770FE05214FF43640FDF76BFE702199
:103900004FF43740FDF766FE70214BF20170FDF772
:1039100061FE01214FF43840FDF75CFE03214BF6B8
:103920000100FDF757FE03214BF60200FDF752FEA2
:1039300003214BF60300FDF74DFE02214FF43C40FE
:10394000FDF748FE00214BF60140FDF743FE002144
:103950004BF60240FDF73EFED0214FF44940FDF703
:1039600039FE02214CF60110FDF734FE50214CF6D1
:103970000210FDF72FFE50214CF60310FDF72AFE32
:1039800050214CF60410FDF725FE00214FF4545051
:10399000FDF720FE55214FF46850FDF71BFE4FF454
:1039A0008850FDF701FE7720401EC0B2FCD24FF4D4
:1039B0002450FDF7F9FDBAE04045FCD1E220FDF7C7
:1039C000F3FD1D20FDF7E4FD0220FDF7E1FD0420DD
:1039D000FDF7DEFD6320401EC0B2FCD2E020FDF703
:1039E000E3FD0120FDF7D4FD0A20FCF7FBFDE020FC
:1039F000FDF7DAFD0320FDF7CBFD0C20FCF7F2FD0F
:103A00000120FDF7D1FD0A20FCF7ECFDE620FDF7D3
:103A1000CBFD2F20FDF7BCFDFF20FDF7B9FDFF20FA
:103A2000FDF7B6FDB020FDF7BFFD2020FDF7B0FD8E
:103A30000020FDF7ADFD0320FDF7AAFD40F21F3089
:103A4000FDF7A6FD0120FDF7A3FD40F2DF10FDF715
:103A50009FFD0020FDF79CFDB420FDF7A5FD04208F
:103A6000FDF796FD40F21F40FDF792FD0020FDF7A7
:103A70008FFD2E20FDF78CFD0020FDF789FD002035
:103A8000FDF786FD0020FDF783FD0020FDF780FD9A
:103A9000B620FDF789FD0220FDF77AFD4FF4037093
:103AA000FDF776FD0020FDF773FD1720FDF770FD93
:103AB0001520FDF76DFD0020FDF76AFD0020FDF7E4
:103AC00067FDF020FDF770FD0320FDF761FD292063
:103AD000FDF76AFDD020FDF767FD0020FDF758FDDA
:103AE000BE20FDF761FD0520FDF752FDFE20FDF72C
:103AF0004FFD0120FDF74CFD0020FDF749FD0020A2
:103B0000FDF746FD0020FDF743FDB820FDF74CFD15
:103B10000320FDF73DFD0120FDF73AFDBA20FDF73A
:103B200043FD0120FDF734FD6420FDF7ABFBA088C9
:103B3000B04205D0B84203D0A84201D0404519D1C7
:103B40004FF02040D0F81C1121F00F01C0F81C11DB
:103B5000D0F81C1121F47061C0F81C11D0F81C11B0
:103B600041F00301C0F81C11D0F81C1141F40071A0
:103B7000C0F81C110020FDF70FFB0548016841F457
:103B8000004101604846BDE8F05FFDF7EBBA000078
:103B90001404024010B5806B0021C185C184FDF77B
:103BA000E2F910BD0168CA6822F49072CA60016827
:103BB0004A6922F001024A61202180F83A107047D8
:103BC00010B590F83A10222901D0022010BD81686A
:103BD000B1F5805F11D00169002901681FD04968E3
:103BE00001F07F03816A4A1C82620B70C18D491EFD
:103BF0000904090CC18518D02BE00269816A002AEA
:103C00000268526805D0D2B20A80816A491C81627A
:103C1000ECE7C2F308020A80816A891CF7E74A6868
:103C2000816A4B1C83620A70E0E70168CA6822F06F
:103C30002002CA600168CA6822F48072CA60016802
:103C40004A6922F001024A61202180F83A10FDF70A
:103C500085FA002010BD00002DE9F04104460068FF
:103C60000169E26821F44051114301612169A068B2
:103C7000E26908436169114308432168CA6849F24F
:103C80000C639A430243CA6020684169A26921F427
:103C9000407111434161E069192764253226B0F56E
:103CA000004F354A354920684FF0000806D0884259
:103CB00001D0904236D1FCF727FF35E0884201D091
:103CC000904202D1FCF720FF01E0FCF70DFF616894
:103CD0004A18A0FB070148EB0803FCF771FA0146FC
:103CE000B0FBF5F00201B1FBF5F06FF0180358439B
:103CF00001EB800006EBC000B0FBF5F000F0F8002F
:103D000002EB4002B1FBF5F0584301EB800006EBFB
:103D1000C000B0FBF5F000F0070021681044886097
:103D2000BDE8F081FCF7E0FE61688B0F8A00A0FB24
:103D30000701FCF745FA0146B0FBF5F06FF01802F9
:103D4000504301EB800006EB0010B0FBF5F000F0F3
:103D5000F002B1FBF5F002EB0012B1FBF5F06FF0F1
:103D60001803584301EB800006EB0010B0FBF5F0A0
:103D700000F00F00D1E700000014014000100140E6
:103D800090F83910212901D0022070478168B1F5DF
:103D9000805F016A0BD04A1C026202680978516098
:103DA000C18C491E0904090CC1840ED017E0098892
:103DB0000268C1F30801516001690029016A02D05B
:103DC000491C0162ECE7891CFBE70168CA6822F024
:103DD0008002CA600068C16841F04001C1600020F3
:103DE000704700000148FDF7BFB80000C400002084
:103DF000FEE700000FB4054B10B503A9044A029872
:103E000000F028F810BC5DF814FB00002142000807
:103E1000200000200907090E002804DB00F1E02043
:103E200080F80014704700F00F0000F1E02080F8E7
:103E3000141D704702E008C8121F08C1002AFAD1F9
:103E400070477047002001E001C1121F002AFBD11A
:103E5000704700002DE9FF4F8DB09B460F4604468A
:103E6000002606E025280BD05A460F999047641C7F
:103E7000761C20780028F5D111B03046BDE8F08FCF
:103E80000025A8460122984900E0054314F8013FA7
:103E9000203B02FA03F00842F7D120782E2817D1F0
:103EA00014F8010F45F004052A280ED06FF02F02F8
:103EB0002078A0F1300109290AD808EB880102EB2B
:103EC000410100EB0108641CF2E757F8048B641C05
:103ED00020786C280DD004DC4C2812D06A2811D12F
:103EE00004E074280DD07A280CD10AE045F40015BE
:103EF00007E0617845F48015814202D1641C05F524
:103F00008015641C2278692A45D008DC002AB3D0C9
:103F1000582A69D0632A10D0642A08D13BE0702A5D
:103F200067D0732A13D0752A5CD0782A5CD01046EB
:103F30005A460F999047761CD3E017F8040B8DF87A
:103F4000000000208DF80100E946012003E057F849
:103F5000049B4FF0FF3069074FF0000501D40AE0E1
:103F60006D1C45450DDA8542FADB19F8051000296C
:103F7000F6D106E06D1C8542FCDB19F8051000291E
:103F8000F8D12E4404E019F8010B5A460F999047D6
:103F90006D1EF8D2A5E00A200021CDE90801C5F385
:103FA000025002280DD001CFC117031E71F100038A
:103FB0000DDA4FF0000CD0EB0C006CEB01012D235F
:103FC00008E0FF1D27F00707F7E80201EDE72B05E2
:103FD00004D52B238DF8283001233BE0EB0739D0A3
:103FE0002023F7E70A2000E010200021CDE9080196
:103FF00007E01020002145F00405CDE908014FF04D
:104000000808C5F3025002280FD001CF00214FF05D
:10401000000A2B071FD5702A0DD0DDE908C38CF0EC
:10402000100C5CEA030C0CD015E0FF1D27F007070D
:10403000F7E80201EBE740228DF828204FF0010A53
:104040000BE050EA010306D030238DF828308DF8BC
:10405000292002239A46582A04D024A20DF12009CF
:104060000B9209E026A2F9E7DDE90823FCF7A8F89E
:104070000B9B9B5C09F8013D50EA0102F4D1ADEBCA
:10408000090020300890680701D44FF00108089912
:10409000884502DDA8EB010000E0002080460025F5
:1040A00006E00AA85A46405D0F9990476D1C761CA1
:1040B0005545F6DB04E030205A460F999047761CB0
:1040C000B8F10001A8F10108F5DC05E019F8010BD1
:1040D0005A460F999047761C0899481E0890002967
:1040E000F4DC641CC5E600000928010030313233DD
:1040F0003435363738396162636465660000000024
:10410000303132333435363738394142434445460D
:1041100000000000F8B529A04FF0D04500680090DD
:10412000284600214FF4802702C0491CB942FBD326
:1041300000242946204604C9824200D0641C401C49
:10414000B842F8D321461EA0FFF754FE0CB1A000E0
:10415000F8BD2C4600202168401CC94302C4B84267
:10416000F9D300262946304604C9C3439A4200D0F9
:10417000761C401CB842F7D3314619A0FFF73AFE2F
:104180000EB1B000F8BD294600206A46135C401C01
:1041900001F8013B0428F9D30024204615F8011B3F
:1041A000135C994200D0641C401C0428F6D32146BD
:1041B00013A0FFF71FFE2046F8BD000055A55AAA20
:1041C000534452414D20636865636B20726F756E76
:1041D000642031206572726F72203D2025640A00D0
:1041E000534452414D20636865636B20726F756E56
:1041F000642032206572726F72203D2025640A00AF
:10420000534452414D20636865636B20726F756E35
:10421000642033206572726F72203D2025640A008D
:1042200003490A685206FCD5C2B24A6070470000D2
:1042300000100140FCF72CFBFDF7DAFAFDF742FA1B
:10424000FDF7CEF9FDF7DEF9FDF7B0FAFDF720FB3B
:104250004FF47840FCF786FF09A0FFF7CBFDFFF78E
:1042600059FF50B111A000BFFFF7C4FD14485A21F7
:10427000017014A0FFF7BEFDFEE717A0F4E70000F1
:1042800053544D3332463430375A472046534D430A
:10429000205352414D2054657374204279204D6360
:1042A000756C6F7665723636360D0A005352414D85
:1042B0002054657374206661696C0D0A000000006B
:1042C000000000687465737456616C7565206973CD
:1042D000202523780D0A00005352414D2054657368
:1042E0007420737563636573730D0A00000000002A
:1042F0000000000001020304060708090000000096
:1043000001020304244300080000002024000000F0
:10431000343E00084843000824000020F404000054
:10432000443E000800000000000000000000000003
:10433000000000000100000010000000000000006C
:084340000024F400000000005D
:040000050800018965
:00000001FF
