:020000040800F2
:10000000C80400209D010008F71900086D110008C0
:10001000F5190008950400080140000800000000E0
:10002000000000000000000000000000FB190008B4
:100030009704000800000000F9190008FD190008E5
:10004000B7010008B7010008B7010008B7010008B0
:10005000B7010008B7010008B7010008B7010008A0
:10006000B7010008B7010008B7010008B701000890
:10007000B7010008B7010008B7010008B701000880
:10008000B7010008B7010008B7010008B701000870
:10009000B7010008B7010008B7010008B701000860
:1000A000B7010008B7010008B7010008B701000850
:1000B000B7010008B7010008B7010008B701000840
:1000C000B7010008B7010008B7010008B701000830
:1000D000B7010008F53F0008B7010008B7010008A4
:1000E000B7010008B7010008B7010008B701000810
:1000F000B7010008B7010008B7010008B701000800
:10010000B7010008B7010008B7010008B7010008EF
:10011000B7010008B7010008B7010008B7010008DF
:10012000B7010008B7010008B7010008B7010008CF
:10013000B7010008B7010008B7010008B7010008BF
:10014000B7010008B7010008B7010008B7010008AF
:10015000B7010008B7010008B7010008B70100089F
:10016000B7010008B7010008B7010008B70100088F
:10017000B7010008B7010008B7010008000000003F
:10018000B7010008B7010008DFF80CD000F070F9E3
:100190000048004741400008C80400200648804746
:1001A00006480047FEE7FEE7FEE7FEE7FEE7FEE75C
:1001B000FEE7FEE7FEE7FEE7851A00088901000872
:1001C0002DE9F05F0546002092469B46884606468C
:1001D000814640241BE0284641464746224600F01F
:1001E000D9F853465A46C01A914110D311461846C1
:1001F000224600F0C0F82D1A67EB01084F46224650
:100200000120002100F0B7F817EB00094E41201E35
:10021000A4F10104DFDC484631462A464346BDE8E6
:10022000F09FD2B201E000F8012B491EFBD27047CB
:100230000022F6E710B513460A4604461946FFF7B2
:10024000F0FF204610BD2DE9FE4F81EA030404F0C3
:10025000004421F0004100944FF0000B23F00043D4
:1002600050EA01045ED052EA03045BD0C3F30A549F
:10027000C1F30A552C44A4F2F3340194A0FB0254B8
:10028000C1F3130141F48011C3F3130343F480134A
:1002900001FB024400FB034E840A970A44EA81549E
:1002A00047EA8357A4FB076802958D0A05FB07857B
:1002B0004FEA932C04FB0C542705029D4FEA065885
:1002C00047EA1637B5EB08056EEB070C870E920E62
:1002D00047EA811742EA8312A7FB0201B6EB0B0142
:1002E00064EB00042B0D43EA0C335E1844EB1C5006
:1002F000DA465146E7FB0201C5F313044FEA0B331C
:1003000043EA14534FEA0432019C43EA0603A4F182
:100310000C040294009CCDE900B400F05AF803B03C
:10032000BDE8F08F00200146F9E70EB540F23341F9
:1003300002910021CDE900110A460B4600F049F870
:1003400003B000BDC1F30A5210B5C1F3130140F26E
:10035000FF3341F480119A4201DA002010BD40F2CF
:1003600033439A42A2F2334203DC524200F012F8C5
:1003700010BD904010BD202A04DB203A00FA02F1A3
:10038000002070479140C2F1200320FA03F3194383
:1003900090407047202A04DB203A21FA02F0002125
:1003A000704721FA02F3D040C2F120029140084385
:1003B0001946704710B5141E73F1000408DA401C8A
:1003C00041F1000192185B411A4301D120F0010074
:1003D00010BD2DE9F04D92469B4611B1B1FA81F264
:1003E00002E0B0FA80F220329046FFF7C4FF0446E4
:1003F0000F4640EA0A0041EA0B0153465A460843B9
:1004000013D0114653EA010019D0C8F140025046FA
:10041000FFF7C0FF05460E46504659464246FFF7D5
:10042000AAFF084305D0012004E020463946BDE874
:10043000F08D0020054346EAE0762C4337430A98C6
:100440006305E40AA0EB08000022FD0A44EA4754D1
:100450000A3002D500200146E9E70105101969417B
:10046000DDE9084500196941BDE8F04DA2E700004B
:10047000064C074D06E0E06840F0010394E80700F1
:1004800098471034AC42F6D3FFF782FE4488000848
:1004900064880008FEE770477047000070B5B3F548
:1004A000804F05D06FF0704140F82210002070BDE1
:1004B00050F82240084B8E891C40D1E9003543EAB0
:1004C00005138D6889692D0245EA06452B430B43C8
:1004D000234340F82230E9E70000F0CFF0B50C6884
:1004E00050F82430114A1340D1E90125D1E90367BE
:1004F0002A433E4332434E6932438E693243CE69CA
:1005000032430E6A32434E6A32438E6A3243CE6AB7
:100510003243CE6B096B32430A431A43082D01D193
:1005200042F0400240F824200020F0BD8000F0FF9F
:1005300030B500EB820250688D8900F04043D1E96C
:10054000000440EA04108C68240244EA0544204375
:100550000C8A074D05EB045420430C7D6D0105EB1F
:10056000046489692043084318435060002030BD6B
:100570000000F0FF10B5040002D0607910B106E071
:10058000012010BD00202071204600F005F8012058
:100590006071002010BD000008B50068064988425F
:1005A00008D10648016841F480510160006800F4F8
:1005B0008050009008BD00000030024030380240FA
:1005C00090F83510022903D0802141650120704741
:1005D000052180F835100068016821F001010160F3
:1005E0000020704770B5044600F04AF90546601CCB
:1005F00002D004480078044400F042F9401BA042B5
:10060000FAD370BD100000202DE9F04186B014210E
:100610006846FFF70DFE20480168002939D1012105
:1006200001601E480024016841F00101016000687A
:100630004FF4805800F001000C27CDF80080CDE980
:100640000470032602250396CDE901546946144837
:1006500000F02EF84FF68070CDE9000502AA694639
:1006600082E8D0000F4800F023F84CF23370CDE957
:10067000000502AA694682E8D0000B4800F018F88D
:1006800002AA694682E8D000CDE90085074800F05B
:100690000FF806B0BDE8F0810800002038380240AD
:1006A0000014024000100240000C024000180240FA
:1006B0002DE9F84F00224FF0010803254FF00F0EEF
:1006C0000B6808FA02F42340A3426ED14E68012E53
:1006D00005D0022E03D0112E01D0122E12D1866821
:1006E0004FEA420C05FA0CF7BE43CF6807FA0CF745
:1006F000374387604668A6430C79C4F300149440DE
:1007000034434460C668570005FA07FC8C6826EA43
:100710000C06BC403443C4604C68022C01D0122C3F
:1007200013D1D40800EB8404A346D4F820905407D6
:100730004FEAD46A0EFA0AF629EA06090E6906FAA1
:100740000AF646EA0906CBF8206006680C7926EA24
:100750000C0604F00304BC40344304604C68E4001D
:1007600065D5364C266846F480462660246822F01B
:10077000030604F480440094314C3444A446D4F875
:1007800008489607370F0EFA07F6B4432D4EB042CD
:1007900001D1002624E02C4EB04201D101261FE0F9
:1007A0002A4EB04202D102261AE040E0284EB04262
:1007B00001D1032614E0274EB04201D104260FE0F8
:1007C000254EB04201D105260AE0244EB04201D1A7
:1007D000062605E0224EB04201D1072600E0082699
:1007E000BE402643CCF808681E4E34684F689C43D0
:1007F000FF0300D51C4334601A4C241D26684F6843
:100800009E43BF0300D51E432660164E083634684B
:100810004F689C43FF0200D51C433460114E0C36D8
:1008200034684F689C43BF0200D51C433460521C9F
:10083000102AFFF445AFBDE8F88F000044380240AD
:100840000030014000000240000402400008024065
:10085000000C024000100240001402400018024048
:10086000001C0240003C0140426931EA020200D112
:100870000904816170470AB1816170470904FBE78F
:10088000014880687047000010000020024881681D
:100890000278114481607047100000200B4810B5A9
:1008A000016841F400710160016841F480610160F8
:1008B000016841F480710160032000F06FF80020AE
:1008C00000F006F800F024F8002010BD003C0240C3
:1008D00070B50D4D04464FF47A712878B1FBF0F0F5
:1008E0000A490968B1FBF0F000F02FFB48B9102C61
:1008F00007D200222146501E00F030F800206C6024
:1009000070BD012070BD0000100000201C00002000
:100910000A4808B5016841F480410160006800F4AC
:10092000804000900548001F016841F0805101603F
:10093000006800F08050009008BD0000443802407C
:10094000002809DB00F01F020121914040098000CE
:1009500000F1E020C0F8001170470000F0B40E4B29
:100960001B680C46C3F30223C3F10705042D00D90D
:100970000425191D072901D2002300E0DB1E0126F2
:1009800006FA05F1491E214099409E40761E164008
:100990003143F0BC03F035BB0CED00E0064900F03C
:1009A000070208684FF6FF03184040EA0220034A96
:1009B00010430860704700000CED00E00000FA05ED
:1009C0002DE9F0470E46050065D0DFF81481D8F810
:1009D0000000F7B200F00F00B04207D288F80070B4
:1009E000D8F8000000F00F00B04254D128683D4C08
:1009F000810712D5400703D5206840F4E0502060FD
:100A00002878000703D5206840F460402060206803
:100A1000A96820F0F000084320602878C0072DD096
:100A2000304968680839012812D0022813D00328F9
:100A300011D00968890700292DDA216821F0030106
:100A400001432160FFF71CFF814641F2883A0EE026
:100A500009688903EFE709688901ECE7FFF710FFF0
:100A6000A0EB0901514502D90320BDE8F0872068B9
:100A7000696800F00C00B0EB810FEFD1D8F80010DE
:100A8000404601F00F01B14207D90770006800F03D
:100A90000F00B04201D00120E7E72878400705D5D4
:100AA0002068E96820F4E0500843206028780007B7
:100AB00006D52068296920F4604040EAC100206022
:100AC00000F038F82168084AC1F30311515CC840AE
:100AD0000649086006480068FFF7FAFE0020C4E7F0
:100AE000003C024008380240EC4000081C00002096
:100AF000140000200448054900680968044AC1F34D
:100B00008221515CC84070471C0000200838024018
:100B1000FC4000080448054900680968044AC1F31C
:100B20004231515CC84070471C0000200838024028
:100B3000FC400008154810B5006810F00C0214487D
:100B400013D04110042A0FD0082A0ED10F4C241FB5
:100B50002268236802F03F025B0207D52068C0F3D9
:100B60008810A0FB010106E0084610BD2168C1F312
:100B70008811A1FB00010023FFF722FB2168C1F3CC
:100B80000141491C4900B0FBF1F010BD083802409A
:100B90000024F4002DE9F84F04006ED02078DFF82F
:100BA0003C93C007A9F104054AD009F1040001688B
:100BB000C1F38101012908D00068C0F38100022837
:100BC0000AD1D9F80000400206D52868800337D53D
:100BD00060680028E1D033E06068B0F5803F10D055
:100BE000B0F5A02F286810D020F480302860286845
:100BF00020F4802028606068A8B1FFF741FE064617
:100C00000DE0286840F48030F4E740F4802028604C
:100C1000F7E700BFFFF734FE801B642873D828680D
:100C20008003F7D50CE0FFF72BFE064605E000BF7A
:100C3000FFF726FE801B6428F0D828688003F7D4CD
:100C40002078DFF89C8280074FF0000A3ED5A34849
:100C5000001D016811F00C0F08D00068C0F381007E
:100C600002280BD1D9F80000400207D42868800779
:100C700016D5E068012800D112E02BE1E068B8B198
:100C80000120C8F80000FFF7FBFD064605E000BFA5
:100C9000FFF7F6FD801B0228C0D828688007F7D52B
:100CA0002868216920F0F80040EAC10028600DE0C2
:100CB000C8F800A0FFF7E4FD064604E0FFF7E0FDFA
:100CC000801B02281FD828688007F7D420780007E7
:100CD00022D5824E83486169703671B1012101606D
:100CE000FFF7CEFD074604E0FFF7CAFDC01B022850
:100CF00009D830688007F7D50EE0C0F800A0FFF7EC
:100D0000BFFD074605E082E0FFF7BAFDC01B0228E1
:100D10007DD830688007F7D42078400768D5DFF8A1
:100D2000BCB100270BF13C0BDBF80000C0000BD47A
:100D3000DBF8001041F08051CBF80010DBF8000028
:100D4000012700F080500090674E3068C00510D435
:100D5000306840F480703060FFF792FD009005E04D
:100D6000FFF78EFD0099401A022850D83068C00560
:100D7000F6D55A4EA0686C3601280FD00528306889
:100D800010D020F001003060306820F004003060A6
:100D9000A068B8B1FFF774FD00900FE0306840F034
:100DA0000100F4E740F004003060F7E7FFF768FD6A
:100DB0000099411A41F28830814266D83068800734
:100DC000F4D50EE0FFF75CFD009007E0FFF758FD5B
:100DD0000099411A41F28830814256D83068800724
:100DE000F4D42FB1DBF8001021F08051CBF80010C3
:100DF000A069C8B33949091D0968C1F381010229F5
:100E00004AD00228504607D0C8F8600000E03CE015
:100E1000FFF736FD04463BE04746C8F86000FFF7A1
:100E20002FFD064605E000BFFFF72AFD801B0228C4
:100E30002BD828688001F7D4D4E907010843A16AB8
:100E40002A4A490802EB0141626A41EA82110843D9
:100E500094F82C1040EA0161C9F8001001203866AE
:100E6000FFF70EFD044606E036E000BFFFF708FD81
:100E7000001B022809D828688001F7D52CE000BFA4
:100E8000FFF7FEFC001B022802D90320BDE8F88F03
:100E900028688001F4D41FE00128F7D0D9F80000B9
:100EA000E26900F48001914214D1226A00F03F010E
:100EB00091420FD147F6C071626A0140914209D157
:100EC000A26A00F44031914204D1E16A00F07060FE
:100ED000884201D00120D9E70020D7E7043802403A
:100EE00000004742800E4742007000400000FFFFB4
:100EF00070B515460E46040003D094F8490010B1B1
:100F000007E0012070BD002084F84800204600F072
:100F10001AF804F108012068FFF7E0FA3146A268E8
:100F20002068FFF705FBD4E901022946236BFFF790
:100F3000B5FAA168206850F8212042F0010240F87B
:100F40002120002070BDFFF75FBB10B5401EB0F13F
:100F5000807F01D3012010BD4FF0E02460610F219C
:100F6000601703F04EF80020A061072020610020E8
:100F700010BD704770B5026804461068D1685369A7
:100F800010F00F0F52D003F0010501F490762E43BC
:100F90005FD0C20705D0CA0503D5E26B42F001025B
:100FA000E263420705D5DA0703D0E26B42F00202A2
:100FB000E263820705D5DA0703D0E26B42F0040250
:100FC000E263020707D501F020022A4303D0E26B57
:100FD00042F00802E263E26B002A33D0800604D5B7
:100FE000880602D5204602F0F3FE20684069E16BD6
:100FF000C0F38010090700D428B3204602F0DAFEBF
:101000002068416949061AD5416921F040014161D2
:10101000606BA0B11B490165606BFFF7D1FA002836
:1010200010D0606B016DBDE870400847830610D595
:101030008B060ED52046BDE8704002F0C9BE2046A2
:10104000FFF797FF70BD2046FFF793FF0020E06396
:1010500070BD030606D50B0604D52046BDE87040DA
:1010600002F096BF4006F3D54806F1D5D168204678
:1010700021F04001D160202184F8391000F075F88A
:1010800070BD0000A53D000870B5040004D094F8C0
:101090003900002510B106E0012070BD84F83850F9
:1010A000204600F023F8242084F839002068C16825
:1010B00021F40051C160204602F0D6FE206801698B
:1010C00021F4904101612068416921F02A014161C8
:1010D0002068C16841F40051C160E563202084F8B4
:1010E000390084F83A00002070BD000010B586B0C9
:1010F000044614216846FFF79BF818492068884287
:1011000029D117480021026842F0100202600068ED
:1011100000F01000059012481438026842F00102F5
:101120000260006800F0010005904FF4C06000907C
:101130000220CDE9010103200390072004906946B5
:101140000848FFF7B5FA002211462520FFF706FCF4
:101150002520FFF7F5FB06B010BD00000010014090
:10116000443802400000024070477047FEE700002C
:1011700070B50B490646002408884D882146454332
:10118000204600F017FA00F04BFBB0B24FF0D84108
:1011900003E000BFA1F88000641CAC42FAD370BD2C
:1011A000B80000202DE9F04F33492C240A468871FD
:1011B0002A2592882B2645F2105B4FF4305E4FF4BF
:1011C00048774FF0F00949F2413A4FF4A07845F2E0
:1011D000103C4FF4F07358B1A1F80080A1F80290D0
:1011E000524501D0624529D10C814D818E8139E073
:1011F000A1F80090A1F80280524501D0624508D1C3
:101200000C814D818E81624531D1A1F800804B80E7
:101210002DE05A4508D1A1F808E04FF42850488144
:101220004FF42C50888106E0A2F5C85063381ED1D7
:101230000C814E818D810B804F8018E05A4508D17A
:10124000A1F808E04FF4285048814FF42C508881D1
:1012500006E0A2F5C850633804D10C814D818E811F
:101260000F804B80624502D10B80A1F80280BDE85F
:10127000F04F002000F0C2B8B80000202DE9F04384
:10128000444C91460246A08823460D464FEA112859
:10129000160A5B89A0F51341413917D0A0F5A64184
:1012A000103913D0A0F5AA41103914D02646A0F564
:1012B000C857B1793688B61A761E633F25D0A0F597
:1012C000D047043F3DD0012951D051E0184600F0ED
:1012D0009BFA30463CE0184600F096FA304600F0A3
:1012E00087FA6089401C80B200F08EFAD0B200F01C
:1012F0007FFAA08900F088FA404600F079FAA089C8
:10130000401C80B200F080FA2DE001B9B2B218465C
:1013100000F07AFA160A304600F06AFAD0B200F00D
:1013200067FA304600F064FAD0B200F061FAA089A2
:1013300000F06AFA404600F05BFAE8B200F058FAB2
:101340000EE0012900D1B2B2184600F05DFA100A91
:1013500000F04EFAD0B200F04BFAA08900F054FA37
:10136000404600F045FAE8B200F042FA08E0B2B2B6
:101370001146184600F05EFAA089294600F05AFA94
:101380004FF0D840218920F87E1FA0F80290BDE8D8
:10139000F0830000B800002008B54FF0D840B0F846
:1013A0008000ADF80000BDF8000008BD10B5024691
:1013B000BE2000F029FA052000F01AFA1046FEF7C8
:1013C000B4FF9FED0C1B53EC112BFEF73CFFFEF717
:1013D000B9FF80B200F00CFA012000F009FAFF20FA
:1013E00000F006FA002000F003FABDE810400020EB
:1013F00000F0FEB96666666666660440F0B56C4C41
:1014000000232146A279898841F66316012A01D07A
:101410001AB11BE0B14202D118E0B14216D108283E
:1014200014D2DFE800F00406080A0C0E10120620A1
:101430000CE007200AE0042008E0052006E0012077
:1014400004E0002002E0032000E00220A1F51347A1
:1014500045F2103245F21055413F05D0914203D07C
:10146000A94201D0B14277D1082812D2DFE800F0BA
:10147000110406080A0C0E1080230AE0402308E03D
:10148000C02306E0202304E0602302E0A02300E064
:10149000E023A94202D14FF4585000E03620914297
:1014A00005D0A94203D0B14201D043F00803194648
:1014B00000F0C0F9A188B1420AD09806208862885D
:1014C00002D5904202D303E0904201D9228060808D
:1014D0006089A94241D100F097F9002000F088F915
:1014E0006089401C80B200F08FF9002000F080F984
:1014F0006089801C80B200F087F92088401EC0F30C
:101500000F2000F075F96089C01C80B200F07CF9F2
:101510002078401EC0B200F06BF9A08900F074F989
:10152000002000F065F9A089401C80B200F06CF941
:10153000002000F05DF9A089801C80B200F064F901
:101540006088401EC0F30F2000F052F9A089C01C33
:1015500080B200F059F922E028E000F055F90020AF
:1015600000F046F9002000F043F92088401EC0F347
:101570000F2000F03DF92078401EC0B200F038F98D
:10158000A08900F041F9002000F032F9002000F0BD
:101590002FF96088401EC0F30F2000F029F9A078D1
:1015A000BDE8F040401EC0B200F022B9F0BD00001E
:1015B000B8000020F0B53F4A0D460446060A91885F
:1015C00010462F0A4089A1F51343413B28D0A1F5CD
:1015D000A643103B24D0A1F5C853633B2FD0A1F5FF
:1015E000AA43103B64D100F00FF9304600F000F937
:1015F0005089401C80B200F007F9E0B200F0F8F822
:10160000908900F001F9384600F0F2F89089401C0A
:1016100080B200F0F9F8E8B2BDE8F04000F0E8B8B8
:1016200000F0F2F8304600F0E3F8E0B200F0E0F845
:10163000908900F0E9F8384600F0DAF8EBE79179A4
:1016400029B300F0E1F8304600F0D2F8E0B200F043
:10165000CFF81088401EC0F30F2000F0C9F81078B2
:10166000401EC0B200F0C4F8908900F0CDF83846B2
:1016700000F0BEF8E8B200F0BBF85088401EC0F39E
:101680000F2000F0B5F89078401EC0B2C4E7118872
:10169000091B491E8CB200F0B7F8002000F0A8F832
:1016A000002000F0A5F8200A00F0A2F8E0B2D9E787
:1016B000F0BD0000B80000202DE9FF4F1D460C468C
:1016C0008A46580700D0012000EBD500690810FBBE
:1016D00001F0203A00F0FF09D0B20026DFF8A4B0F4
:1016E00002904BE00C2D11D0102D14D0182D17D0D6
:1016F000202D45D12449029801EBC0104FF000087D
:10170000875D380613D52148026814E00298204905
:1017100000EB400008E01F49029801EB0010EDE7E4
:1017200002981D4900EBC00001EB8000E6E70D9830
:1017300028B91648426821460098FFF79FFD7806B1
:10174000070E641CBBF80200A4B2A04218D9A4EB97
:101750000A00A84209D100985446401C80B200906B
:10176000BBF8001081420BD906E008F1010000F03F
:10177000FF08B8F1080FC4D3761CF6B24E45B1D3BA
:10178000BDE8FF8FB8000020C458000820000020EA
:101790000441000878450008684B00082DE9F84F1F
:1017A000044600F0FF0910190D46DDE90AB61FFADC
:1017B00080F8581987B24FF0000A12E0444503D36D
:1017C00005EB0B004C4685B2BD420FD25B46294665
:1017D0002046CDF800A0FFF76FFF04EB5B0084B25A
:1017E000761C3278A2F120005E28E7D9BDE8F88F98
:1017F00001B5BDF80000ADF80000BDF800004FF0E5
:10180000D841A1F8800008BD01B5BDF80000ADF8D1
:101810000000BDF800004FF0D841A1F87E0008BDDF
:1018200003484FF0D8410089A1F87E0070470000BE
:10183000B80000204FF0D84222F87E0F5180704748
:10184000074910B5054808600846FEF793FE0028D2
:1018500003D0BDE81040FEF71FBE10BD00300240AF
:101860000000002000B587B01C216846FEF7E0FCB0
:1018700016484FF0204110220160154941600621B1
:1018800081600021C160C0E904128161C16113025D
:101890000162C0E90913C16201634163816341646C
:1018A0000F20FF230090CDE90103CDE903021120B1
:1018B000CDE90501002269460448FFF719FB00281D
:1018C00001D0FEF7E9FD07B000BD000028000020B0
:1018D000040100A02DE9F04186B014216846FEF70E
:1018E000A7FC3348016841F004010160016801F080
:1018F00004010591016841F020010160016801F0D7
:1019000020010591016841F080010160016801F04A
:1019100080010591016841F010010160016801F04A
:1019200010010591016841F002010160016801F0B8
:1019300002010591016841F008010160016801F0B0
:1019400008010591016841F001010160016801F0A1
:1019500001010591016841F0400101600068154FE7
:1019600000F040004FF4C064059001222146384643
:10197000FEF781FFDFF840804FF400460022314639
:101980004046FEF778FF0094012402256946384658
:101990000194CDE90245FEF78BFECDE9006469466E
:1019A0004046CDE90245FEF783FE06B0BDE8F08172
:1019B0003038024000140240000402400C4810B5C8
:1019C0000A4901604FF4E1314160002181600C223D
:1019D000C160C0E904128161C161FFF755FB0028B5
:1019E00003D0BDE81040FEF757BD10BD0010014008
:1019F00078000020FEE7704770477047FEF746BF4B
:101A000030B593B030216846FEF712FC14210CA8C3
:101A1000FEF70EFC19480025016841F08051016075
:101A2000006800F0805011901548016841F4804131
:101A300001600068022400F48040119001200090B1
:101A4000000401908001CDE9064008AA0420A821E5
:101A500082E813000B906846FFF79CF80CA90F2052
:101A600081E831004FF4A0500F90E0021090052162
:101A70000CA8FEF7A5FF13B030BD000040380240AF
:101A8000007000400548016841F47001016003499D
:101A90004FF00060803908607047000088ED00E07A
:101AA0002DE9F05F3220FEF79DFDD320FFF7ACFE5D
:101AB000FFF772FCFE4CA080FFF76EFCA080FFF7E2
:101AC0006BFC4FF6FF7909EA0020A080FFF764FC69
:101AD000A18849F241360843A08045F2103745F20B
:101AE000105541F66318B04247D0D420FFF78CFE62
:101AF000FFF752FCA080FFF74FFCA080FFF74CFCE3
:101B000009EA00204A46A080FFF746FCA188084366
:101B1000A080B84231D04FF45A40FFF775FEFFF76E
:101B20003BFCA0804FF45B40FFF76EFEFFF734FCF8
:101B300002EA0020A0804FF45C40FFF765FEFFF74B
:101B40002BFCA1880843A080B0F5004F7DD0A842AF
:101B500013D0A120FFF758FEFFF71EFCA080FFF76F
:101B60001BFC02EA0020A080FFF716FCA1880843B6
:101B7000A0F5AE41A080613968D080B2B04266D194
:101B8000CF20FFF741FE0020FFF732FEC120FFF714
:101B90002FFE3020FFF72CFEED20FFF735FE6420EE
:101BA000FFF726FE0320FFF723FE1220FFF720FE9B
:101BB0008120FFF71DFEE820FFF726FE8520FFF7B6
:101BC00017FE1020FFF714FE7A20FFF711FECB203E
:101BD000FFF71AFE3920FFF70BFE2C20FFF708FE57
:101BE0000020FFF705FE3420FFF702FE0220FFF77A
:101BF000FFFDF720FFF708FE2020FFF7F9FDEA20A0
:101C0000FFF702FE0020FFF7F3FD0020FFF7F0FDD5
:101C1000C020FFF7F9FD1B20FFF7EAFDC120FFF709
:101C2000F3FD0120FFF7E4FDC520FFF7EDFD3020B7
:101C3000FFF7DEFD3020FFF7DBFDC720FFF7E4FDF7
:101C4000B720FFF7D5FD362002E0B5E0B0E0B5E003
:101C5000FFF7DAFD4820FFF7CBFD3A20FFF7D4FD70
:101C60005520FFF7C5FDB120FFF7CEFD0020FFF79F
:101C7000BFFD1A20FFF7BCFDB620FFF7C5FD0A2007
:101C8000FFF7B6FDA220FFF7B3FDF220FFF7BCFD82
:101C90000020FFF7ADFD2620FFF7B6FD0120FFF77E
:101CA000A7FDE020FFF7B0FD0F20FFF7A1FD2A20E0
:101CB000FFF79EFD2820FFF79BFD0820FFF798FD0A
:101CC0000E20FFF795FD0820FFF792FD5420FFF747
:101CD0008FFDA920FFF78CFD4320FFF789FD0A2027
:101CE000FFF786FD0F20FFF783FD0020FFF780FD43
:101CF0000020FFF77DFD0020FFF77AFD0020FFF7B1
:101D000077FDE120FFF780FD0020FFF771FD152032
:101D1000FFF76EFD1720FFF76BFD0720FFF768FD4B
:101D20001120FFF765FD0620FFF762FD2B20FFF76E
:101D30005FFD5620FFF75CFD3C20FFF759FD0520B5
:101D4000FFF756FD1020FFF753FD0F20FFF750FD62
:101D50003F20FFF74DFD3F20FFF74AFD0F20FFF723
:101D600047FD2B20FFF750FD0020FFF741FD00202D
:101D7000FFF73EFD0120FFF73BFD3F20FFF738FD59
:101D80002A20FFF741FD0020FFF732FD0020FFF77A
:101D90002FFD0020FFF72CFDEF20FFF729FD11207C
:101DA000FFF732FD7820FEF71DFC292001F009BF66
:101DB000A4F8048001F00ABFA580FDE3B84276D103
:101DC000ED20FFF721FD0120FFF712FDFE20FFF7B8
:101DD0000FFDEE20FFF718FDDE20FFF709FD2120A3
:101DE000FFF706FDF120FFF70FFD0120FFF700FDD3
:101DF000DF20FFF709FD1020FFF7FAFCC420FFF7F2
:101E000003FD8F20FFF7F4FCC620FFF7FDFC002048
:101E1000FFF7EEFCE220FFF7EBFCE220FFF7E8FC27
:101E2000E220FFF7E5FCBF20FFF7EEFCAA20FFF75A
:101E3000DFFCB020FFF7E8FC0D20FFF7D9FC002005
:101E4000FFF7D6FC0D20FFF7D3FC0020FFF7D0FCF6
:101E50001120FFF7CDFC0020FFF7CAFC1920FFF787
:101E6000C7FC0020FFF7C4FC2120FFF7C1FC0020C5
:101E7000FFF7BEFC2D20FFF7BBFC0020FFF7B8FCEE
:101E80003D20FFF7B5FC0020FFF7B2FC5D20FFF717
:101E9000AFFC0020FFF7ACFC5D20FFF7A9FC0020A1
:101EA000FFF7A6FCB120FFF7AFFC802002E0FDE3C6
:101EB000B8000020FFF79CFC0020FFF799FC8B2066
:101EC000FFF796FC0020FFF793FC9620FFF790FCAD
:101ED0000020FFF78DFCB220FFF796FC0020FFF7F3
:101EE00087FC0020FFF784FC0220FFF781FC002024
:101EF000FFF77EFC0320FFF77BFC0020FFF778FC58
:101F0000B320FFF781FC0020FFF772FC0020FFF7F1
:101F10006FFC0020FFF76CFC0020FFF769FC00203D
:101F2000FFF766FC0020FFF763FC0020FFF760FC72
:101F30000020FFF75DFC0020FFF75AFC0020FFF7B0
:101F400057FC0020FFF754FC0020FFF751FC002055
:101F5000FFF74EFC0020FFF74BFC0020FFF748FC8A
:101F60000020FFF745FC0020FFF742FC0020FFF7B0
:101F70003FFC0020FFF73CFC0020FFF739FC00206D
:101F8000FFF736FC0020FFF733FC0020FFF730FCA2
:101F90000020FFF72DFCB420FFF736FC8B20FFF765
:101FA00027FC0020FFF724FC9620FFF721FC0020EF
:101FB000FFF71EFCA120FFF71BFC0020FFF718FC19
:101FC000B520FFF721FC0220FFF712FC0020FFF7ED
:101FD0000FFC0320FFF70CFC0020FFF709FC042096
:101FE000FFF706FC0020FFF703FCB620FFF70CFC10
:101FF0000020FFF7FDFB0020FFF7FAFBB720FFF7FB
:1020000003FC0020FFF7F4FB0020FFF7F1FB3F206B
:10201000FFF7EEFB0020FFF7EBFB5E20FFF7E8FB8E
:102020000020FFF7E5FB6420FFF7E2FB0020FFF74D
:10203000DFFB8C20FFF7DCFB0020FFF7D9FBAC2097
:10204000FFF7D6FB0020FFF7D3FBDC20FFF7D0FB28
:102050000020FFF7CDFB7020FFF7CAFB0020FFF741
:10206000C7FB9020FFF7C4FB0020FFF7C1FBEB206C
:10207000FFF7BEFB0020FFF7BBFBDC20FFF7B8FB40
:102080000020FFF7B5FBB820FFF7BEFB0020FFF7ED
:10209000AFFB0020FFF7ACFB0020FFF7A9FB0020FF
:1020A000FFF7A6FB0020FFF7A3FB0020FFF7A0FB34
:1020B0000020FFF79DFB0020FFF79AFBBA20FFF7F7
:1020C000A3FB2420FFF794FB0020FFF791FB0020E7
:1020D000FFF78EFB0020FFF78BFBC120FFF794FB7F
:1020E0002020FFF785FB0020FFF782FB5420FFF73D
:1020F0007FFB0020FFF77CFBFF20FFF779FB002030
:10210000FFF776FBC220FFF77FFB0A20FFF770FB8B
:102110000020FFF76DFB0420FFF76AFB0020FFF7AC
:1021200067FBC320FFF770FB3C20FFF761FB00203B
:10213000FFF75EFB3A20FFF75BFB0020FFF758FB41
:102140003920FFF755FB0020FFF752FB3720FFF740
:102150004FFB0020FFF74CFB3C20FFF749FB002022
:10216000FFF746FB3620FFF743FB0020FFF740FB5D
:102170003220FFF73DFB0020FFF73AFB2F20FFF74F
:1021800037FB0020FFF734FB2C20FFF731FB00204A
:10219000FFF72EFB2920FFF72BFB0020FFF728FB82
:1021A0002620FFF725FB0020FFF722FB2420FFF766
:1021B0001FFB0020FFF71CFB2420FFF719FB00206A
:1021C000FFF716FB2320FFF713FB0020FFF710FBA0
:1021D0003C20FFF70DFB0020FFF70AFB3620FFF73E
:1021E00007FB0020FFF704FB3220FFF701FB002074
:1021F000FFF7FEFA2F20FFF7FBFA0020FFF7F8FAAF
:102200002C20FFF7F5FA0020FFF7F2FA2920FFF75C
:10221000EFFA0020FFF7ECFA2620FFF7E9FA00209A
:10222000FFF7E6FA2420FFF7E3FA0020FFF7E0FAD1
:102230002420FFF7DDFA0020FFF7DAFA2320FFF76A
:10224000D7FA0020FFF7D4FAC420FFF7DDFA6220A6
:10225000FFF7CEFA0020FFF7CBFA0520FFF7C8FA08
:102260000020FFF7C5FA8420FFF7C2FA0020FFF72D
:10227000BFFAF020FFF7BCFA0020FFF7B9FA1820E8
:10228000FFF7B6FA0020FFF7B3FAA420FFF7B0FA81
:102290000020FFF7ADFA1820FFF7AAFA0020FFF799
:1022A000A7FA5020FFF7A4FA0020FFF7A1FA0C20AC
:1022B000FFF79EFA0020FFF79BFA1720FFF798FA26
:1022C0000020FFF795FA9520FFF792FA0020FFF71C
:1022D0008FFAF320FFF78CFA0020FFF789FAE62047
:1022E000FFF786FA0020FFF783FAC520FFF78CFA84
:1022F0003220FFF77DFA0020FFF77AFA4420FFF73B
:1023000077FA0020FFF774FA6520FFF771FA0020D2
:10231000FFF76EFA7620FFF76BFA0020FFF768FAF6
:102320008820FFF765FA0020FFF762FAC620FFF762
:102330006BFA2020FFF75CFA0020FFF759FA17200C
:10234000FFF756FA0020FFF753FA0120FFF750FA83
:102350000020FFF74DFAC720FFF756FA0020FFF7DD
:1023600047FA0020FFF744FA0020FFF741FA002067
:10237000FFF73EFAC820FFF747FA0020FFF738FAC8
:102380000020FFF735FA0020FFF732FA0020FFF7B0
:102390002FFAC920FFF738FA0020FFF729FA0020AA
:1023A000FFF726FA0020FFF723FA0020FFF720FAB4
:1023B0000020FFF71DFA0020FFF71AFA0020FFF7B0
:1023C00017FA0020FFF714FA0020FFF711FA002097
:1023D000FFF70EFA0020FFF70BFA0020FFF708FACC
:1023E0000020FFF705FA0020FFF702FA0020FFF7B0
:1023F000FFF90020FFF7FCF9E020FFF705FA1620AF
:10240000FFF7F6F90020FFF7F3F91C20FFF7F0F9CA
:102410000020FFF7EDF92120FFF7EAF90020FFF790
:10242000E7F93620FFF7E4F90020FFF7E1F946204D
:10243000FFF7DEF90020FFF7DBF95220FFF7D8F9AC
:102440000020FFF7D5F96420FFF7D2F90020FFF74D
:10245000CFF97A20FFF7CCF90020FFF7C9F98B20DC
:10246000FFF7C6F90020FFF7C3F99920FFF7C0F97D
:102470000020FFF7BDF9A820FFF7BAF90020FFF709
:10248000B7F9B920FFF7B4F90020FFF7B1F9C4207C
:10249000FFF7AEF90020FFF7ABF9CA20FFF7A8F964
:1024A0000020FFF7A5F9D220FFF7A2F90020FFF7DF
:1024B0009FF9D920FFF79CF90020FFF799F9E02058
:1024C000FFF796F90020FFF793F9F320FFF790F953
:1024D0000020FFF78DF9E120FFF796F91620FFF7AE
:1024E00087F90020FFF784F91C20FFF781F900200D
:1024F000FFF77EF92220FFF77BF90020FFF778F93C
:102500003620FFF775F90020FFF772F94520FFF735
:102510006FF90020FFF76CF95220FFF769F90020EE
:10252000FFF766F96420FFF763F90020FFF760F911
:102530007A20FFF75DF90020FFF75AF98B20FFF7AB
:1025400057F90020FFF754F99920FFF751F90020BF
:10255000FFF74EF9A820FFF74BF90020FFF748F9E5
:10256000B920FFF745F90020FFF742F9C420FFF733
:102570003FF90020FFF73CF9CA20FFF739F90020A6
:10258000FFF736F9D220FFF733F90020FFF730F9D3
:10259000D820FFF72DF90020FFF72AF9E020FFF7F8
:1025A00027F90020FFF724F9F320FFF721F9002095
:1025B000FFF71EF9E22000E082E3FFF725F905208E
:1025C000FFF716F90020FFF713F90B20FFF710F9BA
:1025D0000020FFF70DF91B20FFF70AF90020FFF795
:1025E00007F93420FFF704F90020FFF701F9442030
:1025F000FFF7FEF80020FFF7FBF84F20FFF7F8F891
:102600000020FFF7F5F86120FFF7F2F80020FFF750
:10261000EFF87920FFF7ECF80020FFF7E9F88820C1
:10262000FFF7E6F80020FFF7E3F89720FFF7E0F860
:102630000020FFF7DDF8A620FFF7DAF80020FFF70B
:10264000D7F8B720FFF7D4F80020FFF7D1F8C22061
:10265000FFF7CEF80020FFF7CBF8C720FFF7C8F848
:102660000020FFF7C5F8D120FFF7C2F80020FFF7E0
:10267000BFF8D620FFF7BCF80020FFF7B9F8DD203F
:10268000FFF7B6F80020FFF7B3F8F320FFF7B0F834
:102690000020FFF7ADF8E320FFF7B6F80520FFF7BD
:1026A000A7F80020FFF7A4F80A2000E006E3FFF7F0
:1026B0009FF80020FFF79CF81C20FFF799F80020F6
:1026C000FFF796F83320FFF793F80020FFF790F814
:1026D0004420FFF78DF80020FFF78AF85020FFF71D
:1026E00087F80020FFF784F86220FFF781F80020C8
:1026F000FFF77EF87820FFF77BF80020FFF778F8E7
:102700008820FFF775F80020FFF772F89720FFF791
:102710006FF80020FFF76CF8A620FFF769F800209B
:10272000FFF766F8B720FFF763F80020FFF760F8BF
:10273000C220FFF75DF80020FFF75AF8C720FFF727
:1027400057F80020FFF754F8D120FFF751F8002088
:10275000FFF74EF8D520FFF74BF80020FFF748F8B9
:10276000DD20FFF745F80020FFF742F8F320FFF7E0
:102770003FF80020FFF73CF8E420FFF745F8012080
:10278000FFF736F80020FFF733F80120FFF730F8A5
:102790000020FFF72DF80220FFF72AF80020FFF7AE
:1027A00027F82A20FFF724F80020FFF721F83C2023
:1027B000FFF71EF80020FFF71BF84B20FFF718F873
:1027C0000020FFF715F85D20FFF712F80020FFF753
:1027D0000FF87420FFF70CF80020FFF709F88420A9
:1027E000FFF706F80020FFF703F89320FFF700F843
:1027F0000020FEF7FDFFA220FEF7FAFF0020FEF703
:10280000F7FFB320FEF7F4FF0020FEF7F1FFBE2034
:10281000FEF7EEFF0020FEF7EBFFC420FEF7E8FF17
:102820000020FEF7E5FFCD20FEF7E2FF0020FEF7D7
:10283000DFFFD320FEF7DCFF0020FEF7D9FFDD200D
:10284000FEF7D6FF0020FEF7D3FFF320FEF7D0FF00
:102850000020FEF7CDFFE520FEF7D6FF0020FEF7B3
:10286000C7FF0020FEF7C4FF0020FEF7C1FF0020D5
:10287000FEF7BEFF0220FEF7BBFF0020FEF7B8FF09
:102880002920FEF7B5FF0020FEF7B2FF3C20FEF73F
:10289000AFFF0020FEF7ACFF4B20FEF7A9FF0020A2
:1028A000FEF7A6FF5D20FEF7A3FF0020FEF7A0FFC6
:1028B0007420FEF79DFF0020FEF79AFF8420FEF7AC
:1028C00097FF0020FEF794FF9320FEF791FF002072
:1028D000FEF78EFFA220FEF78BFF0020FEF788FF99
:1028E000B320FEF785FF0020FEF782FFBE20FEF733
:1028F0007FFF0020FEF77CFFC420FEF779FF002059
:10290000FEF776FFCD20FEF773FF0020FEF770FF85
:10291000D320FEF76DFF0020FEF76AFFDC20FEF7F4
:1029200067FF0020FEF764FFF320FEF761FF002041
:10293000FEF75EFFE620FEF767FF1120FEF758FF67
:102940000020FEF755FF3420FEF752FF0020FEF76F
:102950004FFF5620FEF74CFF0020FEF749FF762080
:10296000FEF746FF0020FEF743FF7720FEF740FF0B
:102970000020FEF73DFF6620FEF73AFF0020FEF73D
:1029800037FF8820FEF734FF0020FEF731FF992043
:10299000FEF72EFF0020FEF72BFFBB20FEF728FFDF
:1029A0000020FEF725FF9920FEF722FF0020FEF70A
:1029B0001FFF6620FEF71CFF0020FEF719FF5520C1
:1029C000FEF716FF0020FEF713FF5520FEF710FF5D
:1029D0000020FEF70DFF4520FEF70AFF0020FEF75E
:1029E00007FF4320FEF704FF0020FEF701FF44200D
:1029F000FEF7FEFE0020FEF7FBFEE720FEF704FFD9
:102A00003220FEF7F5FE0020FEF7F2FE5520FEF71D
:102A1000EFFE0020FEF7ECFE7620FEF7E9FE002038
:102A2000FEF7E6FE6620FEF7E3FE0020FEF7E0FE7E
:102A30006720FEF7DDFE0020FEF7DAFE6720FEF7D6
:102A4000D7FE0020FEF7D4FE8720FEF7D1FE00203F
:102A5000FEF7CEFE9920FEF7CBFE0020FEF7C8FE63
:102A6000BB20FEF7C5FE0020FEF7C2FE9920FEF750
:102A7000BFFE0020FEF7BCFE7720FEF7B9FE002067
:102A8000FEF7B6FE4420FEF7B3FE0020FEF7B0FED0
:102A90005620FEF7ADFE0020FEF7AAFE2320FEF72B
:102AA000A7FE0020FEF7A4FE3320FEF7A1FE0020C3
:102AB000FEF79EFE4520FEF79BFE0020FEF798FEE7
:102AC000E820FEF7A1FE0020FEF792FE0020FEF7B0
:102AD0008FFE9920FEF78CFE0020FEF789FE8720EE
:102AE000FEF786FE0020FEF783FE8820FEF780FEBC
:102AF0000020FEF77DFE7720FEF77AFE0020FEF72D
:102B000077FE6620FEF774FE0020FEF771FE882037
:102B1000FEF76EFE0020FEF76BFEAA20FEF768FEB1
:102B20000020FEF765FEBB20FEF762FE0020FEF7E8
:102B30005FFE9920FEF75CFE0020FEF759FE66203E
:102B4000FEF756FE0020FEF753FE5520FEF750FE1E
:102B50000020FEF74DFE5520FEF74AFE0020FEF74E
:102B600047FE4420FEF744FE0020FEF741FE4420CD
:102B7000FEF73EFE0020FEF73BFE5520FEF738FE36
:102B80000020FEF735FEE920FEF73EFEAA20FEF704
:102B90002FFE0020FEF72CFE0020FEF729FE00206D
:102BA000FEF726FE0020FEF72FFEAA20FEF720FEED
:102BB000CF20FEF729FE0020FEF71AFE0020FEF7C8
:102BC00017FE0020FEF714FE0020FEF711FE002085
:102BD000FEF70EFE0020FEF70BFE0020FEF708FEBB
:102BE0000020FEF705FE0020FEF702FE0020FEF7A3
:102BF000FFFD0020FEF7FCFD0020FEF7F9FD0020A0
:102C0000FEF7F6FD0020FEF7F3FD0020FEF7F0FDD5
:102C10000020FEF7EDFD0020FEF7EAFDF020FEF7B4
:102C2000F3FD0020FEF7E4FD5020FEF7E1FD00205B
:102C3000FEF7DEFD0020FEF7DBFD0020FEF7D8FDED
:102C4000F320FEF7E1FD0020FEF7D2FDF920FEF7AC
:102C5000DBFD0620FEF7CCFD1020FEF7C9FD292084
:102C6000FEF7C6FD0020FEF7C3FD3A20FEF7CCFDBF
:102C70005520FEF7BDFD1120FEF7C6FD6420FDF7CF
:102C8000B1FC2920FEF7C0FD3520FEF7BDFD002078
:102C9000FEF7AEFD5120FEF7B7FDFF20FEF7A8FDC1
:102CA0005320FEF7B1FD2C20FEF7A2FD5520FEF7C4
:102CB000ABFD8220FEF79CFD2C20FCE3A8427CD1DA
:102CC0004FF4704355211846FEF7B4FD4FF2010A48
:102CD000AA215046FEF7AEFD4FF2020B5221584694
:102CE000FEF7A8FD08214FF20300FEF7A3FD012126
:102CF0004FF20400FEF79EFD0D214FF43040FEF729
:102D000099FD0D214BF20100FEF794FD0D214BF2D0
:102D10000200FEF78FFD34214FF43640FEF78AFDA6
:102D200034214BF20160FEF785FD34214BF2026045
:102D3000FEF780FD0D214FF43140FEF77BFD0D21A4
:102D40004BF20110FEF776FD0D214BF20210FEF75B
:102D500071FD34214FF43740FEF76CFD34214BF206
:102D60000170FEF767FD34214BF20270FEF762FD41
:102D700000214FF43240FEF75DFD00214BF20120AF
:102D8000FEF758FD00214BF20220FEF753FD2421EF
:102D90004FF43840FEF74EFD24214BF60100FEF7BC
:102DA00049FD24214BF60200FEF744FD01214FF4BA
:102DB0003F40FEF73FFD0F2100E0FDE34FF43340BD
:102DC000FEF738FD0F214BF20130FEF733FD0F21E6
:102DD0004BF20230FEF72EFD34214FF43940FEF75E
:102DE00029FD34214BF60110FEF724FD34214BF66A
:102DF0000210FEF71FFD08214FF43540FEF71AFDC3
:102E000008214BF20150FEF715FD08214BF202504C
:102E1000FEF710FD03214FF44240FEF70BFD242185
:102E20004FF43A40FEF706FD24214BF60120FEF751
:102E300001FD24214BF60220FEF7FCFC00214FF49B
:102E40003C40FEF7F7FC78214BF60140FEF7F2FC20
:102E500000214BF60240FEF7EDFC00214FF43D400F
:102E6000FEF7E8FC78214BF60150FEF7E3FC002169
:102E70004BF60250FEF7DEFC00214FF43E40FEF719
:102E8000D9FC64214BF60160FEF7D4FC00214FF41D
:102E90005140FEF7CFFC33214DF20110FEF7CAFC82
:102EA00000214DF20210FEF7C5FC34214DF2031053
:102EB000FEF7C0FC00214DF20410FEF7BBFC3A21E6
:102EC0004DF20510FEF7B6FC00214DF20610FEF79C
:102ED000B1FC4A214DF20710FEF7ACFC00214DF287
:102EE0000810FEF7A7FC5C214DF20910FEF7A2FCCA
:102EF00000214DF20A10FEF79DFC81214DF20B10CE
:102F0000FEF798FC00214DF20C10FEF793FCA62171
:102F10004DF20D10FEF78EFC00214DF20E10FEF763
:102F200089FCE5214DF20F10FEF784FC01214DF2E2
:102F30001010FEF77FFC13214DF21110FEF77AFC02
:102F400001214DF21210FEF775FC54214DF21310C1
:102F5000FEF770FC01214DF21410FEF76BFC82218C
:102F60004DF21510FEF766FC01214DF21610FEF72A
:102F700061FCCA214DF21710FEF75CFC02214DF2F4
:102F80001810FEF757FC00214DF21910FEF752FC05
:102F900002214DF21A10FEF74DFC01214DF21B10DB
:102FA000FEF748FC02214DF21C10FEF743FC3421D1
:102FB0004DF21D10FEF73EFC02214DF21E10FEF7F1
:102FC00039FC67214DF21F10FEF734FC02214DF24F
:102FD0002010FEF72FFC84214DF22110FEF72AFC71
:102FE00002214DF22210FEF725FCA4214DF2231000
:102FF000FEF720FC02214DF22410FEF71BFCB72146
:103000004DF22510FEF716FC02214DF22610FEF7B8
:1030100011FCCF214DF22710FEF70CFC02214DF2DE
:103020002810FEF707FCDE214DF22910FEF702FC06
:1030300002214DF22A10FEF7FDFBF2214DF22B107A
:10304000FEF7F8FB02214DF22C10FEF7F3FBFE21F8
:103050004DF22D10FEF7EEFB03214DF22E10FEF780
:10306000E9FB10214DF22F10FEF7E4FB03214DF296
:103070003010FEF7DFFB33214DF23110FEF7DAFBA3
:1030800003214DF23210FEF7D5FB6D214DF23310C6
:10309000FEF7D0FB00214FF45240FEF7CBFB33216B
:1030A0004DF20120FEF7C6FB00214DF20220FEF793
:1030B000C1FB34214DF20320FEF7BCFB00214DF291
:1030C0000420FEF7B7FB3A214DF20520FEF7B2FBD4
:1030D00000214DF20620FEF7ADFB4A214DF20720FC
:1030E000FEF7A8FB00214DF20820FEF7A3FB5C21B0
:1030F0004DF20920FEF79EFB00214DF20A20FEF75B
:1031000099FB81214DF20B20FEF794FB00214DF23B
:103110000C20FEF78FFBA6214DF20D20FEF78AFB57
:1031200000214DF20E20FEF785FBE5214DF20F2028
:10313000FEF780FB01214DF21020FEF77BFB1321EF
:103140004DF21120FEF776FB01214DF21220FEF721
:1031500071FB54214DF21320FEF76CFB01214DF25F
:103160001420FEF767FB82214DF21520FEF762FB6B
:1031700001214DF21620FEF75DFBCA214DF217200A
:10318000FEF758FB02214DF21820FEF753FB0021F9
:103190004DF21920FEF74EFB02214DF21A20FEF7E8
:1031A00049FB01214DF21B20FEF744FB02214DF2A9
:1031B0001C20FEF73FFB34214DF21D20FEF73AFBA9
:1031C00002214DF21E20FEF735FB67214DF21F2034
:1031D000FEF730FB02214DF22020FEF72BFB84216D
:1031E0004DF22120FEF726FB02214DF22220FEF7B0
:1031F00021FBA4214DF22320FEF71CFB02214DF2FE
:103200002420FEF717FBB7214DF22520FEF712FB15
:1032100002214DF22620FEF70DFBCF214DF2272093
:10322000FEF708FB02214DF22820FEF703FBDE210A
:103230004DF22920FEF7FEFA02214DF22A20FEF778
:10324000F9FAF2214DF22B20FEF7F4FA02214DF2A9
:103250002C20FEF7EFFAFE214DF22D20FEF7EAFAC0
:1032600003214DF22E20FEF7E5FA10214DF22F201A
:10327000FEF7E0FA03214DF23020FEF7DBFA3321AE
:103280004DF23120FEF7D6FA03214DF23220FEF73F
:10329000D1FA6D214DF23320FEF7CCFA00214FF424
:1032A0005340FEF7C7FA33214DF20130FEF7C2FA60
:1032B00000214DF20230FEF7BDFA34214DF2033009
:1032C000FEF7B8FA00214DF20430FEF7B3FA3A21C6
:1032D0004DF20530FEF7AEFA00214DF20630FEF752
:1032E000A9FA4A214DF20730FEF7A4FA00214DF267
:1032F0000830FEF79FFA5C214DF20930FEF79AFA8A
:1033000000214DF20A30FEF795FA81214DF20B3083
:10331000FEF790FA00214DF20C30FEF78BFAA62151
:103320004DF20D30FEF786FA00214DF20E30FEF719
:1033300081FAE5214DF20F30FEF77CFA01214DF2C2
:103340001030FEF777FA13214DF21130FEF772FAC2
:1033500001214DF21230FEF76DFA54214DF2133077
:10336000FEF768FA01214DF21430FEF763FA82216C
:103370004DF21530FEF75EFA01214DF21630FEF7E0
:1033800059FACA214DF21730FEF754FA02214DF2D4
:103390001830FEF74FFA00214DF21930FEF74AFAC5
:1033A00002214DF21A30FEF745FA01214DF21B3091
:1033B000FEF740FA02214DF21C30FEF73BFA3421B1
:1033C0004DF21D30FEF736FA02214DF21E30FEF7A7
:1033D00031FA67214DF21F30FEF72CFA02214DF22F
:1033E0002030FEF727FA84214DF22130FEF722FA31
:1033F00002214DF22230FEF71DFAA4214DF22330B6
:10340000FEF718FA02214DF22430FEF713FAB72125
:103410004DF22530FEF70EFA02214DF22630FEF76E
:1034200009FACF214DF22730FEF704FA02214DF2BE
:103430002830FEF7FFF9DE214DF22930FEF7FAF9C8
:1034400002214DF22A30FEF7F5F9F2214DF22B3030
:10345000FEF7F0F902214DF22C30FEF7EBF9FE21D8
:103460004DF22D30FEF7E6F903214DF22E30FEF736
:10347000E1F910214DF22F30FEF7DCF903214DF276
:103480003030FEF7D7F933214DF23130FEF7D2F963
:1034900003214DF23230FEF7CDF96D214DF233307C
:1034A000FEF7C8F900214FF45440FEF7C3F9332169
:1034B0004DF2014000E084E3FEF7BCF900214DF23B
:1034C0000240FEF7B7F934214DF20340FEF7B2F99E
:1034D00000214DF20440FEF7ADF93A214DF20540CE
:1034E000FEF7A8F900214DF20640FEF7A3F94A21A4
:1034F0004DF20740FEF79EF900214DF20840FEF71D
:1035000099F95C214DF20940FEF794F900214DF242
:103510000A40FEF78FF981214DF20B40FEF78AF940
:1035200000214DF20C40FEF785F9A6214DF20D4029
:10353000FEF780F900214DF20E40FEF77BF9E52100
:103540004DF20F40FEF776F901214DF21040FEF7E3
:1035500071F913214DF21140FEF76CF901214DF282
:103560001240FEF767F954214DF21340FEF762F95D
:1035700001214DF21440FEF75DF982214DF2154014
:10358000FEF758F901214DF21640FEF753F9CA2112
:103590004DF21740FEF74EF902214DF21840FEF7AA
:1035A00049F900214DF21940FEF744F902214DF28C
:1035B0001A40FEF73FF900E006E301214DF21B40FF
:1035C000FEF738F902214DF21C40FEF733F93421A1
:1035D0004DF21D40FEF72EF902214DF21E40FEF77E
:1035E00029F967214DF21F40FEF724F902214DF21F
:1035F0002040FEF71FF984214DF22140FEF71AF911
:1036000002214DF22240FEF715F9A4214DF223408C
:10361000FEF710F902214DF22440FEF70BF9B72115
:103620004DF22540FEF706F902214DF22640FEF745
:1036300001F9CF214DF22740FEF7FCF802214DF2AF
:103640002840FEF7F7F8DE214DF22940FEF7F2F8A8
:1036500002214DF22A40FEF7EDF8F2214DF22B4007
:10366000FEF7E8F802214DF22C40FEF7E3F8FE21C8
:103670004DF22D40FEF7DEF803214DF22E40FEF70D
:10368000D9F810214DF22F40FEF7D4F803214DF266
:103690003040FEF7CFF833214DF23140FEF7CAF843
:1036A00003214DF23240FEF7C5F86D214DF2334053
:1036B000FEF7C0F800214FF45540FEF7BBF8332168
:1036C0004DF20150FEF7B6F800214DF20250FEF720
:1036D000B1F834214DF20350FEF7ACF800214DF261
:1036E0000450FEF7A7F83A214DF20550FEF7A2F874
:1036F00000214DF20650FEF79DF84A214DF2075089
:10370000FEF798F800214DF20850FEF793F85C217F
:103710004DF20950FEF78EF800214DF20A50FEF7E7
:1037200089F881214DF20B50FEF784F800214DF20B
:103730000C50FEF77FF8A6214DF20D50FEF77AF8F7
:1037400000214DF20E50FEF775F8E5214DF20F50B5
:10375000FEF770F801214DF21050FEF76BF81321BF
:103760004DF21150FEF766F801214DF21250FEF7AE
:1037700061F854214DF21350FEF75CF801214DF22F
:103780001450FEF757F882214DF21550FEF752F80B
:1037900001214DF21650FEF74DF8CA214DF2175097
:1037A000FEF748F802214DF21850FEF743F80021C9
:1037B0004DF21950FEF73EF802214DF21A50FEF775
:1037C00039F801214DF21B50FEF734F802214DF279
:1037D0001C50FEF72FF834214DF21D50FEF72AF849
:1037E00002214DF21E50FEF725F867214DF21F50C1
:1037F000FEF720F802214DF22050FEF71BF884213D
:103800004DF22150FEF716F802214DF22250FEF73C
:1038100011F8A4214DF22350FEF70CF802214DF2CD
:103820002450FEF707F8B7214DF22550FEF702F8B5
:1038300002214DF22650FDF7FDFFCF214DF227501A
:10384000FDF7F8FF02214DF22850FDF7F3FFDE21CE
:103850004DF22950FDF7EEFF02214DF22A50FDF7FF
:10386000E9FFF2214DF22B50FDF7E4FF02214DF26A
:103870002C50FDF7DFFFFE214DF22D50FDF7DAFF52
:1038800003214DF22E50FDF7D5FF10214DF22F50A0
:10389000FDF7D0FF03214DF23050FDF7CBFF332170
:1038A0004DF23150FDF7C6FF03214DF23250FDF7C6
:1038B000C1FF6D214DF23350FDF7BCFF00214FF4E5
:1038C0005640FDF7B7FF33214DF20160FDF7B2FF1F
:1038D00000214DF20260FDF7ADFF34214DF203608F
:1038E000FDF7A8FF00214DF20460FDF7A3FF3A2188
:1038F0004DF20560FDF79EFF00214DF20660FDF7D9
:1039000099FF4A214DF20760FDF794FF00214DF227
:103910000860FDF78FFF5C214DF20960FDF78AFF1B
:1039200000214DF20A60FDF785FF81214DF20B6009
:10393000FDF780FF00214DF20C60FDF77BFFA62113
:103940004DF20D60FDF776FF00214DF20E60FDF7A0
:1039500071FFE5214DF20F60FDF76CFF01214DF283
:103960001060FDF767FF13214DF21160FDF762FF54
:1039700001214DF21260FDF75DFF54214DF21360FD
:10398000FDF758FF01214DF21460FDF753FF82212E
:103990004DF21560FDF74EFF01214DF21660FDF767
:1039A00049FFCA214DF21760FDF744FF02214DF295
:1039B0001860FDF73FFF00214DF21960FDF73AFF57
:1039C00002214DF21A60FDF735FF01214DF21B6017
:1039D000FDF730FF02214DF21C60FDF72BFF342173
:1039E0004DF21D60FDF726FF02214DF21E60FDF72E
:1039F00021FF67214DF21F60FDF71CFF02214DF2F0
:103A00002060FDF717FF84214DF22160FDF712FFC2
:103A100002214DF22260FDF70DFFA4214DF223603B
:103A2000FDF708FF02214DF22460FDF703FFB721E7
:103A30004DF22560FDF7FEFE02214DF22660FDF7F6
:103A4000F9FECF214DF22760FDF7F4FE02214DF281
:103A50002860FDF7EFFEDE214DF22960FDF7EAFE5A
:103A600002214DF22A60FDF7E5FEF2214DF22B60B6
:103A7000FDF7E0FE02214DF22C60FDF7DBFEFE219A
:103A80004DF22D60FDF7D6FE03214DF22E60FDF7BD
:103A9000D1FE10214DF22F60FDF7CCFE03214DF237
:103AA0003060FDF7C7FE33214DF23160FDF7C2FEF5
:103AB00003214DF23260FDF7BDFE6D214DF2336002
:103AC000FDF7B8FE55211846FDF7B4FEAA21504671
:103AD000FDF7B0FE52215846FDF7ACFE08214FF22B
:103AE0000300FDF7A7FE00214FF20400FDF7A2FE40
:103AF000CC214FF43140FDF79DFE00214BF2011027
:103B0000FDF798FE05214FF43640FDF793FE702136
:103B10004FF43740FDF78EFE70214BF20170FDF738
:103B200089FE01214FF43840FDF784FE03214BF656
:103B30000100FDF77FFE03214BF60200FDF77AFE40
:103B400003214BF60300FDF775FE02214FF43C40C4
:103B5000FDF770FE00214BF60140FDF76BFE0021E2
:103B60004BF60240FDF766FED0214FF44940FDF7C9
:103B700061FE02214CF60110FDF75CFE50214CF66F
:103B80000210FDF757FE50214CF60310FDF752FED0
:103B900050214CF60410FDF74DFE00214FF4545017
:103BA000FDF748FE55214FF46850FDF743FE4FF4F2
:103BB0008850FDF729FE7720401EC0B2FCD24FF49A
:103BC0002450FDF721FEBAE04045FCD1E220FDF78C
:103BD0001BFE1D20FDF70CFE0220FDF709FE042050
:103BE000FDF706FE6320401EC0B2FCD2E020FDF7C8
:103BF0000BFE0120FDF7FCFD0A20FCF7F3FCE020A2
:103C0000FDF702FE0320FDF7F3FD0C20FCF7EAFCB4
:103C10000120FDF7F9FD0A20FCF7E4FCE620FDF7A2
:103C2000F3FD2F20FDF7E4FDFF20FDF7E1FDFF2070
:103C3000FDF7DEFDB020FDF7E7FD2020FDF7D8FD04
:103C40000020FDF7D5FD0320FDF7D2FD40F21F3027
:103C5000FDF7CEFD0120FDF7CBFD40F2DF10FDF7B3
:103C6000C7FD0020FDF7C4FDB420FDF7CDFD042005
:103C7000FDF7BEFD40F21F40FDF7BAFD0020FDF745
:103C8000B7FD2E20FDF7B4FD0020FDF7B1FD0020AB
:103C9000FDF7AEFD0020FDF7ABFD0020FDF7A8FD10
:103CA000B620FDF7B1FD0220FDF7A2FD4FF4037031
:103CB000FDF79EFD0020FDF79BFD1720FDF798FD09
:103CC0001520FDF795FD0020FDF792FD0020FDF782
:103CD0008FFDF020FDF798FD0320FDF789FD2920D9
:103CE000FDF792FDD020FDF78FFD0020FDF780FD50
:103CF000BE20FDF789FD0520FDF77AFDFE20FDF7CA
:103D000077FD0120FDF774FD0020FDF771FD002017
:103D1000FDF76EFD0020FDF76BFDB820FDF774FD8B
:103D20000320FDF765FD0120FDF762FDBA20FDF7D8
:103D30006BFD0120FDF75CFD6420FDF737FBA088DB
:103D4000B04205D0B84203D0A84201D0404519D1B5
:103D50004FF02040D0F81C1121F00F01C0F81C11C9
:103D6000D0F81C1121F47061C0F81C11D0F81C119E
:103D700041F00301C0F81C11D0F81C1141F400718E
:103D8000C0F81C110020FDF70DFA0548016841F448
:103D9000004101604846BDE8F05FFDF7E9B9000069
:103DA0001404024010B5806B0021C185C184FDF769
:103DB000E0F810BD0168CA6822F49072CA60016818
:103DC0004A6922F001024A61202180F83A107047C6
:103DD00010B590F83A10222901D0022010BD816858
:103DE000B1F5805F11D00169002901681FD04968D1
:103DF00001F07F03816A4A1C82620B70C18D491EEB
:103E00000904090CC18518D02BE00269816A002AD7
:103E10000268526805D0D2B20A80816A491C816268
:103E2000ECE7C2F308020A80816A891CF7E74A6856
:103E3000816A4B1C83620A70E0E70168CA6822F05D
:103E40002002CA600168CA6822F48072CA600168F0
:103E50004A6922F001024A61202180F83A10FDF7F8
:103E600083F9002010BD00002DE9F04104460068F0
:103E70000169E26821F44051114301612169A068A0
:103E8000E26908436169114308432168CA6849F23D
:103E90000C639A430243CA6020684169A26921F415
:103EA000407111434161E069192764253226B0F55C
:103EB000004F354A354920684FF0000806D0884247
:103EC00001D0904236D1FCF725FE35E0884201D082
:103ED000904202D1FCF71EFE01E0FCF70BFE616888
:103EE0004A18A0FB070148EB0803FCF769F90146F3
:103EF000B0FBF5F00201B1FBF5F06FF01803584389
:103F000001EB800006EBC000B0FBF5F000F0F8001C
:103F100002EB4002B1FBF5F0584301EB800006EBE9
:103F2000C000B0FBF5F000F0070021681044886085
:103F3000BDE8F081FCF7DEFD61688B0F8A00A0FB15
:103F40000701FCF73DF90146B0FBF5F06FF01802F0
:103F5000504301EB800006EB0010B0FBF5F000F0E1
:103F6000F002B1FBF5F002EB0012B1FBF5F06FF0DF
:103F70001803584301EB800006EB0010B0FBF5F08E
:103F800000F00F00D1E700000014014000100140D4
:103F900090F83910212901D0022070478168B1F5CD
:103FA000805F016A0BD04A1C026202680978516086
:103FB000C18C491E0904090CC1840ED017E0098880
:103FC0000268C1F30801516001690029016A02D049
:103FD000491C0162ECE7891CFBE70168CA6822F012
:103FE0008002CA600068C16841F04001C1600020E1
:103FF000704700000148FCF7BDBF000078000020BA
:10400000FEE70907090E002804DB00F1E02080F834
:104010000014704700F00F0000F1E02080F8141D3C
:10402000704702E008C8121F08C1002AFAD1704781
:104030007047002001E001C1121F002AFBD1704728
:104040001CB5FCF72BFCFDF7DBFCFDF743FCFDF793
:10405000F7FBFDF707FCFDF7B1FCFDF721FD4FF481
:104060007840FDF785F8182014A1CDE9000103463A
:10407000D22228211E20FDF791FB102414A0CDE9A7
:1040800000402346C82246211E20FDF787FB13A0CF
:10409000CDE900401023C8225A211E20FDF77EFBE7
:1040A000114E4FF4FA744FF400752046FCF79AFA5B
:1040B00029463046FCF7D8FBF7E7000057686174E3
:1040C00020746865206675636B2064617921000047
:1040D0005446544C434420544553540032303230FB
:1040E0002F31302F35000000001402400000000086
:1040F0000000000001020304060708090000000098
:1041000001020304000000000000000000000000A5
:10411000000000003F4000000000000000003000F0
:10412000400030004000000009000BC03D000BC003
:104130003D00090018C024407FE02240318000008B
:10414000180024C01B000D803240018003801C40F9
:1041500027401C8007400040100060000000000065
:10416000000000000000000000001F8020404020F0
:104170000000402020401F800000000009000600D1
:104180001F80060009000000040004003F800400B6
:1041900004000000001000600000000000000000AB
:1041A00004000400040004000400000000000040BB
:1041B0000000000000000000002001C006003800E0
:1041C000400000001F802040204020401F80000051
:1041D000000010403FC000400000000018C0214017
:1041E00022402440184000001080204024402440F9
:1041F0001B80000002000D0011003FC001400000C4
:104200003C80244024402440238000001F80244020
:1042100024403440038000003000200027C03800D4
:10422000200000001B802440244024401B8000000C
:104230001C0022C0224022401F800000000000001D
:1042400008400000000000000000000004600000C2
:1042500000000000000004000A001100208040401F
:1042600009000900090009000900000000004040A1
:10427000208011000A0004001800200023402400C0
:10428000180000001F802040274029401F400000E8
:10429000004007C039000F0001C0004020403FC06F
:1042A000244024401B8000001F80204020402040EC
:1042B0003080000020403FC0204020401F80000090
:1042C00020403FC024402E4030C0000020403FC06E
:1042D00024402E00300000000F00108020402240BB
:1042E0003380020020403FC0040004003FC0204053
:1042F000204020403FC0204020400000006020209F
:1043000020203FC02000200020403FC024400B0060
:1043100030C0204020403FC020400040004000C04E
:104320003FC03C0003C03C003FC0000020403FC0F5
:104330000C4023003FC020001F8020402040204030
:104340001F80000020403FC02440240018000000CF
:104350001F802140214020E01FA0000020403FC0DE
:104360002440260019C0004018C0244024402240A8
:1043700031800000300020403FC02040300000006D
:1043800020003F80004000403F80200020003E0091
:1043900001C0070038002000380007C03C0007C0FB
:1043A00038000000204039C0060039C0204000001D
:1043B0002000384007C0384020000000304021C0B5
:1043C0002640384020C00000000000007FE0402070
:1043D00040200000000070000C000380004000003E
:1043E0000000402040207FE000000000000020008E
:1043F000400020000000000000100010001000101D
:10440000001000100000000040000000000000004C
:10441000000002800540054003C0004020003FC06E
:104420000440044003800000000003800440044076
:104430000640000000000380044024403FC00040CC
:1044400000000380054005400340000000000440D8
:104450001FC0244024402000000002E00550055009
:104460000650042020403FC00440040003C0004028
:104470000000044027C000400000000000100010B1
:10448000041027E00000000020403FC0014007006A
:1044900004C00440204020403FC0004000400000D5
:1044A00007C0040007C0040003C00000044007C0A8
:1044B0000440040003C000400000038004400440A6
:1044C00003800000041007F0045004400380000043
:1044D000000003800440045007F00010044007C0AF
:1044E00002400400040000000000064005400540B2
:1044F00004C00000000004001F80044000400000D1
:10450000040007800040044007C00040040007008A
:1045100004C0018006000400060001C0070001C0BD
:1045200006000000044006C0010006C00440000070
:104530000410071004E0018006000400000004409D
:1045400005C00640044000000000000004007BE0BD
:1045500040200000000000000000FFF0000000000C
:10456000000040207BE004000000000040008000CC
:10457000400020002000400000000000000000007B
:1045800000000000000000000000000000001FCC40
:10459000000C000000000000000008003000600077
:1045A0000800300060000000022003FC1E200220F2
:1045B00003FC1E200220000000000E1811043FFF23
:1045C00010840C78000000000F0010840F3800C029
:1045D000077818840078000000780F8410C4112434
:1045E0000E9800E4008400080800680070000000D5
:1045F000000000000000000000000000000007E0D4
:10460000181820044002000000004002200418187E
:1046100007E00000000000000240024001800FF0AF
:1046200001800240024000000080008000800FF8FE
:1046300000800080008000000001000D000E0000DE
:1046400000000000000000000000008000800080EA
:1046500000800080008000800000000C000C000042
:1046600000000000000000000000000600180060CC
:104670000180060018002000000007F00808100460
:104680001004080807F000000000080408041FFCDC
:10469000000400040000000000000E0C10141024A0
:1046A000104411840E0C000000000C1810041104BA
:1046B000110412880C700000000000E003200424A4
:1046C00008241FFC0024000000001F98108411041F
:1046D0001104108810700000000007F00888110411
:1046E000110418880070000000001C00100010FC6D
:1046F00013001C001000000000000E38114410844C
:10470000108411440E38000000000700088C10448B
:104710001044088807F00000000000000000030CAF
:10472000030C000000000000000000000001010672
:104730000000000000000000000000800140022096
:1047400004100808100400000220022002200220A9
:1047500002200220022000000000100408080410BB
:10476000022001400080000000000E001200100C2A
:10477000106C10800F00000003E00C1813E41424E8
:1047800017C4082807D000000004003C03C41C40E4
:10479000074000E4001C000410041FFC1104110475
:1047A00011040E880070000003E00C1810041004BF
:1047B000100410081C10000010041FFC100410044A
:1047C0001004080807F0000010041FFC1104110475
:1047D00017C410040818000010041FFC1104110075
:1047E00017C010000800000003E00C1810041004AB
:1047F00010441C780040000010041FFC108400804E
:10480000008010841FFC10040000100410041FFC22
:10481000100410040000000000030001100110014A
:104820001FFE10001000000010041FFC1104038084
:104830001464181C1004000010041FFC1004000471
:1048400000040004000C000010041FFC1F0000FC0A
:104850001F001FFC1004000010041FFC0C040300C8
:1048600000E010181FFC100007F0080810041004E6
:104870001004080807F0000010041FFC10841080CA
:10488000108010800F00000007F00818102410247A
:10489000101C080A07F2000010041FFC110411008C
:1048A00011C011300E0C000400000E1C1104108405
:1048B000108410441C3800001800100010041FFC65
:1048C000100410001800000010001FF8100400046D
:1048D000000410041FF8100010001E0011E0001C5E
:1048E000007013801C0010001FC0103C00E01F006F
:1048F00000E0103C1FC000001004180C163401C06A
:1049000001C01634180C100410001C00130400FC25
:1049100013041C00100000000804101C1064108414
:1049200013041C04101800000000000000007FFEAB
:104930004002400240020000000030000C000380F2
:104940000060001C00030000000040024002400222
:104950007FFE00000000000000000000200040007A
:1049600040004000200000000001000100010001A3
:104970000001000100010001000040004000200093
:104980000000000000000000000000980124014425
:104990000144014400FC000410001FFC00880104D5
:1049A000010400880070000000000070008801040D
:1049B0000104010400880000000000700088010468
:1049C000010411081FFC0004000000F80144014428
:1049D0000144014400C800000000010401040FFC70
:1049E0001104110411001800000000D6012901294A
:1049F000012901C90106000010041FFC0084010008
:104A00000100010400FC000400000104190419FC69
:104A10000004000400000000000000030001010188
:104A2000190119FE0000000010041FFC00240040C2
:104A300001B4010C010400000000100410041FFC6C
:104A40000004000400000000010401FC0104010056
:104A500001FC0104010000FC010401FC00840100D0
:104A60000100010400FC0004000000F8010401043E
:104A70000104010400F80000010101FF00850104A8
:104A8000010400880070000000000070008801042C
:104A90000104010501FF00010104010401FC00847F
:104AA0000104010001800000000000CC0124012469
:104AB000012401240198000000000100010007F812
:104AC0000104010400000000010001F800040004DA
:104AD0000004010801FC0004010001800170000CC9
:104AE000001001600180010001F0010C003001C0E4
:104AF0000030010C01F0010000000104018C007481
:104B00000170018C01040000010101810171000E9E
:104B1000001801600180010000000184010C0134D3
:104B200001440184010C00000000000000000000AE
:104B300001003EFC400240020000000000000000B6
:104B4000FFFF0000000000000000400240023EFCA9
:104B500001000000000000000000600080008000F4
:104B60004000400020002000000000000000000085
:104B70000000000000000000000000000000000035
:104B80000000000000000000000000000000000025
:104B900000000000000000000000000F80380FFE41
:104BA000380F803800000000000000000000000006
:104BB0000000000000000100000600000C000038AA
:104BC00000003100000600000C000038000030003A
:104BD000000000000000000061800067F807F98015
:104BE0000061800061800061800061800067F807DB
:104BF000F98000618000000000000000000001C09A
:104C0000E003E0F00630080418081FFFFE040E0859
:104C10000787F00381E000000000000001F00006BB
:104C20000C00040408060C7001F9C0000E00003BE3
:104C3000E000EC18070808040C180003E00000006E
:104C40000001E00007F003F818041C080417080727
:104C5000E1D003C0E00023B0003C080020080000C1
:104C600010000000000000010000310000320000D0
:104C70001C00000000000000000000000000000018
:104C80000000000000000000000000000000000024
:104C900000000000000000007F0001FFC00780F05E
:104CA0000C0018100004200002000000000000208A
:104CB00000021000040C00180780F001FFC0007F04
:104CC00000000000000000000000000000000000E4
:104CD000000000004200006600006600003C00008A
:104CE000180003FFC0001800003C000066000066CA
:104CF000000042000000000008000008000008005A
:104D000000080000080001FFC000080000080000C3
:104D1000080000080000080000000000000100007A
:104D20003100003200001C00000000000000000004
:104D30000000000000000000000000000000000073
:104D40000800000800000800000800000800000833
:104D50000000080000080000080000080000000033
:104D6000000000000000000038000038000038009B
:104D70000000000000000000000000000000000033
:104D80000000000000000000000600001C00007091
:104D9000000180000E0000380000C0000700001C69
:104DA0000000300000000000000000007F8001FFD4
:104DB000E0038070060018040008040008060018CC
:104DC00003807001FFE0007F800000000000000011
:104DD000000001000801000801000803FFF807FFB8
:104DE000F8000008000008000008000000000000B3
:104DF00000000001C03802C05804009804011804E3
:104E00000218040418061C1803F81801E0F8000042
:104E10000000000000000001C0E003C0F004000832
:104E200004080804080806180803F41801E7F0004D
:104E300001E0000000000000000000000300000D81
:104E40000000110000610000810803010807FFF85D
:104E50000FFFF8000108000108000000000000003A
:104E600000E007FCD0060808061008061008061027
:104E700008061838060FF00607C000000000000002
:104E8000000000003F8001FFE003843002081804A6
:104E90001008041008041008071810030FF000078A
:104EA000C000000000000000000003C00007000078
:104EB0000600000600F80607F806180006E00007DE
:104EC000000006000000000000000001E1E003F720
:104ED000F0063410041808041808040C08040C0820
:104EE00006161803F3F001C1E00000000000000006
:104EF000F80003FC30030638040208040208040228
:104F0000080404100308F001FFC0007F0000000047
:104F10000000000000000000000000000000000091
:104F20007038007038007038000000000000000089
:104F30000000000000000000000000000000000071
:104F400000000000301A00301C00000000000000CB
:104F50000000000000000000000000000000000849
:104F60000000140000220000410000808001004089
:104F700002002004001008000800000000000000EB
:104F8000210000210000210000210000210000215B
:104F9000000021000021000021000021000000008D
:104FA00000000000000008000804001002002001BA
:104FB0000040008080004100002200001400000832
:104FC0000000000000000003C00004C00004000056
:104FD000080038080F380808380810000C3000079F
:104FE000E00003C000000000000000003F8000FF60
:104FF000E0038070020F1006708804C088048308E4
:10500000047F8802C09003012000FE4000000800D9
:1050100000180001F8003E0801C20007020007E284
:105020000000FE00001FC80001F800003800000862
:1050300004000807FFF807FFF8040808040808043C
:10504000080804080806180803F41801E7F000012E
:10505000E0000000000000003F8001FFE0038070DE
:1050600002001804000804000804000804001006E8
:1050700000200780C000000004000807FFF807FFB9
:10508000F8040008040008040008040018020010D6
:1050900003807001FFE0007F80000000040008072B
:1050A000FFF807FFF80408080408080408080408C3
:1050B00008043E0804000806001801006000000013
:1050C00004000807FFF807FFF804080804080004B4
:1050D0000800040800043E000600000600000180ED
:1050E00000000000000000003F8001FFE00380702E
:1050F0000600180400080402080402080203F0076E
:1051000083F000020000020004000807FFF807FF18
:10511000F804080800080000080000080000080063
:1051200004080807FFF807FFF80400080000000063
:10513000000004000804000804000807FFF807FF47
:10514000F804000804000804000800000000000043
:105150000000000000060000070000010400010438
:10516000000104000307FFFE07FFFC040000040029
:105170000004000004000807FFF807FFF8040C080B
:10518000001800003E0004C7800503C80600F804AC
:10519000003804001800000804000807FFF807FFA3
:1051A000F8040008000008000008000008000008DB
:1051B000000008000018000060000000040008075C
:1051C000FFF807800807FC00007FC00003F8000715
:1051D000C000780007800807FFF807FFF804000800
:1051E00004000807FFF807000803C00000E0000003
:1051F0003800001E000007000001C00400F007FF97
:10520000F8040000000000007F8001FFE0038070D0
:105210000600180400080400080600180300300106
:10522000FFE0007F8000000004000807FFF807FF90
:10523000F804040804040004040004040004040046
:10524000060C0003F80001F0000000000000000060
:105250007F8001FFE003807006008804008804005E
:10526000C806003C03003E01FFE6007F840000000A
:1052700004000807FFF807FFF80408080408000402
:105280000C00040F00040BC00610F003F03801E01E
:105290000800000800000001E0F803F030063010BC
:1052A000041808041808040C08040C080206180264
:1052B00007F00781E0000000018000060000040004
:1052C0000004000004000807FFF807FFF8040008C6
:1052D0000400000400000600000180000400000734
:1052E000FFE007FFF00400180000080000080000BD
:1052F0000800000800000804001007FFE004000098
:1053000004000006000007E00007FE00041FE000A4
:1053100001F80000380001E0043E0007C00006006C
:105320000004000004000007E00007FFC0041FF8AD
:105330000007C007F80007FF80043FF80007C0041B
:10534000F800070000040000000000040008060048
:105350001807C07805F1C8003E00001F800463E80C
:105360000780F8060018040008000000040000068A
:10537000000007800007E008047C08001FF8000711
:10538000F800180804E00807000006000004000008
:105390000000000100080600380400F80403E804D7
:1053A0000F08047C0805F00807C00807001804006F
:1053B000600000000000000000000000000000008D
:1053C0000000003FFFFE200002200002200002201B
:1053D00000022000020000000000000000000800A1
:1053E0000007000000C0000038000006000001C0F7
:1053F00000003000000E000001000000000000006E
:1054000000002000022000022000022000022000F4
:10541000023FFFFE0000000000000000000000004E
:105420000000000000000000000800001000003034
:105430000000200000300000100000080000000004
:105440000000000000000100000100000100000158
:105450000000010000010000010000010000010047
:105460000001000001000001000000000000000039
:1054700000200000200000100000100000000000CC
:10548000000000000000000000000000000000001C
:1054900000F00019F8001B1800220800260800245C
:1054A00008002410003FF8001FF800000800001852
:1054B00000000004000007FFF80FFFF000181800BC
:1054C0001008002008002008003018001FF0000F0E
:1054D000C00000000000000007C0001FF0001830EE
:1054E000002008002008002008003C08001C1000D4
:1054F00000600000000000000000000007C0001F66
:10550000F0003818002008002008002008041010BF
:1055100007FFF80FFFF0000010000000000000007F
:1055200000000007C0001FF0001230002218002207
:1055300008002208003208001E10000E20000000A3
:1055400000000000200000200800200801FFF803F0
:10555000FFF80620080420080420080720000300A4
:105560000000000000000000000E000E6E001FF39F
:105570000031B10020B10020B1003191001F1300B3
:105580002E1E00200E00300000000004000807FF5F
:10559000F80FFFF80010080020000020000020088D
:1055A000003FF8001FF800000800000000000000A5
:1055B0000000002008002008002008063FF8063FF1
:1055C000F8000008000008000008000000000000CB
:1055D00000000000000000000300000300200100A4
:1055E0002001002003063FFE063FFC0000000000F3
:1055F0000000000000000004000807FFF80FFFF89B
:10560000000188000300002FC00038F80020380097
:105610002008000008000000000000000000040056
:105620000804000804000807FFF80FFFF80000084E
:105630000000080000080000000000000020080032
:105640003FF8003FF8001008002000003FF8003F3E
:10565000F8001008002000003FF8003FF8000008A4
:10566000000000002008003FF8003FF8001008008C
:105670001000002000002008003FF8001FF8000084
:10568000080000000000000007C0000FF000183004
:105690000030080020080020080030080018300002
:1056A0000FF00007C0000000000000002001003FD4
:1056B000FF003FFF00101100200900200800200813
:1056C000003038001FF0000FC00000000000000094
:1056D00007C0001FF0003818002008002008002034
:1056E00009001011001FFF003FFF00000100000033
:1056F000002008002008002008003FF8003FF800C4
:1057000008080010080020080020000030000030C9
:1057100000000000000000000000000C78001E18CF
:105720000033080023080021080021880021980088
:1057300030F0003860000000000000002000002071
:105740000000200000FFF003FFF800200800200800
:1057500000200800003000000000000000000000F1
:105760002000003FF0007FF8000018000008000053
:1057700008002010003FF8007FF00000100000003B
:10578000000000002000003000003C00003F8000CE
:1057900023F0000078000070002380003C000030FF
:1057A00000002000002000003C00003FE00023F843
:1057B0000000E0002700003E00003FE00021F8006C
:1057C00001E0003E00002000000000002008002052
:1057D00008003838003E680027800003C8002CF815
:1057E00000383800201800200800000000000000E9
:1057F0002000003003003C01003F830023EC000048
:1058000070002380003C0000200000200000000009
:105810000000000000000038080020380020F800D8
:1058200023E8002F88003E080038080020180000F8
:1058300070000000000000000000000000000000F8
:105840000000000008000014001FF7FC30000620D4
:105850000002000000000000000000000000000046
:1058600000000000000000000000FFFFFF0000003B
:105870000000000000000000000000000000000028
:1058800000002000023000061FF7FC001400000892
:105890000000000000000000000000000000000008
:1058A00000000018000060000040000040000020E0
:1058B00000001000000800000400000400000C00BC
:1058C00000100000000000000000000000000000C8
:1058D00000000000000000000000000000000000C8
:1058E00000000000000000000000000000000000B8
:1058F00000000000000000000000000000000000A8
:105900000000000000000000000000000000000097
:105910000000000000000000000000000000000087
:105920000000000000000000000000000000000077
:105930000000000000000000000000000000000067
:105940000000000000000000000000000000000057
:1059500000000000000000000000000007F000C090
:1059600007FFE1E007F001E0000000C000000000D8
:105970000000000000000000000000000000000027
:105980000000000000000000000000000000000017
:105990000000000000000000000000000000000007
:1059A00000000000000000000000000000000000F7
:1059B00000000000000000000000000000000000E7
:1059C00000000000000000000000000000200000B7
:1059D00001C00000078000001F0000001E00000042
:1059E0001C20000001C00000078000001F00000014
:1059F0001E0000001C00000000000000000000006D
:105A00000000000000000000000000000000000096
:105A10000000000000000000000000000000000086
:105A20000000000000000000000000000000000076
:105A30000000000000000000000000000000000066
:105A4000000000000000000000180C0000180C000E
:105A500000180FE0001FFC0003F80C0000180C00F9
:105A600000180C0000180C0000180C0000180FE0C3
:105A7000001FFC0003F80C0000180C0000180C00BC
:105A80000000000000000000000000000000000016
:105A90000000000000000000000000000000000006
:105AA00000000000000000000000000000000000F6
:105AB00000000000000000000000000000000000E6
:105AC000000000000000000000000000000007804F
:105AD000007807C000FC0640010E002003070020EC
