:020000040800F2
:10000000B0EF01209D0100086FCC0008F59F0008AB
:100010006DCC0008B10F00081118010800000000A5
:1000200000000000000000000000000045DC0008A7
:100030005913000800000000C9D3000847DC00087D
:10004000B7010008B7010008B7010008B7010008B0
:10005000B7010008B7010008B7010008B7010008A0
:10006000B7010008B7010008B7010008B701000890
:10007000B7010008B7010008B7010008B701000880
:10008000B7010008B7010008B7010008B701000870
:10009000B7010008B7010008B7010008B701000860
:1000A000B7010008B7010008B7010008B701000850
:1000B000B7010008BD010108C9010108B701000826
:1000C000B7010008B7010008B7010008B701000830
:1000D000B701000805180108B7010008B7010008BA
:1000E000B7010008B7010008B7010008B701000810
:1000F000B7010008B7010008B7010008B701000800
:10010000B7010008B7010008B7010008B7010008EF
:10011000B7010008B7010008B7010008B7010008DF
:10012000B7010008B7010008B7010008B7010008CF
:10013000B7010008B7010008B7010008B7010008BF
:10014000B7010008B7010008B7010008B7010008AF
:10015000B7010008B7010008B7010008B70100089F
:10016000B7010008B7010008B7010008B70100088F
:10017000B7010008B7010008B7010008000000003F
:10018000B7010008B7010008DFF80CD000F02EFC22
:10019000004800479D410208B0EF01200648804713
:1001A00006480047FEE7FEE7FEE7FEE7FEE7FEE75C
:1001B000FEE7FEE7FEE7FEE7D1DC00088901000864
:1001C0002DE9F05F0546002092469B46884606468C
:1001D000814640241BE0284641464746224600F01F
:1001E000FEFA53465A46C01A914110D3114618469A
:1001F000224600F0E5FA2D1A67EB01084F46224629
:100200000120002100F0DCFA17EB00094E41201E0E
:10021000A4F10104DFDC484631462A464346BDE8E6
:10022000F09F00000649074A0868504343F239022C
:10023000104408604008704701490860704700009A
:10024000100E00206D4EC64110B5431A934209D2DC
:100250008318881803E010F8011D03F8011D521ED1
:10026000F9D210BD40EA01039B0703D009E008C999
:10027000121F08C0042AFAD203E011F8013B00F86B
:10028000013B521EF9D210BDD2B201E000F8012BA1
:10029000491EFBD270470022F6E710B513460A4606
:1002A00004461946FFF7F0FF204610BD421E12F823
:1002B000013F002BFBD111F8013B02F8013B002B61
:1002C000F9D17047421C10F8011B0029FBD1801A9C
:1002D000704710B5002200E0521C835C8C5CA34286
:1002E00001D1002BF8D1D8B2E1B2401A10BD30B51F
:1002F00004460020034600E05B1C934203D2E05C0E
:10030000CD5C401BF8D030BD034611F8012B00F83E
:10031000012B002AF9D1184670472DE9FE4F80467F
:1003200081EA0300C00F0C46009021F0004123F049
:100330000045B8EB0200A94105D24046214690464F
:100340001C460B46024623F00040104347D0270DC1
:10035000C7F30A00C3F30A510290401A01904028E3
:100360006BDAC3F3130040F4801B0098924620B16F
:100370000023D2EB030A63EB0B0B01985946C0F143
:100380004002504600F01CFA06460D4650465946BB
:10039000019A00F034FA10EB08006141002487EA6A
:1003A000115284EAE7731A4340D0009A62B3019A6B
:1003B000012A4FEA075215DC001B61EB02014FF0E6
:1003C000004202EA0752CDE90042001C41F58011CB
:1003D00032462B4600F06BFA03B0BDE8F08F404682
:1003E0002146F9E7001B61EB0201001C41F5801377
:1003F00000185B412018A2F5001747EB030140EA03
:10040000D570B6196D4111E06D084FEA360645EA20
:10041000C0754FEA0752001B61EB0201001C41F559
:10042000801149084FEA30000019514132462B46ED
:1004300003B0BDE8F04F00F02BBA00980122400055
:100440000023D0EB020263EBE073009821464FEAF1
:10045000E074B8EB000061EB0401E9E783F00043CE
:100460005BE781F0004158E72DE9FE4F81EA030484
:1004700004F0004421F0004100944FF0000B23F001
:10048000004350EA01045ED052EA03045BD0C3F398
:100490000A54C1F30A552C44A4F2F3340194A0FB8E
:1004A0000254C1F3130141F48011C3F3130343F465
:1004B000801301FB024400FB034E840A970A44EABE
:1004C000815447EA8357A4FB076802958D0A05FB10
:1004D00007854FEA932C04FB0C542705029D4FEA35
:1004E000065847EA1637B5EB08056EEB070C870E82
:1004F000920E47EA811742EA8312A7FB0201B6EB8C
:100500000B0164EB00042B0D43EA0C335E1844EB43
:100510001C50DA465146E7FB0201C5F313044FEACB
:100520000B3343EA14534FEA0432019C43EA0603B7
:10053000A4F10C040294009CCDE900B400F0B7F9DA
:1005400003B0BDE8F08F00200146F9E72DE9F04D3A
:1005500081EA030404F0004B21F0004514464FF0FB
:10056000000A23F0004150EA050220D054EA0102BB
:100570001DD0C5F30A570246C5F31303C1F3130098
:10058000C1F30A5640F4801543F48013A7EB060824
:10059000101BD64608F2FD3873EB050002D308F1B4
:1005A000010801E092185B41B8F1000F03DA002066
:1005B0000146BDE8F08D00204FF4801106468446C8
:1005C0000EE0171B73EB050705D3121B63EB050346
:1005D00006434CEA010C49084FEA300092185B418F
:1005E00050EA0107EDD152EA030012D082EA04007A
:1005F00083EA0501084305D0101BAB4106D2012256
:10060000002306E000224FF0004302E06FF00102F9
:1006100053101AEB06004CEB085110EB0A0041EBAB
:100620000B01BDE8F04D00F033B90EB5C10F80EA03
:10063000E0700844CA07002140F233438DE80E0001
:100640000A460B4600F033F903B000BD0EB540F288
:10065000334102910021CDE900110A460B4600F01A
:1006600026F903B000BD70B5C1F30A5201F0004590
:100670000024C1F3130140F2FF3341F480119A4288
:1006800001DA002070BD40F233439A42A2F23342B5
:1006900003DC524200F0A3F800E090402C43F1D07C
:1006A000404270BDC1F30A5210B5C1F3130140F2CC
:1006B000FF3341F480119A4201DA002010BD40F26C
:1006C00033439A42A2F2334203DC524200F087F8ED
:1006D00010BD904010BD00F0004230F000400AD044
:1006E000C10D01F56071C0F3160042EA0151C20864
:1006F00040071143704700200146704730B5041E83
:1007000071F1000404DB4FF00044404264EB01014E
:10071000141E73F1000405DB1C464FF000435242E7
:1007200063EB04038B4208BF824230BD30B5041E28
:1007300071F1000404DB4FF00044404264EB01011E
:10074000141E73F1000405DB1C464FF000435242B7
:1007500063EB0403994208BF904230BD01F00043AF
:1007600030B421F0004150EA010206D00A0DA2F592
:100770006072C1F31301002A02DC30BC0020704714
:10078000440F44EAC104C100E01830BC00EBC25081
:1007900000F047B830B50B46014600202022012466
:1007A00009E021FA02F59D4205D303FA02F5491B3F
:1007B00004FA02F52844151EA2F10102F1DC30BD55
:1007C000202A04DB203A00FA02F100207047914011
:1007D000C2F1200320FA03F3194390407047202A06
:1007E00004DB203A21FA02F00021704721FA02F3DB
:1007F000D040C2F120029140084319467047202A98
:1008000006DBCB17203A41FA02F043EAE07306E038
:1008100041FA02F3D040C2F1200291400843194648
:1008200070470029A8BF7047401C490008BF20F04E
:100830000100704710B4B0FA80FC00FA0CF050EAE6
:10084000010404BF10BC704749B1CCF1200421FA67
:1008500004F411FA0CF118BF012121430843A3EB62
:100860000C01CB1D4FEA00614FEA102042BF00206F
:1008700010BC704700EBC35010440029A4BF10BC4B
:100880007047401C490008BF20F0010010BC7047B1
:1008900010B5141E73F1000408DA401C41F1000188
:1008A00092185B411A4301D120F0010010BD2DE9DF
:1008B000F04D92469B4611B1B1FA81F202E0B0FAD6
:1008C00080F220329046FFF77BFF04460F4640EA55
:1008D0000A0041EA0B0153465A46084313D0114619
:1008E00053EA010019D0C8F140025046FFF777FFE4
:1008F00005460E46504659464246FFF761FF0843FB
:1009000005D0012004E020463946BDE8F08D0020E6
:10091000054346EAE0762C4337430A986305E40A28
:10092000A0EB08000022FD0A44EA47540A3002D531
:1009300000200146E9E7010510196941DDE9084594
:1009400000196941BDE8F04DA2E72DE9F04D002303
:100950001A461B1A8A4103DB00200146BDE8F08DD0
:10096000C1F30A52C1F3130141F480154FF0000B9B
:10097000D10702D100186D41521E0027044640F2F3
:10098000FF11384601EB620A3E46804602460020CF
:100990004FF48011FFF723FFC2197141BB1846EBDA
:1009A0000100B4EB030C75EB000C04D3E41A65EB07
:1009B000000517460E46241908F101006D418046D6
:1009C0003428E3DDF91946EB0600091BA84103D2E0
:1009D0004FF0FF32134601E0002213461BEB0700E5
:1009E00046EB0A51BDE8F04DFFF752BF064C074DEC
:1009F00006E0E06840F0010394E8070098471034EF
:100A0000AC42F6D3FFF7C4FBC0210708E02107087A
:100A100070B58C1810F8015B15F0070301D110F8C0
:100A2000013B2A1106D110F8012B03E010F8016BED
:100A300001F8016B5B1EF9D12B0705D40023521E70
:100A40000DD401F8013BFAE710F8013BCB1A921CD8
:100A500003E013F8015B01F8015B521EF9D5A142D6
:100A6000D8D3002070BD09F0F1BA2DE9F0410D4650
:100A70000146002004464E1908E00702301B401EC4
:100A800080B200F007F8641C3844E4B2AC42F4D3FE
:100A9000BDE8F08110B5044609F0A6FB200AA021AC
:100AA00001EB4000C0B209F05DFB09F0F1FBE0B2E0
:100AB00009F058FB09F0ECFB09F096FBA12009F0C6
:100AC00051FB09F0E5FB002009F012FB044609F098
:100AD000B5FB204610BD2DE9F04116460D460746F0
:100AE000002409E0E00025FA00F0C1B2381980B214
:100AF00000F006F8641CE4B2B442F3D3BDE8F08120
:100B000070B50D46044609F06FFB200AA02101EBE9
:100B10004000C0B209F026FB09F0BAFBE0B209F0D0
:100B200021FB09F0B5FB284609F01CFB09F0B0FBDE
:100B300009F084FBBDE870400A2023F0BFBA00280A
:100B400000DC40427047000038B545680446014665
:100B5000284610F081FE00282BD02068304A11284A
:100B60000DD006DC0B2825D00E2833D00F2852D10B
:100B700012E0282849D0B0F5107F4CD108E09268E7
:100B8000002A16D02146284601B0BDE83040104763
:100B9000214628465268F7E7284604F003F80090FB
:100BA000406E0468684604F055F8002C01D02846D1
:100BB000A04738BD284603F0F5FF0090683003F0E9
:100BC0004BFF009803216C3003F04EFF684604F0A1
:100BD00041F820E0E168486809680D2902D0202921
:100BE00013D105E0002810DD28461DF014FD06E0B5
:100BF000002804DD2846BDE838401DF00CBD28461D
:100C0000BDE8384002211DF01CBDE06818B9002184
:100C1000284600F08FF92046BDE8384011F0D0B9E1
:100C200094080020F0B5044685B08069B4F90850F6
:100C3000668A0027CDE90265CDE900170490B4F972
:100C40000C00B4F91060C118B4F90A00B4F90E50E0
:100C5000104433462A4600F007F80546616800F064
:100C60007FF905B02846F0BDF0B585B00C46DDE94A
:100C70000D51DFF854C04C31DDE90A67CDE902C1FE
:100C80002146CDE9006711F0EDF8040018D003F01B
:100C900089FF10222946049011F020F80498302290
:100CA0000A493430FFF7D0FA084D04990C3D286802
:100CB000486604A803F0CEFF2868416820468847AC
:100CC00005B02046F0BD0000490B0008A008002038
:100CD000F0B5044680688B4989B051F820506068AF
:100CE00000287DD0052804D006287AD0122879D192
:100CF000AEE0E86900284FD095E80E008DE80F00BF
:100D000004F110010FC907F041FA002655F826003A
:100D100006F0B8F9A169E8690A1A21690144606915
:100D2000304404F07DFFA169E8690A1A2169014491
:100D3000E069801B04F074FFE169E8690A1A6169DF
:100D400001442069304405F00BF8E169E8690A1AAA
:100D500061690144A069801B05F002F8761C022E2F
:100D6000D4DBA86806F08EF9E069E9696669431A80
:100D7000206942183144801C521E05F06BF8E1696D
:100D8000E869A2690B1A61690144101A401C921E9D
:100D900005F060F8EE6913E05FF0000655F82600F4
:100DA00006F070F9E069831BA069821B60698119F4
:100DB0002069304404F096FF761C022EEEDB0226FA
:100DC000D5E90301CDE900016169E06908444310F8
:100DD000A069891C821B2069304404F0C9FE02E02E
:100DE00089E012E08AE0D5E90501CDE90001E36977
:100DF00060690121184401EB6001A0699B1E821B00
:100E00002069304404F0B4FE78E0206803F0CAFEA4
:100E10000490206812F030FC40B1A06808B10020B6
:100E200008E00498006F28B1012003E00498406FA7
:100E300000B10220049901EB8000C56E04A803F004
:100E400009FF00231A462846216804F06BFB55E091
:100E5000206803F0A7FE0490866EEEB3B0F95C70D4
:100E6000A168D1B3032942D05FF0000100EB8101FA
:100E7000406D0C6C06F01AF9204606F003F905A83F
:100E800005F088F8BDF81410A88B0144ADF81410D3
:100E9000BDF81810081AADF81800BDF81600801C2F
:100EA000ADF81600BDF81A00801EADF81A000498BF
:100EB000B0F96020B0F95E1005A805F0A7FE04A8FF
:100EC00003F0C8FE022006F037F9304603F06AFE50
:100ED0003A4605A9079001E00BE006E004F05CFC4F
:100EE0000DF11C0003F0B6FE08E00121BEE702216F
:100EF000BCE704A8F6E7206812F02AF809B0002041
:100F0000F0BD000014030708044A034911600449B6
:100F10004A6A486210467047D008002094080020B2
:100F2000A008002000294FF0100101D010F01EBDD4
:100F300010F06FBC4FF480720029114601D010F000
:100F400015BD10F066BC000003480249416003492A
:100F5000816070471BFD01089408002009F7010813
:100F60002DE9FF410E4605004FF001041CD003F0AF
:100F700019FE0190876E01A8009703F06BFE3146C1
:100F8000684607F069FC78B100980024B84208D0A0
:100F9000284603F007FE01900099816601A803F03E
:100FA00059FE284611F0EDFC04B02046BDE8F08162
:100FB000FEE700007CB5214C0546216831F8220F80
:100FC0004A8D104408804888CA8D104448802846BD
:100FD00004F0D0FF2168498CADF80010461828466F
:100FE00007F0C8FA3044401EADF8040004F0F0FFEA
:100FF0002168898CADF802100844401EADF8060047
:10100000684612F0C5F904E0284601F07FF912F0B5
:101010003DF90028F8D10A2D04D0BDF8040021685C
:10102000401C4884206830F8221F428D891A0180B4
:101030004188C28D891A41807CBD0000780700205C
:1010400070B5144D00220121284607F0DEFE124C37
:10105000206820F440002060206840F48000206078
:10106000022023F03DF80022E114204607F0CDFED7
:10107000022023F035F801221146284607F0C5FE6C
:10108000022023F02DF82846BDE8704000220121FF
:1010900007F0BBBE0004024000140240114810B526
:1010A000016886B041F002010160016801F00201AF
:1010B0000591016841F0200101600068012400F001
:1010C000200000940590019469460294064807F0B8
:1010D000BBFDE002CDE900046946044807F0B4FD19
:1010E00006B010BD30380240000402400014024037
:1010F00070B5144D00220121284607F086FE124CDF
:10110000206820F440002060206840F480002060C7
:10111000022022F0E5FF0122D102204607F075FEF1
:10112000022022F0DDFF01221146284607F06DFE65
:10113000022022F0D5FF2846BDE8704000220121A0
:1011400007F063BE00040240001402402DE9F041A4
:10115000804619480024016821F4400101600168BB
:1011600001601E2022F0BCFF134F0025134E1037E4
:1011700000220121304607F048FE022022F0B0FF95
:1011800001221146304607F040FE6006040E386822
:10119000000501D5641CE4B26D1CEDB2082DE7D347
:1011A000B8F1000F04D0FFF74BFF2046BDE8F081F7
:1011B000FFF79EFFF9E70000001402400004024020
:1011C0002DE9F041204C0646206820F440002060C4
:1011D000206840F4800020601C4F00220121384626
:1011E00007F013FE022022F07BFF00254FF4006879
:1011F000300601D5012200E000224146204607F0DA
:1012000004FE022022F06CFF01221146384607F04E
:10121000FCFD022022F064FF00220121384607F085
:10122000F4FD072D04D101224146204607F0EDFDD3
:101230007006060E022022F053FF6D1CEDB2082D41
:10124000D6D3BDE8F0810000001402400004024043
:1012500070B5134C206820F440002060206840F4F2
:10126000800020600122D5022946204607F0CDFDEE
:101270000C4E01221146304607F0C7FD1E2022F019
:101280002FFF00222946204607F0BFFD022022F052
:1012900027FF3046BDE870400022012107F0B5BDB0
:1012A000001402400004024070B5104C206820F485
:1012B00040002060206840F4800020600122114638
:1012C0000B4807F0A2FD1E2022F00AFFE5140022C1
:1012D0002946204607F099FD022022F001FF294609
:1012E0002046BDE87040012207F08FBD0014024087
:1012F0000004024070B516480024016821F4400142
:101300000160016801600122C11407F07EFD114EE9
:1013100001221146304607F078FD022022F0E0FE5F
:101320000B4D10350AE0641CE4B2FA2C03D9FFF728
:10133000BBFF012070BD022022F0D2FE286800050C
:10134000F1D400220121304607F05FFD002070BD7E
:101350000014024000040240704700002DE9FC5FC9
:1013600015460746DFF8908028440190D8F8002001
:101370001C460E46526E2144894652689047D8F862
:101380000020781B4946526E824652689047711978
:1013900038190090D8F800208946526E526890475C
:1013A000D8F80020711B8B46526E00985268904707
:1013B000002C1ED0D8F80010361B4546496E019807
:1013C0004A68314690472A6831465046526E526804
:1013D000904728683C1B4946406E4268204690472B
:1013E0002A6859462046526E526802B0BDE8F05F46
:1013F0001047BDE8FC9F00007807002070472DE9EA
:10140000F047456804468EB00027284603F0CAFB23
:101410000090B0F87CA0D0F86890D0F88080D0F828
:101420008860C06D00B10768684603F013FC05E0F2
:10143000716820468847002841D13668002EF7D1D0
:101440002068172852D00CDC0F283BD004DC0B2876
:1014500074D00D283AD189E0112810D0142835D144
:101460003AE0262845D004DC1E284FD020282DD174
:1014700088E02A2814D0B0F5107F27D127E028462D
:10148000E66803F08FFB0190717A39B9317A01294E
:1014900004D130F87C1F41F48071018001A88EE0F6
:1014A000284603F07FFB0090E16811B1C0F884107A
:1014B00002E0D0F88400E060684603F0CBFB0EB099
:1014C000BDE8F087002F7CD02846B84779E0214658
:1014D00028461EF08BF9F2E705A9284600F0FCFB30
:1014E000E0680699016007994160E8E7C4F80C904C
:1014F000E5E7E0680228E2D10C95E0680D9027202E
:101500000A900AA9A06812F0DFFAD8E7E06801287B
:1015100004D00021284600F02EFBD0E7404611F011
:1015200092FA60B1404611F09DFC404611F060F91E
:1015300090B10121404610F019FA0DE04BE0484609
:1015400011F0DEFC8046284603F02CFB0090C0F82A
:101550008080684603F07EFB0121284600F00BFBEB
:10156000B8F1000FABD10020E060A8E75FEA0A7095
:1015700027D4E068C06820B3007A10B3284611F081
:1015800071FC1EE0E668E6B12946706812F05DF86D
:1015900020B1012128461FF0C5FE12E00021284697
:1015A0001FF0C0FE2946306812F03EF848B12846C8
:1015B00003F0F8FA03903168C0F8801003A803F034
:1015C00049FB2146284610F047F900288DD02046D7
:1015D00010F0F6FC73E7284603F0E4FA0090703050
:1015E00003F03AFA6846EAE7F0B587B0B0F9084088
:1015F0000DF10C0C0C9E876945688CE8F000448A5C
:101600000025CDE900150294B0F90C10B0F9105086
:10161000B0F90E40B0F90A00194410442B46224696
:1016200000F002F807B0F0BD2DE9F0478AB00DF1E7
:101630004C0CDDE917849CE86006129F45F4805548
:10164000DFF8BCC06034CDE902C4CDE9007510F00C
:1016500009FC04004FD003F0A5FA3022494604905B
:1016600010F03CFB0498282226493430FEF7ECFDAC
:101670000498244FC0F86480A0F87C600026C0F86D
:101680008060C666083FC0F888607968C16504A8B4
:1016900003F0E0FA05A9204600F01EFB1A4841F2CB
:1016A000827103960094CDE90110BDF91E00BDF9C9
:1016B0001A10BDF91C20431ABDF918005B1C121A40
:1016C000521C10F0CFFB06467868416820468847D8
:1016D000204603F067FA0490866604A803F0BAFA7D
:1016E00042F20400054202D1204610F0FFFC5146B0
:1016F000204600F0A9FA0AB02046BDE8F0870000B5
:10170000FF13000864090020931E00082DE9F04132
:10171000044694B0006800F0B7F908B1D94D01E073
:10172000D84D2C35606815281ED00CDC0B281FD036
:1017300004DC00287ED005287DD12FE10E287BD047
:101740001228F9D141E1162806D0172808D0182808
:1017500008D01C28F0D109E0E86914B0BDE8F08198
:10176000286AFAE7686AF8E7A86AF6E76869F4E7BA
:1017700020680B901C200C90206803F013FA039053
:10178000016D0BA88847064603A803F063FA022EF2
:101790000FDB95E807008DE80700D4E90402334623
:1017A000A16906F0C1FC20698719A069A0EB0608B1
:1017B0002CE0286805F066FC2169E8690A18521EC9
:1017C000606904F02DFAA269E869111A491C606980
:1017D00004F026FAD4E904077F1C394604F062FAC3
:1017E0003946A06904F05EFA686805F04BFC206990
:1017F0003946401C04F056FAA0693946401E04F0F0
:1018000051FAA0692769A0F10208BF1C286805F0F9
:1018100039FC42463946606904F002FA686805F00E
:1018200031FC606942463946401C04F0F9F9686AA7
:10183000022802E015E1B0E000E10BDDA86805F048
:1018400021FC61696A6A881C8B1801464246384649
:101850005B1E27E0296AB14226DD6069022E074639
:1018600000F1020801DB374401E007F102072069BB
:1018700001DB304401E000F1020022693B460A44EA
:101880004146A2F1010204F0E5FA022E02DBA06952
:10189000821B01E0A269921EA069E9693B46401AD9
:1018A0004146401C04F0D6FA022E02DB6069064471
:1018B00001E06669B61CE76928687F1E05F0E2FB57
:1018C0003A463146206904F04BFA3A463146A0695F
:1018D00004F046FAE7696868BF1E05F0D3FB20698B
:1018E0003A463146401C04F03BFAA0693A4631467C
:1018F000401E04F035FAE869022802DC286A022852
:1019000023DDA86A022802DDE1690F1A01E0E76918
:10191000BF1EA86805F0B6FBE969022909DD206948
:101920003B46421800F1020C31466046521E04F05C
:1019300091FA286A022808DDA269E8693B46101A74
:101940003146401C921E04F085FA286805F09AFB87
:10195000D4E90620216904F063F9686805F092FB78
:10196000D4E906202169401E491C521E04F058F992
:10197000A86A022811DDA1692669E469A1F10208BB
:10198000271AA41EB61C7F1CA86805F07BFB234603
:1019900042463946304604F05DFA71E0208A00B2D2
:1019A000ADF81400A18A09B2ADF81610228B12B25C
:1019B000ADF81820A38B1BB2ADF81A302C69ED6876
:1019C000CDE9005404F0D4F85AE0208A298B084469
:1019D000ADF81400A08AADF81600208B298B401AB0
:1019E000ADF81800A08BADF81A00206803F0DAF803
:1019F0000390006FF0B1022005F09EFB039890F871
:101A00007C10C1F3C00100EB8100006C05F03AFBD3
:101A10000398406B05F04AFB0398006F03F0C2F88F
:101A200003990990B1F95A2005A903F0B5FE09A858
:101A300003F010F903A803F00DF921E0208AADF8B6
:101A40001400A08AADF81600208BADF81800A08B0A
:101A5000ADF81A00A86805F015FB05A804F01EFAF9
:101A60000EE0206803F09EF8039030F85A1F41F012
:101A70000C01018003A803F0EDF8206811F068FA6A
:101A800000206AE6A009002038B5002450B103F018
:101A900089F8009090F87C00000700D50124684682
:101AA00003F0D8F8204638BD022905D2034A52F87F
:101AB00021102C22FEF7C8BB704700002403070842
:101AC00030B504468BB0006803F06CF8009090F8D5
:101AD0007C10246A006FC1F3C00508B103F062F8FE
:101AE0000690E068029020690390A088401EADF83F
:101AF0001000E089ADF812002089401CADF81400F8
:101B0000608AADF81600BDF80800401CADF808006A
:101B1000BDF80A00401CADF80A00BDF80C00401EDC
:101B2000ADF80C000098406B05F0C0FA009808AAC8
:101B300002A9B0F95A30069805F052FF009800EB60
:101B40008500806B09F0BAFB009800EB8500006C03
:101B500009F0ECFB08AB02AA04A906980FF0D8FF25
:101B6000684603F077F8069810B106A803F072F8FB
:101B70000BB0002030BD002801D01FF0D3BB704750
:101B8000022803D2024A02EB800041607047000045
:101B900064090020014908607047000064090020C2
:101BA000074A0649054B1160064A083BD16958604F
:101BB0001B68C2E9063008467047000094090020FF
:101BC0006009002064090020024AB2F92610D0847E
:101BD000084670476409002038B50D46040009D056
:101BE00002F0E0FF00900566684603F033F82046F7
:101BF00010F0C7FE38BD000070B50D460146022D3D
:101C00001ED2104C2C2254F82500FEF71DFB54F870
:101C100025100220CA69022A00DAC86154F825108A
:101C20000A6A022A00DA086254F825104A6A022A6F
:101C300000DA486254F825108A6A022A00DA8862BB
:101C400070BD0000240307087CB50D46040019D0C0
:101C500002F0A8FF0090006F0190684602F0FAFFC2
:101C6000294601A806F0F8FD00280BD0204602F016
:101C700099FF009001990167684602F0EBFF20464A
:101C800010F07FFE7CBD38B50C4605000ED002F08A
:101C900089FF0090B0F95A10A14204D0A0F85A4030
:101CA000284610F06EFE684602F0D4FF38BD38B505
:101CB0000C4605000FD002F075FF0022009000EBEB
:101CC0008201521C0C64022AF9D3684602F0C2FF5A
:101CD000284610F056FE38BD2DE9F34F85B0002799
:101CE0000C46B846059802F05DFF0090C06D0121DA
:101CF000856805982A68904782462A6803210598D6
:101D0000904704902A6802210598904703902A681A
:101D10000021059890470646009811F02AFB83465B
:101D2000009811F02DFB8146009890F8321089063A
:101D300001D5B0F9588000F036F805460098C06E1D
:101D400010B110F07CFB074625806780A4F804A042
:101D5000049AABEB020006EB0802401E2A442081E5
:101D60003A44E280039BA9EB0302521E6281A4F86D
:101D70000CA020827019E681401E6082684602F045
:101D800069FFB4F90C000190B4F91000029002AAA6
:101D900001A9059800F03AF80198A08102982082E4
:101DA00007B0BDE8F08F10B50146002091F8322051
:101DB000920607D5B1F95400002803D1486B04F00E
:101DC00050F9801C10BD70B58AB00C46054602F073
:101DD000E9FE0990C06D866809A802F03BFF0095F6
:101DE00034B1012C06D0022C0BD0032C04D10AE014
:101DF000182000E0162001907168684688470AB0F4
:101E000070BD1520F7E71720F5E700002DE9FC412C
:101E100017468846044602F0C5FE0090C16D05686D
:101E200068468E6802F016FF32680021204690470F
:101E30000646204610F0EEF927E000BF02F0B2FEA1
:101E40000190B0F900102AB2B0F90430891A9A1A38
:101E5000B0F90230A3EB2543B34210D190F828002B
:101E6000000605D53868884209DB491E396006E05E
:101E7000D8F80000904202DC521CC8F8002001A8EB
:101E800002F0E8FE204610F055FA0400D6D1BDE875
:101E9000FC812DE9F0430446406885B0064610F009
:101EA00061FA814602F07EFE0090D0F88080876C57
:101EB000456E684602F0CEFE2068172859D008DC2F
:101EC0000E2837D00F280BD0142852D015283AD11D
:101ED0004FE01E2818D01F2827D0222833D146E0F3
:101EE0006FF07040874204D0384609F0E7F903F0FC
:101EF000D5F9002D12D0D4E902122068CDE90106EF
:101F0000CDE9031201A822E0E068002806D05FEACC
:101F1000080006D0B04504D010F0A4FF05B0BDE81D
:101F2000F083304610F0ECFF16E0214648460FF0F3
:101F300093FCF3E7E0684168002904DD00680928A4
:101F4000EFD00A2805D0A5B12046C4F80490A847D0
:101F5000E4E7304610F0DCFF0446484602F022FE7B
:101F60000090C0F88040684602F074FED6E7E76053
:101F7000D4E7204610F024F8D0E7000070B5B3F5A0
:101F8000804F05D06FF0704140F82210002070BDE6
:101F900050F82240084B8E891C40D1E9003543EAB5
:101FA00005138D6889692D0245EA06452B430B43CD
:101FB000234340F82230E9E70000F0CFF0B50C6889
:101FC00050F82430114A1340D1E90125D1E90367C3
:101FD0002A433E4332434E6932438E693243CE69CF
:101FE00032430E6A32434E6A32438E6A3243CE6ABD
:101FF0003243CE6B096B32430A431A43082D01D199
:1020000042F0400240F824200020F0BD8000F0FFA4
:1020100030B500EB820250688D8900F04043D1E971
:10202000000440EA04108C68240244EA054420437A
:102030000C8A074D05EB045420430C7D6D0105EB24
:10204000046489692043084318435060002030BD70
:102050000000F0FF70B5324888B00024016841F0FC
:1020600002010160016801F002010691016841F07E
:10207000040101600068012500F0040006900220C0
:10208000CDE90104CDE9035001A9264806F0DCFDA5
:102090006E03CDE90165244D01A9284606F0D4FD63
:1020A000FEF7FCFF00223146284606F0AEFE142063
:1020B00022F004F801223146284606F0A6FE32201E
:1020C00021F0FCFF8DF8004001226946002000F05D
:1020D000F9F801226946A42000F0F4F816208DF8E2
:1020E000000001226946802000F0ECF80C208DF8F9
:1020F000000001226946882000F0E4F802226946C7
:10210000A12000F013F89DF80000302803D19DF8BD
:102110000100032802D0012008B070BD0020FBE7B9
:102120003038024000040240000802402DE9F0412E
:1021300015460E460446FFF78BF87020FFF740F86F
:10214000FFF7D8F8E0B2FFF73BF8FFF7D3F8FFF757
:102150007FF87120FFF734F8FFF7CCF800246F1EEA
:1021600009E0BC4201D0012000E00020FEF7EEFFB4
:102170003055641CE4B2AC42F3D3BDE8F041FFF744
:1021800093B800002DE9F1474B4E00244FF00A0AA6
:10219000307881B0401CC0B2B0FBFAF20AFB1201E9
:1021A000DFF818812746307009B10A2867D201226A
:1021B00001A90220FFF7BAFF9DF8040001075ED0D5
:1021C00000F00F0106295AD2FF208840C04340F09A
:1021D000C000454688F8200001274FF0000900BFE5
:1021E00095F8200007FA04F108423BD03448042255
:1021F000694630F81400FFF799FF95F830009DF814
:102200000010C0079DF8010001F00F010ED000EB97
:10221000012105EB4400C1829DF802209DF80310C6
:1022200002F00F0201EB022181810FE000EB01209F
:10223000C0F5F07105EB440081819DF802209DF806
:10224000031002F00F0201EB0221C1829DF8000091
:102250000821B1EB101F05D005EB4400A0F8169043
:10226000A0F80C90641CE4B2052CB9D3A88901270E
:1022700018B9E88A08B98DF8049086F800909DF89E
:102280000400C00610D198F82000010602D520F005
:10229000800007E04FF6FF71A8F80C10A8F81610A0
:1022A00000F0E00088F820003078F02801D986F8A6
:1022B00000A03846BDE8FC8729000020300000203F
:1022C000388B02082DE9F04116460F4604460025DA
:1022D000FEF7BEFF7020FEF773FFFFF70BF8E0B2CA
:1022E000FEF76EFFFFF706F8002408E0385DFEF702
:1022F00067FFFEF7FFFF050003D1641CE4B2B442A0
:10230000F4D3FEF7D1FF2846BDE8F08110B50446AE
:102310000A280FD00D2C11D009480068C069016847
:102320002046884707480168002907D02046BDE8B5
:1023300010400847BDE8104003F068B910BD000028
:1023400078070020A00700202DE9F0430446C56867
:1023500087B090468946002004F0A6FE064625B1C7
:10236000287910B146F0020001E026F0020004F0E6
:102370009BFE2069012558B1D4E902128DE82600A0
:10238000039563882288046841464846A0471EE0BA
:10239000124F134B214638681B68427CE06898470F
:1023A00030B9E088012801D0002001E03868806B56
:1023B000A288E388A1680095CDE90410CDE9023236
:1023C0000195638822884146484608F057F807B0CF
:1023D0003046BDE8F04304F067BE000078070020F7
:1023E000700700202DE9F0478146884640F2C3205F
:1023F00050434FF47A7190FBF1F502FB02F002EBCF
:10240000D27100EB610617460023414648466D1C19
:10241000FEF7A4FF012413E004FB04F007FB070010
:10242000B04206DD3B46224641464846FEF796FF4F
:102430007F1E3B46224641464846FEF78FFF641CFE
:10244000AC42E9DDBDE8F0871CB50024019401AC85
:10245000009400F0E7F81CBD2DE9FF4F83B08146E2
:1024600006988A46A0EB0A08109E00200090A2EB76
:1024700009043568934654EA080018D02046FEF750
:102480005EFB07464046FEF75AFB87420BDA2046C2
:10249000444680464846D14682465846DDF818B044
:1024A000069001200090002C07DD204606E007B0D2
:1024B0004846BDE8F04F00F03BB96042A0420AD068
:1024C0004846D9466442C8F1000883464FF0FF37BA
:1024D000DDF818A000E001275148B8F1000F11D035
:1024E00004EBD4714FEA610B01DACBF1000B4C48DD
:1024F0000068807E88B3002F02DA306820443060A4
:1025000000257BE000990029016821D0897E11B166
:102510000027804615E007B05A4649465046BDE8B8
:10252000F04F08F069B928466D1C1FF059F938B909
:10253000D8F8000009EB0701406E4268504690470A
:102540007F1CA742EFDD6D1E356007B0BDE8F08F40
:102550008A7E1AB10027804617E019E0486E5A4675
:102560005146036807B04846BDE8F04F1847284673
:102570006D1C1FF035F938B9D8F8001009EB0700C9
:10258000496E4A68514690477F1CA742EFDDDAE763
:1025900000250FE008FB05B090FBF4F101EB0A0009
:1025A000009951B11E4A09EB05011268526E52683A
:1025B00090476D1CA542EDDDC7E7194909EB0503FE
:1025C0000968496E4A6801461846F1E708FB05B0FC
:1025D00090FBF4F101EB0A00019030683844306060
:1025E0001FF0FEF848B9009890B10D4809EB0501BD
:1025F0000068406E4268019890476D1CA542E5DD79
:102600003068002F01DA20443060C01B30609CE746
:10261000034909EB05000968496E4A680199EBE72F
:10262000780700202DE9FF470F46404916468046AF
:1026300009680C981D460A7E012A1CD0A8EB0600EA
:10264000791B50EA01031CD0A2F1010921F07AF8AC
:1026500000F58060824606F028FA00FB09F4504637
:1026600006F028FA00FB09F1002C0CDAC4F5007022
:10267000801240420AE00090324639464046FFF759
:10268000EBFEBDE8FF8704F50074A012002904DA10
:10269000C1F5007189124C4202E001F500718C1203
:1026A000002804DD411C01EBD171491003E000EB6F
:1026B000D0714910401E00EBD0704210002C04DD98
:1026C000601C00EBD070401003E004EBD4704010AD
:1026D000641E04EBD47308EB0104ADF800403C1811
:1026E000ADF80240A8EB02045B10B21AADF804404A
:1026F000ADF808203144FC1AEA1AADF80C10284451
:10270000ADF80A20ADF80E000023ADF806401A46D9
:102710000421684600F08CF83946404617F050F91D
:102720002946304617F04CF9ABE700007807002047
:10273000064A13681A7E012A05D0521E02EBD27295
:10274000521000F005B85A6E526810477807002002
:102750002DE9F05F0646884640F2C32002FB00F1F7
:102760004FF47A7091FBF0F702FB02F102EBD270AA
:1027700001EB600B1446B118234A301B7F1C126812
:10278000526E13680A4641469847012538E000BF5B
:1027900005FB05F004FB040159451CDDBC4219DDB5
:1027A000194B06EB050AA6EB05091B68AAF1010205
:1027B00008EB04015B6E09F101001B689847124B9E
:1027C000AAF10102A8EB04011B6809F101005B6E8C
:1027D0001B689847641E0C4B3219301B1B689246CD
:1027E00008EB05015B6E81461B689847064B524615
:1027F000A8EB05011B6848465B6E1B6898476D1C7B
:10280000BD42C5DDBDE8F09F7807002070B51446D5
:102810000E4605460119001B02F07EF8224631469D
:10282000284618F071FCBDE8704001F095BF00002B
:102830002DE9FF4F43F6FF740F46664283B09B4677
:10284000814600210BE000BF09EB8100B0F90200D6
:10285000A04200DA0446B04200DD0646491CB942F7
:10286000F2DB67480068406900280DD0B0F9061017
:102870001A46A1EB0B01B14200DA0E46B0F9020094
:10288000801AA04200DD0446B4E0DFF878A1002001
:102890000546CAF8000088E0781E854201DA6B1C04
:1028A00000E0002309EB850C09EB8302BCF9020070
:1028B000B2F90210A04244D1A14215D139F9233016
:1028C000059A39F9251003EB020C4D4A0598126858
:1028D000084404EB0B01526E6045136801DA62464E
:1028E0002AE00246604627E02846A4464FF000084A
:1028F0007A1E0BE008B1401E00E0781E09EB800351
:10290000B3F90230634504D108F101089045F1DBC9
:102910002346A34248D01A1B39F92500A1EB040C29
:10292000059B92EA0C0F09D4354A184404EB0B01BD
:102930001268526E13680246984735E011F0DCFACF
:1029400032E0A14230D001DBA04203DDA0422BDB0C
:10295000A14229DCE04688420ADC0346A04223DC8F
:102960000846A14220DBB8F900C0B2F9001008E027
:102970000B46A14218DCA04216DBB2F900C0B8F940
:102980000010E21AA1EB0C0151430029A0EB030255
:1029900002DD01EB620102E0A1EB6201491CC01AF9
:1029A00091FBF0F06044C9E76D1CBD42FFF674AFC7
:1029B0000598009004EB0B0001900020804605462E
:1029C00013E01149B8F1000F31F915A009D00099B1
:1029D00001EB0A0208440A490968496E0B6801992B
:1029E000984788F0010850466D1C064909688D42D9
:1029F000E7DB641CB4427FF748AF07B0BDE8F08F57
:102A0000780700202C0D0020D0E6012010B5002012
:102A100004F034FB6FF07F4004F034FB012004F03D
:102A200079FB002004F07EFB002004F085FB0020F1
:102A300004F03AFB0448006804F038FBBDE810409D
:102A4000002004F043BB00007407002033B583B0BE
:102A5000040016D002F0A6F80190456E01A802F01D
:102A6000F9F8049802F09EF800908460684602F03D
:102A7000F1F8042204A9284602F010F920460FF0CC
:102A800080FF05B030BD33B583B0040016D002F02E
:102A900089F80190856E01A802F0DCF8049802F034
:102AA00081F800908460684602F0D4F8042204A9FA
:102AB000284602F0F3F820460FF063FF05B030BD62
:102AC0002DE9F04104460025D4E90007B0F5407F28
:102AD00000D10125214638460EF0BEFE064615B14E
:102AE00038461BF0B5FA002E2FD02068052806D0F6
:102AF0000B280ED00F2806D0262821D10EE038460C
:102B00001BF0A6FA1CE03846E168BDE8F0411CF075
:102B100094B83846BDE8F0411BF0B0BDE068052828
:102B20000ED138460FF04BFCA168884205D03846DC
:102B30000FF03CFCA168884202D160681CF006FEE0
:102B40002046BDE8F0410FF03BBABDE8F081F0B59A
:102B500085B00DF1280C9CE8F0004FF0000C8DE8DA
:102B6000F01000F003F805B0F0BD00002DE9F041D1
:102B700086B00DF1300CDDE90F849CE8E0006C3488
:102B8000DFF850C003948DE860100FF06BF904007B
:102B90001BD002F0C0F8054602F0BDF806462046FC
:102BA00002F000F80490C0E91956002241460FF0E7
:102BB00095F80498302208493430FDF745FB049815
:102BC000A0F8787004A802F045F806B02046BDE8E9
:102BD000F0810000C12A0008F809002003B583B085
:102BE00001F0E0FF009060B1406A01F0DBFF0146B8
:102BF0000190022304AA009800F07EF901A802F0D7
:102C000029F8684602F026F805B000BD2DE9F0432A
:102C1000814685B01D4690460F462C2001F0D9FE16
:102C2000060024D0780001F0D4FE04000ED0B8F1E4
:102C3000000F0BD055B1204601F0B4FF6A004146A9
:102C40000090FDF701FB684602F004F8304601F001
:102C5000A9FF0949029000F10C02446282E8A20235
:102C6000064901600649416002A801F0F3FF05B082
:102C70003046BDE8F083000051DA0108E5ED0108B7
:102C80000DE701081BF042BD2DE9FC47894607000E
:102C900026D001F087FF0190466E01A801F0DAFF0F
:102CA000304602F08CF80546002414E021463046F8
:102CB00002F091F870B101F075FF0090D0F800803B
:102CC000684601F0C7FFC84504D12146304602F0EE
:102CD0004DF802E0641CAC42E8DB38460FF051FED0
:102CE000BDE8FC872DE9FC478946070026D001F0A6
:102CF00059FF0190866E01A801F0ACFF304602F04A
:102D00005EF80546002414E02146304602F063F8E0
:102D100070B101F047FF0090D0F80080684601F0E4
:102D200099FFC84504D12146304602F01FF802E061
:102D3000641CAC42E8DB38460FF023FEBDE8FC879C
:102D40002DE9F8430746984615460E46302001F017
:102D500040FE040015D001F025FF0090C0E9057683
:102D60008584094AB7EE000AC0F81C8080ED0A0A83
:102D7000D2E90012C0E9031204490160684601F07B
:102D800069FF2046BDE8F883280A0020BDEE01084F
:102D900001F03ABE38B50D46002460B101F002FFE3
:102DA0000090046AAC4203D0056280680FF0E9FD30
:102DB000684601F04FFF204638BD38B50D46002467
:102DC00060B101F0EFFE00904469AC4203D0456170
:102DD00080680FF0D6FD684601F03CFF204638BD04
:102DE0002DE9F8431D46DDF8208016460F46040005
:102DF00010D001F0D7FE0090C0F860804765C0E9B0
:102E00001665684601F026FF20461BF021F9204692
:102E10000FF0B7FDBDE8F883F8B515460E4607007C
:102E20004FF0000410D001F0BDFE0090042D08D238
:102E300000EB8500446BB44203D0466338460FF084
:102E4000A0FD684601F006FF2046F8BDF8B50D4626
:102E500006004FF000040CD001F0A4FE0090446C7A
:102E6000AC4203D0456430460FF08BFD684601F05C
:102E7000F1FE2046F8BDF8B50D4606004FF00004FF
:102E80000CD001F08FFE0090846CAC4203D08564BE
:102E900030460FF076FD684601F0DCFE2046F8BDB6
:102EA000F8B50D4606004FF000040CD001F07AFE94
:102EB0000090046DAC4203D00565304600F04EF83A
:102EC000684601F0C7FE2046F8BDF8B50D4606007D
:102ED0004FF000040ED001F065FE009090F86C40B9
:102EE000AC4204D080F86C5030460FF04AFD684682
:102EF00001F0B0FE2046F8BD2DE9F041044680689F
:102F00001D4617460E46002826D0D4E904029042FA
:102F10000ED1521E6A4371193046FDF795F92069AA
:102F20002A46401E05FB00603946FDF78DF90EE08C
:102F300005FB0013401C20612A4639461846FDF760
:102F400083F9E16819B12046BDE8F0410847A0685F
:102F5000BDE8F04100F002B8BDE8F08110B58AB0DC
:102F6000044601F01FFE09A904AACDE9002105AB22
:102F7000089006AA07A919F03AFD08A801F06AFE10
:102F800002A920460FF084F9BDF80800079908440B
:102F9000ADF80800BDF80A0006990844ADF80A002B
:102FA000BDF80C000599401AADF80C00BDF80E00F4
:102FB0000499401AADF80E0002A920460FF0A6FCB5
:102FC0000AB010BD2DE9F0433A4889B000240168E9
:102FD00041F002010160016801F0020107910168FE
:102FE00041F0040101600068022500F00400079030
:102FF0000126CDE90054DFF8C090CDE902656946AD
:10300000484605F021FE2F03DFF8B080CDE90076B9
:103010006946404605F018FEFEF740F800223946A2
:10302000404605F0F2FE0A2021F048F80122394618
:10303000404605F0EAFE0A2021F040F80095CDE96F
:1030400001646946484605F0FFFD642021F036F82A
:10305000042205A948F2401000F036F88DF8184017
:1030600017A105A8FDF735F918B1012009B0BDE891
:10307000F0838DF8145048F24005012205A9284636
:1030800000F038F9012205A9E81D00F01DF89DF8AF
:103090001400602802D2012000F004F90A2021F077
:1030A0000DF88DF81440012205A9284600F022F9F8
:1030B0000020DBE7303802400004024000080240F4
:1030C00039313437000000002DE9F04115460E4635
:1030D0000446FEF7BDF82820FEF772F8FEF70AF95D
:1030E000200AFEF76DF8FEF705F9E0B2FEF768F882
:1030F000FEF700F9FEF7ACF82920FEF761F8FEF7BD
:10310000F9F800246F1E09E0BC4201D0012000E064
:103110000020FEF71BF83055641CE4B2AC42F3D338
:10312000BDE8F041FEF7C0B82DE9F147594E002443
:103130004FF00A0A307885B0401CC0B2B0FBFAF2FA
:103140000AFB1201544DA046307009B10A2878D20A
:1031500048F24E19012205A94846FFF7B5FF9DF830
:1031600014004FF0000701060AD500F00F000628F2
:1031700006D28DF8007001226946484600F0BAF880
:103180009DF8140001075CD000F00F01062958D209
:10319000FF2088408DF80000C04395F8209040F053
:1031A000C00085F82000A889A882E88AE8834FF04B
:1031B000010800BF95F8201008FA04F0014225D05C
:1031C0003648042202A930F81400FFF77DFF95F875
:1031D00030009DF80910C0079DF8080000EB0121A0
:1031E00005EB44000AD0C1829DF80A109DF80B201F
:1031F00001EB0221C1F54871818107E081819DF8D1
:103200000A109DF80B2001EB0221C182641CE4B27C
:10321000052CCFD32249AA894FF001080B882846F4
:103220009A4203D8C28A49888A4209D99DF8141063
:1032300001F00F0101290BD9C1898181018BE9823C
:1032400037709DF8140000F08F0080280AD018E035
:10325000818A8181C18BC18280218DF8141085F80B
:103260002090EEE795F82000010602D520F08000BE
:1032700005E04FF6FF71A981E98200F0E00085F8D2
:1032800020003078F02801D986F800A006B040462A
:10329000BDE8F08728000020300000202E8B0208B7
:1032A000B80F002008B500218DF800108DF801003E
:1032B0000F4800BF435C9DF80020491C1A44C9B266
:1032C0008DF80020B829F5D3D0B2C043401C8DF84A
:1032D0000000B822064948F2470000F00BF802222D
:1032E000694648F2FF0000F005F8002008BD000024
:1032F000768A02082DE9F04116460F46044600255D
:10330000FDF7A6FF2820FDF75BFFFDF7F3FF200A7E
:10331000FDF756FFFDF7EEFFE0B2FDF751FFFDF7B9
:10332000E9FF002408E0385DFDF74AFFFDF7E2FF02
:10333000050003D1641CE4B2B442F4D3FDF7B4FF3A
:103340002846BDE8F081000030B5002300E05B1C9A
:10335000C25C002AFBD10124224603E004EB840472
:103360006400521CB1FBF4F50A2DF7D2002403448B
:103370000A209C540BE000BFB1FBF0F400FB1414D6
:10338000B1FBF0F19D18303405F8014C521E002AB3
:10339000F2D130BD10B50022134600E0521C845C0F
:1033A000002CFBD102E08454521C5B1CCC5C002C32
:1033B000F9D10021815410BD10B50BA117A000F068
:1033C000E9FC012000F0C2FA012002F0E9FC044609
:1033D00016F0F2FC4FF47A6000F0CCFE2046BDE817
:1033E000104002F0DDBC00004F75747075742061F0
:1033F0006E7469616C696173656420746578740AC0
:103400006F6E20646966666572656E7420626163C2
:103410006B67726F756E64732E000000416E746985
:10342000616C696173656420546578740000000004
:103430002DE9F041002723A12CA000F0ABFC07F000
:10344000EBFB064607F0F4FB0446C438032190FB6F
:10345000F1F12B4D2B4AC83EE96013885B1DB3EB9D
:10346000660F03DB5088401D884200DA012726A042
:1034700002F0C4FD31460126B0EB610F05DBE868C0
:10348000283C4000C430A04200DA2E60224803F0FD
:103490000DFE044602F094FDE968401C884200DA03
:1034A0006E60204603F002FE384615F0FBF901F08D
:1034B0004BF9032001F03CFA10F042FFBDE8F04167
:1034C00001F03AB94578616D706C657320666F7272
:1034D000207468650A6175746F6D6F746976652014
:1034E000696E647573747269650000004175746F6C
:1034F0006D6F746976652073616D706C6573000023
:10350000E8000020D04205086D7365632F70696381
:10351000747572653A0A00005055040810B508A188
:1035200015A000F037FC00F02FFC002000F00EFA90
:1035300010F0EEFFBDE810404FF47A6000F01ABEC4
:1035400053686F77696E670A646966666572656E4F
:1035500074206269746D61707320776974680A61A0
:103560006E6420776974686F757420636F6D707214
:10357000657373696F6E00004269746D61707300EA
:1035800010B5084C02E00A2002F004F8606A012835
:10359000F9D0A06A01284FF0000001D1A0620120FB
:1035A00010BD0000940000202DE9F04F97B050218D
:1035B00002A8FCF770FE07F02FFB834607F038FBEC
:1035C0000446864986A000F0E5FB012000F0BEF924
:1035D0006FF07F49484603F055FD844803F066FDCF
:1035E0004FEA6B010C2282A002F0BCF8834803F082
:1035F0005DFD2B22012182A002F0ACF83F220121C7
:1036000080A002F0A7F85322012180A002F0A2F8C6
:10361000622201217FA002F09DF8712201217FA08A
:1036200002F098F8852201217EA002F093F89922F9
:1036300001217EA002F08EF87E4803F037FD07F0EE
:103640003BFA014602A8FFF77FFE7BA102A8FFF725
:10365000A1FE092007F04CFA05000BD078A102A8C2
:10366000FFF798FE294602A8FFF76EFE75A102A893
:10367000FFF790FEA4F119020C2102A802F06AF8EB
:1036800000F074F906464FF4FA7A41F2707798E048
:1036900000F06CF9801B4FF4FA6190FBF1F201FB32
:1036A0001200491090FBF1F16FF07C024A4300EBED
:1036B000C20050457EDCC0EB002090FBFAF0C1EB6D
:1036C0000121484000EB002101EB00444FF0FF08CE
:1036D000CDE90084A9EB040534235A462B213C2074
:1036E00002F012FACDE900853E235A4635213C20EE
:1036F00002F00AFA4FF47F48CDE9008448235A4685
:103700003F213C2002F000FACDE9008552235A46C1
:1037100049213C2002F0F8F94FF47F08CDE90084FC
:103720005C235A4653213C2002F0EEF9CDE9008596
:1037300066235A465D213C2002F0E6F94348CDE974
:10374000000470235A4667213C2002F0DDF94FF651
:10375000FF78CDE900857A235A4671213C2002F09A
:10376000D3F9CDE9008484235A467B213C2002F022
:10377000CBF94FEA0828CDE900858E235A468521EA
:103780003C2002F0C1F9CDE9008498235A468F21EC
:103790003C2002F0B9F94FF0FF18CDE90085A223D3
:1037A0005A4699213C2002F0AFF9AC23A3215A4696
:1037B0003C2000E005E0CDE9008402F0A5F902F02C
:1037C0002FFB00F0D3F8801BB84204DAFFF7D8FED5
:1037D00000283FF45DAF17B0BDE8F08F4C16070826
:1037E000436F6C6F722062617200000050550408D4
:1037F000436F6C6F72206261727300000CDF060809
:1038000052656400477265656E000000426C756524
:1038100000000000477265790000000059656C6C7B
:103820006F7700004379616E000000004D616765AD
:103830006E746100ACBC060820627070000000006D
:103840002C20000020636F6C6F72730080808000FA
:10385000034901600D21416005210181704700008D
:103860001801002010B50DA115A000F093FA012059
:1038700000F06CF801F0F8FB12F064F94FF47A6094
:1038800000F078FC01F0CCFC0021084601F088FC37
:10389000BDE810400C4801F017BC00005354656DA2
:1038A00057696E20737570706F7274730A736F66E8
:1038B000747761726520637572736F720000000027
:1038C000437572736F720000E0A606082DE9F04799
:1038D0001D4F04464FF404794946B8680EF092FC37
:1038E0008046642C05DD4946B8680EF08BFC0FF06D
:1038F000A5FB0021404609F05DFC22460021404620
:1039000009F02FFC02F084FB4FEA000600F02EF8CD
:10391000851B642C03DD2946404609F04BFC05203D
:1039200001F038FEFFF72CFEA54201D20028EDD0B1
:10393000642C05DD4946B8680EF064FC0EF068FFA3
:10394000BDE8F04702F06CBA940000200149096913
:10395000084700009400002003490989014201D072
:10396000012070470020704748E3012010B5054C46
:10397000606A08B1206A10BD02F04AFBE169401A92
:1039800010BD00009400002010B506A112A000F0A8
:1039900001FA00F0F9F919F02DFBBDE8104000F034
:1039A000A1B900004F7074696D697A656420647212
:1039B0006177696E6720726F7574696E650A666FEC
:1039C000722064726177696E672067726170682027
:1039D000646174610000000044726177696E672061
:1039E0006120677261706800054810B5C0680EF00C
:1039F0000FFF0EF0F1FBBDE810400FF033BB0000ED
:103A0000940000202DE9F04188B020223849684612
:103A1000FCF71AFC07F000F9054607F009F904461F
:103A20006E100020FFF792FF022003F085FB6FF07D
:103A30007F48404603F026FB2E4803F037FB44F353
:103A4000191231462CA001F08DFE2D4803F02EFBFB
:103A500004EB440000EBC4008211314629A001F0C0
:103A600081FE364803F00EFB162004FB00F7BA1166
:103A7000314633A001F076FE3D4803F017FB1220DB
:103A800000EBA71231463BA001F06CFE404603F06C
:103A9000F9FA1B4803F00AFB02F0BCFA014668463B
:103AA000FCF704FCC4EB441082113146684601F077
:103AB00059FE26206043821136480088281A41109A
:103AC000354801F019FF404603F0DCFA094803F0DD
:103AD000EDFAC4EBC40040F3D90231462FA001F047
:103AE00041FE41F28830FFF7F1FE08B0BDE8F081F9
:103AF000F4D90208505504085354656D57696E0097
:103B00000CDF0608556E6976657273616C2067720A
:103B1000617068696320736F6674776172650A66A5
:103B20006F7220656D626564646564206170706C9D
:103B300069636174696F6E7300000000FF88220082
:103B4000466F722053544D3332204D4355205072EE
:103B50006F6475637473202D20436F7274657820D1
:103B60004D33202D20436F72746578204D34000052
:103B700094C30608436F6D70696C6564204F63746D
:103B800020203820323032302031353A34393A343E
:103B90003900000040830408741C05087777772EED
:103BA00073742E636F6D2F73746D333200000000D9
:103BB00010B506A110A000F0EDF80120FFF7C6FE39
:103BC00000F0E2F8BDE8104011F054BE53686F7782
:103BD0007320736F6D6520666561747572657320FF
:103BE0006F660A746865204C4953545645572077D0
:103BF00069646765740000004C6973747669657761
:103C00002064656D6F0000008CB02949294802F0DE
:103C1000EFFD0EF0E1FA28490FF098F8FDF794F95E
:103C200000216846FDF740FF0024214668460594C0
:103C3000FDF7E2FF01216846FDF736FF01216846E6
:103C40000594FDF7D9FF1D48FDF7AAFF1C4809F0B0
:103C50006BFA1C48FDF758F91B4809F0DDFD1B48BD
:103C600009F0A4FF1A4806F03FF9022003F064FAB5
:103C70001848FFF7EDFD06F01FFF0D4C2C3C1028F7
:103C800013DB0420FFF768FE78B100F073FFB0F596
:103C9000001F01DD104800E010482061012000F005
:103CA00049F800BF1AF074F8FCE70D48F5E700008A
:103CB000C0000020D93A0208C9370208E3B0010861
:103CC000A5D00008D10C000865D6000835DA000838
:103CD0000D9E000848E30120518901086188010810
:103CE000818A0108054810B58169491C816111F07C
:103CF000D9F8BDE8104000F0CDB9000094000020D4
:103D000010B5FFF771FE074907A000F043F8012046
:103D10000EF09CFE1DF0C6F8BDE8104000200EF02D
:103D200095BE00009C1F070852616469616C204DBC
:103D3000656E750000B101200149087070470000F0
:103D400094000020044810B580680FF077F9BDE8B2
:103D5000104002F065B800009400002070B5094CD6
:103D60000546E0680EF062FE002809D04FF4B071FD
:103D7000E0680EF047FA2946BDE870400AF076B8D0
:103D800070BD0000940000200148C0680FF056B9D3
:103D9000940000202DE9F0410C46064606F03CFF59
:103DA000054606F045FF6D104710FFF71DFEFFF7B3
:103DB000C9FF02F035F80120FFF7C8FD6FF07F4022
:103DC00003F060F9022003F0B7F9104803F06EF930
:103DD0003C222946304601F0C5FC0D4803F066F947
:103DE00002F0EEF83A1A294620460A3201F0BAFCEF
:103DF000002200E0521CA05C0028FBD1BDE8F0418D
:103E000002EB8200000100F0B5B900005055040833
:103E10000CDF06082DE9F04FA1B0282107A8FCF718
:103E20003AFA06F0F9FE054606F002FF044606F0EF
:103E3000E7FE074601F018F9A7420BDD0020ADF8B8
:103E40007400ADF87600ADF87850ADF87A401DA852
:103E500003F016F954A160A0FFF79CFFDFF88491EE
:103E600000270DF1440800BF59F8270001F05EFA61
:103E700048F827007F1C082FF6DBFFF777FD074681
:103E80004FF0000941F2883A51E000BF09F0070104
:103E900058F8210003F0F8F8FCF7C4F990FBF5F1AD
:103EA00005FB110005EBD571A0EB61000FFA80FB5B
:103EB000FCF7B8F990FBF4F104FB110004EBD471AA
:103EC000A0EB610001B21F91FCF7ACF990FBF5F19A
:103ED00005FB1101143101EB0B0002B262F30F0676
:103EE0000592FCF79FF990FBF4F104FB11001F9978
:103EF0001430084403B263F31F4602935846059AF0
:103F000001F0A8FF059AAA4202DB681E60F30F06C3
:103F10000298A04202DB601E60F31F46301402D5F7
:103F2000002060F31F4601F07BFF09F10109FFF754
:103F30001DFDC11B514503DAFFF722FB0028A5D068
:103F4000FFF7D0FE18F0B1FD0646002003F098F808
:103F50000020FFF7FBFC6FF07F4003F093F8022096
:103F600003F0EAF8204803F0A1F8052211461F48A3
:103F700001F0C2FC1EA107A8FFF70CFA314607A802
:103F8000FFF7E2F902F024F8201A4210691007A89E
:103F900001F0E8FB4FF47A60FFF798FC01F040F97C
:103FA00021B0BDE8F08F00004D756C7469206C6124
:103FB00079657220636C697070696E670A48696719
:103FC000686C79206F7074696D697A6564206472B9
:103FD00069766572730000004869676820737065D0
:103FE00065640000E442050850550408D042050805
:103FF000506978656C732F7365633A200000000088
:1040000010B505A10FA0FFF7C5FEFFF7EDFCBDE859
:1040100010401EF043BB00005573657320616C7047
:10402000686120626C656E64696E670A666F7220F3
:104030007472616E73706172656E63792065666615
:10404000656374005472616E73706172656E742082
:104050006469616C6F67000010B5094909A0FFF73A
:1040600099FEFFF791FE0020FFF770FC00F0FCFFC7
:1040700011F038FC01F0D4F8BDE81040FFF732BE73
:104080007021070854726565766965772064656DEF
:104090006F00000030B585B014216846FCF7FBF8CE
:1040A000134C4FF4B071A0680EF0ACF8054611A1A6
:1040B0006846FFF76FF961696846491CFFF744F9E4
:1040C0000EA16846FFF766F96846A169FFF73CF95B
:1040D0000BA16846FFF75EF90A4841686846491E29
:1040E000FFF732F96946284609F0C0FE05B030BD39
:1040F0009400002044656D6F200000002E00000039
:104100002F00000048E3012010B506F091FD0446A1
:1041100006F076FDB0EB440F0EDB08A111A0FFF70F
:1041200039FE0120FFF712FC11F046FC0021BDE82A
:104130001040084602F0D2BF10BD000044656D6F0C
:104140006E7374726174657320686F7720746F206A
:104150007573650A7669727475616C207363726534
:10416000656E73005653637265656E2064656D6F8E
:104170000000000010B5FFF7A9FBBDE81040FFF7F5
:10418000B1BD00002DE9F04FDFF828B191B04FF03C
:10419000FF35DBF80030B3F922100691DE69B3F980
:1041A0002490F469A189814206D8E289824203D32E
:1041B000471AD4F8008012E0D4E9018100296FD0B9
:1041C0000A8882426CD84D88854269D3801A82B2AF
:1041D000486800EB8200B0F90070B0F90250781C1A
:1041E0005ED0307EA17C10FB01FA217CCDE9070175
:1041F000B3F92A60304607F02DF9C0B20E90DBF813
:10420000000007FB0A81A37C826B0127CDE9041221
:10421000CDE90273C069089AC17E807ECDE90001B4
:10422000DDE90603494606F029F9681C18D046F076
:10423000020007F00FF9DBF80000A37C05FB0A8100
:10424000826BCDE90273CDE90412C069089AC17E80
:10425000807ECDE90001DDE90603494606F00EF94E
:10426000DBF800005D46C069417E007E814214D9C2
:10427000022E12D086F0040007F0ECF82868C0691E
:10428000027EC37E12FB0391437E857E089A0698C8
:104290004B4412FB050206F0E3FB0E9807F0DAF838
:1042A000DBF80000627C418C1144418411B0BDE810
:1042B000F08F00007807002004480068C069C069DA
:1042C00009B1027C0A60407C70470000780700203A
:1042D000022008807047C06982898A4202D8C28958
:1042E0008A4210D2806880B102888A420DD8438801
:1042F0008B420AD3406800EB8100A0EB8200B0F94A
:104300000000002801DB01207047002070470000FA
:10431000F0B52C4D044687B028682146B0F92A60D4
:10432000C069C06900F0C4F9002848D0416800881D
:10433000201A00EB400001EB80042078C01C8708A5
:10434000304607F087F806461F48D0F800C0BCF199
:10435000000F1AD00021A068CDE90401022201203B
:1043600001A9009081E88500286894F90320DCF811
:104370000070B0F92410B0F92200114494F9022021
:10438000637810442278B84711E0A068CDE9007046
:10439000286894F903206378B0F92410B0F922005A
:1043A000114494F902201044227800F0C9FA3046F2
:1043B00007F050F828682279418C1144418407B0F5
:1043C000F0BD000078070020B0070020F0B52C4DAC
:1043D000044687B028682146B0F92A60C069C069E0
:1043E00000F066F9002848D041680088201A00EBE8
:1043F000400001EB80042078401C4708304607F05D
:1044000029F806461F48D0F800C0BCF1000F1AD0AA
:104410000021A068CDE904010422012001A9009037
:1044200081E88500286894F90320DCF80070B0F971
:104430002410B0F92200114494F90220637810444A
:104440002278B84711E0A068CDE90070286894F997
:1044500003206378B0F92410B0F92200114494F9D4
:1044600002201044227800F07DFA304606F0F2FF78
:1044700028682279418C1144418407B0F0BD0000C6
:1044800078070020B00700202DE9F043304C0346A8
:1044900087B020681946B0F92A60C069C06900F089
:1044A00040F9002850D041680088181A01EBC00577
:1044B0003046AF7806F0CEFF814620686A68012357
:1044C000816BCDE90237CDE90421C169CB7E8A7EBB
:1044D000CDE900230B7EB0F924102A78B0F9220030
:1044E00005F0CCFF2068C069417E027E91421FD951
:1044F000C07E11FB00F812FB00F7022E18D001F06D
:104500004EFD064601F02EFD02F0BCFD21682A7822
:10451000CB69B1F92200DB7E12FB0302B1F9241052
:1045200001EB0803394406F09BFA304602F0AAFD7D
:10453000484606F08FFF20686A78C369B0F92210F8
:104540009B7E12FB0311418407B0BDE8F08300009D
:104550007807002030B5104C05460B4620682946E8
:10456000C069C06900F0A4F8002814D04168008830
:104570002468281A00EB40020420E46900EB820062
:10458000085CA47E10FB04F0002B04D011F822106C
:1045900011FB04F1196030BD7807002003460C4878
:1045A00010B500680C461946C069C06900F080F873
:1045B00058B141680088181A00EB400001EB8000F8
:1045C00007C884E80700002010BD012010BD0000CE
:1045D0007807002001200880704700B5C06900F00E
:1045E00067F8002800D0012000BD00002DE9F3414C
:1045F0001C4E0F46002530682C46C069417EC07EA7
:1046000011FB00F81DE0684603F012F8054630681B
:104610002946C069C06900F04BF890B14168008834
:10462000281A00EB400001EB800090F9021000799D
:1046300008443168C969897E10FB01F0002800DD5B
:1046400004447F1EDFD51DB1284603F093FF0444C8
:104650004146204610F02EFC034901200870BDE8B9
:10466000FC81000078070020F00700202DE9F341CD
:104670000D4D0E4F0E462868B0F92A40A0070AD10A
:104680007A680098904706E0684602F0D1FF2968F2
:10469000C96909688847761EF6D5002038702868F1
:1046A0004485BDE8FC81000078070020F007002069
:1046B00006E002888A4202D842888A4202D2806892
:1046C0000028F6D17047000030B50F4C05460B4668
:1046D00020682946C069C06900F023F8002812D07C
:1046E0004168008824682A1A0120E46900EBC200AE
:1046F000085CA47E10FB04F0002B04D011F83210EB
:1047000011FB04F1196030BD7807002001200880FA
:10471000704700B5C06900F004F8002800D00120FF
:1047200000BD06E002888A4202D842888A4202D24C
:1047300080680028F6D1704702490020096881F896
:10474000690070477807002002490120096881F854
:10475000690070477807002010B517F029F9044860
:10476000016A04480068416600F10801416110BD1A
:1047700028070020780700207CB514460D46064621
:104780000EF0A4FD06440EF0AFFD05441548006888
:1047900090F8691021B990F868104E434D434C438E
:1047A000301B00F059F8ADF80000301900F054F853
:1047B000ADF80400281B00F04FF8ADF802002819EE
:1047C00000F04AF8ADF8060068460EF0E1FD06E09C
:1047D000224629463046FEF719F80EF057FD00280C
:1047E000F6D17CBD780700202DE9FC471C46154614
:1047F000884681460EF06AFD05440EF075FD0444BE
:1048000000200EF0C5FD00281FD0114E114F1221BF
:104810003068407C57F820000190C068426A01A8C7
:1048200090475FEA000C06D02B464246494600946A
:104830000198E04705E023462A464146484616F0DF
:10484000D3FC0EF023FD0028E1D1BDE8FC87000079
:1048500078070020900700200449096891F8681043
:1048600009B190FBF1F000B270470000780700201A
:104870002DE9F041224C05460E462068002788B9F4
:1048800020480068E06110B906F0B7F9E06100F077
:10489000F9F8206080B31A491B48243108600846A3
:1048A00003F09AFF19480068854200DA0546E1697D
:1048B000731B4A1E2046934201DD6E18761EAE42DF
:1048C00001DA2E460127124C2268516E4B68836331
:1048D00001620B490F4B34310B60516602C880E80E
:1048E000620010F0CBFA0FF0E7FE054821682C308B
:1048F00048613846BDE8F081FFE70127D2E70000B4
:1049000028070020A407002035E70108A807002099
:1049100078070020FD960108044A126892F8682082
:1049200090FBF2F091FBF2F1FFF7A2BF78070020B5
:104930000249096881F868000FF0BEBE78070020C0
:104940007CB5074EDDE906543668367CCDE9005467
:10495000B60702D414F04CF97CBD14F09BF97CBD71
:10496000780700207CB5084EDDE906543668367CB1
:10497000CDE90054B60702D414F0EEF97CBD034C27
:104980002468A0477CBD000078070020B40C0020FC
:10499000F8B505460C000DD0084600F015F80600E5
:1049A00010D000F0FFF8224600902DB12946FBF709
:1049B0004BFC04E00020F8BD002103F0F8FF68463E
:1049C00000F048F93046F8BD002801D00FF05ABC7D
:1049D000704738B50546FFF7F7FF040009D000F02F
:1049E000E1F82A460021009003F0E1FF684600F05C
:1049F00031F9204638BD0000024A106021F0030062
:104A000050607047C4E4012010B5002814D004465B
:104A10000A48006B10F8341000290DD002290BD27F
:104A2000042101EBC401415848680FF0C9FA20463F
:104A3000BDE810401CF022BA10BD000008E40120BF
:104A4000002805D0034A916B016001B14860906372
:104A50007047000008E4012010B504460068FFF725
:104A6000D3FF0020206010BD70B50D46064600241F
:104A700005E000BF06EB8400FFF7EEFF641CAC42CC
:104A8000F8DB70BD2DE9F041044618F001FE28481E
:104A9000E41C24F00305C16B2D1DA94200D90D466D
:104AA000846B13E054F8042CAA420ED184B121681F
:104AB00009B162684A60616809B122680A60826B64
:104AC000A24231D1216881632EE02468002CE9D113
:104AD0008046416B80680F1857F8040C3E1A306806
:104AE00038B100201CF02CFB57F8040C3E1A30683B
:104AF000D0B97068A84217DB3044441B3046241DEF
:104B00001CF0D6FAD8F80810491BC8F80810D8F8D5
:104B100010102944C8F810107068401B02D03146AC
:104B20000FF04EFA44F8045C2046BDE8F081000026
:104B300008E4012010B5002418F0AAFD0C490F204C
:104B400001EBC002126C1AB101EBC000006C08E06E
:104B5000401EF5D508E04168A14200D90C468068A6
:104B600010B180680028F6D1A4F10C0010BD00003F
:104B700008E40120034800680C38002800DC00200D
:104B80007047000008E40120002138B104490422E4
:104B900002EBC000096B085841680C3908467047A1
:104BA00008E4012005498A69521C8A61096B01EBFE
:104BB000C0010A78521C0A7000F064B808E40120B1
:104BC0007CB506460C460846FFF7FEFE05001CD0E5
:104BD000DEB13046FFF7D8FFA04200DA044628468F
:104BE000FFF7E0FF00903046FFF7DCFF0146019041
:104BF00022460098FBF728FB684600F02BF801A836
:104C000000F028F83046FFF7FFFE28467CBD000084
:104C100010B5FFF78FFF64220649B0F5800F04D965
:104C200090FBF2F0C969484310BDC9694143B1FB2B
:104C3000F2F010BD08E401200549102805D94A68A2
:104C4000B0EB520F02D3500800E01020886070478C
:104C5000C4E401200A4902680B6B52F8082C03EBEC
:104C6000C2021378022B03D38B690BB15B1E8B61DD
:104C70001178491E1170002101600846704700003C
:104C800008E40120002806D00349042202EBC000FA
:104C9000096B08580830704708E401202DE9FC41F1
:104CA0004FF000060B465FEA000834462BD032B1C5
:104CB00011461846FFF76CFE060000D1012440465D
:104CC000FFF770FF0090078845686846FFF7C2FF4E
:104CD000CCB9B9002846091DFFF772FF050015D0B1
:104CE000FFF760FF019040F8276001A8FFF7B2FFCF
:104CF0004046FFF757FF009045600188491C01803E
:104D00006846FFF7A7FF2046BDE8FC813046FFF765
:104D10007BFE0124F7E70820FFF75BBE7CB50500AA
:104D200023D0FFF73FFF00904068C0B1FFF73AFF84
:104D30000024019005E0019800EB8400FFF78CFE51
:104D4000641C00980088A042F5DC01A8FFF782FFF0
:104D50000098001DFFF780FE00990020088068463B
:104D6000FFF778FF2846FFF74FFE7CBD1CB50C46C9
:104D7000FFF718FF00900188A1421CD94068D0B10C
:104D8000FFF710FF019000EB8400FFF765FE00992C
:104D90000888401E80B20880401E019906E000BFCE
:104DA00001EB8402526841F82420641C8442F7DD40
:104DB00001A8FFF74FFF6846FFF74CFF1CBD38B551
:104DC000002430B1FFF7EEFE009004886846FFF73C
:104DD00041FF204638BD38B50D46002448B1FFF7E5
:104DE000E1FE2946009000F0B4F804466846FFF75B
:104DF00031FF204638BD38B50D46002448B1FFF7D5
:104E0000D1FE2946009000F0B6F804466846FFF748
:104E100021FF204638BD2DE9FE430C465FEA00081D
:104E20003DD0FFF7BFFE0090068847686846FFF751
:104E300011FFB44233D2B000001DFFF7CAFD0500D8
:104E40002DD0FFF7AFFE01903846FFF7ABFE0146CD
:104E50000290A2000198FBF7F7F9301B820002983C
:104E600000EB8401019800EB8400001DFBF7ECF9D6
:104E700001A8FFF7EFFE02A8FFF7ECFE3846FFF7A8
:104E8000C3FD4046FFF78EFE009045600188491C37
:104E900001806846FFF7DEFE0120BDE8FE830020AA
:104EA000FBE72DE9F04115460E4607460024FFF7C3
:104EB000B2FF30B12B4600223146384600F004F8EC
:104EC00004462046BDE8F0812DE9FE439846914610
:104ED0000D460024D0B3FFF765FE019007884668B1
:104EE00001A8FFF7B7FEBD4230D27EB33046FFF7D0
:104EF00059FE009050F825406846FFF7ABFE24B1FC
:104F00002046FFF741FE404511D04046FFF761FDC6
:104F100004000CD03046FFF745FE00EB85050090FD
:104F20002846FFF799FD68462C60FFF793FEB9F11C
:104F3000000F0BD054B12046FFF734FE42464946DD
:104F40000290FBF781F902A8FFF784FE2046BDE836
:104F5000FE8338B50D4601880024A94209D940686E
:104F600038B1FFF71FFE009050F825406846FFF764
:104F700071FE204638BD10B50024FFF7EAFF10B1DE
:104F8000FFF710FE0446204610BD70B50C460546DE
:104F900001F0B8F8C1B223462846BDE870400022AF
:104FA000AFF30080F0B52D271C68B0F1004F08D09A
:104FB000002600280DDA651C1D6027704042012480
:104FC00008E0651C01261D606FF000402770491E37
:104FD00001E00024091BC9B22AB3491EC9B222E06C
:104FE0000C46491EC9B2944205D1124C27781C6860
:104FF000651C1D602770104C54F8215090FBF5F48F
:10500000E4B20A2C11D804FB150011B90EB1641CCE
:10501000E4B20A2C02D10124491CC9B21D686F1CDC
:1050200030341F602C700029DAD119680020087014
:10503000F0BD00006C070020B005070810B500287F
:1050400007DD0A682B24531C0B60147009680022CA
:105050000A7010BD034900EB800001EB800040792D
:105060007047000040E5012002480068407C00F0E5
:1050700003B800007807002070B5054600EB8501F5
:105080001048002600EB81046671236953B150F883
:105090002100E26881684068521AA168091A18461E
:1050A00001F016FF284600F081FF18B1002102F040
:1050B0000BF805E02079002803D0206901F0C0FE3C
:1050C000267170BD40E5012002490968497C00F065
:1050D00003B80000780700202DE9FC5F04468946EC
:1050E000084600F063FF2B4E09EB8907824656F80D
:1050F0002700019028484FF00108016841B926496E
:10510000C0F80080091D25480860084603F064FBCC
:10511000204A09EB89015FEA0A0002EB81051BD0F6
:1051200001F05EFF83464FF07F4001F0A7FF00F0E3
:10513000B5F800221146206800F0DEFB20684288A6
:105140000188504601F0BEFF46F8274085F80580EB
:10515000584601F045FF17E046F8274085F80580DE
:105160002869464618B101F04DFE0020286174B14F
:105170000096E868A1684B46421AA8686168411A1F
:10518000206801F0C9FE286148461CF02FFF0198F5
:10519000BDE8FC9F40E50120B8070020A9E7010811
:1051A000024A1268527C00F003B800007807002021
:1051B00070B506460D461446104600F0F7FE030093
:1051C000164804EB84010AD050F821004168806839
:1051D000711A2A1ABDE87040184601F071BF00EB41
:1051E0008104A268B24201D0012200E00022E368FB
:1051F000AB4201D0012300E000231A430CD0236905
:1052000043B150F82100816840686A1A311A184683
:1052100001F05EFEC4E9026570BD000040E50120BA
:1052200002480068407C00F003B8000078070020C6
:1052300030B4094900EB800201EB82040123637161
:1052400051F8221011B130BC1CF0D0BE014630BC68
:105250000248FFF741BF000040E50120E0A6060834
:1052600010B5C2B2CBB2D21A00D5524293B25B4350
:10527000C0F30722C1F30724121B00D55242000CD1
:1052800092B2A0EB114002FB023200B2002801DA18
:10529000404200B280B200FB002010BD10B50021DA
:1052A000084600F0F3FE43F6FF725042BDE810409E
:1052B00013460146AFF300802DE9FC4107461C462A
:1052C00015460E46042006F0C5F880461148C06811
:1052D000C16C006D0F4406440D440444ADF80070E9
:1052E000ADF80450ADF80260ADF8064068460EF027
:1052F0004FF807E023462A463146384605F0B0FB12
:105300000DF0C4FF0028F5D1404606F0A3F8BDE833
:10531000FC8100006C070020B0F90630B0F90420D1
:10532000B0F90210B0F90000FFF7C6BF05F02CB8C5
:105330002DE9F8431C00DDE9089816460F4605469E
:1053400002D10CF049FF044600962E6843464A46B7
:1053500021462846B047060035D00CF031FF814683
:10536000698A30460CF002FB30460DF067FE484675
:105370000DF064FE4FF000080CE000BFCDF8008097
:1053800055F81CCF00231A4649462846E047E0B1AD
:105390000DF054FE7F1E002FF0DC1D2148460DF05D
:1053A000C4FC601C0ED00CF047FF30B1FFF76AFC64
:1053B0008469B44201D02000F8D1B44202D0304612
:1053C0000DF09EFD3046BDE8F88330460CF02CFE13
:1053D0000020F8E72DE9F0411C4616460D46074629
:1053E000022B02DB0020BDE8F0811C20FFF74AFB06
:1053F0000028F8D00DB105610AE0094A52F82410DE
:1054000009B905E011460A68002AFBD10969016162
:1054100084618682002101604160C0E90217E2E7F1
:105420009007002070B51D46FFF7D4FF040009D097
:1054300000F00EF8E068006820B90348006800EB4F
:1054400085008465204670BD78070020FFF7F8BA14
:1054500070B590B38269022A30DA1E4C54F82210DB
:1054600019B944F8220032E019464B68002BFBD1F1
:1054700006E0CB68C5681B682D68AB4203DD096890
:105480000029F6D11AE0C1B1CB68C6681B6836683E
:10549000B3420CD1838A012B05D008E01946DB68A2
:1054A0001B68AB4203DB0B68002BF7D129B14B68BB
:1054B00033B118604A68426004E0FFE7012070BD24
:1054C00044F822004860884200D100210160002099
:1054D00070BD0000900700201DF050BA022801DBCB
:1054E00000207047054A52F8200004E0C2681268A4
:1054F0008A42F6D000680028F8D170479007002053
:10550000022801DB00207047054951F8200004E023
:10551000C16809680029F6D000680028F8D17047F2
:10552000900700202DE9F8431D46164688460400E2
:105530000CD0FFF737FB0090006807686846FFF75C
:1055400089FB2B46324641462046B847BDE8F883E2
:1055500038B504004FF000000AD02046FFF722FBC8
:105560000090006845686846FFF774FB2046A8472E
:1055700038BD38B504004FF000000AD02046FFF7D0
:1055800011FB0090006885686846FFF763FB2046C2
:10559000A84738BD70B5044602F09CF9051908E02B
:1055A00000F03EFC052C01DD052000E0204602F065
:1055B00085F902F08FF92C1A002CF1DC70BD000087
:1055C000024B1B6859849A84FBF7F4BC78070020CF
:1055D0007FB51E4614460D46CDF80CD003AB002215
:1055E0003146FFF7DFFC22462946684600F0B2F854
:1055F0007FBD1FB503ABCDF80CD0FFF7D3FC6846D9
:1056000000F028F81FBD002110F004BB00B500F029
:10561000D7FC044909688A8C10448884088C488423
:1056200000BD0000780700207FB50C461546CDF878
:105630000CD003A9FFF702FD002801DD641EE4B2CF
:1056400003AB2A462146FFF7ADFC684600F002F89E
:105650007FBD00002DE9FC4706005BD000F0B0FCE8
:105660003B4C81462068B0F9228000F0DDFC2168C7
:1056700007468A8CD01B888441E000BF47F6FF7143
:10568000304602F03FFF82460146304602F010FFEE
:105690002168054691F82C0000F0030001283FD056
:1056A000022839D000204A8C101A4884ADF8000036
:1056B0006A1E1044ADF80400888CADF80200A9F110
:1056C00001010844ADF806006A465146304602F032
:1056D0003BFB2168BDF8020088845146304601F04A
:1056E000BDFF064430780A281CD00D281AD0BDF81A
:1056F0000000216828444884307818B1761C30783E
:105700000028BBD12068818C39448184818D21F0AF
:1057100003018185BDE8FC8705EBD5704010C2E729
:105720002846C0E7206890F82C1001F003010129F9
:105730000BD0022909D0018C418431780A29DBD1B0
:10574000828C02EB09018184D6E7A0F82280F4E77D
:1057500078070020024B1B6859849A84FFF77ABFB0
:10576000780700202DE9F04107460A4815460E4605
:105770000068B0F92C0040F0020001F0D3FC0446B0
:105780002A4631463846FFF7E5FF2046BDE8F0419E
:1057900001F0C8BC7807002047F6FF73AFF3008024
:1057A0002DE9FC411F46904606000D464FF00004CF
:1057B00016D065B108460DF023FC040007D0024660
:1057C0002946684602F00BFF68460DF019FC3B467F
:1057D00042462946304602F00FFB20460DF010FCF1
:1057E000BDE8FC812DE9FF4F87B090468946070050
:1057F00079D00C68D9F8045021B228B2401A401C64
:10580000029000F0DDFB064618F00C0F1ED0384663
:105810000A9A029902F02BF808F00C01042904D02E
:10582000082902D00C2911D104E0291400FB16101C
:10583000401C09E02114C1EB254200FB1620401C4E
:1058400000EBD07001EB600060F31F4448460DF0A0
:10585000D7FB5FEA000B09D00246494604A8CDE910
:10586000044502F0BCFE04A80DF0CAFBA6F1010A33
:1058700038460A9A029903F069F803900AEB24402B
:1058800060F31F45CDE900453846039902F010FE4C
:1058900018F003010ED0012928D002290ED1B9F940
:1058A0000420B9F90010521A101A00EBD07001EB65
:1058B000600001E0B9F80000ADF800006A46384623
:1058C000039902F041FA38460A9A029903F034F833
:1058D000074406EB244060F31F4438780028C7D102
:1058E00058460DF08DFB0BB0BDE8F08FB9F80410F1
:1058F000081A401CE0E700007CB506461048006826
:10590000C36C006D5D1884183188681E0844ADF8BA
:105910000400ADF800507188601E0844ADF8060020
:10592000ADF8024068460DF033FD06E022462946F8
:105930003046FCF709FD0DF0A9FC0028F6D17CBD2E
:10594000780700202DE9FF4F324F98460446B0F803
:1059500000B0B0F802A0C66838682F4B89B0427C0E
:105960001B68DDF85890214630469847050005D160
:10597000E088012800D001E03868856B1EB13079DD
:1059800008B1022000E0002001F08EFB069038688C
:105990000A99C26C5718016D0B98ADF81C700E185F
:1059A000781E0BFB0800ADF82000701E0AFB0900F2
:1059B000ADF82200ADF81E6007A80DF0E9FC20E06C
:1059C000206968B1D4E9023CCDE9003CCDE9028907
:1059D000D0F800C06388228831463846E0470EE0A0
:1059E000A188E288A068CDE90221CDE904055346EB
:1059F0005A4631463846CDE9008904F03FFD0DF0A6
:105A000045FC0028DCD106980DB0BDE8F04F01F050
:105A10004BBB000078070020700700207CB51446BF
:105A20000F4A1268D36C1E18106D4518301BADF864
:105A300000003019ADF80400281BADF80200281949
:105A4000ADF8060068460DF0A3FC06E022462946A4
:105A50003046FCF7C7FC0DF019FC0028F6D17CBDE0
:105A6000780700201CB50A460146684602F0A6FEEB
:105A70002448BDF80010006830F84C2F1144ADF8F0
:105A80000010BDF8021082881144ADF80210BDF874
:105A9000041002881144ADF80410BDF80610808887
:105AA0000844ADF8060068460DF072FC27E000BF20
:105AB000BDF900400BE000BFBDF90210204604F024
:105AC00059FEBDF90610204604F054FEA41CBDF991
:105AD0000400A042F0DABDF902400AE0BDF900007E
