:020000040800F2
:10000000580800209D0100081F36000871230008D1
:100010001D3600080F050008F15C00080000000014
:10002000000000000000000000000000233600086F
:1000300011050008000000002136000825360008E0
:10004000B7010008B7010008B7010008B7010008B0
:10005000B7010008B7010008B7010008B7010008A0
:10006000B7010008B7010008B7010008B701000890
:10007000B7010008B7010008B7010008B701000880
:10008000B7010008B7010008B7010008B701000870
:10009000B7010008B7010008B7010008B701000860
:1000A000B7010008B7010008B7010008B701000850
:1000B000B7010008B7010008B7010008B701000840
:1000C000B7010008B7010008B7010008B701000830
:1000D000B7010008E55C0008B7010008B701000897
:1000E000B7010008B7010008B7010008B701000810
:1000F000B7010008B7010008B7010008B701000800
:10010000B7010008B7010008B7010008B7010008EF
:10011000B7010008B7010008B7010008B7010008DF
:10012000B7010008B7010008B7010008B7010008CF
:10013000B7010008B7010008B7010008B7010008BF
:10014000B7010008B7010008B7010008B7010008AF
:10015000B7010008B7010008B7010008B70100089F
:10016000B7010008B7010008B7010008B70100088F
:10017000B7010008B7010008B7010008000000003F
:10018000B7010008B7010008DFF80CD000F090F9C3
:1001900000480047718A0008580800200648804738
:1001A00006480047FEE7FEE7FEE7FEE7FEE7FEE75C
:1001B000FEE7FEE7FEE7FEE7AD360008890100082E
:1001C0002DE9F05F0546002092469B46884606468C
:1001D000814640241BE0284641464746224600F01F
:1001E000F9F853465A46C01A914110D311461846A1
:1001F000224600F0E0F82D1A67EB01084F46224630
:100200000120002100F0D7F817EB00094E41201E15
:10021000A4F10104DFDC484631462A464346BDE8E6
:10022000F09F10B5431A934209D28318881803E04F
:1002300010F8011D03F8011D521EF9D210BD40EA4D
:1002400001039B0703D009E008C9121F08C0042A54
:10025000FAD203E011F8013B00F8013B521EF9D23B
:1002600010BDD2B201E000F8012B491EFBD270474D
:100270000022F6E710B513460A4604461946FFF772
:10028000F0FF204610BD2DE9FE4F81EA030404F083
:10029000004421F0004100944FF0000B23F0004394
:1002A00050EA01045ED052EA03045BD0C3F30A545F
:1002B000C1F30A552C44A4F2F3340194A0FB025478
:1002C000C1F3130141F48011C3F3130343F480130A
:1002D00001FB024400FB034E840A970A44EA81545E
:1002E00047EA8357A4FB076802958D0A05FB07853B
:1002F0004FEA932C04FB0C542705029D4FEA065845
:1003000047EA1637B5EB08056EEB070C870E920E21
:1003100047EA811742EA8312A7FB0201B6EB0B0101
:1003200064EB00042B0D43EA0C335E1844EB1C50C5
:10033000DA465146E7FB0201C5F313044FEA0B33DB
:1003400043EA14534FEA0432019C43EA0603A4F142
:100350000C040294009CCDE900B400F05AF803B0FC
:10036000BDE8F08F00200146F9E70EB540F23341B9
:1003700002910021CDE900110A460B4600F049F830
:1003800003B000BDC1F30A5210B5C1F3130140F22E
:10039000FF3341F480119A4201DA002010BD40F28F
:1003A00033439A42A2F2334203DC524200F012F885
:1003B00010BD904010BD202A04DB203A00FA02F163
:1003C000002070479140C2F1200320FA03F3194343
:1003D00090407047202A04DB203A21FA02F00021E5
:1003E000704721FA02F3D040C2F120029140084345
:1003F0001946704710B5141E73F1000408DA401C4A
:1004000041F1000192185B411A4301D120F0010033
:1004100010BD2DE9F04D92469B4611B1B1FA81F223
:1004200002E0B0FA80F220329046FFF7C4FF0446A3
:100430000F4640EA0A0041EA0B0153465A46084378
:1004400013D0114653EA010019D0C8F140025046BA
:10045000FFF7C0FF05460E46504659464246FFF795
:10046000AAFF084305D0012004E020463946BDE834
:10047000F08D0020054346EAE0762C4337430A9886
:100480006305E40AA0EB08000022FD0A44EA475491
:100490000A3002D500200146E9E70105101969413B
:1004A000DDE9084500196941BDE8F04DA2E700000B
:1004B000064C074D06E0E06840F0010394E80700B1
:1004C00098471034AC42F6D3FFF762FE18A9000833
:1004D00038A9000830B58C1810F8012B12F00F0362
:1004E00001D110F8013B120906D110F8012B03E0ED
:1004F00010F8015B01F8015B5B1EF9D101E001F826
:10050000013B521EFBD1A142E6D3002030BDFEE7E5
:100510007047704770B5B3F5804F05D06FF07041EC
:1005200040F82210002070BD50F82240084B8E8900
:100530001C40D1E9003543EA05138D6889692D0215
:1005400045EA06452B430B43234340F82230E9E7B5
:100550000000F0CFF0B50C6850F82430114A134079
:10056000D1E90125D1E903672A433E4332434E696D
:1005700032438E693243CE6932430E6A32434E6A49
:1005800032438E6A3243CE6A3243CE6B096B3243BA
:100590000A431A43082D01D142F0400240F82420BA
:1005A0000020F0BD8000F0FF30B500EB8202506803
:1005B0008D8900F04043D1E9000440EA04108C68C2
:1005C000240244EA054420430C8A074D05EB0454F9
:1005D00020430C7D6D0105EB0464896920430843C9
:1005E00018435060002030BD0000F0FF2DE9F04FAF
:1005F000DFF828B191B04FF0FF35DBF80030B3F9E8
:1006000022100691DE69B3F92490F469A189814230
:1006100006D8E289824203D3471AD4F8008012E058
:10062000D4E9018100296FD00A8882426CD84D88B4
:10063000854269D3801A82B2486800EB8200B0F923
:100640000070B0F90250781C5ED0307EA17C10FBA7
:1006500001FA217CCDE90701B3F92A60304602F0A6
:10066000F3FCC0B20E90DBF8000007FB0A81A37C0C
:10067000826B0127CDE90412CDE90273C069089AA3
:10068000C17E807ECDE90001DDE90603494601F027
:100690000DFF681C18D046F0020002F0D5FCDBF814
:1006A0000000A37C05FB0A81826BCDE90273CDE9D2
:1006B0000412C069089AC17E807ECDE90001DDE99F
:1006C0000603494601F0F2FEDBF800005D46C06912
:1006D000417E007E814214D9022E12D086F00400A1
:1006E00002F0B2FC2868C069027EC37E12FB03914F
:1006F000437E857E089A06984B4412FB050202F061
:10070000E9F80E9802F0A0FCDBF80000627C418C56
:100710001144418411B0BDE8F08F0000400000207A
:1007200004480068C069C06909B1027C0A60407C65
:100730007047000040000020022008807047C06918
:1007400082898A4202D8C2898A4210D2806880B1E6
:1007500002888A420DD843888B420AD3406800EB56
:100760008100A0EB8200B0F90000002801DB01202D
:1007700070470020704700002DE9F043304C0346DD
:1007800087B020681946B0F92A60C069C06900F0D6
:1007900086F8002850D041680088181A01EBC0057F
:1007A0003046AF7802F050FC814620686A68012329
:1007B000816BCDE90237CDE90421C169CB7E8A7E08
:1007C000CDE900230B7EB0F924102A78B0F922007D
:1007D00001F06CFE2068C069417E027E91421FD903
:1007E000C07E11FB00F812FB00F7022E18D000F0BB
:1007F000F3FA064600F0D8FA00F04AFC21682A789D
:10080000CB69B1F92200DB7E12FB0302B1F924109F
:1008100001EB0803394402F05DF8304600F038FC83
:10082000484602F011FC20686A78C369B0F92210CA
:100830009B7E12FB0311418407B0BDE8F0830000EA
:100840004000002030B50F4C05460B462068294675
:10085000C069C06900F023F8002812D04168008800
:1008600024682A1A0120E46900EBC200085CA47E17
:1008700010FB04F0002B04D011F8321011FB04F12E
:10088000196030BD4000002001200880704700B58D
:10089000C06900F004F8002800D0012000BD06E087
:1008A00002888A4202D842888A4202D2806800289E
:1008B000F6D17047002801D005F0C8BE704738B5A2
:1008C0000546FFF7F7FF040009D000F093F82A4629
:1008D0000021009000F098FE684600F0A7F820463E
:1008E00038BD0000024A106021F0030050607047DC
:1008F0002003002010B5002814D004460A48406B9D
:1009000010F8341000290DD002290BD2042101EB7C
:10091000C4014158486805F051FE2046BDE810402A
:1009200007F0A2BA10BD000060020020002805D028
:10093000034AD16B016001B14860D0637047000089
:10094000600200202DE9F041044607F079F92848BB
:10095000E41C24F00305016C2D1DA94200D90D46AD
:10096000C46B13E054F8042CAA420ED184B1216860
:1009700009B162684A60616809B122680A60C26BA5
:10098000A24231D12168C1632EE02468002CE9D154
:100990008046816BC0680F1857F8040C3E1A306807
:1009A00038B1002007F08EFA57F8040C3E1A306870
:1009B000D0B97068A84217DB3044441B3046241D70
:1009C00007F066FAD8F80C10491BC8F80C10D8F8D4
:1009D00014102944C8F814107068401B02D0314626
:1009E00005F0ECFD44F8045C2046BDE8F081000011
:1009F000600200200549CA69521CCA61496B01EBBB
:100A0000C0010A78521C0A7000F028B86002002069
:100A10000549102805D94A68B0EB520F02D3500897
:100A200000E0102088607047200300200A49026817
:100A30004B6B52F8082C03EBC2021378022B03D342
:100A4000CB690BB15B1ECB611178491E117000217F
:100A5000016008467047000060020020002806D0B0
:100A60000349042202EBC000496B08580830704764
:100A70006002002010B5C2B2CBB2D21A00D55242E9
:100A800093B25B43C0F30722C1F30724121B00D5C6
:100A90005242000C92B2A0EB114002FB023200B2B3
:100AA000002801DA404200B280B200FB002010BDF5
:100AB00010B50021084600F0C7F943F6FF72504216
:100AC000BDE8104013460146AFF300802DE9FC411C
:100AD00007461C4615460E46042002F0B5FA80462D
:100AE0001148C068C16C006D0F4406440D440444B5
:100AF000ADF80070ADF80450ADF80260ADF80640F6
:100B0000684605F0E5FB07E023462A4631463846AD
:100B100001F0E0FE05F09EFB0028F5D1404602F012
:100B200093FABDE8FC810000340000202DE9F0417B
:100B30001C4616460D460746022B02DB0020BDE888
:100B4000F0811C20FFF7FEFE0028F8D00DB10561F2
:100B50000AE0094A52F8241009B905E011460A686A
:100B6000002AFBD10969016184618682002101604C
:100B70004160C0E90217E2E75800002070B51D4649
:100B8000FFF7D4FF040009D000F00EF8E068006819
:100B900020B90348006800EB85008465204670BDDD
:100BA00040000020FFF7C2BE70B590B38269022AF0
:100BB00030DA1E4C54F8221019B944F8220032E001
:100BC00019464B68002BFBD106E0CB68C5681B6853
:100BD0002D68AB4203DD09680029F6D11AE0C1B1E6
:100BE000CB68C6681B683668B3420CD1838A012B78
:100BF00005D008E01946DB681B68AB4203DB0B68D5
:100C0000002BF7D129B14B6833B118604A684260B4
:100C100004E0FFE7012070BD44F8220048608842EC
:100C200000D100210160002070BD000058000020AC
:100C30000A4A816952F82130834202D1036842F89E
:100C40002130416809B102680A60016809B142684F
:100C50004A60002101604160704700005800002098
:100C6000022801DB00207047054951F8200004E00C
:100C7000C16809680029F6D000680028F8D17047DB
:100C8000580000202DE9FC4706005BD000F0ACF8CE
:100C90003B4C81462068B0F9228000F0ADF8216815
:100CA00007468A8CD01B888441E000BF47F6FF715D
:100CB000304600F0C1FB82460146304600F092FB10
:100CC0002168054691F82C0000F0030001283FD070
:100CD000022839D000204A8C101A4884ADF8000050
:100CE0006A1E1044ADF80400888CADF80200A9F12A
:100CF00001010844ADF806006A465146304600F04E
:100D000019FB2168BDF8020088845146304600F086
:100D100013FA064430780A281CD00D281AD0BDF8E2
:100D20000000216828444884307818B1761C307857
:100D30000028BBD12068818C39448184818D21F0C9
:100D400003018185BDE8FC8705EBD5704010C2E743
:100D50002846C0E7206890F82C1001F00301012913
:100D60000BD0022909D0018C418431780A29DBD1CA
:100D7000828C02EB09018184D6E7A0F82280F4E797
:100D800040000020024B1B6859849A84FFF77ABF09
:100D900040000020034951F82000C1688A6A0821F8
:100DA000104700005800002010B501F0C3FDBDE859
:100DB000104001F035BE000002490968C9694A685F
:100DC0000021104740000020024A1268D269526890
:100DD000104700004000002010B501F0B3FDBDE851
:100DE000104001F01DBE000002480068C069407E4E
:100DF00070470000400000200A490020096891F86F
:100E00002C2002F00C02042A07D0082A01D00C2A58
:100E100002D1C869007E40087047C869007E401E44
:100E20007047000040000020024951F8200000698E
:100E30000068704758000020024951F820000069FE
:100E4000406870475800002070B50D4606F052FE0D
:100E50000446284606F056FE204370BD2DE9F041B9
:100E60001948016821F001010160184801258560D9
:100E70001749016000681749884200D0FEE700F07A
:100E80003FFA154E2E20307000F0A7F9134806F0F7
:100E900089FE07F0A7FD074601F088FD10B101F0BB
:100EA0008FFD38B901F092FD044601F085FD214621
:100EB00002F0C4F80021084600F0FCF805F044F800
:100EC00075703846BDE8F081002000E00030024037
:100ED000C2A507F4CDB5E8B5340000202C030020EE
:100EE00038B5040018D00D480068006EA04201D14A
:100EF00000F0ABF82046FFF77DFD0090406908B197
:100F000000F042F900980068FFF74CFE6846FFF7D2
:100F10008DFD2046FFF7EEFC38BD000040000020AC
:100F200038B5002460B1FFF765FD009000680069E6
:100F30008068804702F034FA04466846FFF776FD81
:100F4000204638BD38B5002808D0FFF753FD00F122
:100F5000180400906846FFF769FD204638BDF8B5D3
:100F600016460F46050012D0FFF744FD0090446975
:100F70006846FFF75BFD2846FFF7D2FF03460828C7
:100F800000DD2CB132463946284607F045F9F8BD58
:100F900032463946284607F0DFFAF8BD10B500287A
:100FA00021D009B30AB3B1F90040B2F900309C4234
:100FB00000DA23460380B1F90240B2F902309C42C4
:100FC00000DA23464380B1F90440B2F904309C4270
:100FD00000DD23468380B1F90610B2F90620914264
:100FE00000DC1146C18010BD11460A6802604968E4
:100FF000416010BD00280BD003880B440380838818
:1010000019448180418811444180C1881144C180C4
:101010007047B0F90220B1F906309A4213DCB1F9F9
:101020000220B0F906309A420DDCB0F90020B1F987
:1010300004309A4207DCB1F90010B0F90400814293
:1010400001DC012070470020704710B501F00AFF55
:1010500002F042F8BDE8104004F04CBE70B5094DF6
:101060000446022C2868467C09D22046FFF7F8FD8A
:1010700028B128684474FFF7E8FF0348046030464D
:1010800070BD0000400000209C00002001F00ABF5D
:1010900001F040BF01498860704700003400002023
:1010A00003490968CA6900B1C86110467047000069
:1010B00040000020094A30B41080094A1180094AD2
:1010C0001268537C084A52F82330DA68146A0A46D8
:1010D000A446014630BC1846604700006800002066
:1010E0006A000020400000205800002002480068EC
:1010F000002800D0004770472001002002498A687C
:1011000002B98860FFF7F2BF100100202DE9F0411D
:10111000084E044605683068016828468847074637
:101120003068416828468847284420603846BDE832
:10113000F0810000440000202DE9F0410C460646F5
:101140000025064F05E03868416830468847064468
:101150000544641EF7D22846BDE8F0814400002013
:101160002DE9F0411E46069C1746884605463A463C
:10117000A8687F1C3346D0F804C041462846E047A3
:10118000641EF4D1BDE8F08138B50546FFF732FCA6
:1011900000908189491E0CB284816846FFF746FCA5
:1011A000002C02D12846FFF7A5FB38BD084910B531
:1011B0004FF0D04008604FF4FA21FFF793FB8020F6
:1011C000FFF726FCBDE810400248FFF763BF0000B0
:1011D000200000202C9200087047704710B5082AA4
:1011E0000EDC0346012A18D0022A56D0042A76D0F3
:1011F00010F8042B03F8012B491EF9D1012010BD72
:10120000102A08DC4FEA000230F8043B22F8023BC7
:10121000491EF9D1F2E7002010BD10F8042BD207C7
:10122000120E491E34D010F8044B491E04F001047C
:1012300042EA84122CD010F8044B491E04F0010439
:1012400042EA441224D010F8044B491E04F0010471
:1012500042EA04121CD010F8044B491E04F00104A9
:1012600042EAC40214D010F8044B491E04F00104F1
:1012700042EA84020CD010F8044B491E04F0010429
:1012800042EA440204D010F8044B04F00104224363
:1012900003F8012B0029C0D1B0E710F8042B920706
:1012A000120E491E15D010F8044B491E04F0030419
:1012B00042EA04120DD010F8044B491E04F0030456
:1012C00042EA840205D010F8044B04F003042243E0
:1012D000491E03F8012B0029DFD18FE7FFE710F843
:1012E000042B1207120E491E05D010F8044B04F00F
:1012F0000F042243491E03F8012B0029EFD17DE79B
:101300000A4810B5816900290ED101218161FFF7DA
:101310004DFF01F01BFF054905481C310860BDE881
:101320001040084600F068B910BD000034000020ED
:10133000B57D00087CB5064628480D46006868B1B2
:10134000002004F0C5FF06E06A462946304605F055
:101350008FFA04F07FFF0028F6D17CBD1068009062
:101360001F4C506801902268BDF8000032F84C1FF5
:101370000844ADF80000BDF8020091880844ADF8BB
:101380000200BDF8040011880844ADF80400BDF85F
:10139000060091880844ADF80600684604F098FFFE
:1013A0000EE000BF2068BDF800106A464184BDF819
:1013B000021081842946304605F05AFA04F04AFFAB
:1013C0000028EFD1206830F8221F428D891A018051
:1013D0004188C28D891A41807CBD000064000020D4
:1013E0004000002073B5124A01A900981268904786
:1013F00000240090C8B10F4900250968C9694969EE
:1014000059B10A684AB1019990477CBD6846FFF717
:101410007DFE0546FFF7D0FC04440198401E019074
:10142000F4D5284600F024F8044420467CBD000092
:101430000C0100204000002073B50D4600980024E8
:1014400090B10A490968C969496959B14A684AB1FC
:10145000294690477CBD6846FFF758FE20B10A2810
:1014600002D0641CAC42F6DB20467CBD400000206C
:1014700038B5002469460094FFF7A6FC0099814224
:1014800000DD0C1A204638BDB0F90030B1F900205B
:10149000934200DA0280B0F90230B1F9022093429F
:1014A00000DA4280B0F90430B1F90420934200DD43
:1014B0008280B0F90620B1F906108A4200DDC180B1
:1014C000704770B5B1F90040B2F900309C4200DDC0
:1014D00023460380B1F90250B2F90240A54200DD73
:1014E0002C464480B1F90460B2F90450AE4200DAEF
:1014F00035468580B1F90610B2F90620914200DB2D
:101500001146C1809D4201DBA14201DA002070BD7D
:10151000012070BD014602480068407C00F002B81E
:10152000400000202DE9F8430126894604460228A0
:101530005DDA304F7A6802B190472E4D5FEA0900BC
:1015400005F1100532D0012803D0B9F1020F4ED1B8
:1015500018E055F8240088B92046FFF781FB009079
:1015600018B3C0680D21426A6846904702003ED019
:1015700049460098904755F824000026401C45F83D
:10158000240034E02046FFF76BFB009068B1C06890
:101590000D21426A68469047040028D0386800B19F
:1015A000804749460098A047002620E055F82400CF
:1015B000A846012812D12046FFF752FB009068B1DF
:1015C000C0680D21426A68469047050006D0386819
:1015D00000B1804749460098A847002658F82410D3
:1015E00009B1012200E00022891A48F8241030468F
:1015F000BDE8F883F400002002494A69426048616E
:10160000704700003400002010B502E000F8011B14
:10161000521E0AB18307F9D1930818D001EB014497
:1016200002F0030204EB042406E010C01B1F10C0EC
:1016300040F8084B40F8044C042BF6DA01E010C0E7
:101640005B1E002BFBD102E000F8011B521E002A9A
:10165000FAD110BD10B5830702D520F8021B521E27
:10166000530811D001EB0144042B09DB10C01B1FF0
:1016700010C0042B40F8084B40F8044CF6DA01E0A7
:1016800010C05B1E002BFBD1D20700D0018010BD23
:1016900010B5040002D0607910B106E0012010BD41
:1016A00000202071204600F005F801206071002024
:1016B00010BD000008B500680649884208D10648F8
:1016C000016841F480510160006800F4805000908E
:1016D00008BD0000003002403038024090F835105C
:1016E000022903D08021416501207047052180F83F
:1016F00035100068016821F0010101600020704789
:1017000070B5044600F044F90546601C02D0044858
:101710000078044400F03CF9401BA042FAD370BDAD
:1017200010000020F0B587B014216846FEF7A0FD38
:101730002048016800293AD1012101601E48002497
:10174000016841F0010101600068022500F001001C
:1017500005904FF23F00CDE9000502AA03260C27B1
:1017600082E8D0006946154800F030F841F23F4069
:10177000CDE9000502AA694682E8D000104800F0D1
:1017800025F84FF68370CDE9000502AA694682E884
:10179000D0000C4800F01AF84FF63370CDE9000580
:1017A00002AA694682E8D000074800F00FF807B0A7
:1017B000F0BD00000800002038380240001402404C
:1017C0000018024000100240000C02402DE9F84FC2
:1017D00000224FF0010803254FF00F0E0B6808FAA6
:1017E00002F42340A3426ED14E68012E05D0022E92
:1017F00003D0112E01D0122E12D186684FEA420C6E
:1018000005FA0CF7BE43CF6807FA0CF73743876039
:101810004668A6430C79C4F30014944034434460F2
:10182000C668570005FA07FC8C6826EA0C06BC401F
:101830003443C4604C68022C01D0122C13D1D4085C
:1018400000EB8404A346D4F8209054074FEAD46AEE
:101850000EFA0AF629EA06090E6906FA0AF646EAB7
:101860000906CBF8206006680C7926EA0C0604F01D
:101870000304BC40344304604C68E40065D5364C36
:10188000266846F480462660246822F0030604F4A5
:1018900080440094314C3444A446D4F80848960758
:1018A000370F0EFA07F6B4432D4EB04201D1002691
:1018B00024E02C4EB04201D101261FE02A4EB04256
:1018C00002D102261AE040E0284EB04201D10326A0
:1018D00014E0274EB04201D104260FE0254EB0425D
:1018E00001D105260AE0244EB04201D1062605E0CA
:1018F000224EB04201D1072600E00826BE40264312
:10190000CCF808681E4E34684F689C43FF0300D52E
:101910001C4334601A4C241D26684F689E43BF0345
:1019200000D51E432660164E083634684F689C4327
:10193000FF0200D51C433460114E0C3634684F68EA
:101940009C43BF0200D51C433460521C102AFFF494
:1019500045AFBDE8F88F0000443802400030014038
:10196000000002400004024000080240000C024057
:10197000001002400014024000180240001C024007
:10198000003C01400AB1816170470904FBE7000097
:1019900001488068704700001000002002488168FC
:1019A0000278114481607047100000200B4810B588
:1019B000016841F400710160016841F480610160D7
:1019C000016841F480710160032000F06FF800208D
:1019D00000F006F800F024F8002010BD003C0240A2
:1019E00070B50D4D04464FF47A712878B1FBF0F0D4
:1019F0000A490968B1FBF0F000F02FFB48B9102C40
:101A000007D200222146501E00F030F800206C6002
:101A100070BD012070BD0000100000201C000020DF
:101A20000A4808B5016841F480410160006800F48B
:101A3000804000900548001F016841F0805101601E
:101A4000006800F08050009008BD0000443802405B
:101A5000002809DB00F01F020121914040098000AD
:101A600000F1E020C0F8001170470000F0B40E4B08
:101A70001B680C46C3F30223C3F10705042D00D9EC
:101A80000425191D072901D2002300E0DB1E0126D1
:101A900006FA05F1491E214099409E40761E1640E7
:101AA0003143F0BC06F056BF0CED00E0064900F0F3
:101AB000070208684FF6FF03184040EA0220034A75
:101AC00010430860704700000CED00E00000FA05CC
:101AD0002DE9F0470E46050065D0DFF81481D8F8EF
:101AE0000000F7B200F00F00B04207D288F8007093
:101AF000D8F8000000F00F00B04254D128683D4CE7
:101B0000810712D5400703D5206840F4E0502060DB
:101B10002878000703D5206840F4604020602068E2
:101B2000A96820F0F000084320602878C0072DD075
:101B3000304968680839012812D0022813D00328D8
:101B400011D00968890700292DDA216821F00301E5
:101B500001432160FFF71CFF814641F2883A0EE005
:101B600009688903EFE709688901ECE7FFF710FFCF
:101B7000A0EB0901514502D90320BDE8F087206898
:101B8000696800F00C00B0EB810FEFD1D8F80010BD
:101B9000404601F00F01B14207D90770006800F01C
:101BA0000F00B04201D00120E7E72878400705D5B3
:101BB0002068E96820F4E050084320602878000796
:101BC00006D52068296920F4604040EAC100206001
:101BD00000F038F82168084AC1F30311515CC8408D
:101BE0000649086006480068FFF7FAFE0020C4E7CF
:101BF000003C024008380240CC8A00081C0000204B
:101C0000140000200448054900680968044AC1F32B
:101C10008221515CC84070471C00002008380240F7
:101C2000DC8A00080448054900680968044AC1F3D1
:101C30004231515CC84070471C0000200838024007
:101C4000DC8A0008154810B5006810F00C02144832
:101C500013D04110042A0FD0082A0ED10F4C241F94
:101C60002268236802F03F025B0207D52068C0F3B8
:101C70008810A0FB010106E0084610BD2168C1F3F1
:101C80008811A1FB00010023FEF79AFA2168C1F335
:101C90000141491C4900B0FBF1F010BD0838024079
:101CA0000024F4002DE9F84F04006ED02078DFF80E
:101CB0003C93C007A9F104054AD009F1040001686A
:101CC000C1F38101012908D00068C0F38100022816
:101CD0000AD1D9F80000400206D52868800337D51C
:101CE00060680028E1D033E06068B0F5803F10D034
:101CF000B0F5A02F286810D020F480302860286824
:101D000020F4802028606068A8B1FFF741FE0646F5
:101D10000DE0286840F48030F4E740F4802028602B
:101D2000F7E700BFFFF734FE801B642873D82868EC
:101D30008003F7D50CE0FFF72BFE064605E000BF59
:101D4000FFF726FE801B6428F0D828688003F7D4AC
:101D50002078DFF89C8280074FF0000A3ED5A34828
:101D6000001D016811F00C0F08D00068C0F381005D
:101D700002280BD1D9F80000400207D42868800758
:101D800016D5E068012800D112E02BE1E068B8B177
:101D90000120C8F80000FFF7FBFD064605E000BF84
:101DA000FFF7F6FD801B0228C0D828688007F7D50A
:101DB0002868216920F0F80040EAC10028600DE0A1
:101DC000C8F800A0FFF7E4FD064604E0FFF7E0FDD9
:101DD000801B02281FD828688007F7D420780007C6
:101DE00022D5824E83486169703671B1012101604C
:101DF000FFF7CEFD074604E0FFF7CAFDC01B02282F
:101E000009D830688007F7D50EE0C0F800A0FFF7CA
:101E1000BFFD074605E082E0FFF7BAFDC01B0228C0
:101E20007DD830688007F7D42078400768D5DFF880
:101E3000BCB100270BF13C0BDBF80000C0000BD459
:101E4000DBF8001041F08051CBF80010DBF8000007
:101E5000012700F080500090674E3068C00510D414
:101E6000306840F480703060FFF792FD009005E02C
:101E7000FFF78EFD0099401A022850D83068C0053F
:101E8000F6D55A4EA0686C3601280FD00528306868
:101E900010D020F001003060306820F00400306085
:101EA000A068B8B1FFF774FD00900FE0306840F013
:101EB0000100F4E740F004003060F7E7FFF768FD49
:101EC0000099411A41F28830814266D83068800713
:101ED000F4D50EE0FFF75CFD009007E0FFF758FD3A
:101EE0000099411A41F28830814256D83068800703
:101EF000F4D42FB1DBF8001021F08051CBF80010A2
:101F0000A069C8B33949091D0968C1F381010229D3
:101F10004AD00228504607D0C8F8600000E03CE0F4
:101F2000FFF736FD04463BE04746C8F86000FFF780
:101F30002FFD064605E000BFFFF72AFD801B0228A3
:101F40002BD828688001F7D4D4E907010843A16A97
:101F50002A4A490802EB0141626A41EA82110843B8
:101F600094F82C1040EA0161C9F80010012038668D
:101F7000FFF70EFD044606E036E000BFFFF708FD60
:101F8000001B022809D828688001F7D52CE000BF83
:101F9000FFF7FEFC001B022802D90320BDE8F88FE2
:101FA00028688001F4D41FE00128F7D0D9F8000098
:101FB000E26900F48001914214D1226A00F03F01ED
:101FC00091420FD147F6C071626A0140914209D136
:101FD000A26A00F44031914204D1E16A00F07060DD
:101FE000884201D00120D9E70020D7E70438024019
:101FF00000004742800E4742007000400000FFFF93
:1020000070B515460E46040003D094F8490010B18F
:1020100007E0012070BD002084F84800204600F051
:102020001AF804F108012068FEF794FA3146A26814
:102030002068FEF7B9FAD4E901022946236BFEF7BE
:1020400069FAA168206850F8212042F0010240F8A6
:102050002120002070BDFFF765BB10B5401EB0F118
:10206000807F01D3012010BD4FF0E02460610F217B
:10207000601706F06FFC0020A0610720206100209F
:1020800010BD000070B590F83C20012A32D0012428
:1020900080F83C40022280F83D2003685A689D6821
:1020A00022F070060A6832435A60134B02689A4263
:1020B00014D0B2F1804F11D0104B9A420ED0104B79
:1020C0009A420BD00F4B9A4208D00F4B9A4205D040
:1020D0000E4B9A4202D00E4B9A4204D1496825F029
:1020E00080031943916080F83D40002180F83C1046
:1020F000084670BD022070BD000001400004004091
:1021000000080040000C0040000401400040014075
:102110000018004010B5040003D094F83D0010B141
:1021200007E0012010BD002084F83C00204600F0AC
:102130000DF8022084F83D00211D206803F046FCC4
:10214000012084F83D00002010BD000008B50068A3
:102150000649884208D10648016841F02001016023
:10216000006800F02000009008BD0000001400404E
:10217000403802407047000070B50268044610689D
:10218000D168536910F00F0F52D003F0010501F42C
:1021900090762E435FD0C20705D0CA0503D5E26B07
:1021A00042F00102E263420705D5DA0703D0E26B91
:1021B00042F00202E263820705D5DA0703D0E26B40
:1021C00042F00402E263020707D501F020022A432D
:1021D00003D0E26B42F00802E263E26B002A33D0E4
:1021E000800604D5880602D5204603F069FC2068E5
:1021F0004069E16BC0F38010090700D428B3204682
:1022000003F050FC2068416949061AD5416921F064
:1022100040014161606BA0B11B490165606BFFF734
:102220005DFA002810D0606B016DBDE87040084772
:10223000830610D58B060ED52046BDE8704003F00E
:102240003FBC2046FFF796FF70BD2046FFF792FF88
:102250000020E06370BD030606D50B0604D52046BA
:10226000BDE8704003F00CBD4006F3D54806F1D53B
:10227000D168204621F04001D160202184F8391036
:1022800000F075F870BD0000955A000870B50400A4
:1022900004D094F83900002510B106E0012070BD8B
:1022A00084F83850204600F023F8242084F83900C0
:1022B0002068C16821F40051C160204603F04CFC45
:1022C0002068016921F4904101612068416921F091
:1022D0002A0141612068C16841F40051C160E56391
:1022E000202084F8390084F83A00002070BD0000F6
:1022F00010B586B0044614216846FDF7B9FF1849A9
:102300002068884229D117480021026842F0100253
:102310000260006800F0100005901248143802684E
:1023200042F001020260006800F0010005904FF4E5
:10233000C06000900220CDE9010103200390072036
:10234000049069460848FFF741FA0022114625200B
:10235000FFF78CFB2520FFF77BFB06B010BD0000CC
:1023600000100140443802400000024070477047AE
:10237000FEE7C0F34511C20AC00200EB4110104451
:1023800080B2704770B50B490646002408884D8816
:1023900021464543204600F0CFFD00F0C7FEB0B215
:1023A0004FF0D84103E000BFA1F88000641CAC42AC
:1023B000FAD370BD500200200449054A0968497CDF
:1023C00052F8211009690968084700004000002000
:1023D000580000202DE9F04F33492C240A4688711B
:1023E0002A2592882B2645F2105B4FF4305E4FF47D
:1023F00048774FF0F00949F2413A4FF4A07845F29E
:10240000103C4FF4F07358B1A1F80080A1F802908D
:10241000524501D0624529D10C814D818E8139E030
:10242000A1F80090A1F80280524501D0624508D180
:102430000C814D818E81624531D1A1F800804B80A5
:102440002DE05A4508D1A1F808E04FF42850488102
:102450004FF42C50888106E0A2F5C85063381ED195
:102460000C814E818D810B804F8018E05A4508D138
:10247000A1F808E04FF4285048814FF42C5088818F
:1024800006E0A2F5C850633804D10C814D818E81DD
:102490000F804B80624502D10B80A1F80280BDE81D
:1024A000F04F002000F002BC500200202DE9F04F58
:1024B00005468DB07B48DDF860901A9C00681E468A
:1024C00017464FF0000A78B11B9B199ACDF8089077
:1024D0000593CDE90324DDE91623CDE90023046843
:1024E00033463A46284680E0DDE9160201EB06084D
:1024F00005EB070C1043A8F10108ACF1010C012811
:1025000006D0C9F108000590002002910990C6E0AC
:1025100065480268B2F90A30581A002806DD361AF2
:10252000002E63DD1946199B00FB0344B2F90E002F
:10253000A8EB0000002802DD361A002E56DDB2F9A5
:102540000C00ACEB0000002800DD3F1AB2F90830A7
:102550000020AB4235DD581B3F1A4B46B9F1080F3E
:1025600026D006DC012B0BD0022B11D0042B28D156
:1025700016E0102B1ED0182B1FD0202B21D11CE0D1
:1025800020F0070304EBE0041D4400F0070018E00E
:1025900020F0030304EBA0041D4400F0030010E04E
:1025A00020F0010304EB60041D4400F0010008E08A
:1025B000044404E004EB400401E004EB800405441F
:1025C0000020002F12DD1B9BDDF864C0CDE9040361
:1025D000CDE90069CDE902C4527C34483B4650F84D
:1025E0002200C26854680A462946A0470DB0BDE8DB
:1025F000F08F1799029808440C902B49401E0090C8
:102600000A68B2F90A30834241DCB2F90E1002982E
:1026100081423CDB4FF0000BD84603950A9434E02E
:10262000BBF1000F05D10A984FF0080B10F801AB71
:102630000A900599ABEB090B3AFA01F00AFA09F195
:1026400001F0FF0A04D118490968097C890716D4EA
:1026500015490968C96B0A680B921B9A0AB152F8AE
:102660002000086016990398009B4218521E029998
:1026700000F030F90C490B980968C96B08600399A0
:10268000169808F1010808440390B845C8DB09987A
:10269000401C09900C980290199804440998B04283
:1026A000A7DBA3E7640000204000002058000020C2
:1026B000F0B40C4612490968B1F90A30A3421CDC97
:1026C000B1F90E30A34218DBB1F90830834200DDC6
:1026D0001846B1F90C30934200DA1A4682420CDBFC
:1026E0004B7C084951F8235013462246E9688E680E
:1026F00001462846B446F0BC6047F0BC7047000075
:1027000040000020580000200A46174930B40968EC
:10271000B1F90A30934225DCB1F90E30934221DB46
:10272000B1F9083083421DDCB1F90C30834219DB6A
:102730000B7C0E4CDB0709D0497C54F82130D9685A
:10274000CC690146A44630BC18466047CB6B497C37
:102750001B6854F82140E1688D6901462046AC466B
:1027600030BC604730BC704740000020580000205B
:102770002DE9F043444C91460246A08823460D467D
:102780004FEA1128160A5B89A0F51341413917D089
:10279000A0F5A641103913D0A0F5AA41103914D0E4
:1027A0002646A0F5C857B1793688B61A761E633F1B
:1027B00025D0A0F5D047043F3DD0012951D051E0AC
:1027C000184600F0A7FC30463CE0184600F0A2FC9A
:1027D000304600F093FC6089401C80B200F09AFC07
:1027E000D0B200F08BFCA08900F094FC404600F0D1
:1027F00085FCA089401C80B200F08CFC2DE001B962
:10280000B2B2184600F086FC160A304600F076FC9C
:10281000D0B200F073FC304600F070FCD0B200F093
:102820006DFCA08900F076FC404600F067FCE8B241
:1028300000F064FC0EE0012900D1B2B2184600F0AD
:1028400069FC100A00F05AFCD0B200F057FCA089D5
:1028500000F060FC404600F051FCE8B200F04EFC95
:1028600008E0B2B21146184600F06AFCA089294679
:1028700000F066FC4FF0D840218920F87E1FA0F8B8
:102880000290BDE8F0830000500200202DE9F043E3
:102890008146A2EB09020798521C1F4695B20C46CE
:1028A00086B24FF0D84811E02146484600F044FB7C
:1028B00000F03CFC0020414604E000BFA1F880602D
:1028C000401C80B2A842F9D3641CA4B2BC42EBD92C
:1028D000BDE8F08338B5134C2468B4F9085085423C
:1028E00000DD2846B4F90C50954200DA2A468242AF
:1028F00017DBB4F90A508D4200DD2946B4F90E50B9
:102900009D4200DA2B468B420BDB0093647C064B26
:1029100053F82440E3681D6913460A4601462046E1
:10292000A84738BD4000002058000020082105F0CD
:1029300051B8000002480068806B006870470000D2
:102940004000002002480068C06B0068704700002B
:1029500040000020024809210068407C05F03AB898
:1029600040000020092105F035B870B500252C463F
:102970002046FEF775F900B16D1C641C022CF7DBD4
:10298000284670BD02480068407C00F003B8000093
:102990004000002010B5FEF763F9002805D0C1689B
:1029A000CA6ABDE810400221104710BD0148006806
:1029B0007047000074000020012005F04EB80000B0
:1029C000014840687047000074000020022005F0B4
:1029D00044B800F001B800002DE9F041002809D00A
:1029E000876837B10D4E716819B10468B4F5807FFE
:1029F00002DD0020BDE8F0813068844200DD04463D
:102A0000002507E057F82500FFF7D6FC716841F86C
:102A100025006D1CA542F5DB7068EBE78000002007
:102A20000449054A0968497C52F821100969496836
:102A300008470000400000205800002010B500F0BA
:102A40001F01074A074BC0F34514C0F3C4201B5DA8
:102A5000105C515C00EB032000EB014010BD000056
:102A60007CA500089CA5000810B50A4C606860B9F8
:102A700020688000FDF766FF606040B104F1080146
:102A8000054808600846FEF7B7FD002010BD01208C
:102A900010BD000080000020E17D00082DE9F04716
:102AA000FFF763FF07460024DFF860802AE0204636
:102AB000FEF7D6F828B3D8F8000090F811904474C7
:102AC0002046FFF733FF082817DC1148114950F85A
:102AD00024000069884210D02046FFF743FF0646D5
:102AE000002508E0E8B2FFF79BFF0246E9B2204666
:102AF00000F0B0FA6D1CB542F4DBD8F8001081F894
:102B00001190641CBC42D2DBBDE8F087400000207D
:102B10005800002000A9000808B54FF0D840B0F8D0
:102B20008000ADF80000BDF8000008BDFEB5002231
:102B3000ADF80020ADF80420ADF80820464C2288FE
:102B4000824202D962888A4201D80020FEBD00F08C
:102B5000F3F9A08849F2413241F6631745F2103586
:102B600045F21056904207D0A0F5D041043903D069
:102B7000A84201D0B84201D12E2005E0B04202D1D6
:102B80004FF4385000E0222000F0C4FAA088A0F5ED
:102B90001341203903D10120401EC0B2FCD2FFF7FF
:102BA000BBFFADF80000A088B8424CD00120401E09
:102BB000C0B2FCD2FFF7B0FFADF80000A088904291
:102BC00003D0A84201D0B04214D10120401EC0B2AF
:102BD000FCD2FFF7A1FFADF80800BDF80000C0B2BD
:102BE000ADF80400BDF804004FF6FF7101EA0020C3
:102BF000ADF80400A088A0F51341253923D0A0F535
:102C00008A4135391FD0A0F58A4131391BD0A0F552
:102C10003541053917D0A0F54541053913D090420B
:102C200003D0A84201D0B04210D1BDF80000BDF8D9
:102C300004106FF30A00890A40EA4110BDF8081039
:102C400040EAD120FEBDBDF80000FEBDBDF8000089
:102C5000BDE8FE40FFF78DBB5002002010B50246D4
:102C6000BE2000F057FA052000F048FA1046FDF7A4
:102C70007CFB9FED0C1B53EC112BFDF704FBFDF7C8
:102C800081FB80B200F03AFA012000F037FAFF2011
:102C900000F034FA002000F031FABDE810400020C6
:102CA00000F02CBA6666666666660440F0B56C4C49
:102CB00000232146A279898841F66316012A01D0B2
:102CC0001AB11BE0B14202D118E0B14216D1082876
:102CD00014D2DFE800F00406080A0C0E10120620D9
:102CE0000CE007200AE0042008E0052006E00120AF
:102CF00004E0002002E0032000E00220A1F51347D9
:102D000045F2103245F21055413F05D0914203D0B3
:102D1000A94201D0B14277D1082812D2DFE800F0F1
:102D2000110406080A0C0E1080230AE0402308E074
:102D3000C02306E0202304E0602302E0A02300E09B
:102D4000E023A94202D14FF4585000E036209142CE
:102D500005D0A94203D0B14201D043F0080319467F
:102D600000F0EEF9A188B1420AD098062088628866
:102D700002D5904202D303E0904201D922806080C4
:102D80006089A94241D100F0C5F9002000F0B6F9F0
:102D90006089401C80B200F0BDF9002000F0AEF95F
:102DA0006089801C80B200F0B5F92088401EC0F315
:102DB0000F2000F0A3F96089C01C80B200F0AAF9CE
:102DC0002078401EC0B200F099F9A08900F0A2F965
:102DD000002000F093F9A089401C80B200F09AF91D
:102DE000002000F08BF9A089801C80B200F092F9DD
:102DF0006088401EC0F30F2000F080F9A089C01C3D
:102E000080B200F087F922E028E000F083F900208A
:102E100000F074F9002000F071F92088401EC0F322
:102E20000F2000F06BF92078401EC0B200F066F968
:102E3000A08900F06FF9002000F060F9002000F098
:102E40005DF96088401EC0F30F2000F057F9A078AC
:102E5000BDE8F040401EC0B200F050B9F0BD000027
:102E60005002002010B50D4C0D492068407C51F8EF
:102E7000200048B1C16811B10968042901D0006877
:102E8000F7E708B1FDF7D4FE20680021016600F1E4
:102E900008014161BDE8104000F02EB8400000205C
:102EA0005800002001490968496808477C00002053
:102EB000044909680A7C520701D5C96B00E0896B97
:102EC00008607047400000207CB5094C054620682A
:102ED000417C084850F82100C1680A6B6946904758
:102EE00020686A4629460830FEF7EBFA7CBD0000F0
:102EF00040000020580000200448016804484A7C33
:102F0000083150F82200C268126B104740000020C0
:102F10005800002001490968096808477C00002022
:102F2000044909680A7C520701D5896B00E0C96B26
:102F30000860704740000020F0B53F4A0D46044647
:102F4000060A918810462F0A4089A1F51343413B98
:102F500028D0A1F5A643103B24D0A1F5C853633B6C
:102F60002FD0A1F5AA43103B64D100F0D3F830462E
:102F700000F0C4F85089401C80B200F0CBF8E0B2F9
:102F800000F0BCF8908900F0C5F8384600F0B6F8BB
:102F90009089401C80B200F0BDF8E8B2BDE8F04076
:102FA00000F0ACB800F0B6F8304600F0A7F8E0B298
:102FB00000F0A4F8908900F0ADF8384600F09EF8D3
:102FC000EBE7917929B300F0A5F8304600F096F8C8
:102FD000E0B200F093F81088401EC0F30F2000F01C
:102FE0008DF81078401EC0B200F088F8908900F08B
:102FF00091F8384600F082F8E8B200F07FF8508887
:10300000401EC0F30F2000F079F89078401EC0B247
:10301000C4E71188091B491E8CB200F07BF8002020
:1030200000F06CF8002000F069F8200A00F066F863
:10303000E0B2D9E7F0BD000050020020014AC2E929
:103040000001704774000020014909688968084739
:103050007C000020F8B515460E460124FDF700FE61
:10306000009058B1C0681021426A6846904703003A
:1030700004D02A4631460098984700242046F8BDDF
:10308000F8B515460E460124FDF7EAFD009058B14B
:10309000C0680B21426A68469047030004D02A4664
:1030A00031460098984700242046F8BDF8B51546EB
:1030B0000E460124FDF7D4FD009058B1C0680A21E6
:1030C000426A68469047030004D02A463146009879
:1030D000984700242046F8BD10B5074C2068006BC7
:1030E000FFF76AF9FFF71CFF2068406BFFF764F9F0
:1030F000BDE81040FFF7DCBE4000002001B5BDF880
:103100000000ADF80000BDF800004FF0D841A1F874
:10311000800008BD01B5BDF80000ADF80000BDF8A5
:1031200000004FF0D841A1F87E0008BD03484FF0E1
:10313000D8410089A1F87E007047000050020020AD
:103140004FF0D84222F87E0F5180704710B500230F
:103150001A4608490848FDF711FD084C002062880E
:103160002188FFF78DFF62882188BDE8104000208C
:10317000FFF79CBF208B0008E48A00085002002063
:10318000012902D04FF0FF30704700207047000047
:103190002DE9FF4F8DB01746674ADDF870901E9EEF
:1031A000209812681D4600248AB11D9B1F98CDE906
:1031B0000293CDE90460DDE91A03CDE90003146848
:1031C0002B463A460D98A04711B0BDE8F08F0D9AF6
:1031D00001EB050802EB070CDDE91A231A43A8F1FD
:1031E0000108ACF1010C012A06D0C9F108004FF02A
:1031F000000B029105909CE0504A1268B2F90A4017
:10320000631A002B06DDED1A002DDDDD21461D9C25
:1032100003FB0466B2F90E30A8EB0303002B02DDBA
:10322000ED1A002DD0DDB2F90C30ACEB0303002B0E
:1032300000DDFF1A0D9B1C1AB2F90830A3420DDD08
:10324000A3EB040C0CEB0003181A20F00700044455
:10325000A7EB0C0706EBE30603F00700002FB3DD36
:10326000DDF874C01F9BCDE902C6CDE90403CDE9AA
:103270000059527C32483B4650F82200C2685568DB
:103280000A462146A8479FE71B99029808440C90DC
:103290002A49401E00900A68B2F90A30834242DC93
:1032A000B2F90E10029881423DDB4FF0000A0D98F2
:1032B0000A96D046039034E0BAF1000F05D10A987F
:1032C0004FF0080A10F8014B0A900599AAEB090A79
:1032D00034FA01F004FA09F4E4B204D11749096898
:1032E000097C890717D415490968C96B0A680B92CC
:1032F0001F9A0AB152F82000086003991A98009B9F
:103300000A18DDE90210521EFFF7E4FA0B490B9888
:103310000968C96B086003991A9808F10108084404
:103320000390B845C8DB0C9802901D980BF1010B77
:103330000644AB45A8DB47E76400002040000020BE
:1033400058000020002818D0410817D0810817D055
:10335000C10817D0010917D0410917D0010A17D0A9
:10336000410A17D0010B15D0C10B13D0010C11D09D
:10337000810C11D0000E11D0202070470120704721
:1033800002207047032070470420704705207047D3
:10339000082070471020704712207047182070478F
:1033A00000B50022FFF7CEFF012804D0811E0629B8
:1033B00003D808220BE0012209E0A0F10901072946
:1033C00001D8102203E011380F2800D8202210461F
:1033D00000BD0000074910B5054808600846FEF723
:1033E00057F9002803D0BDE81040FDF792B810BD92
:1033F00000300240000000202DE9F04788B01C2179
:103400006846FCF735FF2A4806210024C0E902146B
:103410001025C0E904458461C4614FF4805A0462F8
:10342000C0E9094AC46204634463DFF88890846396
:103430004FF020474464C0E900790F26FF20009632
:10344000CDE901604FF01108CDE90584CDE90365B0
:10345000002269461648FEF7D3FD08B1FDF759F87A
:103460001348042150300022C0E90214C0E9044589
:103470008461C4610462C0E9094AC46204634463AC
:1034800084634464C0E90079CDE9004602A90720BD
:1034900081E831010648694650300694FEF7B0FDD8
:1034A000002801D0FDF735F808B0BDE8F08700002E
:1034B00030010020040100A02DE9F04186B0142164
:1034C0006846FCF7D5FE3348016841F0040101600D
:1034D000016801F004010591016841F020010160DB
:1034E000016801F020010591016841F0800101604F
:1034F000016801F080010591016841F0400101601F
:10350000016801F040010591016841F0100101607E
:10351000016801F010010591016841F002010160AC
:10352000016801F002010591016841F008010160A4
:10353000016801F008010591016841F00101016095
:103540000068154F00F001004FF4C064059001229F
:1035500021463846FEF716FADFF840804FF4004661
:10356000002231464046FEF70DFA00940124022560
:10357000694638460194CDE90245FEF727F9CDE9C1
:10358000006469464046CDE90245FEF71FF906B0E2
:10359000BDE8F081303802400014024000040240CF
:1035A0001CB500240E4800940C490194016053217D
:1035B000C0E9011401218461C160FEF7ABFD08B1CF
:1035C000FCF7A7FF0094694605480194FEF75AFDF1
:1035D000002801D0FCF79DFF1CBD00000014004036
:1035E000D00100200C4810B50A4901604FF4E131C8
:1035F0004160002181600C22C160C0E90412816138
:10360000C161FEF743FE002803D0BDE81040FCF77F
:1036100080BF10BD0010014010020020FEE770477F
:1036200070477047FEF7BAB930B593B0302168469D
:10363000FCF71EFE14210CA8FCF71AFE1948002501
:10364000016841F080510160006800F080501190E5
:103650001548016841F4804101600068022400F4CB
:103660008040119001200090000401908001CDE97C
:10367000064008AA0420A82182E813000B9068469F
:10368000FEF710FB0CA90F2081E831004FF4A05089
:103690000F90E002109005210CA8FEF719FA13B064
:1036A00030BD00004038024000700040054801680D
:1036B00041F47001016003494FF0006080390860F7
:1036C0007047000088ED00E02DE9F05F3220FEF742
:1036D00017F8D320FFF71EFDFFF71EFAFE4CA0805F
:1036E000FFF71AFAA080FFF717FA4FF6FF7909EAF9
:1036F0000020A080FFF710FAA18849F24136084364
:10370000A08045F2103745F2105541F66318B042DB
:1037100047D0D420FFF7FEFCFFF7FEF9A080FFF7AB
:10372000FBF9A080FFF7F8F909EA00204A46A080DB
:10373000FFF7F2F9A1880843A080B84231D04FF4D6
:103740005A40FFF7E7FCFFF7E7F9A0804FF45B4032
:10375000FFF7E0FCFFF7E0F902EA0020A0804FF459
:103760005C40FFF7D7FCFFF7D7F9A1880843A0809A
:10377000B0F5004F7DD0A84213D0A120FFF7CAFCBE
:10378000FFF7CAF9A080FFF7C7F902EA0020A0807E
:10379000FFF7C2F9A1880843A0F5AE41A0806139C6
:1037A00068D080B2B04266D1CF20FFF7B3FC0020D2
:1037B000FFF7A4FCC120FFF7A1FC3020FFF79EFC1F
:1037C000ED20FFF7A7FC6420FFF798FC0320FFF72C
:1037D00095FC1220FFF792FC8120FFF78FFCE82078
:1037E000FFF798FC8520FFF789FC1020FFF786FC87
:1037F0007A20FFF783FCCB20FFF78CFC3920FFF702
:103800007DFC2C20FFF77AFC0020FFF777FC3420AA
:10381000FFF774FC0220FFF771FCF720FFF77AFC3A
:103820002020FFF76BFCEA20FFF774FC0020FFF775
:1038300065FC0020FFF762FCC020FFF76BFC1B203B
:10384000FFF75CFCC120FFF765FC0120FFF756FC89
:10385000C520FFF75FFC3020FFF750FC3020FFF75A
:103860004DFCC720FFF756FCB720FFF747FC36207A
:1038700002E0B5E0B0E0B5E0FFF74CFC4820FFF710
:103880003DFC3A20FFF746FC5520FFF737FCB120FE
:10389000FFF740FC0020FFF731FC1A20FFF72EFC59
:1038A000B620FFF737FC0A20FFF728FCA220FFF71D
:1038B00025FCF220FFF72EFC0020FFF71FFC26203E
:1038C000FFF728FC0120FFF719FCE020FFF722FC9E
:1038D0000F20FFF713FC2A20FFF710FC2820FFF72A
:1038E0000DFC0820FFF70AFC0E20FFF707FC08205C
:1038F000FFF704FC5420FFF701FCA920FFF7FEFBB3
:103900004320FFF7FBFB0A20FFF7F8FB0F20FFF730
:10391000F5FB0020FFF7F2FB0020FFF7EFFB002094
:10392000FFF7ECFB0020FFF7E9FBE120FFF7F2FBDC
:103930000020FFF7E3FB1520FFF7E0FB1720FFF760
:10394000DDFB0720FFF7DAFB1120FFF7D7FB06208E
:10395000FFF7D4FB2B20FFF7D1FB5620FFF7CEFB60
:103960003C20FFF7CBFB0520FFF7C8FB1020FFF73B
:10397000C5FB0F20FFF7C2FB3F20FFF7BFFB3F2037
:10398000FFF7BCFB0F20FFF7B9FB2B20FFF7C2FBB3
:103990000020FFF7B3FB0020FFF7B0FB0120FFF78B
:1039A000ADFB3F20FFF7AAFB2A20FFF7B3FB002067
:1039B000FFF7A4FB0020FFF7A1FB0020FFF79EFB11
:1039C000EF20FFF79BFB1120FFF7A4FB7820FDF70A
:1039D00097FE292001F009BFA4F8048001F00ABF76
:1039E000A580FDE3B84276D1ED20FFF793FB0120DF
:1039F000FFF784FBFE20FFF781FBEE20FFF78AFB39
:103A0000DE20FFF77BFB2120FFF778FBF120FFF79B
:103A100081FB0120FFF772FBDF20FFF77BFB10200B
:103A2000FFF76CFBC420FFF775FB8F20FFF766FBE9
:103A3000C620FFF76FFB0020FFF760FBE220FFF7D7
:103A40005DFBE220FFF75AFBE220FFF757FBBF20A8
:103A5000FFF760FBAA20FFF751FBB020FFF75AFBEE
:103A60000D20FFF74BFB0020FFF748FB0D20FFF771
:103A700045FB0020FFF742FB1120FFF73FFB002032
:103A8000FFF73CFB1920FFF739FB0020FFF736FB5F
:103A90002120FFF733FB0020FFF730FB2D20FFF73D
:103AA0002DFB0020FFF72AFB3D20FFF727FB00201E
:103AB000FFF724FB5D20FFF721FB0020FFF71EFB33
:103AC0005D20FFF71BFB0020FFF718FBB120FFF77D
:103AD00021FB802002E0FDE350020020FFF70EFBF7
:103AE0000020FFF70BFB8B20FFF708FB0020FFF700
:103AF00005FB9620FFF702FB0020FFF7FFFAB2203C
:103B0000FFF708FB0020FFF7F9FA0020FFF7F6FAAD
:103B10000220FFF7F3FA0020FFF7F0FA0320FFF787
:103B2000EDFA0020FFF7EAFAB320FFF7F3FA0020DE
:103B3000FFF7E4FA0020FFF7E1FA0020FFF7DEFAD2
:103B40000020FFF7DBFA0020FFF7D8FA0020FFF78C
:103B5000D5FA0020FFF7D2FA0020FFF7CFFA0020B5
:103B6000FFF7CCFA0020FFF7C9FA0020FFF7C6FAEA
:103B70000020FFF7C3FA0020FFF7C0FA0020FFF78C
:103B8000BDFA0020FFF7BAFA0020FFF7B7FA0020CD
:103B9000FFF7B4FA0020FFF7B1FA0020FFF7AEFA02
:103BA0000020FFF7ABFA0020FFF7A8FA0020FFF78C
:103BB000A5FA0020FFF7A2FA0020FFF79FFAB42031
:103BC000FFF7A8FA8B20FFF799FA0020FFF796FA83
:103BD0009620FFF793FA0020FFF790FAA120FFF755
:103BE0008DFA0020FFF78AFAB520FFF793FA02203A
:103BF000FFF784FA0020FFF781FA0320FFF77EFA2F
:103C00000020FFF77BFA0420FFF778FA0020FFF787
:103C100075FAB620FFF77EFA0020FFF76FFA002052
:103C2000FFF76CFAB720FFF775FA0020FFF766FA86
:103C30000020FFF763FA3F20FFF760FA0020FFF74C
:103C40005DFA5E20FFF75AFA0020FFF757FA64206A
:103C5000FFF754FA0020FFF751FA8C20FFF74EFAD5
:103C60000020FFF74BFAAC20FFF748FA0020FFF7DF
:103C700045FADC20FFF742FA0020FFF73FFA7020F8
:103C8000FFF73CFA0020FFF739FA9020FFF736FAE9
:103C90000020FFF733FAEB20FFF730FA0020FFF7A0
:103CA0002DFADC20FFF72AFA0020FFF727FAB820C8
:103CB000FFF730FA0020FFF721FA0020FFF71EFA85
:103CC0000020FFF71BFA0020FFF718FA0020FFF78B
:103CD00015FA0020FFF712FA0020FFF70FFA002074
:103CE000FFF70CFABA20FFF715FA2420FFF706FABF
:103CF0000020FFF703FA0020FFF700FA0020FFF78B
:103D0000FDF9C120FFF706FA2020FFF7F7F90020A0
:103D1000FFF7F4F95420FFF7F1F90020FFF7EEF96F
:103D2000FF20FFF7EBF90020FFF7E8F9C220FFF7CB
:103D3000F1F90A20FFF7E2F90020FFF7DFF904208C
:103D4000FFF7DCF90020FFF7D9F9C320FFF7E2F90C
:103D50003C20FFF7D3F90020FFF7D0F93A20FFF716
:103D6000CDF90020FFF7CAF93920FFF7C7F9002085
:103D7000FFF7C4F93720FFF7C1F90020FFF7BEF9BC
:103D80003C20FFF7BBF90020FFF7B8F93620FFF71A
:103D9000B5F90020FFF7B2F93220FFF7AFF90020A4
:103DA000FFF7ACF92F20FFF7A9F90020FFF7A6F9DC
:103DB0002C20FFF7A3F90020FFF7A0F92920FFF737
:103DC0009DF90020FFF79AF92620FFF797F90020C8
:103DD000FFF794F92420FFF791F90020FFF78EF9FF
:103DE0002420FFF78BF90020FFF788F92320FFF745
:103DF00085F90020FFF782F93C20FFF77FF90020CA
:103E0000FFF77CF93620FFF779F90020FFF776F904
:103E10003220FFF773F90020FFF770F92F20FFF72A
:103E20006DF90020FFF76AF92C20FFF767F90020F1
:103E3000FFF764F92920FFF761F90020FFF75EF929
:103E40002620FFF75BF90020FFF758F92420FFF741
:103E500055F90020FFF752F92420FFF74FF9002011
:103E6000FFF74CF92320FFF749F90020FFF746F947
:103E7000C420FFF74FF96220FFF740F90020FFF759
:103E80003DF90520FFF73AF90020FFF737F98420C4
:103E9000FFF734F90020FFF731F9F020FFF72EF992
:103EA0000020FFF72BF91820FFF728F90020FFF773
:103EB00025F9A420FFF722F90020FFF71FF91820A9
:103EC000FFF71CF90020FFF719F95020FFF716F94A
:103ED0000020FFF713F90C20FFF710F90020FFF77F
:103EE0000DF91720FFF70AF90020FFF707F99520D1
:103EF000FFF704F90020FFF701F9F320FFF7FEF8C0
:103F00000020FFF7FBF8E620FFF7F8F80020FFF7A6
:103F1000F5F8C520FFF7FEF83220FFF7EFF8002094
:103F2000FFF7ECF84420FFF7E9F80020FFF7E6F888
:103F30006520FFF7E3F80020FFF7E0F87620FFF7B1
:103F4000DDF80020FFF7DAF88820FFF7D7F8002027
:103F5000FFF7D4F8C620FFF7DDF82020FFF7CEF8F2
:103F60000020FFF7CBF81720FFF7C8F80020FFF775
:103F7000C5F80120FFF7C2F80020FFF7BFF8C720FF
:103F8000FFF7C8F80020FFF7B9F80020FFF7B6F8F0
:103F90000020FFF7B3F80020FFF7B0F8C820FFF7C4
:103FA000B9F80020FFF7AAF80020FFF7A7F80020D3
:103FB000FFF7A4F80020FFF7A1F8C920FFF7AAF83F
:103FC0000020FFF79BF80020FFF798F80020FFF78C
:103FD00095F80020FFF792F80020FFF78FF80020F7
:103FE000FFF78CF80020FFF789F80020FFF786F82C
:103FF0000020FFF783F80020FFF780F80020FFF78C
:104000007DF80020FFF77AF80020FFF777F800200E
:10401000FFF774F80020FFF771F80020FFF76EF843
:10402000E020FFF777F81620FFF768F80020FFF789
:1040300065F81C20FFF762F80020FFF75FF82120E9
:10404000FFF75CF80020FFF759F83620FFF756F825
:104050000020FFF753F84620FFF750F80020FFF745
:104060004DF85220FFF74AF80020FFF747F8642088
:10407000FFF744F80020FFF741F87A20FFF73EF8F9
:104080000020FFF73BF88B20FFF738F80020FFF700
:1040900035F89920FFF732F80020FFF72FF8A82015
:1040A000FFF72CF80020FFF729F8B920FFF726F8D2
:1040B0000020FFF723F8C420FFF720F80020FFF7C7
:1040C0001DF8CA20FFF71AF80020FFF717F8D220D2
:1040D000FFF714F80020FFF711F8D920FFF70EF8CA
:1040E0000020FFF70BF8E020FFF708F80020FFF7AB
:1040F00005F8F320FFF702F80020FEF7FFFFE120AC
:10410000FFF708F81620FEF7F9FF0020FEF7F6FF8C
:104110001C20FEF7F3FF0020FEF7F0FF2220FEF741
:10412000EDFF0020FEF7EAFF3620FEF7E7FF002054
:10413000FEF7E4FF4520FEF7E1FF0020FEF7DEFF7B
:104140005220FEF7DBFF0020FEF7D8FF6420FEF7C9
:10415000D5FF0020FEF7D2FF7A20FEF7CFFF002028
:10416000FEF7CCFF8B20FEF7C9FF0020FEF7C6FF4D
:104170009920FEF7C3FF0020FEF7C0FFA820FEF73E
:10418000BDFF0020FEF7BAFFB920FEF7B7FF002001
:10419000FEF7B4FFC420FEF7B1FF0020FEF7AEFF2C
:1041A000CA20FEF7ABFF0020FEF7A8FFD220FEF7E3
:1041B000A5FF0020FEF7A2FFD820FEF79FFF0020FA
:1041C000FEF79CFFE020FEF799FF0020FEF796FF28
:1041D000F320FEF793FF0020FEF790FFE22000E0BF
:1041E00082E3FEF797FF0520FEF788FF0020FEF729
:1041F00085FF0B20FEF782FF0020FEF77FFF1B20CC
:10420000FEF77CFF0020FEF779FF3420FEF776FFF3
:104210000020FEF773FF4420FEF770FF0020FEF73A
:104220006DFF4F20FEF76AFF0020FEF767FF612059
:10423000FEF764FF0020FEF761FF7920FEF75EFFC6
:104240000020FEF75BFF8820FEF758FF0020FEF7F6
:1042500055FF9720FEF752FF0020FEF74FFFA620E4
:10426000FEF74CFF0020FEF749FFB720FEF746FFA0
:104270000020FEF743FFC220FEF740FF0020FEF7BC
:104280003DFFC720FEF73AFF0020FEF737FFD120A1
:10429000FEF734FF0020FEF731FFD620FEF72EFF99
:1042A0000020FEF72BFFDD20FEF728FF0020FEF7A1
:1042B00025FFF320FEF722FF0020FEF71FFFE3207B
:1042C000FEF728FF0520FEF719FF0020FEF716FF76
:1042D0000A2000E006E3FEF711FF0020FEF70EFFC4
:1042E0001C20FEF70BFF0020FEF708FF3320FEF72F
:1042F00005FF0020FEF702FF4420FEF7FFFE00202E
:10430000FEF7FCFE5020FEF7F9FE0020FEF7F6FE59
:104310006220FEF7F3FE0020FEF7F0FE7820FEF7A5
:10432000EDFE0020FEF7EAFE8820FEF7E7FE002003
:10433000FEF7E4FE9720FEF7E1FE0020FEF7DEFE2A
:10434000A620FEF7DBFE0020FEF7D8FEB720FEF722
:10435000D5FE0020FEF7D2FEC220FEF7CFFE0020E1
:10436000FEF7CCFEC720FEF7C9FE0020FEF7C6FE12
:10437000D120FEF7C3FE0020FEF7C0FED520FEF7D9
:10438000BDFE0020FEF7BAFEDD20FEF7B7FE0020DE
:10439000FEF7B4FEF320FEF7B1FE0020FEF7AEFEFE
:1043A000E420FEF7B7FE0120FEF7A8FE0020FEF78E
:1043B000A5FE0120FEF7A2FE0020FEF79FFE0220D0
:1043C000FEF79CFE0020FEF799FE2A20FEF796FEDF
:1043D0000020FEF793FE3C20FEF790FE0020FEF743
:1043E0008DFE4B20FEF78AFE0020FEF787FE5D2043
:1043F000FEF784FE0020FEF781FE7420FEF77EFEAD
:104400000020FEF77BFE8420FEF778FE0020FEF7FA
:1044100075FE9320FEF772FE0020FEF76FFEA220CD
:10442000FEF76CFE0020FEF769FEB320FEF766FE85
:104430000020FEF763FEBE20FEF760FE0020FEF7C0
:104440005DFEC420FEF75AFE0020FEF757FECD2089
:10445000FEF754FE0020FEF751FED320FEF74EFE7D
:104460000020FEF74BFEDD20FEF748FE0020FEF7A1
:1044700045FEF320FEF742FE0020FEF73FFEE5205A
:10448000FEF748FE0020FEF739FE0020FEF736FE5C
:104490000020FEF733FE0020FEF730FE0220FEF77C
:1044A0002DFE0020FEF72AFE2920FEF727FE002021
:1044B000FEF724FE3C20FEF721FE0020FEF71EFE44
:1044C0004B20FEF71BFE0020FEF718FE5D20FEF7D6
:1044D00015FE0020FEF712FE7420FEF70FFE0020EE
:1044E000FEF70CFE8420FEF709FE0020FEF706FE14
:1044F0009320FEF703FE0020FEF700FEA220FEF749
:10450000FDFD0020FEF7FAFDB320FEF7F7FD0020C9
:10451000FEF7F4FDBE20FEF7F1FD0020FEF7EEFDF4
:10452000C420FEF7EBFD0020FEF7E8FDCD20FEF7EE
:10453000E5FD0020FEF7E2FDD320FEF7DFFD0020C1
:10454000FEF7DCFDDC20FEF7D9FD0020FEF7D6FDEE
:10455000F320FEF7D3FD0020FEF7D0FDE620FEF7A6
:10456000D9FD1120FEF7CAFD0020FEF7C7FD34205B
:10457000FEF7C4FD0020FEF7C1FD5620FEF7BEFD8C
:104580000020FEF7BBFD7620FEF7B8FD0020FEF709
:10459000B5FD7720FEF7B2FD0020FEF7AFFD6620E7
:1045A000FEF7ACFD0020FEF7A9FD8820FEF7A6FD72
:1045B0000020FEF7A3FD9920FEF7A0FD0020FEF7E6
:1045C0009DFDBB20FEF79AFD0020FEF797FD992088
:1045D000FEF794FD0020FEF791FD6620FEF78EFDAC
:1045E0000020FEF78BFD5520FEF788FD0020FEF72A
:1045F00085FD5520FEF782FD0020FEF77FFD45205A
:10460000FEF77CFD0020FEF779FD4320FEF776FDE6
:104610000020FEF773FD4420FEF770FD0020FEF73A
:104620006DFDE720FEF776FD3220FEF767FD0020E6
:10463000FEF764FD5520FEF761FD0020FEF75EFDEC
:104640007620FEF75BFD0020FEF758FD6620FEF7A2
:1046500055FD0020FEF752FD6720FEF74FFD0020BC
:10466000FEF74CFD6720FEF749FD0020FEF746FDF2
:104670008720FEF743FD0020FEF740FD9920FEF75E
:104680003DFD0020FEF73AFDBB20FEF737FD002080
:10469000FEF734FD9920FEF731FD0020FEF72EFDD8
:1046A0007720FEF72BFD0020FEF728FD4420FEF7C3
:1046B00025FD0020FEF722FD5620FEF71FFD0020FD
:1046C000FEF71CFD2320FEF719FD0020FEF716FD66
:1046D0003320FEF713FD0020FEF710FD4520FEF706
:1046E0000DFD0020FEF70AFDE820FEF713FD002077
:1046F000FEF704FD0020FEF701FD9920FEF7FEFC09
:104700000020FEF7FBFC8720FEF7F8FC0020FEF7F8
:10471000F5FC8820FEF7F2FC0020FEF7EFFC772086
:10472000FEF7ECFC0020FEF7E9FC6620FEF7E6FC55
:104730000020FEF7E3FC8820FEF7E0FC0020FEF7F7
:10474000DDFCAA20FEF7DAFC0020FEF7D7FCBB2038
:10475000FEF7D4FC0020FEF7D1FC9920FEF7CEFC3A
:104760000020FEF7CBFC6620FEF7C8FC0020FEF719
:10477000C5FC5520FEF7C2FC0020FEF7BFFC55200B
:10478000FEF7BCFC0020FEF7B9FC4420FEF7B6FCA7
:104790000020FEF7B3FC4420FEF7B0FC0020FEF73B
:1047A000ADFC5520FEF7AAFC0020FEF7A7FCE9208F
:1047B000FEF7B0FCAA20FEF7A1FC0020FEF79EFC4D
:1047C0000020FEF79BFC0020FEF798FC0020FEF77F
:1047D000A1FCAA20FEF792FCCF20FEF79BFC002054
:1047E000FEF78CFC0020FEF789FC0020FEF786FC1B
:1047F0000020FEF783FC0020FEF780FC0020FEF77F
:104800007DFC0020FEF77AFC0020FEF777FC0020FC
:10481000FEF774FC0020FEF771FC0020FEF76EFC32
:104820000020FEF76BFC0020FEF768FC0020FEF77E
:1048300065FC0020FEF762FC0020FEF75FFC002014
:10484000FEF75CFCF020FEF765FC0020FEF756FC4E
:104850005020FEF753FC0020FEF750FC0020FEF72E
:104860004DFC0020FEF74AFCF320FEF753FC00202D
:10487000FEF744FCF920FEF74DFC0620FEF73EFC57
:104880001020FEF73BFC2920FEF738FC0020FEF745
:1048900035FC3A20FEF73EFC5520FEF72FFC112098
:1048A000FEF738FC6420FCF72BFF2920FEF732FCD2
:1048B0003520FEF72FFC0020FEF720FC5120FEF7EC
:1048C00029FCFF20FEF71AFC5320FEF723FC2C20C6
:1048D000FEF714FC5520FEF71DFC8220FEF70EFCAF
:1048E0002C20FCE3A8427CD14FF47043552118469C
:1048F000FEF726FC4FF2010AAA215046FEF720FCE3
:104900004FF2020B52215846FEF71AFC08214FF2D3
:104910000300FEF715FC01214FF20400FEF710FC26
:104920000D214FF43040FEF70BFC0D214BF201003E
:10493000FEF706FC0D214BF20200FEF701FC3421CC
:104940004FF43640FEF7FCFB34214BF20160FEF7DA
:10495000F7FB34214BF20260FEF7F2FB0D214FF41E
:104960003140FEF7EDFB0D214BF20110FEF7E8FBA5
:104970000D214BF20210FEF7E3FB34214FF43740D8
:10498000FEF7DEFB34214BF20170FEF7D9FB342138
:104990004BF20270FEF7D4FB00214FF43240FEF7D9
:1049A000CFFB00214BF20120FEF7CAFB00214BF2A6
:1049B0000220FEF7C5FB24214FF43840FEF7C0FB70
:1049C00024214BF60100FEF7BBFB24214BF602002D
:1049D000FEF7B6FB01214FF43F40FEF7B1FB0F217C
:1049E00000E0FDE34FF43340FEF7AAFB0F214BF24A
:1049F0000130FEF7A5FB0F214BF20230FEF7A0FBC2
:104A000034214FF43940FEF79BFB34214BF6011063
:104A1000FEF796FB34214BF60210FEF791FB0821BE
:104A20004FF43540FEF78CFB08214BF20150FEF7A6
:104A300087FB08214BF20250FEF782FB03214FF463
:104A40004240FEF77DFB24214FF43A40FEF778FB0D
:104A500024214BF60120FEF773FB24214BF60220A4
:104A6000FEF76EFB00214FF43C40FEF769FB782116
:104A70004BF60140FEF764FB00214BF60240FEF7C7
:104A80005FFB00214FF43D40FEF75AFB78214BF6C7
:104A90000150FEF755FB00214BF60250FEF750FB8C
:104AA00000214FF43E40FEF74BFB64214BF60160C2
:104AB000FEF746FB00214FF45140FEF741FB332146
:104AC0004DF20110FEF73CFB00214DF20210FEF703
:104AD00037FB34214DF20310FEF732FB00214DF27B
:104AE0000410FEF72DFB3A214DF20510FEF728FBCE
:104AF00000214DF20610FEF723FB4A214DF207106C
:104B0000FEF71EFB00214DF20810FEF719FB5C2199
:104B10004DF20910FEF714FB00214DF20A10FEF7CA
:104B20000FFB81214DF20B10FEF70AFB00214DF225
:104B30000C10FEF705FBA6214DF20D10FEF700FB51
:104B400000214DF20E10FEF7FBFAE5214DF20F1099
:104B5000FEF7F6FA01214DF21010FEF7F1FA1321DB
:104B60004DF21110FEF7ECFA01214DF21210FEF792
:104B7000E7FA54214DF21310FEF7E2FA01214DF24B
:104B80001410FEF7DDFA82214DF21510FEF7D8FA67
:104B900001214DF21610FEF7D3FACA214DF217107B
:104BA000FEF7CEFA02214DF21810FEF7C9FA0021E5
:104BB0004DF21910FEF7C4FA02214DF21A10FEF759
:104BC000BFFA01214DF21B10FEF7BAFA02214DF295
:104BD0001C10FEF7B5FA34214DF21D10FEF7B0FAA5
:104BE00002214DF21E10FEF7ABFA67214DF21F10A5
:104BF000FEF7A6FA02214DF22010FEF7A1FA842159
:104C00004DF22110FEF79CFA02214DF22210FEF720
:104C100097FAA4214DF22310FEF792FA02214DF2E9
:104C20002410FEF78DFAB7214DF22510FEF788FA11
:104C300002214DF22610FEF783FACF214DF2271004
:104C4000FEF77EFA02214DF22810FEF779FADE21F6
:104C50004DF22910FEF774FA02214DF22A10FEF7E8
:104C60006FFAF2214DF22B10FEF76AFA02214DF293
:104C70002C10FEF765FAFE214DF22D10FEF760FABA
:104C800003214DF22E10FEF75BFA10214DF22F108A
:104C9000FEF756FA03214DF23010FEF751FA332198
:104CA0004DF23110FEF74CFA03214DF23210FEF7AF
:104CB00047FA6D214DF23310FEF742FA00214FF40E
:104CC0005240FEF73DFA33214DF20120FEF738FA4B
:104CD00000214DF20220FEF733FA34214DF2032079
:104CE000FEF72EFA00214DF20420FEF729FA3A21B0
:104CF0004DF20520FEF724FA00214DF20620FEF7C2
:104D00001FFA4A214DF20720FEF71AFA00214DF250
:104D10000820FEF715FA5C214DF20920FEF710FA83
:104D200000214DF20A20FEF70BFA81214DF20B20F3
:104D3000FEF706FA00214DF20C20FEF701FAA6213B
:104D40004DF20D20FEF7FCF900214DF20E20FEF78A
:104D5000F7F9E5214DF20F20FEF7F2F901214DF2AE
:104D60001020FEF7EDF913214DF21120FEF7E8F9BE
:104D700001214DF21220FEF7E3F954214DF21320E8
:104D8000FEF7DEF901214DF21420FEF7D9F9822158
:104D90004DF21520FEF7D4F901214DF21620FEF751
:104DA000CFF9CA214DF21720FEF7CAF902214DF2C0
:104DB0001820FEF7C5F900214DF21920FEF7C0F9C1
:104DC00002214DF21A20FEF7BBF901214DF21B2002
:104DD000FEF7B6F902214DF21C20FEF7B1F934219D
:104DE0004DF21D20FEF7ACF902214DF21E20FEF718
:104DF000A7F967214DF21F20FEF7A2F902214DF21B
:104E00002020FEF79DF984214DF22120FEF798F92C
:104E100002214DF22220FEF793F9A4214DF2232026
:104E2000FEF78EF902214DF22420FEF789F9B72111
:104E30004DF22520FEF784F902214DF22620FEF7DF
:104E40007FF9CF214DF22720FEF77AF902214DF2AA
:104E50002820FEF775F9DE214DF22920FEF770F9C2
:104E600002214DF22A20FEF76BF9F2214DF22B20A0
:104E7000FEF766F902214DF22C20FEF761F9FE21C2
:104E80004DF22D20FEF75CF903214DF22E20FEF7A6
:104E900057F910214DF22F20FEF752F903214DF260
:104EA0003020FEF74DF933214DF23120FEF748F95D
:104EB00003214DF23220FEF743F96D214DF23320EC
:104EC000FEF73EF900214FF45340FEF739F9332144
:104ED0004DF20130FEF734F900214DF20230FEF7B9
:104EE0002FF934214DF20330FEF72AF900214DF25B
:104EF0000430FEF725F93A214DF20530FEF720F98E
:104F000000214DF20630FEF71BF94A214DF2073021
:104F1000FEF716F900214DF20830FEF711F95C2179
:104F20004DF20930FEF70CF900214DF20A30FEF780
:104F300007F981214DF20B30FEF702F900214DF205
:104F40000C30FEF7FDF8A6214DF20D30FEF7F8F813
:104F500000214DF20E30FEF7F3F8E5214DF20F304F
:104F6000FEF7EEF801214DF21030FEF7E9F81321BB
:104F70004DF21130FEF7E4F801214DF21230FEF748
:104F8000DFF854214DF21330FEF7DAF801214DF22B
:104F90001430FEF7D5F882214DF21530FEF7D0F827
:104FA00001214DF21630FEF7CBF8CA214DF2173031
:104FB000FEF7C6F802214DF21830FEF7C1F80021C5
:104FC0004DF21930FEF7BCF802214DF21A30FEF70F
:104FD000B7F801214DF21B30FEF7B2F802214DF275
:104FE0001C30FEF7ADF834214DF21D30FEF7A8F865
:104FF00002214DF21E30FEF7A3F867214DF21F305B
:10500000FEF79EF802214DF22030FEF799F8842138
:105010004DF22130FEF794F802214DF22230FEF7D6
:105020008FF8A4214DF22330FEF78AF802214DF2C9
:105030002430FEF785F8B7214DF22530FEF780F8D1
:1050400002214DF22630FEF77BF8CF214DF22730BA
:10505000FEF776F802214DF22830FEF771F8DE21D6
:105060004DF22930FEF76CF802214DF22A30FEF79E
:1050700067F8F2214DF22B30FEF762F802214DF273
:105080002C30FEF75DF8FE214DF22D30FEF758F87A
:1050900003214DF22E30FEF753F810214DF22F3040
:1050A000FEF74EF803214DF23030FEF749F8332178
:1050B0004DF23130FEF744F803214DF23230FEF765
:1050C0003FF86D214DF23330FEF73AF800214FF4EE
:1050D0005440FEF735F833214DF2014000E084E3FF
:1050E000FEF72EF800214DF20240FEF729F8342198
:1050F0004DF20340FEF724F800214DF20440FEF784
:105100001FF83A214DF20540FEF71AF800214DF242
:105110000640FEF715F84A214DF20740FEF710F859
:1051200000214DF20840FEF70BF85C214DF20940DA
:10513000FEF706F800214DF20A40FEF701F8812142
:105140004DF20B40FDF7FCFF00214DF20C40FDF746
:10515000F7FFA6214DF20D40FDF7F2FF00214DF2C1
:105160000E40FDF7EDFFE5214DF20F40FDF7E8FFA2
:1051700001214DF21040FDF7E3FF13214DF21140E4
:10518000FDF7DEFF01214DF21240FDF7D9FF54215A
:105190004DF21340FDF7D4FF01214DF21440FDF70D
:1051A000CFFF82214DF21540FDF7CAFF01214DF2DC
:1051B0001640FDF7C5FFCA214DF21740FDF7C0FFAD
:1051C00002214DF21840FDF7BBFF00214DF21940BE
:1051D000FDF7B6FF02214DF21A40FDF7B1FF00E0E6
:1051E00006E301214DF21B40FDF7AAFF02214DF21B
:1051F0001C40FDF7A5FF34214DF21D40FDF7A0FF37
:1052000002214DF21E40FDF79BFF67214DF21F402A
:10521000FDF796FF02214DF22040FDF791FF84211A
:105220004DF22140FDF78CFF02214DF22240FDF7A7
:1052300087FFA4214DF22340FDF782FF02214DF2AA
:105240002440FDF77DFFB7214DF22540FDF778FFA3
:1052500002214DF22640FDF773FFCF214DF227408A
:10526000FDF76EFF02214DF22840FDF769FFDE21B8
:105270004DF22940FDF764FF02214DF22A40FDF76F
:105280005FFFF2214DF22B40FDF75AFF02214DF254
:105290002C40FDF755FFFE214DF22D40FDF750FF4C
:1052A00003214DF22E40FDF74BFF10214DF22F4010
:1052B000FDF746FF03214DF23040FDF741FF33215A
:1052C0004DF23140FDF73CFF03214DF23240FDF736
:1052D00037FF6D214DF23340FDF732FF00214FF4CF
:1052E0005540FDF72DFF33214DF20150FDF728FF0A
:1052F00000214DF20250FDF723FF34214DF20350FF
:10530000FDF71EFF00214DF20450FDF719FF3A2171
:105310004DF20550FDF714FF00214DF20650FDF748
:105320000FFF4A214DF20750FDF70AFF00214DF211
:105330000850FDF705FF5C214DF20950FDF700FF15
:1053400000214DF20A50FDF7FBFE81214DF20B507A
:10535000FDF7F6FE00214DF20C50FDF7F1FEA621FF
:105360004DF20D50FDF7ECFE00214DF20E50FDF711
:10537000E7FEE5214DF20F50FDF7E2FE01214DF26F
:105380001050FDF7DDFE13214DF21150FDF7D8FE50
:1053900001214DF21250FDF7D3FE54214DF213506E
:1053A000FDF7CEFE01214DF21450FDF7C9FE82211A
:1053B0004DF21550FDF7C4FE01214DF21650FDF7D8
:1053C000BFFECA214DF21750FDF7BAFE02214DF281
:1053D0001850FDF7B5FE00214DF21950FDF7B0FE53
:1053E00002214DF21A50FDF7ABFE01214DF21B5088
:1053F000FDF7A6FE02214DF21C50FDF7A1FE34215F
:105400004DF21D50FDF79CFE02214DF21E50FDF79E
:1054100097FE67214DF21F50FDF792FE02214DF2DB
:105420002050FDF78DFE84214DF22150FDF788FEBE
:1054300002214DF22250FDF783FEA4214DF22350AC
:10544000FDF77EFE02214DF22450FDF779FEB721D3
:105450004DF22550FDF774FE02214DF22650FDF766
:105460006FFECF214DF22750FDF76AFE02214DF26B
:105470002850FDF765FEDE214DF22950FDF760FE54
:1054800002214DF22A50FDF75BFEF2214DF22B5026
:10549000FDF756FE02214DF22C50FDF751FEFE2184
:1054A0004DF22D50FDF74CFE03214DF22E50FDF72D
:1054B00047FE10214DF22F50FDF742FE03214DF221
:1054C0003050FDF73DFE33214DF23150FDF738FEEF
:1054D00003214DF23250FDF733FE6D214DF2335072
:1054E000FDF72EFE00214FF45640FDF729FE332133
:1054F0004DF20160FDF724FE00214DF20260FDF740
:105500001FFE34214DF20360FDF71AFE00214DF21B
:105510000460FDF715FE3A214DF20560FDF710FE1F
:1055200000214DF20660FDF70BFE4A214DF20760A7
:10553000FDF706FE00214DF20860FDF701FE5C213B
:105540004DF20960FDF7FCFD00214DF20A60FDF708
:10555000F7FD81214DF20B60FDF7F2FD00214DF2C8
:105560000C60FDF7EDFDA6214DF20D60FDF7E8FDA5
:1055700000214DF20E60FDF7E3FDE5214DF20F60D5
:10558000FDF7DEFD01214DF21060FDF7D9FD13217D
:105590004DF21160FDF7D4FD01214DF21260FDF7CF
:1055A000CFFD54214DF21360FDF7CAFD01214DF2EC
:1055B0001460FDF7C5FD82214DF21560FDF7C0FDB9
:1055C00001214DF21660FDF7BBFDCA214DF21760B7
:1055D000FDF7B6FD02214DF21860FDF7B1FD002187
:1055E0004DF21960FDF7ACFD02214DF21A60FDF796
:1055F000A7FD01214DF21B60FDF7A2FD02214DF236
:105600001C60FDF79DFD34214DF21D60FDF798FDF6
:1056100002214DF21E60FDF793FD67214DF21F60E0
:10562000FDF78EFD02214DF22060FDF789FD8421FA
:105630004DF22160FDF784FD02214DF22260FDF75D
:105640007FFDA4214DF22360FDF77AFD02214DF28A
:105650002460FDF775FDB7214DF22560FDF770FD63
:1056600002214DF22660FDF76BFDCF214DF2276040
:10567000FDF766FD02214DF22860FDF761FDDE2198
:105680004DF22960FDF75CFD02214DF22A60FDF725
:1056900057FDF2214DF22B60FDF752FD02214DF234
:1056A0002C60FDF74DFDFE214DF22D60FDF748FD0C
:1056B00003214DF22E60FDF743FD10214DF22F60C6
:1056C000FDF73EFD03214DF23060FDF739FD33213A
:1056D0004DF23160FDF734FD03214DF23260FDF7EC
:1056E0002FFD6D214DF23360FDF72AFD552118463F
:1056F000FDF726FDAA215046FDF722FD522158460E
:10570000FDF71EFD08214FF20300FDF719FD0021F2
:105710004FF20400FDF714FDCC214FF43140FDF7AA
:105720000FFD00214BF20110FDF70AFD05214FF49A
:105730003640FDF705FD70214FF43740FDF700FDC1
:1057400070214BF20170FDF7FBFC01214FF4384052
:10575000FDF7F6FC03214BF60100FDF7F1FC0321F8
:105760004BF60200FDF7ECFC03214BF60300FDF7BE
:10577000E7FC02214FF43C40FDF7E2FC00214BF630
:105780000140FDF7DDFC00214BF60240FDF7D8FC9F
:10579000D0214FF44940FDF7D3FC02214CF6011013
:1057A000FDF7CEFC50214CF60210FDF7C9FC50214C
:1057B0004CF60310FDF7C4FC50214CF60410FDF725
:1057C000BFFC00214FF45450FDF7BAFC55214FF4B3
:1057D0006850FDF7B5FC4FF48850FDF79BFC77202F
:1057E000401EC0B2FCD24FF42450FDF793FCBAE047
:1057F0004045FCD1E220FDF78DFC1D20FDF77EFC2D
:105800000220FDF77BFC0420FDF778FC6320401E9E
:10581000C0B2FCD2E020FDF77DFC0120FDF76EFC5C
:105820000A20FBF76DFFE020FDF774FC0320FDF775
:1058300065FC0C20FBF764FF0120FDF76BFC0A20E0
:10584000FBF75EFFE620FDF765FC2F20FDF756FC19
:10585000FF20FDF753FCFF20FDF750FCB020FDF7C3
:1058600059FC2020FDF74AFC0020FDF747FC0320EF
:10587000FDF744FC40F21F30FDF740FC0120FDF72E
:105880003DFC40F2DF10FDF739FC0020FDF736FC4F
:10589000B420FDF73FFC0420FDF730FC40F21F4030
:1058A000FDF72CFC0020FDF729FC2E20FDF726FC3F
:1058B0000020FDF723FC0020FDF720FC0020FDF771
:1058C0001DFC0020FDF71AFCB620FDF723FC02208A
:1058D000FDF714FC4FF40370FDF710FC0020FDF7FA
:1058E0000DFC1720FDF70AFC1520FDF707FC002032
:1058F000FDF704FC0020FDF701FCF020FDF70AFC99
:105900000320FDF7FBFB2920FDF704FCD020FDF769
:1059100001FC0020FDF7F2FBBE20FDF7FBFB05209C
:10592000FDF7ECFBFE20FDF7E9FB0120FDF7E6FBB0
:105930000020FDF7E3FB0020FDF7E0FB0020FDF772
:10594000DDFBB820FDF7E6FB0320FDF7D7FB0120C8
:10595000FDF7D4FBBA20FDF7DDFB0120FDF7CEFB00
:105960006420FDF77BF9A088B04205D0B84203D08F
:10597000A84201D0404519D14FF02040D0F81C1169
:1059800021F00F01C0F81C11D0F81C1121F4706136
:10599000C0F81C11D0F81C1141F00301C0F81C1113
:1059A000D0F81C1141F40071C0F81C110020FCF764
:1059B00011FD0548016841F4004101604846BDE819
:1059C000F05FFCF7DFBC000014040240F0B5026891
:1059D000254C264D264E274F274B4FF0804CA0429A
:1059E00009D0604507D0A84205D0B04203D0B842E4
:1059F00001D0984204D122F0700E4A6842EA0E02A9
:105A0000A0421BD0604519D0A84217D0B04215D093
:105A1000B84213D0984211D0184DA8420ED0184D5C
:105A2000A8420BD0174DA84208D0174DA84205D068
:105A3000164DA84202D0164DA84203D122F440755B
:105A4000CA682A434D6922F080022A4302608A68AC
:105A5000C2620A688262A04201D0984201D10969FB
:105A6000016301214161F0BD0000014000040040DC
:105A700000080040000C00400004014000400140CC
:105A8000004401400048014000180040001C004054
:105A90000020004010B5806B0021C185C184FCF757
:105AA00069FB10BD0168CA6822F49072CA6001687F
:105AB0004A6922F001024A61202180F83A107047B9
:105AC00010B590F83A10222901D0022010BD81684B
:105AD000B1F5805F11D00169002901681FD04968C4
