:020000040800F2
:10000000680A00209D010008B15E0008BD4200089A
:10001000BD5D000813090008BD9500080000000040
:10002000000000000000000000000000AF610008B8
:100030002D0C000800000000AD610008B16100084F
:10004000B7010008B7010008B7010008B7010008B0
:10005000B7010008B7010008B7010008B7010008A0
:10006000B7010008B7010008B7010008B701000890
:10007000B7010008B7010008B7010008B701000880
:10008000B7010008B7010008B7010008B701000870
:10009000B7010008B7010008B7010008B701000860
:1000A000B7010008B7010008B7010008B701000850
:1000B000B70100085985000865850008B7010008E8
:1000C000B7010008B7010008B7010008B701000830
:1000D000B7010008B1950008B7010008B701000892
:1000E000B7010008B7010008B7010008B701000810
:1000F000B7010008B7010008B7010008B701000800
:10010000B7010008B7010008B7010008B7010008EF
:10011000B7010008B7010008B7010008B7010008DF
:10012000B7010008B7010008B7010008B7010008CF
:10013000B7010008B7010008B7010008B7010008BF
:10014000B7010008B7010008B7010008B7010008AF
:10015000B7010008B7010008B7010008B70100089F
:10016000B7010008B7010008B7010008B70100088F
:10017000B7010008B7010008B7010008000000003F
:10018000B7010008B7010008DFF80CD000F018FB39
:10019000004800473DE40008680A00200648804700
:1001A00006480047FEE7FEE7FEE7FEE7FEE7FEE75C
:1001B000FEE7FEE7FEE7FEE7396200088901000876
:1001C0002DE9F05F0546002092469B46884606468C
:1001D000814640241BE0284641464746224600F01F
:1001E0001EFA53465A46C01A914110D3114618467A
:1001F000224600F005FA2D1A67EB01084F46224609
:100200000120002100F0FCF917EB00094E41201EEF
:10021000A4F10104DFDC484631462A464346BDE8E6
:10022000F09F10B5431A934209D28318881803E04F
:1002300010F8011D03F8011D521EF9D210BD40EA4D
:1002400001039B0703D009E008C9121F08C0042A54
:10025000FAD203E011F8013B00F8013B521EF9D23B
:1002600010BDD2B201E000F8012B491EFBD270474D
:100270000022F6E710B513460A4604461946FFF772
:10028000F0FF204610BD10B5002200E0521C835C38
:100290008C5CA34201D1002BF8D1D8B2E1B2401A54
:1002A00010BD30B504460020034600E05B1C9342BD
:1002B00003D2E05CCD5C401BF8D030BD2DE9FE4F91
:1002C000804681EA0300C00F0C46009021F00041F7
:1002D00023F00045B8EB0200A94105D24046214673
:1002E00090461C460B46024623F00040104347D080
:1002F000270DC7F30A00C3F30A510290401A019078
:1003000040286BDAC3F3130040F4801B0098924638
:1003100020B10023D2EB030A63EB0B0B0198594683
:10032000C0F14002504600F06BF906460D465046BB
:100330005946019A00F083F910EB0800614100244E
:1003400087EA115284EAE7731A4340D0009A62B3F5
:10035000019A012A4FEA075215DC001B61EB0201EA
:100360004FF0004202EA0752CDE90042001C41F57D
:10037000801132462B4600F083F903B0BDE8F08FC0
:1003800040462146F9E7001B61EB0201001C41F5E4
:10039000801300185B412018A2F5001747EB0301FA
:1003A00040EAD570B6196D4111E06D084FEA360686
:1003B00045EAC0754FEA0752001B61EB0201001CC1
:1003C00041F5801149084FEA300000195141324689
:1003D0002B4603B0BDE8F04F00F043B9009801226E
:1003E00040000023D0EB020263EBE073009821464B
:1003F0004FEAE074B8EB000061EB0401E9E783F039
:1004000000435BE781F0004158E72DE9FE4F81EAA8
:10041000030404F0004421F0004100944FF0000B6D
:1004200023F0004350EA01045ED052EA03045BD09B
:10043000C3F30A54C1F30A552C44A4F2F3340194D3
:10044000A0FB0254C1F3130141F48011C3F3130361
:1004500043F4801301FB024400FB034E840A970A15
:1004600044EA815447EA8357A4FB076802958D0A42
:1004700005FB07854FEA932C04FB0C542705029DCE
:100480004FEA065847EA1637B5EB08056EEB070C3E
:10049000870E920E47EA811742EA8312A7FB0201F8
:1004A000B6EB0B0164EB00042B0D43EA0C335E1832
:1004B00044EB1C50DA465146E7FB0201C5F3130436
:1004C0004FEA0B3343EA14534FEA0432019C43EAE8
:1004D0000603A4F10C040294009CCDE900B400F0E2
:1004E000CFF803B0BDE8F08F00200146F9E70EB564
:1004F00040F2334102910021CDE900110A460B463A
:1005000000F0BEF803B000BD70B5C1F30A5201F0AF
:1005100000450024C1F3130140F2FF3341F4801180
:100520009A4201DA002070BD40F233439A42A2F2AF
:10053000334203DC524200F072F800E090402C435A
:10054000F1D0404270BDC1F30A5210B5C1F313019E
:1005500040F2FF3341F480119A4201DA002010BDCD
:1005600040F233439A42A2F2334203DC524200F09B
:1005700056F810BD904010BD00F0004230F0004031
:100580000AD0C10D01F56071C0F3160042EA0151B5
:10059000C208400711437047002001467047000021
:1005A00030B5041E71F1000404DB4FF000444042FA
:1005B00064EB0101141E73F1000405DB1C464FF0CF
:1005C0000043524263EB04038B4208BF824230BDBA
:1005D00030B5041E71F1000404DB4FF000444042CA
:1005E00064EB0101141E73F1000405DB1C464FF09F
:1005F0000043524263EB0403994208BF904230BD6E
:10060000202A04DB203A00FA02F1002070479140D2
:10061000C2F1200320FA03F3194390407047202AC7
:1006200004DB203A21FA02F00021704721FA02F39C
:10063000D040C2F120029140084319467047202A59
:1006400006DBCB17203A41FA02F043EAE07306E0FA
:1006500041FA02F3D040C2F120029140084319460A
:10066000704710B5141E73F1000408DA401C41F104
:10067000000192185B411A4301D120F0010010BD26
:100680002DE9F04D92469B4611B1B1FA81F202E09C
:10069000B0FA80F220329046FFF7B2FF04460F46D0
:1006A00040EA0A0041EA0B0153465A46084313D078
:1006B000114653EA010019D0C8F140025046FFF735
:1006C000AEFF05460E46504659464246FFF798FF94
:1006D000084305D0012004E020463946BDE8F08DEE
:1006E0000020054346EAE0762C4337430A98630529
:1006F000E40AA0EB08000022FD0A44EA47540A304D
:1007000002D500200146E9E7010510196941DDE93C
:10071000084500196941BDE8F04DA2E72DE9F04D0B
:1007200000231A461B1A8A4103DB00200146BDE85C
:10073000F08DC1F30A52C1F3130141F480154FF05B
:10074000000BD10702D100186D41521E002704464C
:1007500040F2FF11384601EB620A3E4680460246EF
:1007600000204FF48011FFF75AFFC2197141BB18E6
:1007700046EB0100B4EB030C75EB000C04D3E41A58
:1007800065EB000517460E46241908F101006D417E
:1007900080463428E3DDF91946EB0600091BA84121
:1007A00003D24FF0FF32134601E0002213461BEB49
:1007B000070046EB0A51BDE8F04DFFF752BF0000BD
:1007C000064C074D06E0E06840F0010394E807009E
:1007D00098471034AC42F6D3FFF7DAFC6C4A0108B4
:1007E0008C4A010870B58C1810F8015B15F00703EE
:1007F00001D110F8013B2A1106D110F8012B03E0BA
:1008000010F8016B01F8016B5B1EF9D12B0705D4C1
:100810000023521E0DD401F8013BFAE710F8013B0A
:10082000CB1A921C03E013F8015B01F8015B521E26
:10083000F9D5A142D8D3002070BD03F06BBD2DE9DE
:10084000F0410D460146002004464E1908E007021B
:10085000301B401E80B200F007F8641C3844E4B23C
:10086000AC42F4D3BDE8F08110B5044603F020FE9D
:10087000200AA02101EB4000C0B203F0D7FD03F035
:100880006BFEE0B203F0D2FD03F066FE03F010FE53
:10089000A12003F0CBFD03F05FFE002003F08CFDF0
:1008A000044603F02FFE204610BD2DE9F041164608
:1008B0000D460746002409E0E00025FA00F0C1B229
:1008C000381980B200F006F8641CE4B2B442F3D3E5
:1008D000BDE8F08170B50D46044603F0E9FD200A3D
:1008E000A02101EB4000C0B203F0A0FD03F034FEF4
:1008F000E0B203F09BFD03F02FFE284603F096FDC7
:1009000003F02AFE03F0FEFDBDE870400A200DF062
:1009100025BDFEE770B5144D00220121284602F0E6
:100920003CFE124C206820F440002060206840F417
:100930008000206002200DF023FD0022E1142046FB
:1009400002F02BFE02200DF01BFD0122114628466D
:1009500002F023FE02200DF013FD2846BDE8704092
:100960000022012102F019BE0004024000140240DE
:10097000114810B5016886B041F0020101600168BC
:1009800001F002010591016841F020010160006859
:10099000012400F02000009405900194694602941F
:1009A000064802F019FDE002CDE90004694604485A
:1009B00002F012FD06B010BD3038024000040240C3
:1009C0000014024070B5144D00220121284602F0A7
:1009D000E4FD124C206820F440002060206840F4C0
:1009E0008000206002200DF0CBFC0122D1022046C5
:1009F00002F0D3FD02200DF0C3FC0122114628466F
:100A000002F0CBFD02200DF0BBFC2846BDE8704093
:100A10000022012102F0C1BD000402400014024086
:100A20002DE9F041804619480024016821F4400175
:100A30000160016801601E200DF0A2FC134F00252B
:100A4000134E103700220121304602F0A6FD02208D
:100A50000DF096FC01221146304602F09EFD600624
:100A6000040E3868000501D5641CE4B26D1CEDB2BB
:100A7000082DE7D3B8F1000F04D0FFF74BFF204655
:100A8000BDE8F081FFF79EFFF9E700000014024087
:100A9000000402402DE9F041204C0646206820F475
:100AA00040002060206840F4800020601C4F00223D
:100AB0000121384602F071FD02200DF061FC002595
:100AC0004FF40068300601D5012200E000224146C3
:100AD000204602F062FD02200DF052FC0122114678
:100AE000384602F05AFD02200DF04AFC0022012196
:100AF000384602F052FD072D04D10122414620461E
:100B000002F04BFD7006060E02200DF039FC6D1C44
:100B1000EDB2082DD6D3BDE8F081000000140240EC
:100B20000004024070B5134C206820F4400020609F
:100B3000206840F4800020600122D502294620462A
:100B400002F02BFD0C4E01221146304602F025FD2D
:100B50001E200DF015FC00222946204602F01DFD46
:100B600002200DF00DFC3046BDE87040002201214E
:100B700002F013BD001402400004024070B5104C96
:100B8000206820F440002060206840F4800020604D
:100B9000012211460B4802F000FD1E200DF0F0FB73
:100BA000E51400222946204602F0F7FC02200DF051
:100BB000E7FB29462046BDE87040012202F0EDBC6B
:100BC000001402400004024070B516480024016879
:100BD00021F440010160016801600122C11402F0AA
:100BE000DCFC114E01221146304602F0D6FC0220F8
:100BF0000DF0C6FB0B4D10350AE0641CE4B2FA2C74
:100C000003D9FFF7BBFF012070BD02200DF0B8FB38
:100C100028680005F1D400220121304602F0BDFC15
:100C2000002070BD0014024000040240704770476D
:100C300070B5B3F5804F05D06FF0704140F82210C9
:100C4000002070BD50F82240084B8E891C40D1E92D
:100C5000003543EA05138D6889692D0245EA06458A
:100C60002B430B43234340F82230E9E70000F0CF49
:100C7000F0B50C6850F82430114A1340D1E9012531
:100C8000D1E903672A433E4332434E6932438E69BA
:100C90003243CE6932430E6A32434E6A32438E6A21
:100CA0003243CE6A3243CE6B096B32430A431A4356
:100CB000082D01D142F0400240F824200020F0BD70
:100CC0008000F0FF30B500EB820250688D8900F0A3
:100CD0004043D1E9000440EA04108C68240244EA4D
:100CE000054420430C8A074D05EB045420430C7D3A
:100CF0006D0105EB04648969204308431843506083
:100D0000002030BD0000F0FF70B5324888B00024EC
:100D1000016841F002010160016801F002010691E1
:100D2000016841F0040101600068012500F0040041
:100D300006900220CDE90104CDE9035001A926481F
:100D400002F04AFB6E03CDE90165244D01A9284656
:100D500002F042FBFFF70CFE00223146284602F06B
:100D60001CFC14200DF0FAFA01223146284602F04C
:100D700014FC32200DF0F2FA8DF800400122694691
:100D8000002000F0F9F801226946A42000F0F4F8F0
:100D900016208DF8000001226946802000F0ECF852
:100DA0000C208DF8000001226946882000F0E4F84C
:100DB00002226946A12000F013F89DF800003028B7
:100DC00003D19DF80100032802D0012008B070BDB6
:100DD0000020FBE7303802400004024000080240D7
:100DE0002DE9F04115460E460446FFF79BFE7020A4
:100DF000FFF750FEFFF7E8FEE0B2FFF74BFEFFF70C
:100E0000E3FEFFF78FFE7120FFF744FEFFF7DCFEE5
:100E100000246F1E09E0BC4201D0012000E0002048
:100E2000FFF7FEFD3055641CE4B2AC42F3D3BDE8DD
:100E3000F041FFF7A3BE00002DE9F1474B4E00241F
:100E40004FF00A0A307881B0401CC0B2B0FBFAF211
:100E50000AFB1201DFF818812746307009B10A2811
:100E600067D2012201A90220FFF7BAFF9DF8040012
:100E700001075ED000F00F0106295AD2FF208840FA
:100E8000C04340F0C000454688F8200001274FF0DD
:100E9000000900BF95F8200007FA04F108423BD092
:100EA00034480422694630F81400FFF799FF95F89A
:100EB00030009DF80010C0079DF8010001F00F01FF
:100EC0000ED000EB012105EB4400C1829DF8022009
:100ED0009DF8031002F00F0201EB022181810FE067
:100EE00000EB0120C0F5F07105EB440081819DF815
:100EF00002209DF8031002F00F0201EB0221C182D3
:100F00009DF800000821B1EB101F05D005EB44004F
:100F1000A0F81690A0F80C90641CE4B2052CB9D38C
:100F2000A889012718B9E88A08B98DF8049086F8CD
:100F300000909DF80400C00610D198F8200001062A
:100F400002D520F0800007E04FF6FF71A8F80C10E2
:100F5000A8F8161000F0E00088F820003078F0289B
:100F600001D986F800A03846BDE8FC87390000208A
:100F700040000020D62C01082DE9F04116460F460E
:100F800004460025FFF7CEFD7020FFF783FDFFF735
:100F90001BFEE0B2FFF77EFDFFF716FE002408E01F
:100FA000385DFFF777FDFFF70FFE050003D1641CE6
:100FB000E4B2B442F4D3FFF7E1FD2846BDE8F08186
:100FC0002DE9F0430446C56887B090468946002065
:100FD00001F02CFA064625B1287910B146F002003E
:100FE00001E026F0020001F021FA2069012558B144
:100FF000D4E902128DE826000395638822880468EC
:1010000041464846A0471EE0124F134B2146386820
:101010001B68427CE068984730B9E088012801D01D
:10102000002001E03868806BA288E388A168009501
:10103000CDE90410CDE9023201956388228841464A
:10104000484603F059FB07B03046BDE8F04301F0D5
:10105000EDB9000088000020800000202DE9F04359
:101060003A4889B00024016841F00201016001683A
:1010700001F002010791016841F00401016000687C
:10108000022500F0040007900126CDE90054DFF8A6
:10109000C090CDE902656946484602F09DF92F03EC
:1010A000DFF8B080CDE900766946404602F094F959
:1010B000FFF75EFC00223946404602F06EFA0A2035
:1010C0000DF04CF901223946404602F066FA0A203A
:1010D0000DF044F90095CDE901646946484602F0F7
:1010E0007BF964200DF03AF9042205A948F240107A
:1010F00000F036F88DF8184017A105A8FFF7C3F8DF
:1011000018B1012009B0BDE8F0838DF8145048F201
:101110004005012205A9284600F038F9012205A959
:10112000E81D00F01DF89DF81400602802D201208F
:1011300000F004F90A200DF011F98DF81440012295
:1011400005A9284600F022F90020DBE730380240EC
:10115000000402400008024039313437000000002A
:101160002DE9F04115460E460446FFF7DBFC28202A
:10117000FFF790FCFFF728FD200AFFF78BFCFFF735
:1011800023FDE0B2FFF786FCFFF71EFDFFF7CAFC68
:101190002920FFF77FFCFFF717FD00246F1E09E0F1
:1011A000BC4201D0012000E00020FFF739FC30559F
:1011B000641CE4B2AC42F3D3BDE8F041FFF7DEBCFF
:1011C0002DE9F147594E00244FF00A0A307885B0D6
:1011D000401CC0B2B0FBFAF20AFB1201544DA0460B
:1011E000307009B10A2878D248F24E19012205A9B7
:1011F0004846FFF7B5FF9DF814004FF000070106C1
:101200000AD500F00F00062806D28DF800700122E2
:101210006946484600F0BAF89DF8140001075CD012
:1012200000F00F01062958D2FF2088408DF80000F9
:10123000C04395F8209040F0C00085F82000A889B0
:10124000A882E88AE8834FF0010800BF95F82010D3
:1012500008FA04F0014225D03648042202A930F8E9
:101260001400FFF77DFF95F830009DF80910C007C6
:101270009DF8080000EB012105EB44000AD0C18273
:101280009DF80A109DF80B2001EB0221C1F5487171
:10129000818107E081819DF80A109DF80B2001EB08
:1012A0000221C182641CE4B2052CCFD32249AA8951
:1012B0004FF001080B8828469A4203D8C28A498811
:1012C0008A4209D99DF8141001F00F0101290BD9A8
:1012D000C1898181018BE98237709DF8140000F08B
:1012E0008F0080280AD018E0818A8181C18BC18259
:1012F00080218DF8141085F82090EEE795F82000F5
:10130000010602D520F0800005E04FF6FF71A981AB
:10131000E98200F0E00085F820003078F02801D95B
:1013200086F800A006B04046BDE8F08738000020EF
:1013300040000020CC2C0108AC03002008B500219F
:101340008DF800108DF801000F4800BF435C9DF838
:101350000020491C1A44C9B28DF80020B829F5D3E1
:10136000D0B2C043401C8DF80000B822064948F2B4
:10137000470000F00BF80222694648F2FF0000F037
:1013800005F8002008BD0000142C01082DE9F041EB
:1013900016460F4604460025FFF7C4FB2820FFF73A
:1013A00079FBFFF711FC200AFFF774FBFFF70CFC39
:1013B000E0B2FFF76FFBFFF707FC002408E0385DA1
:1013C000FFF768FBFFF700FC050003D1641CE4B2E3
:1013D000B442F4D3FFF7D2FB2846BDE8F081000009
:1013E0002DE9F04FDFF828B191B04FF0FF35DBF871
:1013F0000030B3F922100691DE69B3F92490F46944
:10140000A189814206D8E289824203D3471AD4F8DF
:10141000008012E0D4E9018100296FD00A8882425D
:101420006CD84D88854269D3801A82B2486800EB37
:101430008200B0F90070B0F90250781C5ED0307EA6
:10144000A17C10FB01FA217CCDE90701B3F92A60E8
:10145000304603F0F5FFC0B20E90DBF8000007FB4A
:101460000A81A37C826B0127CDE90412CDE90273C6
:10147000C069089AC17E807ECDE90001DDE90603DE
:10148000494603F039F9681C18D046F0020003F011
:10149000D7FFDBF80000A37C05FB0A81826BCDE956
:1014A0000273CDE90412C069089AC17E807ECDE93D
:1014B0000001DDE90603494603F01EF9DBF80000F0
:1014C0005D46C069417E007E814214D9022E12D051
:1014D00086F0040003F0B4FF2868C069027EC37E72
:1014E00012FB0391437E857E089A06984B4412FBBB
:1014F000050203F0C9FB0E9803F0A2FFDBF8000021
:10150000627C418C1144418411B0BDE8F08F000031
:101510008800002004480068C069C06909B1027CE5
:101520000A60407C7047000088000020022008808C
:101530007047C06982898A4202D8C2898A4210D221
:10154000806880B102888A420DD843888B420AD3D2
:10155000406800EB8100A0EB8200B0F90000002899
:1015600001DB012070470020704700002DE9F043A7
:10157000304C034687B020681946B0F92A60C0692C
:10158000C06900F086F8002850D041680088181A19
:1015900001EBC0053046AF7803F052FF814620686A
:1015A0006A680123816BCDE90237CDE90421C16965
:1015B000CB7E8A7ECDE900230B7EB0F924102A78F9
:1015C000B0F9220003F098F82068C069417E027EDD
:1015D00091421FD9C07E11FB00F812FB00F7022ECA
:1015E00018D000F0A7FC064600F08CFC00F016FFB7
:1015F00021682A78CB69B1F92200DB7E12FB030255
:10160000B1F9241001EB0803394403F03DFB3046E7
:1016100000F004FF484603F013FF20686A78C369AE
:10162000B0F922109B7E12FB0311418407B0BDE884
:10163000F08300008800002030B50F4C05460B46B3
:1016400020682946C069C06900F023F8002812D03C
:101650004168008824682A1A0120E46900EBC2006E
:10166000085CA47E10FB04F0002B04D011F83210AB
:1016700011FB04F1196030BD8800002001200880B2
:10168000704700B5C06900F004F8002800D00120C0
:1016900000BD06E002888A4202D842888A4202D20D
:1016A00080680028F6D17047002801D008F004BFF8
:1016B000704738B50546FFF7F7FF040009D000F082
:1016C000B3F82A460021009001F0A4FD684600F01E
:1016D000C7F8204638BD0000024A106021F0030020
:1016E000506070477C04002010B5002814D00446D8
:1016F0000A48406B10F8341000290DD002290BD293
:10170000042101EBC4014158486808F08DFE2046D1
:10171000BDE810400BF0E4BA10BD0000BC0300208F
:10172000002805D0034AD16B016001B14860D06345
:1017300070470000BC0300202DE9F04104460BF087
:101740002DF92848E41C24F00305016C2D1DA94245
:1017500000D90D46C46B13E054F8042CAA420ED1F4
:1017600084B1216809B162684A60616809B1226880
:101770000A60C26BA24231D12168C1632EE02468A5
:10178000002CE9D18046816BC0680F1857F8040C13
:101790003E1A306838B100200BF0DEFA57F8040C1E
:1017A0003E1A3068D0B97068A84217DB3044441B39
:1017B0003046241D0BF0B6FAD8F80C10491BC8F8B7
:1017C0000C10D8F814102944C8F814107068401B85
:1017D00002D0314608F028FE44F8045C2046BDE8FB
:1017E000F0810000BC03002010B500240BF0D6F8F7
:1017F0000C490F2001EBC002526C1AB101EBC00082
:10180000406C08E0401EF5D508E04168A14200D9CF
:101810000C46806810B180680028F6D1A4F10C0055
:1018200010BD0000BC0300200549CA69521CCA61F2
:10183000496B01EBC0010A78521C0A7000F028B80D
:10184000BC0300200549102805D94A68B0EB520FA7
:1018500002D3500800E01020886070477C0400200C
:101860000A4902684B6B52F8082C03EBC20213784A
:10187000022B03D3CB690BB15B1ECB611178491EE0
:10188000117000210160084670470000BC03002071
:10189000002806D00349042202EBC000496B085817
:1018A00008307047BC030020F0B52D271C68B0F14C
:1018B000004F08D0002600280DDA651C1D60277037
:1018C0004042012408E0651C01261D606FF00040C5
:1018D0002770491E01E00024091BC9B22AB3491E22
:1018E000C9B222E00C46491EC9B2944205D1124C3D
:1018F00027781C68651C1D602770104C54F8215017
:1019000090FBF5F4E4B20A2C11D804FB150011B9D0
:101910000EB1641CE4B20A2C02D10124491CC9B2E4
:101920001D686F1C30341F602C700029DAD11968D3
:1019300000200870F0BD00007C000020EC4601088B
:1019400002490968497C00F003B8000088000020C3
:101950002DE9FC5F04468946084600F0F3FA2B4E59
:1019600009EB8907824656F82700019028484FF076
:101970000108016841B92649C0F80080091D2548C1
:101980000860084601F03EFC204A09EB8901BAF1E3
:10199000000002EB81051BD000F026FD83464FF0CE
:1019A0007F4000F039FD00F0ADF8002211462068BC
:1019B00000F028FA206842880188504600F044FD73
:1019C00046F8274085F80580584600F00DFD17E0E1
:1019D00046F8274085F805802869464618B100F08A
:1019E00061FC0020286174B10096E868A1684B464C
:1019F000421AA8686168411A206800F095FC2861C5
:101A000048460BF0D1FD0198BDE8FC9FF80400208A
:101A1000BC000020F5CB000870B506460D46144604
:101A2000104600F08FFA0300164804EB84010AD038
:101A300050F8210041688068711A2A1ABDE8704088
:101A4000184600F0FFBC00EB8104A268B24201D04E
:101A5000012200E00022E368AB4201D0012300E054
:101A600000231A430CD0236943B150F82100816848
:101A700040686A1A311A184600F032FCC4E902655F
:101A800070BD0000F804002002480068407C00F0AF
:101A900003B800008800002030B4094900EB800240
:101AA00001EB82040123637151F8221011B130BCA3
:101AB0000BF07ABD014630BC0248FFF749BF000079
:101AC000F80400202847010810B5C2B2CBB2D21AE0
:101AD00000D5524293B25B43C0F30722C1F30724FF
:101AE000121B00D55242000C92B2A0EB114002FB37
:101AF000023200B2002801DA404200B280B200FB9C
:101B0000002010BD10B50021084600F069FA43F628
:101B1000FF725042BDE8104013460146AFF300800B
:101B20002DE9FC4107461C4615460E46042003F0ED
:101B300087FC80461148C068C16C006D0F440644A4
:101B40000D440444ADF80070ADF80450ADF80260E7
:101B5000ADF80640684608F003FA07E023462A4637
:101B60003146384603F090F808F0BCF90028F5D16A
:101B7000404603F065FCBDE8FC8100007C000020CD
:101B80002DE9F0411C4616460D460746022B02DBA6
:101B90000020BDE8F0811C20FFF7CEFD0028F8D022
:101BA0000DB105610AE0094A52F8241009B905E0AF
:101BB00011460A68002AFBD10969016184618682A5
:101BC000002101604160C0E90217E2E7A0000020A7
:101BD00070B51D46FFF7D4FF040009D000F00EF8E1
:101BE000E068006820B90348006800EB8500846560
:101BF000204670BD88000020FFF792BD70B590B3FD
:101C00008269022A30DA1E4C54F8221019B944F8BD
:101C1000220032E019464B68002BFBD106E0CB686E
:101C2000C5681B682D68AB4203DD09680029F6D141
:101C30001AE0C1B1CB68C6681B683668B3420CD1E4
:101C4000838A012B05D008E01946DB681B68AB428C
:101C500003DB0B68002BF7D129B14B6833B1186057
:101C60004A68426004E0FFE7012070BD44F82200AA
:101C70004860884200D100210160002070BD000052
:101C8000A00000200A4A816952F82130834202D123
:101C9000036842F82130416809B102680A600168AE
:101CA00009B142684A60002101604160704700004C
:101CB000A0000020022801DB00207047054951F8F0
:101CC000200004E0C16809680029F6D000680028F7
:101CD000F8D17047A00000200022AFF300801FB5AC
:101CE00003ABCDF80CD0FFF7DFFD684600F002F83B
:101CF0001FBD00002DE9FC4706005BD000F034F961
:101D00003B4C81462068B0F9228000F041F92168FF
:101D100007468A8CD01B888441E000BF47F6FF71DC
:101D2000304601F05BF982460146304601F02CF95D
:101D30002168054691F82C0000F0030001283FD0EF
:101D4000022839D000204A8C101A4884ADF80000CF
:101D50006A1E1044ADF80400888CADF80200A9F1A9
:101D600001010844ADF806006A465146304601F0CC
:101D7000B3F82168BDF8020088845146304600F06F
:101D8000ADFF064430780A281CD00D281AD0BDF8C3
:101D90000000216828444884307818B1761C3078D7
:101DA0000028BBD12068818C39448184818D21F049
:101DB00003018185BDE8FC8705EBD5704010C2E7C3
:101DC0002846C0E7206890F82C1001F00301012993
:101DD0000BD0022909D0018C418431780A29DBD14A
:101DE000828C02EB09018184D6E7A0F82280F4E717
:101DF00088000020024B1B6859849A84FFF77ABF41
:101E0000880000207CB5064610480068C36C006D51
:101E10005D1884183188681E0844ADF80400ADF8D8
:101E200000507188601E0844ADF80600ADF802400D
:101E3000684608F095F806E0224629463046FFF746
:101E4000BFF808F04FF80028F6D17CBD88000020CC
:101E500008B50B46002805D0009281888268C088AA
:101E600000F001F808BD10B50828029C30D008DC4D
:101E700004FB01F401280AD0022813D0042804D15D
:101E80001CE0102828D020282CD0002010BD04EB06
:101E9000D30003F00701105CC1F10701C84000F056
:101EA000010010BD04EB93000621105C01EA430120
:101EB000C1F10601C84000F0030010BD04EB53005F
:101EC000D907105C02D000F00F0010BD000910BD52
:101ED00004FB0130105C10BD481004FB003032F8E8
:101EE000100010BD881004FB003052F8200010BD17
:101EF000034951F82000C1688A6A08211047000090
:101F0000A000002010B502F0EFFEBDE8104002F086
:101F10007BBF000002490968C9694A68002110476F
:101F200088000020024A1268D269526810470000F7
:101F30008800002010B502F0DFFEBDE8104002F07E
:101F400063BF00000021022802D2024951F820108C
:101F5000084670472401002002480068B0F92400B8
:101F6000704700008800002002480068C069407E79
:101F7000704700008800002070B514460D4602F03E
:101F8000EFFE002802D000202860206070BD000015
:101F90000A490020096891F82C2002F00C02042A5A
:101FA00007D0082A01D00C2A02D1C869007E400857
:101FB0007047C869007E401E7047000088000020FE
:101FC000024951F82000006900687047A000002015
:101FD000024951F82000006940687047A0000020C5
:101FE00070B50D460AF02AFC044628460AF02EFC7D
:101FF000204370BD0AF02ABC2DE9F0411948016860
:1020000021F0010101601848012585601749016030
:1020100000681749884200D0FEE700F043FF154EE4
:102020002E20307000F0ABFE13480AF069FC0CF073
:10203000BFF9074602F0AAFE10B102F0B3FE38B9AC
:1020400002F0B9FE044602F0AAFE214603F0F2F9BE
:102050000021084600F0FCF907F0A8FD757038462D
:10206000BDE8F081002000E000300240C2A507F486
:10207000CDB5E8B57C0000208804002038B5040008
:1020800018D00D480068006EA04201D100F0A2F9FE
:102090002046FFF7C9FB0090406908B100F046FEFA
:1020A00000980068FFF7A8FD6846FFF7D9FB2046B7
:1020B000FFF71AFB38BD00008800002038B5002467
:1020C00060B1FFF7B1FB009000680069806880474D
:1020D00003F0CEFC04466846FFF7C2FB204638BD3D
:1020E00038B5002808D0FFF79FFB00F118040090D6
:1020F0006846FFF7B5FB204638BD0000F8B50F4E27
:1021000005003068046E16D00CB100F063F907F0DA
:1021100043FB2846FFF788FB009031680D66006896
:10212000FFF76CFD6846FFF79BFB03F0D3FA03F063
:10213000DFF82046F8BD00F04DF9FAE788000020EE
:10214000F8B516460F46050012D0FFF76DFB00905C
:1021500044696846FFF784FB2846FFF7AFFF034654
:10216000082800DD2CB13246394628460BF060FCC9
:10217000F8BD3246394628460BF0FAFDF8BD10B5D9
:10218000002821D009B30AB3B1F90040B2F90030F8
:102190009C4200DA23460380B1F90240B2F90230D2
:1021A0009C4200DA23464380B1F90440B2F904307E
:1021B0009C4200DD23468380B1F90610B2F9062067
:1021C000914200DC1146C18010BD11460A680260D0
:1021D0004968416010BD00280BD003880B44038080
:1021E000838819448180418811444180C188114409
:1021F000C180704770B50E4D0446D5E90001884294
:1022000009D10C49884201D13C3000E00C3807C8A4
:1022100084E8070006E090E80E0084E80E000AF06B
:102220001DFB2860207A002800D0012070BD00002E
:10223000180100202C0500200448D0E9001081423C
:1022400001D10120704700207047000018010020D4
:10225000054A10B5034911600BF0B8FABDE810400B
:1022600000F012B93D980008A8000020B0F9022043
:10227000B1F906309A4213DCB1F90220B0F9063008
:102280009A420DDCB0F90020B1F904309A4207DC23
:10229000B1F90010B0F90400814201DC012070475F
:1022A0000020704738B5040019D00BF039FB2046E8
:1022B0000BF0ACFB2046FFF7B7FA00900068FFF781
:1022C0002FFA0098C068FFF70FFA0098C069FFF76F
:1022D0000BFA6846FFF7C4FA2046FFF705FA38BD47
:1022E000002801D00AF0F6BE704738B5040019D0B6
:1022F000FFF79AFA0090007C800710D420460AF07D
:10230000E1FB6846FFF7ACFA20460BF069F920467E
:10231000FFF78AFA0090018A41F0020101826846C3
:10232000FFF79EFA38BD00002DE9F8430446008807
:10233000089F91468846D0B36088C0B3E06818B162
:102340008068002834D002E0E08820282FD107F0F0
:10235000010200211E48FFF713FC050027D020884A
:102360006188800048432030FFF7A3F9060021D0A0
:102370003046AE60FFF758FA009007824461A0F83B
:102380000480A0F80690238808EB0301491E018110
:1023900061884944491E418105606846FFF760FA3B
:1023A000E06858B12146304608F038FA30B10020D4
:1023B000BDE8F8832846FFF71FFCF8E7B80705D506
:1023C00030460AF07FFB30460BF00AF93046EFE763
:1023D0004448010810B502F041FF03F07BF9BDE865
:1023E000104007F0EDB8000070B5094D0446022C0E
:1023F0002868467C09D22046FFF75CFC28B1286893
:102400004474FFF7E7FF03480460304670BD0000E6
:10241000880000206801002002F040BF02F076BF73
:1024200001498860704700007C00002003F008B874
:1024300003490968CA6900B1C861104670470000C5
:102440008800002003F018B803F02CB803F056B849
:10245000094A30B41080094A1180094A1268537C35
:10246000084A52F82330DA68146A0A46A44601463C
:1024700030BC184660470000B8000020BA000020B9
:1024800088000020A000002002480068002800D03A
:1024900000477047EC01002002498A6802B9886051
:1024A000FFF7F2BFDC0100202DE9F04F00242DEDF5
:1024B000028B9BB0DFF800B4DDE9266ADDF8A0905E
:1024C000A6469FEDFE0ACBF80040022835D00DADA0
:1024D0006F460DF10C0C03287EDB68D153F8248085
:1024E00000EE108A0DF1200808EB8408B8EEC00A4F
:1024F00088ED000A56F8248000EE108A05EB840867
:10250000B8EEC00A88ED000A51F8248000EE108A67
:1025100007EB8408B8EEC00A88ED000A52F8248060
:1025200000EE108A0CEB840804F10104B8EEC00A36
:10253000844288ED000AD1DB42E148680968401A0C
:1025400000EE900AD3E90010F8EEE01A401A00EE0F
:10255000900ADB48F8EEE00A81EEA01A00EE901A2D
:10256000F8EEE00A80ED001A61EE600A80ED010AE3
:10257000C0ED020A80ED030A51681268891A00EE64
:10258000101AD6E90012B8EEC01A521A00EE102A3C
:10259000B8EEC00AC1EE000A00EE101AB8EEC00A8A
:1025A000C0ED040A20EEC00A80ED050A8EE10CEBB6
:1025B000840888ED000A07EB840888ED000A05EB23
:1025C000840888ED000A0DF1200808EB8408641CDB
:1025D00088ED000A032C00E0ADE1E8DB002794E081
:1025E00053F82750DDED0A0A00EE105AB8EEC00A83
:1025F00030EE800A8DED0A0A56F82740DDED0F0A0D
:1026000000EE104AB8EEC00A30EE800A8DED0F0AD7
:1026100051F82780DDED020A00EE108AB8EEC00AFC
:1026200030EE800A8DED020A52F827C0DDED050A72
:1026300000EE10CA7F1CB8EEC00A30EE800A8DEDA5
:10264000050A00EE105ADDED080AB8EEC01A00EED9
:10265000105AB8EEC00A41EE000A00EE105AB8EE69
:10266000C01A00EE104ACDED080ADDED090AB8EEF9
:10267000C00A41EE000A00EE104AB8EEC01A00EEA1
:10268000104ACDED090ACDED0D0AB8EEC00ADDED18
:102690000E0A41EE000A00EE105AB8EEC01A00EE23
:1026A000108ACDED0E0ADDED000AB8EEC00A41EE4B
:1026B000000A00EE104AB8EEC01A00EE108ACDED06
:1026C000000ADDED010AB8EEC00A41EE000A00EE94
:1026D000105AB8EEC01A00EE10CACDED010ADDEDB9
:1026E000030AB8EEC00A41EE000A00EE104AB8EE46
:1026F000C01A00EE10CACDED030ADDED040AB8EEF3
:10270000C00A41EE000ACDED040A8742FFF668AF29
:10271000DDED080A9DED0A0A80EE801A8DED081A9B
:102720009DED091ADDED0F0AC1EE201ACDED091A53
:102730009DED0D1AC1EE001ACDED0D1A9DED0E1A8C
:10274000C1EE201ACDED0E1A9DED001AC1EE001A51
:10275000CDED001A9DED011AC1EE201ACDED011A42
:102760009DED031AC1EE001ACDED031A9DED041A7A
:10277000C1EE201A01EE100AB8EEC11ACDED041A0E
:10278000C0EE011A00EE100AB8EEC00A80EE801A00
:1027900000EE100ACDED0A1AB8EEC00A8DED0F1A40
:1027A000DDED020A80EE801A00EE100AB8EEC00AD3
:1027B0008DED021ADDED050A80EE801A8DED051A09
:1027C000DDED081ADDED0A0ADDED0E4A9DED0F2A5A
:1027D00071EEE05A9DED091A34EEC25ADDED0D3A64
:1027E00031EE604A25EE850A33EEC23A04EE430A22
:1027F000B5EEC00AF1EE10FA6CD09DED006ADDED89
:10280000022ADDED016A2E4836EE627A76EEE27A31
:1028100027EE058A07EEC38A67EEA57A47EE447A6B
:10282000C8EE008A87EE807AC0ED008A80ED017ADA
:1028300020EEA67A01EE627A61EEA22A40EEC62A66
:1028400027EE237A04EEA27A61EE062A41EEE62A0A
:1028500002EE227AC7EE002AC0ED022A9DED036A3D
:10286000DDED052A76EE626A66EE857A9DED045A04
:1028700035EE627A47EE437A87EE803A80ED033A8E
:1028800027EE253A06EEC43A83EE004A20EE853A5A
:1028900001EE623A61EEA22A40EEC62A23EE233A06
:1028A00061EE060A04EEA23A41EEC50A80ED044A42
:1028B00002EE203A06E00DE02C01002000000000AE
:1028C00074050020C3EE000AC0ED050A0120CBF814
:1028D000000002E0BEF1000F2DD05C460021C4E9EB
:1028E00001A908460AF0FAF80021E06008460AF05B
:1028F0001DF92061A9F10101AAF101000AF0EEF829
:102900006061A9F10101AAF101000AF00FF9A061CB
:102910006269E168914201DDE260616121698142A1
:1029200001DDA1612061206828B100201BB0BDEC51
:10293000028BBDE8F08F0120F8E700002DE9FE438F
:10294000DFF8B89005000A9ED9F814C04FF00000D7
:10295000CCF3410709F1300439D0012D02D0012018
:10296000BDE8FE83DFF8948008F12008C8E9001272
:10297000052131EA0C013ED0012F3CD0C4E90036DC
:10298000012199F80030A9404A46194201D000239C
:10299000137013781943C9B289F800100329DFD1E5
:1029A000174E3068407C02F0F7F905463068407CED
:1029B00002F0FEF9114B0094CDE901502833A3F148
:1029C0000802A2F108010220FFF76EFDC8E7DFF858
:1029D0002C80032F08F11808C8E9001208F1100133
:1029E00006D00CF00502012A02D0C1E90036C7E783
:1029F000C1E90063C4E7C4E90063C1E7CC0000207B
:102A00008800002070B5174C06460D463268E16814
:102A100001208A421EDB2968236999421ADB636917
:102A20009A4217DCA269914214DC2946304600F034
:102A3000B3F800280ED133680022002B01DA32608F
:102A400004E061688B4201DB491E31602B68002B7A
:102A500001DA2A6070BDA1688B42FBDB491E296048
:102A600070BD00002C01002070B5254C86B0607848
:102A7000F8B100F0E9F8E06000F0E4F8E0680390F5
:102A80002069049000F03EF88DF8090004A903A81D
:102A9000FFF7B8FF0025B0B1A07870B36068009070
:102AA000A06801908DF80850684600F051F8A570B4
:102AB00023E000F0E3F8206100F0C5F86078401CE6
:102AC000607006B070BD039A6068111A00D5494263
:102AD000049BA068181A00D54042A67816B1084495
:102AE00002280ADD62600092A360012601938DF83E
:102AF0000860684600F02CF8A6706570E1E70000F9
:102B0000CC0000200148407A704700008C0500206E
:102B1000054910B591E81C0080E81C00087A0028DF
:102B200000D0012010BD0000200500200148C06831
:102B300070470000CC000020014800697047000089
:102B4000CC0000200149486170470000CC00002003
:102B50003EB504460C220E49FDF7A3FB002813D016
:102B60000B4894E80E0080E80E000A48026862B143
:102B700094E80B008DE80B00684601A990470028F7
:102B800002D16846FFF764FB3EBD2046FAE700002D
:102B900020050020C800002070B5064625480D46D7
:102BA0002DED048B0068E8B396ED008A224CD5ED3C
:102BB000008AF8EEC80A94ED000AB8EEE81A20EE92
:102BC000200AD4ED010A00EE810AD4ED020A30EEAB
:102BD000200A10EE100AFDF7CFFC9FED189B53EC76
:102BE000192BFDF76BFBFDF78FFC3060F8EEC80A80
:102BF00094ED030AB8EEE81A20EE200AD4ED040A98
:102C000000EE810AD4ED050A30EE200A10EE100A1B
:102C1000FDF7B2FC53EC192BFDF750FBFDF774FCEC
:102C2000286000E003E00020BDEC048B70BD0120B3
:102C3000FAE700002C0100207405002000000000CD
:102C40000000E03F704770470A4810B58088A0F543
:102C5000AA41103908D0A0F5C851633904D0BDE8A5
:102C60001040D02006F030BA034C0020616888473D
:102C7000A08910BDAC030020400000200A4810B518
:102C80008088A0F5AA41103908D0A0F5C851633951
:102C900004D0BDE81040902006F016BA034C002086
:102CA00061688847E08A10BDAC0300204000002026
:102CB0002DE9F041084E0446056830680168284651
:102CC000884707463068416828468847284420607E
:102CD0003846BDE8F08100008C0000202DE9F0416D
:102CE0000C4606460025064F05E038684168304628
:102CF000884706440544641EF7D22846BDE8F081A3
:102D00008C0000202DE9F0411E46069C174688469F
:102D100005463A46A8687F1C3346D0F804C04146B1
:102D20002846E047641EF4D1BDE8F08138B5054679
:102D3000FEF77AFD00908189491E0CB284816846B5
:102D4000FEF78EFD002C02D12846FEF7CDFC38BDE3
:102D5000084910B54FF0D04008604FF4FA21FEF753
:102D6000BBFC8020FEF76EFDBDE810400248FFF777
:102D700057BB00002800002024340108704770472A
:102D800010B5082A0EDC0346012A18D0022A56D0B4
:102D9000042A76D010F8042B03F8012B491EF9D130
:102DA000012010BD102A08DC4FEA000230F8043B75
:102DB00022F8023B491EF9D1F2E7002010BD10F8BD
:102DC000042BD207120E491E34D010F8044B491EB2
:102DD00004F0010442EA84122CD010F8044B491E7E
:102DE00004F0010442EA441224D010F8044B491EB6
:102DF00004F0010442EA04121CD010F8044B491EEE
:102E000004F0010442EAC40214D010F8044B491E35
:102E100004F0010442EA84020CD010F8044B491E6D
:102E200004F0010442EA440204D010F8044B04F018
:102E30000104224303F8012B0029C0D1B0E710F8A8
:102E4000042B9207120E491E15D010F8044B491E90
:102E500004F0030442EA04120DD010F8044B491E9A
:102E600004F0030442EA840205D010F8044B04F095
:102E700003042243491E03F8012B0029DFD18FE709
:102E8000FFE710F8042B1207120E491E05D010F8A8
:102E9000044B04F00F042243491E03F8012B0029C0
:102EA000EFD17DE70A4810B5816900290ED10121D3
:102EB0008161FFF74DFF02F047FC054905481C31D1
:102EC0000860BDE81040084600F09CB910BD000045
:102ED0007C000020C9CB00087CB5064628480D467A
:102EE000006868B1002007F03BF806E06A46294612
:102EF000304607F059FC06F0F5FF0028F6D17CBDFE
:102F0000106800901F4C506801902268BDF80000C6
:102F100032F84C1F0844ADF80000BDF8020091885B
:102F20000844ADF80200BDF8040011880844ADF86B
:102F30000400BDF8060091880844ADF80600684614
:102F400007F00EF80EE000BF2068BDF800106A46DA
:102F50004184BDF8021081842946304607F024FCE4
:102F600006F0C0FF0028EFD1206830F8221F428D04
:102F7000891A01804188C28D891A41807CBD000078
:102F8000B40000208800002073B5124A01A90098FF
:102F90001268904700240090C8B10F4900250968C5
:102FA000C969496959B10A684AB1019990477CBD1C
:102FB0006846FFF77DFE0546FEF7ACFF0444019826
:102FC000401E0190F4D5284600F024F80444204621
:102FD0007CBD0000140100208800002073B50D4660
:102FE0000098002490B10A490968C969496959B132
:102FF0004A684AB1294690477CBD6846FFF758FEAB
:1030000020B10A2802D0641CAC42F6DB20467CBD0D
:103010008800002038B5002469460094FEF782FF3E
:103020000099814200DD0C1A204638BDB0F900300D
:10303000B1F90020934200DA0280B0F90230B1F910
:103040000220934200DA4280B0F90430B1F9042042
:10305000934200DD8280B0F90620B1F906108A4261
:1030600000DDC180704770B5B1F90040B2F90030A1
:103070009C4200DD23460380B1F90250B2F90240C0
:10308000A54200DD2C464480B1F90460B2F9045039
:10309000AE4200DA35468580B1F90610B2F9062055
:1030A000914200DB1146C1809D4201DBA14201DA61
:1030B000002070BD012070BD014602480068407CC0
:1030C00000F002B8880000202DE9F8430126894667
:1030D000044602285DDA304F7A6802B190472E4DDF
:1030E0005FEA090005F1100532D0012803D0B9F1DB
:1030F000020F4ED118E055F8240088B92046FEF79B
:10310000D9FD009018B3C0680D21426A6846904707
:1031100002003ED049460098904755F8240000260A
:10312000401C45F8240034E02046FEF7C3FD009023
:1031300068B1C0680D21426A68469047040028D0F3
:10314000386800B1804749460098A047002620E033
:1031500055F82400A846012812D12046FEF7AAFD02
:10316000009068B1C0680D21426A6846904705002A
:1031700006D0386800B1804749460098A847002625
:1031800058F8241009B1012200E00022891A48F8F9
:1031900024103046BDE8F883C401002070B5FF2339
:1031A000B3EB116F2CD0C3B213FB02F500F47F44D4
:1031B00000F47F0354435343000E10FB02F6C2F1A8
:1031C000FF00CAB212FB005201F47F4505FB004428
:1031D00001F47F0505FB0033090E11FB0065C2F306
:1031E00007204FF47F024FF47F4102EA132201EAE5
:1031F00014214FF07F43084303EA0543104318436B
:1032000070BD000002494A69426048617047000091
:103210007C00002010B502E000F8011B521E0AB12C
:103220008307F9D1930818D001EB014402F003029F
:1032300004EB042406E010C01B1F10C040F8084B2C
:1032400040F8044C042BF6DA01E010C05B1E002BA2
:10325000FBD102E000F8011B521E002AFAD110BD7A
:1032600010B5830702D520F8021B521E530811D057
:1032700001EB0144042B09DB10C01B1F10C0042B01
:1032800040F8084B40F8044CF6DA01E010C05B1E31
:10329000002BFBD1D20700D0018010BD10B5040077
:1032A00002D0607910B106E0012010BD002020712D
:1032B000204600F005F801206071002010BD0000DC
:1032C00008B500680649884208D10648016841F4FB
:1032D00080510160006800F48050009008BD00003B
:1032E000003002403038024090F83510022903D0F7
:1032F0008021416501207047052180F83510006864
:10330000016821F0010101600020704770B504469A
:1033100000F048F90546601C02D0044800780444D7
:1033200000F040F9401BA042FAD370BD100000200D
:10333000F0B587B014216846FCF79AFF2048016871
:1033400000293AD1012101601E480024016841F0A2
:10335000010101600068022500F0010005904FF2B4
:103360003F00CDE9000502AA03260C2782E8D00021
:103370006946154800F030F841F23F40CDE90005BC
:1033800002AA694682E8D000104800F025F84FF6FE
:103390008370CDE9000502AA694682E8D0000C4896
:1033A00000F01AF84FF63370CDE9000502AA69461D
:1033B00082E8D000074800F00FF807B0F0BD000029
:1033C0000800002038380240001402400018024073
:1033D00000100240000C02402DE9F84F00224FF08F
:1033E000010803254FF00F0E0B6808FA02F4234082
:1033F000A3426ED14E68012E05D0022E03D0112EAD
:1034000001D0122E12D186684FEA420C05FA0CF751
:10341000BE43CF6807FA0CF7374387604668A64378
:103420000C79C4F30014944034434460C6685700D8
:1034300005FA07FC8C6826EA0C06BC403443C460DD
:103440004C68022C01D0122C13D1D40800EB840458
:10345000A346D4F8209054074FEAD46A0EFA0AF62D
:1034600029EA06090E6906FA0AF646EA0906CBF8C1
:10347000206006680C7926EA0C0604F00304BC40C0
:10348000344304604C68E40065D5364C266846F445
:1034900080462660246822F0030604F480440094E9
:1034A000314C3444A446D4F808489607370F0EFA36
:1034B00007F6B4432D4EB04201D1002624E02C4E35
:1034C000B04201D101261FE02A4EB04202D10226AD
:1034D0001AE040E0284EB04201D1032614E0274E06
:1034E000B04201D104260FE0254EB04201D105269D
:1034F0000AE0244EB04201D1062605E0224EB04239
:1035000001D1072600E00826BE402643CCF8086813
:103510001E4E34684F689C43FF0300D51C43346043
:103520001A4C241D26684F689E43BF0300D51E43D6
:103530002660164E083634684F689C43FF0200D55B
:103540001C433460114E0C3634684F689C43BF02F4
:1035500000D51C433460521C102AFFF445AFBDE86F
:10356000F88F000044380240003001400000024063
:103570000004024000080240000C0240001002401B
:103580000014024000180240001C0240003C0140B0
:103590000069084000D0012070470AB1816170477E
:1035A0000904FBE701488068704700001000002014
:1035B0000248816802781144816070471000002041
:1035C0000B4810B5016841F400710160016841F4D5
:1035D00080610160016841F480710160032000F0A6
:1035E0006FF8002000F006F800F024F8002010BD6D
:1035F000003C024070B50D4D04464FF47A712878B6
:10360000B1FBF0F00A490968B1FBF0F000F02FFBC4
:1036100048B9102C07D200222146501E00F030F885
:1036200000206C6070BD012070BD00001000002003
:103630001C0000200A4808B5016841F4804101607F
:10364000006800F4804000900548001F016841F0C8
:1036500080510160006800F08050009008BD0000BB
:1036600044380240002809DB00F01F02012191408C
:103670004009800000F1E020C0F800117047000010
:10368000F0B40E4B1B680C46C3F30223C3F10705CD
:10369000042D00D90425191D072901D2002300E0BB
:1036A000DB1E012606FA05F1491E214099409E4085
:1036B000761E16403143F0BC0AF0C6BD0CED00E0AA
:1036C000064900F0070208684FF6FF03184040EA79
:1036D0000220034A10430860704700000CED00E030
:1036E0000000FA052DE9F0470E46050065D0DFF829
:1036F0001481D8F80000F7B200F00F00B04207D2F2
:1037000088F80070D8F8000000F00F00B04254D1E3
:1037100028683D4C810712D5400703D5206840F446
:10372000E05020602878000703D5206840F460400E
:1037300020602068A96820F0F00008432060287805
:10374000C0072DD0304968680839012812D00228F6
:1037500013D0032811D00968890700292DDA2168C0
:1037600021F0030101432160FFF71CFF814641F274
:10377000883A0EE009688903EFE709688901ECE7F8
:10378000FFF710FFA0EB0901514502D90320BDE866
:10379000F0872068696800F00C00B0EB810FEFD172
:1037A000D8F80010404601F00F01B14207D9077068
:1037B000006800F00F00B04201D00120E7E7287850
:1037C000400705D52068E96820F4E05008432060F0
:1037D0002878000706D52068296920F4604040EA6F
:1037E000C100206000F038F82168084AC1F30311D5
:1037F000515CC8400649086006480068FFF7FAFEB9
:103800000020C4E7003C02400838024088E4000879
:103810001C000020140000200448054900680968C5
:10382000044AC1F38221515CC84070471C0000204B
:103830000838024098E4000804480549006809680F
:10384000044AC1F34231515CC84070471C0000205B
:103850000838024098E40008154810B5006810F0D8
:103860000C02144813D04110042A0FD0082A0ED19C
:103870000F4C241F2268236802F03F025B0207D529
:103880002068C0F38810A0FB010106E0084610BDC7
:103890002168C1F38811A1FB00010023FCF790FC13
:1038A0002168C1F30141491C4900B0FBF1F010BD92
:1038B000083802400024F4002DE9F84F04006ED0CF
:1038C0002078DFF83C93C007A9F104054AD009F13C
:1038D00004000168C1F38101012908D00068C0F328
:1038E000810002280AD1D9F80000400206D52868D4
:1038F000800337D560680028E1D033E06068B0F518
:10390000803F10D0B0F5A02F286810D020F4803070
:103910002860286820F4802028606068A8B1FFF73C
:1039200041FE06460DE0286840F48030F4E740F49C
:1039300080202860F7E700BFFFF734FE801B642873
:1039400073D828688003F7D50CE0FFF72BFE0646F6
:1039500005E000BFFFF726FE801B6428F0D828682A
:103960008003F7D42078DFF89C8280074FF0000AAC
:103970003ED5A348001D016811F00C0F08D0006867
:10398000C0F3810002280BD1D9F80000400207D40F
:103990002868800716D5E068012800D112E02BE1E5
:1039A000E068B8B10120C8F80000FFF7FBFD06464B
:1039B00005E000BFFFF7F6FD801B0228C0D828688D
:1039C0008007F7D52868216920F0F80040EAC10097
:1039D00028600DE0C8F800A0FFF7E4FD064604E00B
:1039E000FFF7E0FD801B02281FD828688007F7D466
:1039F0002078000722D5824E83486169703671B104
:103A000001210160FFF7CEFD074604E0FFF7CAFD84
:103A1000C01B022809D830688007F7D50EE0C0F82F
:103A200000A0FFF7BFFD074605E082E0FFF7BAFD03
:103A3000C01B02287DD830688007F7D42078400763
:103A400068D5DFF8BCB100270BF13C0BDBF80000B8
:103A5000C0000BD4DBF8001041F08051CBF800100F
:103A6000DBF80000012700F080500090674E3068BE
:103A7000C00510D4306840F480703060FFF792FDCC
:103A8000009005E0FFF78EFD0099401A022850D8FB
:103A90003068C005F6D55A4EA0686C3601280FD0A4
:103AA0000528306810D020F001003060306820F028
:103AB00004003060A068B8B1FFF774FD00900FE01B
:103AC000306840F00100F4E740F004003060F7E7B0
:103AD000FFF768FD0099411A41F28830814266D8AB
:103AE00030688007F4D50EE0FFF75CFD009007E03A
:103AF000FFF758FD0099411A41F28830814256D8AB
:103B000030688007F4D42FB1DBF8001021F0805129
:103B1000CBF80010A069C8B33949091D0968C1F381
:103B2000810102294AD00228504607D0C8F8600017
:103B300000E03CE0FFF736FD04463BE04746C8F8AE
:103B40006000FFF72FFD064605E000BFFFF72AFDE6
:103B5000801B02282BD828688001F7D4D4E90701FC
:103B60000843A16A2A4A490802EB0141626A41EA14
:103B70008211084394F82C1040EA0161C9F8001042
:103B800001203866FFF70EFD044606E036E000BF70
:103B9000FFF708FD001B022809D828688001F7D527
:103BA0002CE000BFFFF7FEFC001B022802D9032017
:103BB000BDE8F88F28688001F4D41FE00128F7D011
:103BC000D9F80000E26900F48001914214D1226A20
:103BD00000F03F0191420FD147F6C071626A014087
:103BE000914209D1A26A00F44031914204D1E16AC4
:103BF00000F07060884201D00120D9E70020D7E7AB
:103C00000438024000004742800E474200700040E6
:103C10000000FFFF70B515460E46040003D094F86F
:103C2000490010B107E0012070BD002084F8480071
:103C3000204600F01AF804F108012068FDF718F892
:103C40003146A2682068FDF73DF8D4E90102294613
:103C5000236BFCF7EDFFA168206850F8212042F0AB
:103C6000010240F82120002070BDFFF761BB10B5B4
:103C7000401EB0F1807F01D3012010BD4FF0E02441
:103C800060610F2160170AF0DFFA0020A0610720B1
:103C90002061002010BD70477047000070B590F89B
:103CA0003C20012A32D0012480F83C40022280F8D6
:103CB0003D2003685A689D6822F070060A68324306
:103CC0005A60134B02689A4214D0B2F1804F11D05F
:103CD000104B9A420ED0104B9A420BD00F4B9A4287
:103CE00008D00F4B9A4205D00E4B9A4202D00E4B91
:103CF0009A4204D1496825F080031943916080F805
:103D00003D40002180F83C10084670BD022070BD87
:103D1000000001400004004000080040000C00408A
:103D200000040140004001400018004010B50400AC
:103D300003D094F83D0010B107E0012010BD002031
:103D400084F83C00204600F00DF8022084F83D0085
:103D5000211D206804F00CFC012084F83D000020A7
:103D600010BD000008B51A4A01681A4891420ED1E8
:103D7000016841F0020101600068002200F00200C9
:103D8000009011461D20FFF77BFC1D2010E0124A19
:103D9000914211D1016841F00401016000680022E4
:103DA00000F00400009011461E20FFF769FC1E2061
:103DB000BDE80840FFF756BC084A914207D10168A8
:103DC00041F020010160006800F02000009008BD73
:103DD0000004004040380240000800400014004049
:103DE000022180F83D1001688A6802F00702062A65
:103DF00003D00A6842F001020A60012180F83D10F8
:103E0000002070470168CA6842F00102CA60006879
:103E1000816801F00701062903D0016841F0010122
:103E2000016000207047022180F83D1001680A6A95
:103E300041F211131A4207D10A6A9B101A4203D1A8
:103E40000A6822F001020A60012180F83D1000207A
:103E5000704770B5044690F83C00012817D0012542
:103E600084F83C50022084F83D002068826822F0EB
:103E7000770222F47F4282600868502830D00DDC3F
:103E800020284DD005DC98B310283BD148E0022013
:103E900070BD302844D0402834D139E0602828D083
:103EA000702806D0B0F5805F2CD0B0F5005F29D126
:103EB0000AE0CB68D1E90121206804F0BDFB20684D
:103EC000816841F0770109E0CB68D1E901212068E0
:103ED00004F0B2FB2068816841F48041816011E008
:103EE000CA684968206804F0B9FB5021206807E0DF
:103EF00016E0CA684968206804F0C1FB60212068A8
:103F000004F0A4FB84F83D50002084F83C0070BD10
:103F1000CA684968206804F0A1FB40212068EFE7E7
:103F2000226801461046EBE7704770B5044600680A
:103F300001694FF00005C943890715D4C168C94319
:103F4000890711D4E91E016101202077206880696A
:103F50008007204602D0FFF7E7FF04E000F098F862
:103F6000204600F096F8257720680169C943490783
:103F700017D4C168C943490713D46FF00401016124
:103F8000022020772068806910F4407F204602D00C
:103F9000FFF7CAFF04E000F07BF8204600F079F854
:103FA000257720680169C943090716D4C168C94348
:103FB000090712D46FF008010161042020772068FE
:103FC000C0698007204602D0FFF7AEFF04E000F092
:103FD0005FF8204600F05DF8257720680169C94345
:103FE000C90617D4C168C943C90613D46FF01001BC
:103FF0000161082020772068C06910F4407F2046C6
:1040000002D0FFF791FF04E000F042F8204600F0F4
:1040100040F8257720680169C943C90708D1C168FC
:10402000C943C90704D1891E0161204600F032F856
:1040300020680169C943090609D4C168C943090652
:1040400005D46FF0800101612046FFF724FE20684F
:104050000169C943490609D4C168C943490605D461
:104060006FF040010161204600F02AF820680169E4
:10407000C94389060BD4C168C943890607D46FF0C8
:10408000200101612046BDE87040FFF705BE70BD0C
:1040900070477047074A0168914203D106490A6890
:1040A000521C0A6000680549884201D1FEF7DCBC59
:1040B00070470000000400402C0000200008004071
:1040C0007047704770B5026804461068D16853693C
:1040D00010F00F0F52D003F0010501F490762E433B
:1040E0005FD0C20705D0CA0503D5E26B42F00102DA
:1040F000E263420705D5DA0703D0E26B42F0020221
:10410000E263820705D5DA0703D0E26B42F00402CE
:10411000E263020707D501F020022A4303D0E26BD5
:1041200042F00802E263E26B002A33D0800604D535
:10413000880602D5204605F029F920684069E16B20
:10414000C0F38010090700D428B3204605F010F909
:104150002068416949061AD5416921F04001416151
:10416000606BA0B11B490165606BFFF7BDF80028CB
:1041700010D0606B016DBDE870400847830610D514
:104180008B060ED52046BDE8704005F0FFB82046EE
:10419000FFF797FF70BD2046FFF793FF0020E06315
:1041A00070BD030606D50B0604D52046BDE8704059
:1041B00005F0CCB94006F3D54806F1D5D1682046C4
:1041C00021F04001D160202184F8391000F075F809
:1041D00070BD00006193000870B5040004D094F82D
:1041E0003900002510B106E0012070BD84F8385078
:1041F000204600F023F8242084F839002068C168A4
:1042000021F40051C160204605F00CF920680169D5
:1042100021F4904101612068416921F02A01416146
:104220002068C16841F40051C160E563202084F832
:10423000390084F83A00002070BD000010B586B047
:10424000044614216846FCF713F818492068884290
:1042500029D117480021026842F01002026000686C
:1042600000F01000059012481438026842F0010274
:104270000260006800F0010005904FF4C0600090FB
:104280000220CDE901010320039007200490694634
:104290000848FFF7A1F8002211462520FFF7F0F9A2
:1042A0002520FFF7DFF906B010BD00000010014027
:1042B000443802400000024070477047FEE70000AB
:1042C00070B5134C4FF48075002229462046FFF745
:1042D00064F9206820F440202060206840F48020A9
:1042E0002060002261152046FFF757F902200AF0EE
:1042F00047F8012229462046FFF74FF902200AF02D
:104300003FF829462046BDE870400022FFF745B936
:1043100000040240114810B5016886B041F0020166
:1043200001600068022100F0020005904FF4407027
:1043300000900120CDE90201094C01906946204618
:10434000FFF74AF8012211022046FFF726F9012261
:1043500051022046FFF721F906B010BD3038024067
:104360000004024070B5134C4FF4807500222946BA
:104370002046FFF712F9206820F4402020602068D2
:1043800040F480202060012251022046FFF705F909
:10439000022009F0F5FF012229462046FFF7FDF82B
:1043A000022009F0EDFF29462046BDE870400022BA
:1043B000FFF7F3B8000402402DE9F0471A4C81469C
:1043C0000025206820F44020206020682060DFF86D
:1043D00058802E46A71508F11008002239462046BD
:1043E000FFF7DBF8022009F0CBFF01223946204617
:1043F000FFF7D3F86806050ED8F80000800501D550
:104400006D1CEDB2012009F0BBFF761CF6B2082E40
:10441000E3D3B9F1000F04D0FFF752FF2846BDE8FF
:10442000F087FFF79FFFF9E7000402402DE9F04114
:104430001E4D06462846296821F440212960296836
:1044400041F480212960AF1500223946FFF7A5F815
:1044500000244FF40078300601D5012200E000224C
:1044600041462846FFF799F8022009F089FF01220A
:1044700039462846FFF791F8022009F081FF002213
:1044800039462846FFF789F8072C04D10122414616
:104490002846FFF782F87006060E022009F070FF2A
:1044A000641CE4B2082CD6D3BDE8F08100040240BD
:1044B00070B5134C206820F440202060206840F440
:1044C000802020600122550229462046FFF765F82A
:1044D0000122160231462046FFF75FF8042009F05A
:1044E0004FFF002229462046FFF757F8042009F025
:1044F00047FF31462046BDE870400022FFF74DB827
:104500000004024070B5134C206820F44020206065
:10451000206840F480202060A5150022294620460E
:10452000FFF73BF86615002231462046FFF735F8C5
:10453000042009F025FF012229462046FFF72DF827
:10454000012231462046FFF728F8BDE870400420DC
:1045500009F016BF0004024070B5174C0025206812
:1045600020F4402020602068206001225102204673
:10457000FFF713F8012009F003FF0122160231466C
:104580002046FFF70AF8012009F0FAFE0A48103029
:1045900007E06D1CEDB2FA2D03D9FFF7B3FF012040
:1045A00070BD01688905F4D4002231462046FEF72B
:1045B000F4FF002070BD000000040240C0F345116C
:1045C000C20AC00200EB4110104480B270470000E4
:1045D00070B50B490646002408884D88214645439E
:1045E000204600F0A5FE01F09FF8B0B24FF0D84190
:1045F00003E000BFA1F88000641CAC42FAD370BD98
:10460000AC0300200449054A0968497C52F821108E
:10461000096909680847000088000020A000002000
:104620002DE9F04F33492C240A4688712A259288B7
:104630002B2645F2105B4FF4305E4FF448774FF075
:10464000F00949F2413A4FF4A07845F2103C4FF49A
:10465000F07358B1A1F80080A1F80290524501D042
:10466000624529D10C814D818E8139E0A1F80090FD
:10467000A1F80280524501D0624508D10C814D81DC
:104680008E81624531D1A1F800804B802DE05A45E2
:1046900008D1A1F808E04FF4285048814FF42C507D
:1046A000888106E0A2F5C85063381ED10C814E8186
:1046B0008D810B804F8018E05A4508D1A1F808E0A1
:1046C0004FF4285048814FF42C50888106E0A2F521
:1046D000C850633804D10C814D818E810F804B808E
:1046E000624502D10B80A1F80280BDE8F04F0020A6
:1046F00000F0D8BCAC0300202DE9F04F05468DB08A
:104700007B48DDF860901A9C00681E4617464FF003
:10471000000A78B11B9B199ACDF808900593CDE952
:104720000324DDE91623CDE90023046833463A4625
:10473000284680E0DDE9160201EB060805EB070CD0
:104740001043A8F10108ACF1010C012806D0C9F111
:1047500008000590002002910990C6E065480268B3
:10476000B2F90A30581A002806DD361A002E63DD29
:104770001946199B00FB0344B2F90E00A8EB000098
:10478000002802DD361A002E56DDB2F90C00ACEB23
:104790000000002800DD3F1AB2F908300020AB42CB
:1047A00035DD581B3F1A4B46B9F1080F26D006DC01
:1047B000012B0BD0022B11D0042B28D116E0102B8B
:1047C0001ED0182B1FD0202B21D11CE020F0070376
:1047D00004EBE0041D4400F0070018E020F00303A0
:1047E00004EBA0041D4400F0030010E020F00103DE
:1047F00004EB60041D4400F0010008E0044404E000
:1048000004EB400401E004EB800405440020002F89
:1048100012DD1B9BDDF864C0CDE90403CDE900691E
:10482000CDE902C4527C34483B4650F82200C268AD
:1048300054680A462946A0470DB0BDE8F08F179985
:10484000029808440C902B49401E00900A68B2F967
:104850000A30834241DCB2F90E10029881423CDBFF
:104860004FF0000BD84603950A9434E0BBF1000FDB
:1048700005D10A984FF0080B10F801AB0A90059982
:10488000ABEB090B3AFA01F00AFA09F101F0FF0A61
:1048900004D118490968097C890716D415490968A3
:1048A000C96B0A680B921B9A0AB152F82000086083
:1048B00016990398009B4218521E029900F0E4F9E1
:1048C0000C490B980968C96B08600399169808F1A0
:1048D000010808440390B845C8DB0998401C0990BA
:1048E0000C980290199804440998B042A7DBA3E7FA
:1048F000B400002088000020A0000020F0B40C4686
:1049000012490968B1F90A30A3421CDCB1F90E3032
:10491000A34218DBB1F90830834200DD1846B1F933
:104920000C30934200DA1A4682420CDB4B7C084979
:1049300051F8235013462246E9688E6801462846FE
:10494000B446F0BC6047F0BC70470000880000200F
:10495000A00000202DE9FE4F161ACDE900104FF0FF
:1049600000085D1A47464FF0FF30002E02DD4FF081
:10497000010102E003D14FF000018B4602E08346C3
:10498000C6F10006002D02DD4FF0010002E003D168
:104990004FF00000824602E08246C5F10005AE42BB
:1049A00001DD344600E02C46601C4FF00009029007
:1049B00018E0009881B2019880B200F04DF8B04440
:1049C0002F44A04504DD0198A8EB04085844019049
:1049D000A74203DD00983F1B5044009009F10100FD
:1049E0001FFA80F902998945E3DDBDE8FE8F0000DA
:1049F0000A46174930B40968B1F90A30934225DCF8
:104A0000B1F90E30934221DBB1F9083083421DDC4D
:104A1000B1F90C30834219DB0B7C0E4CDB0709D05B
:104A2000497C54F82130D968CC690146A44630BC91
:104A300018466047CB6B497C1B6854F82140E168FD
:104A40008D6901462046AC4630BC604730BC70479B
:104A500088000020A000002000B500F069FC00F0F4
:104A600063FE03484FF0D8410088A1F8800000BDE4
:104A7000200000202DE9FC4F80460025144603202D
:104A80000F46A0EB440649E0381B81B208EB050A4B
:104A900001901FFA8AF0FFF7DFFF781B81B208EB65
:104AA000040900901FFA89F0FFF7D6FF07EB050B0A
:104AB0001FFA8BF11FFA89F0FFF7CEFF07EB04090D
:104AC0001FFA89F11FFA8AF0FFF7C6FFA8EB050A63
:104AD0001FFA89F11FFA8AF0FFF7BEFFA8EB04095D
:104AE0001FFA8BF11FFA89F0FFF7B6FF019881B228
:104AF0001FFA8AF0FFF7B0FF009881B21FFA89F021
:104B0000FFF7AAFF6D1C002E03DA06EB8506B61D23
:104B100004E0281B06EB8006641E0A36A542B3DDBE
:104B2000BDE8FC8F2DE9F043444C91460246A08835
:104B300023460D464FEA1128160A5B89A0F513415A
:104B4000413917D0A0F5A641103913D0A0F5AA41DC
:104B5000103914D02646A0F5C857B1793688B61A50
:104B6000761E633F25D0A0F5D047043F3DD00129F4
:104B700051D051E0184600F0CBFD30463CE01846DD
:104B800000F0C6FD304600F0B7FD6089401C80B2E1
:104B900000F0BEFDD0B200F0AFFDA08900F0B8FD7E
:104BA000404600F0A9FDA089401C80B200F0B0FD95
:104BB0002DE001B9B2B2184600F0AAFD160A30463F
:104BC00000F09AFDD0B200F097FD304600F094FD61
:104BD000D0B200F091FDA08900F09AFD404600F0AF
:104BE0008BFDE8B200F088FD0EE0012900D1B2B2E1
:104BF000184600F08DFD100A00F07EFDD0B200F0E6
:104C00007BFDA08900F084FD404600F075FDE8B210
:104C100000F072FD08E0B2B21146184600F08EFDB9
:104C2000A089294600F08AFD4FF0D840218920F85C
:104C30007E1FA0F80290BDE8F0830000AC030020C6
:104C40002DE9F0438146A2EB09020798521C1F464A
:104C500095B20C4686B24FF0D84811E0214648463E
:104C600000F066FB00F060FD0020414604E000BF5C
:104C7000A1F88060401C80B2A842F9D3641CA4B2A1
:104C8000BC42EBD9BDE8F08338B5134C2468B4F9C5
:104C90000850854200DD2846B4F90C50954200DAF0
:104CA0002A46824217DBB4F90A508D4200DD2946BC
:104CB000B4F90E509D4200DA2B468B420BDB009379
:104CC000647C064B53F82440E3681D6913460A468A
:104CD00001462046A84738BD88000020A0000020DB
:104CE000082107F0BDBC000002480068806B006826
:104CF000704700008800002002480068C06B006810
:104D00007047000088000020024809210068407CAC
:104D100007F0A6BC88000020092107F0A1BC70B5EF
:104D200000252C462046FCF7C5FF00B16D1C641C15
:104D3000022CF7DB284670BD02480068407C00F07A
:104D400003B800008800002010B5FCF7B3FF00286E
:104D500005D0C168CA6ABDE810400221104710BDE5
:104D6000F8B515460E460124FCF7A4FF009058B193
:104D7000C0680421426A68469047030004D02A466E
:104D800031460098984700242046F8BD0148006845
:104D9000704700000C010020012107F061BC0120D8
:104DA00007F0C8BC01484068704700000C010020B3
:104DB000022107F055BC022007F0BCBCAFF3008015
:104DC0002DE9F041002809D0876837B10D4E716890
:104DD00019B10468B4F5807F02DD0020BDE8F081E0
:104DE0003068844200DD0446002507E057F82500BE
:104DF000FFF708FC716841F825006D1CA542F5DB42
:104E00007068EBE74C0100200449054A0968497CB9
:104E100052F82110096949680847000088000020FD
:104E2000A000002010B500F01F01074A074BC0F397
:104E30004514C0F3C4201B5D105C515C00EB0320E3
:104E400000EB014010BD00008C440108AC44010897
:104E500010B50A4C606860B920688000FCF76CFCF3
:104E6000606040B104F10801054808600846FEF79B
:104E7000C9F9002010BD012010BD00004C01002028
:104E80000DCC00082DE9F047FFF749FF0746002445
:104E9000DFF860802AE02046FCF70CFF28B3D8F842
:104EA000000090F8119044742046FFF719FF08287D
:104EB00017DC1148114950F824000069884210D0CD
:104EC0002046FFF729FF0646002508E0E8B2FFF775
:104ED0009BFF0246E9B2204600F0B8FA6D1CB542CD
:104EE000F4DBD8F8001081F81190641CBC42D2DBCE
:104EF000BDE8F08788000020A0000020D849010804
:104F00000246012000E05043491EC9B2FBD270475F
:104F100008B54FF0D840B0F88000ADF80000BDF8FB
:104F2000000008BDFEB50022ADF80020ADF8042059
:104F3000ADF80820464C2288824202D962888A4213
:104F400001D80020FEBD00F0F3F9A08849F24132FB
:104F500041F6631745F2103545F21056904207D0DE
:104F6000A0F5D041043903D0A84201D0B84201D104
:104F70002E2005E0B04202D14FF4385000E022204C
:104F800000F0C6FBA088A0F51341203903D1012011
:104F9000401EC0B2FCD2FFF7BBFFADF80000A088F6
:104FA000B8424CD00120401EC0B2FCD2FFF7B0FF87
:104FB000ADF80000A088904203D0A84201D0B042D2
:104FC00014D10120401EC0B2FCD2FFF7A1FFADF802
:104FD0000800BDF80000C0B2ADF80400BDF8040040
:104FE0004FF6FF7101EA0020ADF80400A088A0F59B
:104FF0001341253923D0A0F58A4135391FD0A0F5BA
:105000008A4131391BD0A0F53541053917D0A0F5BB
:105010004541053913D0904203D0A84201D0B04297
:1050200010D1BDF80000BDF804106FF30A00890A22
:1050300040EA4110BDF8081040EAD120FEBDBDF89D
:105040000000FEBDBDF80000BDE8FE40FFF7B6BAA7
:10505000AC03002010B50246BE2000F059FB05202D
:1050600000F04AFB1046FBF742FA9FED0C1B53EC95
:10507000112BFBF7CAF9FBF766FA80B200F03CFB94
:10508000012000F039FBFF2000F036FB002000F08B
:1050900033FBBDE81040002000F02EBB666666665C
:1050A00066660440F0B56C4C00232146A2798988DD
:1050B00041F66316012A01D01AB11BE0B14202D1B8
:1050C00018E0B14216D1082814D2DFE800F0040637
:1050D000080A0C0E101206200CE007200AE004203B
:1050E00008E0052006E0012004E0002002E00320A3
:1050F00000E00220A1F5134745F2103245F21055A9
:10510000413F05D0914203D0A94201D0B14277D1AD
:10511000082812D2DFE800F0110406080A0C0E106D
:1051200080230AE0402308E0C02306E0202304E0B7
:10513000602302E0A02300E0E023A94202D14FF463
:10514000585000E03620914205D0A94203D0B14228
:1051500001D043F00803194600F0F0FAA188B142EB
:105160000AD098062088628802D5904202D303E0D4
:10517000904201D9228060806089A94241D100F02B
:10518000C7FA002000F0B8FA6089401C80B200F035
:10519000BFFA002000F0B0FA6089801C80B200F0F5
:1051A000B7FA2088401EC0F30F2000F0A5FA6089EE
:1051B000C01C80B200F0ACFA2078401EC0B200F0F3
:1051C0009BFAA08900F0A4FA002000F095FAA089CB
:1051D000401C80B200F09CFA002000F08DFAA089FB
:1051E000801C80B200F094FA6088401EC0F30F204B
:1051F00000F082FAA089C01C80B200F089FA22E097
:1052000028E000F085FA002000F076FA002000F097
:1052100073FA2088401EC0F30F2000F06DFA20784A
:10522000401EC0B200F068FAA08900F071FA0020B8
:1052300000F062FA002000F05FFA6088401EC0F3C0
:105240000F2000F059FAA078BDE8F040401EC0B22F
:1052500000F052BAF0BD0000AC03002010B50D4CB8
:105260000D492068407C51F8200048B1C16811B157
:105270000968042901D00068F7E708B1FCF702FDCE
:1052800020680021016600F108014161BDE810407D
:1052900000F02EB888000020A00000200149096815
:1052A0004968084748010020044909680A7C5207F8
:1052B00001D5C96B00E0896B086070478800002049
:1052C0007CB5094C05462068417C084850F821000F
:1052D000C1680A6B6946904720686A4629460830CB
:1052E000FDF7C1FE7CBD000088000020A00000206A
:1052F0000448016804484A7C083150F82200C2681A
:10530000126B104788000020A000002001490968A6
:105310000968084748010020044909680A7C5207C7
:1053200001D5896B00E0C96B0860704788000020D8
:10533000F0B53F4A0D460446060A918810462F0AEA
:105340004089A1F51343413B28D0A1F5A643103B6A
:1053500024D0A1F5C853633B2FD0A1F5AA43103B3D
:1053600064D100F0D5F9304600F0C6F95089401CF0
:1053700080B200F0CDF9E0B200F0BEF9908900F003
:10538000C7F9384600F0B8F99089401C80B200F0A7
:10539000BFF9E8B2BDE8F04000F0AEB900F0B8F9EE
:1053A000304600F0A9F9E0B200F0A6F9908900F0CB
:1053B000AFF9384600F0A0F9EBE7917929B300F096
:1053C000A7F9304600F098F9E0B200F095F910889E
:1053D000401EC0F30F2000F08FF91078401EC0B2BD
:1053E00000F08AF9908900F093F9384600F084F9CA
:1053F000E8B200F081F95088401EC0F30F2000F0A1
:105400007BF99078401EC0B2C4E71188091B491E81
:105410008CB200F07DF9002000F06EF9002000F061
:105420006BF9200A00F068F9E0B2D9E7F0BD00009E
:10543000AC030020014AC2E9000170470C010020C2
:10544000014909688968084748010020F8B51546F0
:105450000E460124FCF72EFC009058B1C0681021C4
:10546000426A68469047030004D02A4631460098B5
:10547000984700242046F8BDF8B515460E4601248D
:10548000FCF718FC009058B1C0680321426A6846D6
:105490009047030004D02A463146009898470024DC
:1054A0002046F8BDF8B515460E460124FCF702FC6F
:1054B000009058B1C0680B21426A684690470300CB
:1054C00004D02A4631460098984700242046F8BD6B
:1054D000F8B515460E460124FCF7ECFB009058B1D8
:1054E000C0680A21426A68469047030004D02A46F1
:1054F00031460098984700242046F8BD38B50D463F
:105500000124FCF7D7FB009050B1C0680621426A25
:1055100068469047020003D029460098904700242F
:10552000204638BD2DE9FF4F1D460C468A465807D8
:1055300000D0012000EBD500690810FB01F0203AF3
:1055400000F0FF09D0B20026DFF8A4B002904BE0D3
:105550000C2D11D0102D14D0182D17D0202D45D181
:105560002449029801EBC0104FF00008875D38060F
:1055700013D52148026814E00298204900EB40004E
:1055800008E01F49029801EB0010EDE702981D4961
:1055900000EBC00001EB8000E6E70D9828B9164843
:1055A000426821460098FFF7BDFA7806070E641C92
:1055B000BBF80200A4B2A04218D9A4EB0A00A8428A
:1055C00009D100985446401C80B20090BBF80010EE
:1055D00081420BD906E008F1010000F0FF08B8F1A4
:1055E000080FC4D3761CF6B24E45B1D3BDE8FF8F89
:1055F000AC03002060FC000820000020A0E40008AC
:1056000014E9000804EF00082DE9FF4F81B00026DF
:10561000DDF838A01D46934681463446B0464FEA31
:105620005A0727E0281B401EC1B20A20FFF768FC7A
:10563000BBFBF0F00A21B0FBF1F201FB120026B92E
:10564000691E8C4201DA48B101263030C2B207FB34
:10565000049080B25346CDF8008006E007FB04902A
:1056600080B253462022CDF800800299FFF75AFFFE
:10567000641CE4B2AC42D5D305B0BDE8F08F2DE98F
:10568000F84F044600F0FF0910190D46DDE90AB68F
:105690001FFA80F8581987B24FF0000A12E044450B
:1056A00003D305EB0B004C4685B2BD420FD25B46DF
:1056B00029462046CDF800A0FFF734FF04EB5B003D
:1056C00084B2761C3278A2F120005E28E7D9BDE8CA
:1056D000F88F000010B5074C2068006BFEF792FFB2
:1056E000FFF71AFE2068406BFEF78CFFBDE8104004
:1056F000FFF7DABD8800002001B5BDF80000ADF865
:105700000000BDF800004FF0D841A1F8800008BDAE
:1057100001B5BDF80000ADF80000BDF800004FF085
:10572000D841A1F87E0008BD03484FF0D841008958
:10573000A1F87E0070470000AC0300204FF0D84273
:1057400022F87E0F518070472DE9F84300231A4656
:105750003C493D48FCF73CFA3C4C002062882188DB
:10576000FFF7A0FE628821880020FFF7B1FEA08825
:1057700040F2DF156F1CA0F5AA4140F21F364FF42E
:105780004878103921D0A0F5C851633928D0A0F548
:10579000A6414FF4A075103932D0A0F5D04104399C
:1057A0002ED0A07940F63F7740F65F76F0B3062022
:1057B000FDF7C8F900219B23F02208460097FDF76A
:1057C000BDF8BC232A46009614E000233A46194649
:1057D00018460095FDF7B2F800234246009609E00E
:1057E00000234246194618460096FDF7A7F8002305
:1057F000009519E000210120FDF7A0F8BDE8F8832D
:10580000A079E22440F65B78C42640F6E46910B142
:105810000620FDF797F9002143462A4608460094E2
:10582000FDF78CF84B4600963A46E3E7FFE7009712
:10583000002122889B230846FDF780F800966288A5
:10584000BC23D7E7182D0108E02B0108AC0300208A
:10585000012902D04FF0FF30704700207047000050
:105860002DE9FF4F8DB01746674ADDF870901E9EF8
:10587000209812681D4600248AB11D9B1F98CDE90F
:105880000293CDE90460DDE91A03CDE90003146851
:105890002B463A460D98A04711B0BDE8F08F0D9AFF
:1058A00001EB050802EB070CDDE91A231A43A8F106
:1058B0000108ACF1010C012A06D0C9F108004FF033
:1058C000000B029105909CE0504A1268B2F90A4020
:1058D000631A002B06DDED1A002DDDDD21461D9C2F
:1058E00003FB0466B2F90E30A8EB0303002B02DDC4
:1058F000ED1A002DD0DDB2F90C30ACEB0303002B18
:1059000000DDFF1A0D9B1C1AB2F90830A3420DDD11
:10591000A3EB040C0CEB0003181A20F0070004445E
:10592000A7EB0C0706EBE30603F00700002FB3DD3F
:10593000DDF874C01F9BCDE902C6CDE90403CDE9B3
:105940000059527C32483B4650F82200C2685568E4
:105950000A462146A8479FE71B99029808440C90E5
:105960002A49401E00900A68B2F90A30834242DC9C
:10597000B2F90E10029881423DDB4FF0000A0D98FB
:105980000A96D046039034E0BAF1000F05D10A9888
:105990004FF0080A10F8014B0A900599AAEB090A82
:1059A00034FA01F004FA09F4E4B204D117490968A1
:1059B000097C890717D415490968C96B0A680B92D5
:1059C0001F9A0AB152F82000086003991A98009BA8
:1059D0000A18DDE90210521EFFF756F90B490B9821
:1059E0000968C96B086003991A9808F1010808440E
:1059F0000390B845C8DB0C9802901D980BF1010B81
:105A00000644AB45A8DB47E7B4000020880000202F
:105A1000A0000020002818D0410817D0810817D016
:105A2000C10817D0010917D0410917D0010A17D0B2
:105A3000410A17D0010B15D0C10B13D0010C11D0A6
:105A4000810C11D0000E11D020207047012070472A
:105A500002207047032070470420704705207047DC
:105A60000820704710207047122070471820704798
:105A700000B50022FFF7CEFF012804D0811E0629C1
:105A800003D808220BE0012209E0A0F1090107294F
:105A900001D8102203E011380F2800D82022104628
:105AA00000BD0000074910B5054808600846FDF72D
:105AB000F5FB002803D0BDE81040FBF7B8B810BDD7
:105AC00000300240000000202DE9F04788B01C2182
:105AD0006846FAF7CDFB2A4806210024C0E90214E3
